{
  "contractName": "Diplomachain",
  "abi": [
    {
      "inputs": [],
      "stateMutability": "nonpayable",
      "type": "constructor"
    },
    {
      "anonymous": false,
      "inputs": [
        {
          "indexed": false,
          "internalType": "bytes32",
          "name": "diplomaId",
          "type": "bytes32"
        }
      ],
      "name": "LogAddDiploma",
      "type": "event"
    },
    {
      "anonymous": false,
      "inputs": [
        {
          "indexed": false,
          "internalType": "bytes32",
          "name": "diplomaBlueprintId",
          "type": "bytes32"
        }
      ],
      "name": "LogAddDiplomaBlueprint",
      "type": "event"
    },
    {
      "anonymous": false,
      "inputs": [
        {
          "indexed": false,
          "internalType": "address",
          "name": "studentId",
          "type": "address"
        }
      ],
      "name": "LogAddStudent",
      "type": "event"
    },
    {
      "anonymous": false,
      "inputs": [
        {
          "indexed": false,
          "internalType": "bytes32",
          "name": "diplomaId",
          "type": "bytes32"
        }
      ],
      "name": "LogDeleteDiploma",
      "type": "event"
    },
    {
      "anonymous": false,
      "inputs": [
        {
          "indexed": false,
          "internalType": "address",
          "name": "studentId",
          "type": "address"
        }
      ],
      "name": "LogDeleteStudent",
      "type": "event"
    },
    {
      "anonymous": false,
      "inputs": [
        {
          "indexed": false,
          "internalType": "address",
          "name": "studentId",
          "type": "address"
        }
      ],
      "name": "LogRequestDiploma",
      "type": "event"
    },
    {
      "inputs": [],
      "name": "diplomaBlueprintsCount",
      "outputs": [
        {
          "internalType": "uint256",
          "name": "",
          "type": "uint256"
        }
      ],
      "stateMutability": "view",
      "type": "function",
      "constant": true
    },
    {
      "inputs": [
        {
          "internalType": "uint256",
          "name": "",
          "type": "uint256"
        }
      ],
      "name": "diplomas",
      "outputs": [
        {
          "internalType": "bytes32",
          "name": "id",
          "type": "bytes32"
        },
        {
          "internalType": "bytes32",
          "name": "blueprintId",
          "type": "bytes32"
        },
        {
          "internalType": "address",
          "name": "owner",
          "type": "address"
        },
        {
          "internalType": "address",
          "name": "issuer",
          "type": "address"
        },
        {
          "internalType": "string",
          "name": "honors",
          "type": "string"
        },
        {
          "internalType": "uint256",
          "name": "dateObtained",
          "type": "uint256"
        }
      ],
      "stateMutability": "view",
      "type": "function",
      "constant": true
    },
    {
      "inputs": [],
      "name": "diplomasCount",
      "outputs": [
        {
          "internalType": "uint256",
          "name": "",
          "type": "uint256"
        }
      ],
      "stateMutability": "view",
      "type": "function",
      "constant": true
    },
    {
      "inputs": [
        {
          "internalType": "bytes32",
          "name": "",
          "type": "bytes32"
        }
      ],
      "name": "diplomasIndexes",
      "outputs": [
        {
          "internalType": "uint256",
          "name": "",
          "type": "uint256"
        }
      ],
      "stateMutability": "view",
      "type": "function",
      "constant": true
    },
    {
      "inputs": [
        {
          "internalType": "uint256",
          "name": "",
          "type": "uint256"
        }
      ],
      "name": "pendingDiplomas",
      "outputs": [
        {
          "internalType": "bytes32",
          "name": "id",
          "type": "bytes32"
        },
        {
          "internalType": "bytes32",
          "name": "blueprintId",
          "type": "bytes32"
        },
        {
          "internalType": "address",
          "name": "owner",
          "type": "address"
        },
        {
          "internalType": "address",
          "name": "issuer",
          "type": "address"
        },
        {
          "internalType": "string",
          "name": "honors",
          "type": "string"
        },
        {
          "internalType": "uint256",
          "name": "dateObtained",
          "type": "uint256"
        }
      ],
      "stateMutability": "view",
      "type": "function",
      "constant": true
    },
    {
      "inputs": [],
      "name": "pendingDiplomasCount",
      "outputs": [
        {
          "internalType": "uint256",
          "name": "",
          "type": "uint256"
        }
      ],
      "stateMutability": "view",
      "type": "function",
      "constant": true
    },
    {
      "inputs": [
        {
          "internalType": "bytes32",
          "name": "",
          "type": "bytes32"
        }
      ],
      "name": "pendingDiplomasIndexes",
      "outputs": [
        {
          "internalType": "uint256",
          "name": "",
          "type": "uint256"
        }
      ],
      "stateMutability": "view",
      "type": "function",
      "constant": true
    },
    {
      "inputs": [
        {
          "internalType": "uint256",
          "name": "",
          "type": "uint256"
        }
      ],
      "name": "students",
      "outputs": [
        {
          "internalType": "address",
          "name": "id",
          "type": "address"
        },
        {
          "internalType": "string",
          "name": "firstName",
          "type": "string"
        },
        {
          "internalType": "string",
          "name": "lastName",
          "type": "string"
        },
        {
          "internalType": "string",
          "name": "email",
          "type": "string"
        }
      ],
      "stateMutability": "view",
      "type": "function",
      "constant": true
    },
    {
      "inputs": [],
      "name": "studentsCount",
      "outputs": [
        {
          "internalType": "uint256",
          "name": "",
          "type": "uint256"
        }
      ],
      "stateMutability": "view",
      "type": "function",
      "constant": true
    },
    {
      "inputs": [
        {
          "internalType": "bytes32",
          "name": "diplomaId",
          "type": "bytes32"
        }
      ],
      "name": "getDiploma",
      "outputs": [
        {
          "components": [
            {
              "internalType": "bytes32",
              "name": "id",
              "type": "bytes32"
            },
            {
              "internalType": "bytes32",
              "name": "blueprintId",
              "type": "bytes32"
            },
            {
              "internalType": "address",
              "name": "owner",
              "type": "address"
            },
            {
              "internalType": "address",
              "name": "issuer",
              "type": "address"
            },
            {
              "internalType": "string",
              "name": "honors",
              "type": "string"
            },
            {
              "internalType": "uint256",
              "name": "dateObtained",
              "type": "uint256"
            }
          ],
          "internalType": "struct Diploma",
          "name": "",
          "type": "tuple"
        }
      ],
      "stateMutability": "view",
      "type": "function",
      "constant": true
    },
    {
      "inputs": [
        {
          "internalType": "string",
          "name": "_firstName",
          "type": "string"
        },
        {
          "internalType": "string",
          "name": "_lastName",
          "type": "string"
        },
        {
          "internalType": "string",
          "name": "_email",
          "type": "string"
        },
        {
          "internalType": "bytes32[]",
          "name": "_diplomas",
          "type": "bytes32[]"
        }
      ],
      "name": "addStudent",
      "outputs": [],
      "stateMutability": "nonpayable",
      "type": "function"
    },
    {
      "inputs": [
        {
          "internalType": "address",
          "name": "student_addr",
          "type": "address"
        }
      ],
      "name": "getStudent",
      "outputs": [
        {
          "components": [
            {
              "internalType": "address",
              "name": "id",
              "type": "address"
            },
            {
              "internalType": "string",
              "name": "firstName",
              "type": "string"
            },
            {
              "internalType": "string",
              "name": "lastName",
              "type": "string"
            },
            {
              "internalType": "string",
              "name": "email",
              "type": "string"
            },
            {
              "internalType": "bytes32[]",
              "name": "diplomas",
              "type": "bytes32[]"
            }
          ],
          "internalType": "struct Student",
          "name": "",
          "type": "tuple"
        }
      ],
      "stateMutability": "view",
      "type": "function",
      "constant": true
    },
    {
      "inputs": [
        {
          "internalType": "bytes32",
          "name": "_id",
          "type": "bytes32"
        }
      ],
      "name": "addDiploma",
      "outputs": [],
      "stateMutability": "nonpayable",
      "type": "function"
    },
    {
      "inputs": [
        {
          "internalType": "address",
          "name": "owner",
          "type": "address"
        },
        {
          "internalType": "bytes32",
          "name": "blueprintId",
          "type": "bytes32"
        },
        {
          "internalType": "string",
          "name": "_honors",
          "type": "string"
        },
        {
          "internalType": "uint256",
          "name": "_dateObtained",
          "type": "uint256"
        }
      ],
      "name": "issueDiploma",
      "outputs": [],
      "stateMutability": "nonpayable",
      "type": "function"
    },
    {
      "inputs": [],
      "name": "isStudent",
      "outputs": [
        {
          "internalType": "bool",
          "name": "",
          "type": "bool"
        }
      ],
      "stateMutability": "view",
      "type": "function",
      "constant": true
    },
    {
      "inputs": [],
      "name": "isAdmin",
      "outputs": [
        {
          "internalType": "bool",
          "name": "",
          "type": "bool"
        }
      ],
      "stateMutability": "view",
      "type": "function",
      "constant": true
    },
    {
      "inputs": [],
      "name": "getStudents",
      "outputs": [
        {
          "components": [
            {
              "internalType": "address",
              "name": "id",
              "type": "address"
            },
            {
              "internalType": "string",
              "name": "firstName",
              "type": "string"
            },
            {
              "internalType": "string",
              "name": "lastName",
              "type": "string"
            },
            {
              "internalType": "string",
              "name": "email",
              "type": "string"
            },
            {
              "internalType": "bytes32[]",
              "name": "diplomas",
              "type": "bytes32[]"
            }
          ],
          "internalType": "struct Student[]",
          "name": "",
          "type": "tuple[]"
        }
      ],
      "stateMutability": "view",
      "type": "function",
      "constant": true
    },
    {
      "inputs": [],
      "name": "getDiplomas",
      "outputs": [
        {
          "components": [
            {
              "internalType": "bytes32",
              "name": "id",
              "type": "bytes32"
            },
            {
              "internalType": "bytes32",
              "name": "blueprintId",
              "type": "bytes32"
            },
            {
              "internalType": "address",
              "name": "owner",
              "type": "address"
            },
            {
              "internalType": "address",
              "name": "issuer",
              "type": "address"
            },
            {
              "internalType": "string",
              "name": "honors",
              "type": "string"
            },
            {
              "internalType": "uint256",
              "name": "dateObtained",
              "type": "uint256"
            }
          ],
          "internalType": "struct Diploma[]",
          "name": "",
          "type": "tuple[]"
        }
      ],
      "stateMutability": "view",
      "type": "function",
      "constant": true
    },
    {
      "inputs": [
        {
          "internalType": "address",
          "name": "studentId",
          "type": "address"
        }
      ],
      "name": "getStudentDiplomas",
      "outputs": [
        {
          "components": [
            {
              "internalType": "bytes32",
              "name": "id",
              "type": "bytes32"
            },
            {
              "internalType": "bytes32",
              "name": "blueprintId",
              "type": "bytes32"
            },
            {
              "internalType": "address",
              "name": "owner",
              "type": "address"
            },
            {
              "internalType": "address",
              "name": "issuer",
              "type": "address"
            },
            {
              "internalType": "string",
              "name": "honors",
              "type": "string"
            },
            {
              "internalType": "uint256",
              "name": "dateObtained",
              "type": "uint256"
            }
          ],
          "internalType": "struct Diploma[]",
          "name": "",
          "type": "tuple[]"
        }
      ],
      "stateMutability": "view",
      "type": "function",
      "constant": true
    },
    {
      "inputs": [
        {
          "internalType": "bytes32",
          "name": "blueprintId",
          "type": "bytes32"
        },
        {
          "internalType": "string",
          "name": "_honors",
          "type": "string"
        },
        {
          "internalType": "uint256",
          "name": "_dateObtained",
          "type": "uint256"
        }
      ],
      "name": "requestDiploma",
      "outputs": [],
      "stateMutability": "nonpayable",
      "type": "function"
    },
    {
      "inputs": [
        {
          "internalType": "string",
          "name": "title",
          "type": "string"
        },
        {
          "internalType": "string",
          "name": "description",
          "type": "string"
        },
        {
          "internalType": "string",
          "name": "speciality",
          "type": "string"
        },
        {
          "internalType": "bytes32[]",
          "name": "_diplomas",
          "type": "bytes32[]"
        }
      ],
      "name": "addDiplomaBlueprint",
      "outputs": [],
      "stateMutability": "nonpayable",
      "type": "function"
    },
    {
      "inputs": [
        {
          "internalType": "bytes32",
          "name": "id",
          "type": "bytes32"
        }
      ],
      "name": "getDiplomaBlueprint",
      "outputs": [
        {
          "components": [
            {
              "internalType": "bytes32",
              "name": "id",
              "type": "bytes32"
            },
            {
              "internalType": "address",
              "name": "issuer",
              "type": "address"
            },
            {
              "internalType": "string",
              "name": "title",
              "type": "string"
            },
            {
              "internalType": "string",
              "name": "description",
              "type": "string"
            },
            {
              "internalType": "string",
              "name": "speciality",
              "type": "string"
            },
            {
              "internalType": "bytes32[]",
              "name": "diplomas",
              "type": "bytes32[]"
            }
          ],
          "internalType": "struct DiplomaBluePrint",
          "name": "",
          "type": "tuple"
        }
      ],
      "stateMutability": "view",
      "type": "function",
      "constant": true
    },
    {
      "inputs": [],
      "name": "getDiplomaBlueprints",
      "outputs": [
        {
          "components": [
            {
              "internalType": "bytes32",
              "name": "id",
              "type": "bytes32"
            },
            {
              "internalType": "address",
              "name": "issuer",
              "type": "address"
            },
            {
              "internalType": "string",
              "name": "title",
              "type": "string"
            },
            {
              "internalType": "string",
              "name": "description",
              "type": "string"
            },
            {
              "internalType": "string",
              "name": "speciality",
              "type": "string"
            },
            {
              "internalType": "bytes32[]",
              "name": "diplomas",
              "type": "bytes32[]"
            }
          ],
          "internalType": "struct DiplomaBluePrint[]",
          "name": "",
          "type": "tuple[]"
        }
      ],
      "stateMutability": "view",
      "type": "function",
      "constant": true
    },
    {
      "inputs": [
        {
          "internalType": "bytes32",
          "name": "id",
          "type": "bytes32"
        }
      ],
      "name": "getDiplomasByBlueprint",
      "outputs": [
        {
          "components": [
            {
              "internalType": "bytes32",
              "name": "id",
              "type": "bytes32"
            },
            {
              "internalType": "bytes32",
              "name": "blueprintId",
              "type": "bytes32"
            },
            {
              "internalType": "address",
              "name": "owner",
              "type": "address"
            },
            {
              "internalType": "address",
              "name": "issuer",
              "type": "address"
            },
            {
              "internalType": "string",
              "name": "honors",
              "type": "string"
            },
            {
              "internalType": "uint256",
              "name": "dateObtained",
              "type": "uint256"
            }
          ],
          "internalType": "struct Diploma[]",
          "name": "",
          "type": "tuple[]"
        }
      ],
      "stateMutability": "view",
      "type": "function",
      "constant": true
    }
  ],
  "bytecode": "0x608060405234801561001057600080fd5b5033600c60006101000a81548173ffffffffffffffffffffffffffffffffffffffff021916908373ffffffffffffffffffffffffffffffffffffffff1602179055506000600281905550600060058190555060006008819055506000600b8190555061511a806100816000396000f3fe608060405234801561001057600080fd5b50600436106101585760003560e01c806368dae994116100c3578063d1b932921161007c578063d1b93292146103fc578063d49f59731461042c578063d9d0350b14610448578063e8c2ecd614610478578063ef34a46b14610496578063f1d064b3146104c657610158565b806368dae9941461031f5780636b7b44d71461033d578063871e4fae1461036d57806395f378e81461038b578063b6db75a0146103c0578063c9675e13146103de57610158565b806335dfc1c31161011557806335dfc1c31461024657806349f8db5c1461027b57806351e0a6eb146102ab5780635987ba2b146102c957806364d1d1ff146102e557806368433a3a1461030157610158565b806306ead22e1461015d5780630e5f1322146101905780631be6a625146101ac5780632b04cb77146101c857806333c89983146101f85780633507990414610216575b600080fd5b61017760048036038101906101729190613eb7565b6104e4565b6040516101879493929190614a51565b60405180910390f35b6101aa60048036038101906101a59190613ce9565b61070c565b005b6101c660048036038101906101c19190613d8d565b610ad9565b005b6101e260048036038101906101dd9190613d64565b610e12565b6040516101ef9190614d51565b60405180910390f35b610200611020565b60405161020d9190614d95565b60405180910390f35b610230600480360381019061022b9190613d64565b611026565b60405161023d9190614d95565b60405180910390f35b610260600480360381019061025b9190613eb7565b61103e565b60405161027296959493929190614b47565b60405180910390f35b61029560048036038101906102909190613d64565b611162565b6040516102a29190614d2f565b60405180910390f35b6102b3611532565b6040516102c09190614b11565b60405180910390f35b6102e360048036038101906102de9190613df4565b61157b565b005b6102ff60048036038101906102fa9190613d64565b611837565b005b610309611c7c565b6040516103169190614d95565b60405180910390f35b610327611c82565b6040516103349190614aab565b60405180910390f35b61035760048036038101906103529190613cc0565b61200f565b6040516103649190614d73565b60405180910390f35b61037561239a565b6040516103829190614d95565b60405180910390f35b6103a560048036038101906103a09190613eb7565b6123a0565b6040516103b796959493929190614b47565b60405180910390f35b6103c86124c4565b6040516103d59190614b11565b60405180910390f35b6103e661251c565b6040516103f39190614d95565b60405180910390f35b61041660048036038101906104119190613cc0565b612522565b6040516104239190614acd565b60405180910390f35b61044660048036038101906104419190613df4565b61296a565b005b610462600480360381019061045d9190613d64565b612c3a565b60405161046f9190614d95565b60405180910390f35b610480612c52565b60405161048d9190614acd565b60405180910390f35b6104b060048036038101906104ab9190613d64565b612ead565b6040516104bd9190614acd565b60405180910390f35b6104ce61326a565b6040516104db9190614aef565b60405180910390f35b600181815481106104f457600080fd5b90600052602060002090600502016000915090508060000160009054906101000a900473ffffffffffffffffffffffffffffffffffffffff1690806001018054600181600116156101000203166002900480601f0160208091040260200160405190810160405280929190818152602001828054600181600116156101000203166002900480156105c65780601f1061059b576101008083540402835291602001916105c6565b820191906000526020600020905b8154815290600101906020018083116105a957829003601f168201915b505050505090806002018054600181600116156101000203166002900480601f0160208091040260200160405190810160405280929190818152602001828054600181600116156101000203166002900480156106645780601f1061063957610100808354040283529160200191610664565b820191906000526020600020905b81548152906001019060200180831161064757829003601f168201915b505050505090806003018054600181600116156101000203166002900480601f0160208091040260200160405190810160405280929190818152602001828054600181600116156101000203166002900480156107025780601f106106d757610100808354040283529160200191610702565b820191906000526020600020905b8154815290600101906020018083116106e557829003601f168201915b5050505050905084565b600c60009054906101000a900473ffffffffffffffffffffffffffffffffffffffff1673ffffffffffffffffffffffffffffffffffffffff163373ffffffffffffffffffffffffffffffffffffffff161461079c576040517f08c379a000000000000000000000000000000000000000000000000000000000815260040161079390614cef565b60405180910390fd5b60008060008673ffffffffffffffffffffffffffffffffffffffff1673ffffffffffffffffffffffffffffffffffffffff16815260200190815260200160002054141561081e576040517f08c379a000000000000000000000000000000000000000000000000000000000815260040161081590614c4f565b60405180910390fd5b600084600c60009054906101000a900473ffffffffffffffffffffffffffffffffffffffff1685858560405160200161085b9594939291906149db565b604051602081830303815290604052805190602001209050600560008154809291906001019190505550600160048054905001600360008381526020019081526020016000208190555060046040518060c001604052808381526020018681526020018773ffffffffffffffffffffffffffffffffffffffff168152602001600c60009054906101000a900473ffffffffffffffffffffffffffffffffffffffff1673ffffffffffffffffffffffffffffffffffffffff168152602001858152602001848152509080600181540180825580915050600190039060005260206000209060060201600090919091909150600082015181600001556020820151816001015560408201518160020160006101000a81548173ffffffffffffffffffffffffffffffffffffffff021916908373ffffffffffffffffffffffffffffffffffffffff16021790555060608201518160030160006101000a81548173ffffffffffffffffffffffffffffffffffffffff021916908373ffffffffffffffffffffffffffffffffffffffff1602179055506080820151816004019080519060200190610a09929190613895565b5060a0820151816005015550506001806000808873ffffffffffffffffffffffffffffffffffffffff1673ffffffffffffffffffffffffffffffffffffffff168152602001908152602001600020540381548110610a6357fe5b90600052602060002090600502016004018190806001815401808255809150506001900390600052602060002001600090919091909150557f85ca0491ab0b66b547f1a84afd331fd6b696683df09c1392444c8b10f37dd59f81604051610aca9190614b2c565b60405180910390a15050505050565b60008060003373ffffffffffffffffffffffffffffffffffffffff1673ffffffffffffffffffffffffffffffffffffffff168152602001908152602001600020541415610b5b576040517f08c379a0000000000000000000000000000000000000000000000000000000008152600401610b5290614c4f565b60405180910390fd5b60008060003373ffffffffffffffffffffffffffffffffffffffff1673ffffffffffffffffffffffffffffffffffffffff168152602001908152602001600020541415610bdd576040517f08c379a0000000000000000000000000000000000000000000000000000000008152600401610bd490614c8f565b60405180910390fd5b600033600c60009054906101000a900473ffffffffffffffffffffffffffffffffffffffff16858585604051602001610c1a95949392919061493e565b604051602081830303815290604052805190602001209050600860008154809291906001019190505550600160078054905001600660008381526020019081526020016000208190555060076040518060c001604052808381526020018681526020013373ffffffffffffffffffffffffffffffffffffffff168152602001600c60009054906101000a900473ffffffffffffffffffffffffffffffffffffffff1673ffffffffffffffffffffffffffffffffffffffff168152602001858152602001848152509080600181540180825580915050600190039060005260206000209060060201600090919091909150600082015181600001556020820151816001015560408201518160020160006101000a81548173ffffffffffffffffffffffffffffffffffffffff021916908373ffffffffffffffffffffffffffffffffffffffff16021790555060608201518160030160006101000a81548173ffffffffffffffffffffffffffffffffffffffff021916908373ffffffffffffffffffffffffffffffffffffffff1602179055506080820151816004019080519060200190610dc8929190613895565b5060a0820151816005015550507f2af1e75a3d834b77fa1b758eb75b9dd0d5445d40fe11ad4f71eec52c77ae812c33604051610e049190614a36565b60405180910390a150505050565b610e1a613923565b600060036000848152602001908152602001600020541415610e71576040517f08c379a0000000000000000000000000000000000000000000000000000000008152600401610e6890614baf565b60405180910390fd5b6004600160036000858152602001908152602001600020540381548110610e9457fe5b90600052602060002090600602016040518060c001604052908160008201548152602001600182015481526020016002820160009054906101000a900473ffffffffffffffffffffffffffffffffffffffff1673ffffffffffffffffffffffffffffffffffffffff1673ffffffffffffffffffffffffffffffffffffffff1681526020016003820160009054906101000a900473ffffffffffffffffffffffffffffffffffffffff1673ffffffffffffffffffffffffffffffffffffffff1673ffffffffffffffffffffffffffffffffffffffff168152602001600482018054600181600116156101000203166002900480601f0160208091040260200160405190810160405280929190818152602001828054600181600116156101000203166002900480156110065780601f10610fdb57610100808354040283529160200191611006565b820191906000526020600020905b815481529060010190602001808311610fe957829003601f168201915b505050505081526020016005820154815250509050919050565b60085481565b60036020528060005260406000206000915090505481565b6004818154811061104e57600080fd5b90600052602060002090600602016000915090508060000154908060010154908060020160009054906101000a900473ffffffffffffffffffffffffffffffffffffffff16908060030160009054906101000a900473ffffffffffffffffffffffffffffffffffffffff1690806004018054600181600116156101000203166002900480601f0160208091040260200160405190810160405280929190818152602001828054600181600116156101000203166002900480156111525780601f1061112757610100808354040283529160200191611152565b820191906000526020600020905b81548152906001019060200180831161113557829003601f168201915b5050505050908060050154905086565b61116a61398b565b600c60009054906101000a900473ffffffffffffffffffffffffffffffffffffffff1673ffffffffffffffffffffffffffffffffffffffff163373ffffffffffffffffffffffffffffffffffffffff16146111fa576040517f08c379a00000000000000000000000000000000000000000000000000000000081526004016111f190614cef565b60405180910390fd5b600060096000848152602001908152602001600020541415611251576040517f08c379a000000000000000000000000000000000000000000000000000000000815260040161124890614bcf565b60405180910390fd5b600a60016009600085815260200190815260200160002054038154811061127457fe5b90600052602060002090600602016040518060c0016040529081600082015481526020016001820160009054906101000a900473ffffffffffffffffffffffffffffffffffffffff1673ffffffffffffffffffffffffffffffffffffffff1673ffffffffffffffffffffffffffffffffffffffff168152602001600282018054600181600116156101000203166002900480601f0160208091040260200160405190810160405280929190818152602001828054600181600116156101000203166002900480156113865780601f1061135b57610100808354040283529160200191611386565b820191906000526020600020905b81548152906001019060200180831161136957829003601f168201915b50505050508152602001600382018054600181600116156101000203166002900480601f0160208091040260200160405190810160405280929190818152602001828054600181600116156101000203166002900480156114285780601f106113fd57610100808354040283529160200191611428565b820191906000526020600020905b81548152906001019060200180831161140b57829003601f168201915b50505050508152602001600482018054600181600116156101000203166002900480601f0160208091040260200160405190810160405280929190818152602001828054600181600116156101000203166002900480156114ca5780601f1061149f576101008083540402835291602001916114ca565b820191906000526020600020905b8154815290600101906020018083116114ad57829003601f168201915b505050505081526020016005820180548060200260200160405190810160405280929190818152602001828054801561152257602002820191906000526020600020905b81548152602001906001019080831161150e575b5050505050815250509050919050565b6000806000803373ffffffffffffffffffffffffffffffffffffffff1673ffffffffffffffffffffffffffffffffffffffff168152602001908152602001600020541415905090565b600c60009054906101000a900473ffffffffffffffffffffffffffffffffffffffff1673ffffffffffffffffffffffffffffffffffffffff163373ffffffffffffffffffffffffffffffffffffffff161461160b576040517f08c379a000000000000000000000000000000000000000000000000000000000815260040161160290614cef565b60405180910390fd5b6000338585856040516020016116249493929190614999565b6040516020818303038152906040528051906020012090506000600960008381526020019081526020016000205414611692576040517f08c379a000000000000000000000000000000000000000000000000000000000815260040161168990614c0f565b60405180910390fd5b600b600081548092919060010191905055506001600a80549050016009600083815260200190815260200160002081905550600a6040518060c001604052808381526020013373ffffffffffffffffffffffffffffffffffffffff1681526020018781526020018681526020018581526020018481525090806001815401808255809150506001900390600052602060002090600602016000909190919091506000820151816000015560208201518160010160006101000a81548173ffffffffffffffffffffffffffffffffffffffff021916908373ffffffffffffffffffffffffffffffffffffffff160217905550604082015181600201908051906020019061179f929190613895565b5060608201518160030190805190602001906117bc929190613895565b5060808201518160040190805190602001906117d9929190613895565b5060a08201518160050190805190602001906117f69291906139da565b5050507f5b68fe5442674e45f7f9f2b84968035c6d9ac90a8f7648d943c63c8b250df5bd816040516118289190614b2c565b60405180910390a15050505050565b600c60009054906101000a900473ffffffffffffffffffffffffffffffffffffffff1673ffffffffffffffffffffffffffffffffffffffff163373ffffffffffffffffffffffffffffffffffffffff16146118c7576040517f08c379a00000000000000000000000000000000000000000000000000000000081526004016118be90614cef565b60405180910390fd5b600060036000838152602001908152602001600020541461191d576040517f08c379a000000000000000000000000000000000000000000000000000000000815260040161191490614c6f565b60405180910390fd5b600060066000838152602001908152602001600020541415611974576040517f08c379a000000000000000000000000000000000000000000000000000000000815260040161196b90614caf565b60405180910390fd5b6005600081548092919060010191905055506001600480549050016003600083815260200190815260200160002081905550600460076001600660008581526020019081526020016000205403815481106119cb57fe5b9060005260206000209060060201908060018154018082558091505060019003906000526020600020906006020160009091909190915060008201548160000155600182015481600101556002820160009054906101000a900473ffffffffffffffffffffffffffffffffffffffff168160020160006101000a81548173ffffffffffffffffffffffffffffffffffffffff021916908373ffffffffffffffffffffffffffffffffffffffff1602179055506003820160009054906101000a900473ffffffffffffffffffffffffffffffffffffffff168160030160006101000a81548173ffffffffffffffffffffffffffffffffffffffff021916908373ffffffffffffffffffffffffffffffffffffffff16021790555060048201816004019080546001816001161561010002031660029004611b0b929190613a27565b5060058201548160050155505060006007600160066000858152602001908152602001600020540381548110611b3d57fe5b906000526020600020906006020160020160009054906101000a900473ffffffffffffffffffffffffffffffffffffffff1690506001806000808473ffffffffffffffffffffffffffffffffffffffff1673ffffffffffffffffffffffffffffffffffffffff168152602001908152602001600020540381548110611bbe57fe5b9060005260206000209060050201600401829080600181540180825580915050600190039060005260206000200160009091909190915055611c17600760016006600086815260200190815260200160002054036135ed565b6006600083815260200190815260200160002060009055600860008154809291906001900391905055507f85ca0491ab0b66b547f1a84afd331fd6b696683df09c1392444c8b10f37dd59f82604051611c709190614b2c565b60405180910390a15050565b60025481565b6060600c60009054906101000a900473ffffffffffffffffffffffffffffffffffffffff1673ffffffffffffffffffffffffffffffffffffffff163373ffffffffffffffffffffffffffffffffffffffff1614611d14576040517f08c379a0000000000000000000000000000000000000000000000000000000008152600401611d0b90614cef565b60405180910390fd5b600a805480602002602001604051908101604052809291908181526020016000905b8282101561200657838290600052602060002090600602016040518060c0016040529081600082015481526020016001820160009054906101000a900473ffffffffffffffffffffffffffffffffffffffff1673ffffffffffffffffffffffffffffffffffffffff1673ffffffffffffffffffffffffffffffffffffffff168152602001600282018054600181600116156101000203166002900480601f016020809104026020016040519081016040528092919081815260200182805460018160011615610100020316600290048015611e525780601f10611e2757610100808354040283529160200191611e52565b820191906000526020600020905b815481529060010190602001808311611e3557829003601f168201915b50505050508152602001600382018054600181600116156101000203166002900480601f016020809104026020016040519081016040528092919081815260200182805460018160011615610100020316600290048015611ef45780601f10611ec957610100808354040283529160200191611ef4565b820191906000526020600020905b815481529060010190602001808311611ed757829003601f168201915b50505050508152602001600482018054600181600116156101000203166002900480601f016020809104026020016040519081016040528092919081815260200182805460018160011615610100020316600290048015611f965780601f10611f6b57610100808354040283529160200191611f96565b820191906000526020600020905b815481529060010190602001808311611f7957829003601f168201915b5050505050815260200160058201805480602002602001604051908101604052809291908181526020018280548015611fee57602002820191906000526020600020905b815481526020019060010190808311611fda575b50505050508152505081526020019060010190611d36565b50505050905090565b612017613abc565b60008060008473ffffffffffffffffffffffffffffffffffffffff1673ffffffffffffffffffffffffffffffffffffffff168152602001908152602001600020541415612099576040517f08c379a000000000000000000000000000000000000000000000000000000000815260040161209090614c2f565b60405180910390fd5b6001806000808573ffffffffffffffffffffffffffffffffffffffff1673ffffffffffffffffffffffffffffffffffffffff1681526020019081526020016000205403815481106120e657fe5b90600052602060002090600502016040518060a00160405290816000820160009054906101000a900473ffffffffffffffffffffffffffffffffffffffff1673ffffffffffffffffffffffffffffffffffffffff1673ffffffffffffffffffffffffffffffffffffffff168152602001600182018054600181600116156101000203166002900480601f0160208091040260200160405190810160405280929190818152602001828054600181600116156101000203166002900480156121ee5780601f106121c3576101008083540402835291602001916121ee565b820191906000526020600020905b8154815290600101906020018083116121d157829003601f168201915b50505050508152602001600282018054600181600116156101000203166002900480601f0160208091040260200160405190810160405280929190818152602001828054600181600116156101000203166002900480156122905780601f1061226557610100808354040283529160200191612290565b820191906000526020600020905b81548152906001019060200180831161227357829003601f168201915b50505050508152602001600382018054600181600116156101000203166002900480601f0160208091040260200160405190810160405280929190818152602001828054600181600116156101000203166002900480156123325780601f1061230757610100808354040283529160200191612332565b820191906000526020600020905b81548152906001019060200180831161231557829003601f168201915b505050505081526020016004820180548060200260200160405190810160405280929190818152602001828054801561238a57602002820191906000526020600020905b815481526020019060010190808311612376575b5050505050815250509050919050565b600b5481565b600781815481106123b057600080fd5b90600052602060002090600602016000915090508060000154908060010154908060020160009054906101000a900473ffffffffffffffffffffffffffffffffffffffff16908060030160009054906101000a900473ffffffffffffffffffffffffffffffffffffffff1690806004018054600181600116156101000203166002900480601f0160208091040260200160405190810160405280929190818152602001828054600181600116156101000203166002900480156124b45780601f10612489576101008083540402835291602001916124b4565b820191906000526020600020905b81548152906001019060200180831161249757829003601f168201915b5050505050908060050154905086565b6000600c60009054906101000a900473ffffffffffffffffffffffffffffffffffffffff1673ffffffffffffffffffffffffffffffffffffffff163373ffffffffffffffffffffffffffffffffffffffff1614905090565b60055481565b60608173ffffffffffffffffffffffffffffffffffffffff163373ffffffffffffffffffffffffffffffffffffffff1614806125ab5750600c60009054906101000a900473ffffffffffffffffffffffffffffffffffffffff1673ffffffffffffffffffffffffffffffffffffffff163373ffffffffffffffffffffffffffffffffffffffff16145b6125ea576040517f08c379a00000000000000000000000000000000000000000000000000000000081526004016125e190614bef565b60405180910390fd5b60008060008473ffffffffffffffffffffffffffffffffffffffff1673ffffffffffffffffffffffffffffffffffffffff16815260200190815260200160002054141561266c576040517f08c379a000000000000000000000000000000000000000000000000000000000815260040161266390614c8f565b60405180910390fd5b60006001806000808673ffffffffffffffffffffffffffffffffffffffff1673ffffffffffffffffffffffffffffffffffffffff1681526020019081526020016000205403815481106126bb57fe5b906000526020600020906005020160040180548060200260200160405190810160405280929190818152602001828054801561271657602002820191906000526020600020905b815481526020019060010190808311612702575b505050505090506000815167ffffffffffffffff8111801561273757600080fd5b5060405190808252806020026020018201604052801561277157816020015b61275e613923565b8152602001906001900390816127565790505b50905060005b825181101561295f57600460016003600086858151811061279457fe5b602002602001015181526020019081526020016000205403815481106127b657fe5b90600052602060002090600602016040518060c001604052908160008201548152602001600182015481526020016002820160009054906101000a900473ffffffffffffffffffffffffffffffffffffffff1673ffffffffffffffffffffffffffffffffffffffff1673ffffffffffffffffffffffffffffffffffffffff1681526020016003820160009054906101000a900473ffffffffffffffffffffffffffffffffffffffff1673ffffffffffffffffffffffffffffffffffffffff1673ffffffffffffffffffffffffffffffffffffffff168152602001600482018054600181600116156101000203166002900480601f0160208091040260200160405190810160405280929190818152602001828054600181600116156101000203166002900480156129285780601f106128fd57610100808354040283529160200191612928565b820191906000526020600020905b81548152906001019060200180831161290b57829003601f168201915b5050505050815260200160058201548152505082828151811061294757fe5b60200260200101819052508080600101915050612777565b508092505050919050565b60008060003373ffffffffffffffffffffffffffffffffffffffff1673ffffffffffffffffffffffffffffffffffffffff16815260200190815260200160002054146129eb576040517f08c379a00000000000000000000000000000000000000000000000000000000081526004016129e290614ccf565b60405180910390fd5b600c60009054906101000a900473ffffffffffffffffffffffffffffffffffffffff1673ffffffffffffffffffffffffffffffffffffffff163373ffffffffffffffffffffffffffffffffffffffff161415612a7c576040517f08c379a0000000000000000000000000000000000000000000000000000000008152600401612a7390614d0f565b60405180910390fd5b60026000815480929190600101919050555060018080549050016000803373ffffffffffffffffffffffffffffffffffffffff1673ffffffffffffffffffffffffffffffffffffffff1681526020019081526020016000208190555060016040518060a001604052803373ffffffffffffffffffffffffffffffffffffffff16815260200186815260200185815260200184815260200183815250908060018154018082558091505060019003906000526020600020906005020160009091909190915060008201518160000160006101000a81548173ffffffffffffffffffffffffffffffffffffffff021916908373ffffffffffffffffffffffffffffffffffffffff1602179055506020820151816001019080519060200190612ba3929190613895565b506040820151816002019080519060200190612bc0929190613895565b506060820151816003019080519060200190612bdd929190613895565b506080820151816004019080519060200190612bfa9291906139da565b5050507f2e5ed1b0817b286babe64f1c37ad94d371cb8c9f6d9a1d83345f8d521fcaae0b33604051612c2c9190614a36565b60405180910390a150505050565b60066020528060005260406000206000915090505481565b6060600c60009054906101000a900473ffffffffffffffffffffffffffffffffffffffff1673ffffffffffffffffffffffffffffffffffffffff163373ffffffffffffffffffffffffffffffffffffffff1614612ce4576040517f08c379a0000000000000000000000000000000000000000000000000000000008152600401612cdb90614cef565b60405180910390fd5b6004805480602002602001604051908101604052809291908181526020016000905b82821015612ea457838290600052602060002090600602016040518060c001604052908160008201548152602001600182015481526020016002820160009054906101000a900473ffffffffffffffffffffffffffffffffffffffff1673ffffffffffffffffffffffffffffffffffffffff1673ffffffffffffffffffffffffffffffffffffffff1681526020016003820160009054906101000a900473ffffffffffffffffffffffffffffffffffffffff1673ffffffffffffffffffffffffffffffffffffffff1673ffffffffffffffffffffffffffffffffffffffff168152602001600482018054600181600116156101000203166002900480601f016020809104026020016040519081016040528092919081815260200182805460018160011615610100020316600290048015612e825780601f10612e5757610100808354040283529160200191612e82565b820191906000526020600020905b815481529060010190602001808311612e6557829003601f168201915b5050505050815260200160058201548152505081526020019060010190612d06565b50505050905090565b6060600c60009054906101000a900473ffffffffffffffffffffffffffffffffffffffff1673ffffffffffffffffffffffffffffffffffffffff163373ffffffffffffffffffffffffffffffffffffffff1614612f3f576040517f08c379a0000000000000000000000000000000000000000000000000000000008152600401612f3690614cef565b60405180910390fd5b600060096000848152602001908152602001600020541415612f96576040517f08c379a0000000000000000000000000000000000000000000000000000000008152600401612f8d90614bcf565b60405180910390fd5b6000600a600160096000868152602001908152602001600020540381548110612fbb57fe5b906000526020600020906006020160050180548060200260200160405190810160405280929190818152602001828054801561301657602002820191906000526020600020905b815481526020019060010190808311613002575b505050505090506000815167ffffffffffffffff8111801561303757600080fd5b5060405190808252806020026020018201604052801561307157816020015b61305e613923565b8152602001906001900390816130565790505b50905060005b825181101561325f57600460016003600086858151811061309457fe5b602002602001015181526020019081526020016000205403815481106130b657fe5b90600052602060002090600602016040518060c001604052908160008201548152602001600182015481526020016002820160009054906101000a900473ffffffffffffffffffffffffffffffffffffffff1673ffffffffffffffffffffffffffffffffffffffff1673ffffffffffffffffffffffffffffffffffffffff1681526020016003820160009054906101000a900473ffffffffffffffffffffffffffffffffffffffff1673ffffffffffffffffffffffffffffffffffffffff1673ffffffffffffffffffffffffffffffffffffffff168152602001600482018054600181600116156101000203166002900480601f0160208091040260200160405190810160405280929190818152602001828054600181600116156101000203166002900480156132285780601f106131fd57610100808354040283529160200191613228565b820191906000526020600020905b81548152906001019060200180831161320b57829003601f168201915b5050505050815260200160058201548152505082828151811061324757fe5b60200260200101819052508080600101915050613077565b508092505050919050565b6060600c60009054906101000a900473ffffffffffffffffffffffffffffffffffffffff1673ffffffffffffffffffffffffffffffffffffffff163373ffffffffffffffffffffffffffffffffffffffff16146132fc576040517f08c379a00000000000000000000000000000000000000000000000000000000081526004016132f390614cef565b60405180910390fd5b6001805480602002602001604051908101604052809291908181526020016000905b828210156135e457838290600052602060002090600502016040518060a00160405290816000820160009054906101000a900473ffffffffffffffffffffffffffffffffffffffff1673ffffffffffffffffffffffffffffffffffffffff1673ffffffffffffffffffffffffffffffffffffffff168152602001600182018054600181600116156101000203166002900480601f0160208091040260200160405190810160405280929190818152602001828054600181600116156101000203166002900480156134305780601f1061340557610100808354040283529160200191613430565b820191906000526020600020905b81548152906001019060200180831161341357829003601f168201915b50505050508152602001600282018054600181600116156101000203166002900480601f0160208091040260200160405190810160405280929190818152602001828054600181600116156101000203166002900480156134d25780601f106134a7576101008083540402835291602001916134d2565b820191906000526020600020905b8154815290600101906020018083116134b557829003601f168201915b50505050508152602001600382018054600181600116156101000203166002900480601f0160208091040260200160405190810160405280929190818152602001828054600181600116156101000203166002900480156135745780601f1061354957610100808354040283529160200191613574565b820191906000526020600020905b81548152906001019060200180831161355757829003601f168201915b50505050508152602001600482018054806020026020016040519081016040528092919081815260200182805480156135cc57602002820191906000526020600020905b8154815260200190600101908083116135b8575b5050505050815250508152602001906001019061331e565b50505050905090565b60008190505b600183805490500381101561375d5782600182018154811061361157fe5b906000526020600020906006020183828154811061362b57fe5b906000526020600020906006020160008201548160000155600182015481600101556002820160009054906101000a900473ffffffffffffffffffffffffffffffffffffffff168160020160006101000a81548173ffffffffffffffffffffffffffffffffffffffff021916908373ffffffffffffffffffffffffffffffffffffffff1602179055506003820160009054906101000a900473ffffffffffffffffffffffffffffffffffffffff168160030160006101000a81548173ffffffffffffffffffffffffffffffffffffffff021916908373ffffffffffffffffffffffffffffffffffffffff16021790555060048201816004019080546001816001161561010002031660029004613742929190613a27565b506005820154816005015590505080806001019150506135f3565b508160018380549050038154811061377157fe5b906000526020600020906006020160008082016000905560018201600090556002820160006101000a81549073ffffffffffffffffffffffffffffffffffffffff02191690556003820160006101000a81549073ffffffffffffffffffffffffffffffffffffffff02191690556004820160006137ee9190613b01565b600582016000905550508180548061380257fe5b600190038181906000526020600020906006020160008082016000905560018201600090556002820160006101000a81549073ffffffffffffffffffffffffffffffffffffffff02191690556003820160006101000a81549073ffffffffffffffffffffffffffffffffffffffff02191690556004820160006138859190613b01565b6005820160009055505090555050565b828054600181600116156101000203166002900490600052602060002090601f0160209004810192826138cb5760008555613912565b82601f106138e457805160ff1916838001178555613912565b82800160010185558215613912579182015b828111156139115782518255916020019190600101906138f6565b5b50905061391f9190613b49565b5090565b6040518060c001604052806000801916815260200160008019168152602001600073ffffffffffffffffffffffffffffffffffffffff168152602001600073ffffffffffffffffffffffffffffffffffffffff16815260200160608152602001600081525090565b6040518060c0016040528060008019168152602001600073ffffffffffffffffffffffffffffffffffffffff168152602001606081526020016060815260200160608152602001606081525090565b828054828255906000526020600020908101928215613a16579160200282015b82811115613a155782518255916020019190600101906139fa565b5b509050613a239190613b66565b5090565b828054600181600116156101000203166002900490600052602060002090601f016020900481019282613a5d5760008555613aab565b82601f10613a6e5780548555613aab565b82800160010185558215613aab57600052602060002091601f016020900482015b82811115613aaa578254825591600101919060010190613a8f565b5b509050613ab89190613b49565b5090565b6040518060a00160405280600073ffffffffffffffffffffffffffffffffffffffff168152602001606081526020016060815260200160608152602001606081525090565b50805460018160011615610100020316600290046000825580601f10613b275750613b46565b601f016020900490600052602060002090810190613b459190613b49565b5b50565b5b80821115613b62576000816000905550600101613b4a565b5090565b5b80821115613b7f576000816000905550600101613b67565b5090565b6000613b96613b9184614de1565b614db0565b90508083825260208201905082856020860282011115613bb557600080fd5b60005b85811015613be55781613bcb8882613c6c565b845260208401935060208301925050600181019050613bb8565b5050509392505050565b6000613c02613bfd84614e0d565b614db0565b905082815260208101848484011115613c1a57600080fd5b613c25848285614ff3565b509392505050565b600081359050613c3c8161509f565b92915050565b600082601f830112613c5357600080fd5b8135613c63848260208601613b83565b91505092915050565b600081359050613c7b816150b6565b92915050565b600082601f830112613c9257600080fd5b8135613ca2848260208601613bef565b91505092915050565b600081359050613cba816150cd565b92915050565b600060208284031215613cd257600080fd5b6000613ce084828501613c2d565b91505092915050565b60008060008060808587031215613cff57600080fd5b6000613d0d87828801613c2d565b9450506020613d1e87828801613c6c565b935050604085013567ffffffffffffffff811115613d3b57600080fd5b613d4787828801613c81565b9250506060613d5887828801613cab565b91505092959194509250565b600060208284031215613d7657600080fd5b6000613d8484828501613c6c565b91505092915050565b600080600060608486031215613da257600080fd5b6000613db086828701613c6c565b935050602084013567ffffffffffffffff811115613dcd57600080fd5b613dd986828701613c81565b9250506040613dea86828701613cab565b9150509250925092565b60008060008060808587031215613e0a57600080fd5b600085013567ffffffffffffffff811115613e2457600080fd5b613e3087828801613c81565b945050602085013567ffffffffffffffff811115613e4d57600080fd5b613e5987828801613c81565b935050604085013567ffffffffffffffff811115613e7657600080fd5b613e8287828801613c81565b925050606085013567ffffffffffffffff811115613e9f57600080fd5b613eab87828801613c42565b91505092959194509250565b600060208284031215613ec957600080fd5b6000613ed784828501613cab565b91505092915050565b6000613eec838361415b565b60208301905092915050565b6000613f0483836145a5565b905092915050565b6000613f1883836146e1565b905092915050565b6000613f2c83836147f3565b905092915050565b613f3d81614fbd565b82525050565b613f54613f4f82614f6b565b615047565b82525050565b613f6381614f59565b82525050565b613f7281614f59565b82525050565b613f89613f8482614f59565b615035565b82525050565b6000613f9a82614e7d565b613fa48185614ee8565b9350613faf83614e3d565b8060005b83811015613fe0578151613fc78882613ee0565b9750613fd283614eb4565b925050600181019050613fb3565b5085935050505092915050565b6000613ff882614e88565b6140028185614ef9565b93508360208202850161401485614e4d565b8060005b8581101561405057848403895281516140318582613ef8565b945061403c83614ec1565b925060208a01995050600181019050614018565b50829750879550505050505092915050565b600061406d82614e93565b6140778185614f0a565b93508360208202850161408985614e5d565b8060005b858110156140c557848403895281516140a68582613f0c565b94506140b183614ece565b925060208a0199505060018101905061408d565b50829750879550505050505092915050565b60006140e282614e9e565b6140ec8185614f1b565b9350836020820285016140fe85614e6d565b8060005b8581101561413a578484038952815161411b8582613f20565b945061412683614edb565b925060208a01995050600181019050614102565b50829750879550505050505092915050565b61415581614f7d565b82525050565b61416481614f89565b82525050565b61417381614f89565b82525050565b61418a61418582614f89565b615059565b82525050565b600061419b82614ea9565b6141a58185614f2c565b93506141b5818560208601615002565b6141be81615081565b840191505092915050565b60006141d482614ea9565b6141de8185614f3d565b93506141ee818560208601615002565b6141f781615081565b840191505092915050565b600061420d82614ea9565b6142178185614f4e565b9350614227818560208601615002565b80840191505092915050565b6000614240602a83614f3d565b91507f596f752070726f766964656420616e20696e76616c6964206469706c6f6d612060008301527f6964656e746966696572000000000000000000000000000000000000000000006020830152604082019050919050565b60006142a6601c83614f3d565b91507f4469706c6f6d6120426c7565727072696e74206e6f7420666f756e64000000006000830152602082019050919050565b60006142e6601f83614f3d565b91507f4f6e6c79206f776e6572206f722061646d696e2061726520616c6c6f776564006000830152602082019050919050565b6000614326601883614f3d565b91507f426c7565207072696e7420616c726561647920657869737400000000000000006000830152602082019050919050565b6000614366602783614f3d565b91507f596f752070726f766964656420616e20696e76616c69642073747564656e742060008301527f61646472657373000000000000000000000000000000000000000000000000006020830152604082019050919050565b60006143cc601183614f3d565b91507f53747564656e74206e6f7420666f756e640000000000000000000000000000006000830152602082019050919050565b600061440c601683614f3d565b91507f4469706c6f6d6120616c726561647920657869737473000000000000000000006000830152602082019050919050565b600061444c601683614f3d565b91507f53747564656e7420646f6573206e6f74206578697374000000000000000000006000830152602082019050919050565b600061448c603583614f3d565b91507f4469706c6f6d612072657175657374206973206e6f742072656769737465726560008301527f64206f7220686173206265656e2072656d6f76656400000000000000000000006020830152604082019050919050565b60006144f2601683614f3d565b91507f53747564656e7420616c726561647920657869737473000000000000000000006000830152602082019050919050565b6000614532600f83614f3d565b91507f41646d696e206e6f7420666f756e6400000000000000000000000000000000006000830152602082019050919050565b6000614572601683614f3d565b91507f41646d696e206973206e6f7420612073747564656e74000000000000000000006000830152602082019050919050565b600060c0830160008301516145bd600086018261415b565b5060208301516145d06020860182613f5a565b50604083015184820360408601526145e88282614190565b915050606083015184820360608601526146028282614190565b9150506080830151848203608086015261461c8282614190565b91505060a083015184820360a08601526146368282613f8f565b9150508091505092915050565b600060c08301600083015161465b600086018261415b565b50602083015161466e6020860182613f5a565b50604083015184820360408601526146868282614190565b915050606083015184820360608601526146a08282614190565b915050608083015184820360808601526146ba8282614190565b91505060a083015184820360a08601526146d48282613f8f565b9150508091505092915050565b600060c0830160008301516146f9600086018261415b565b50602083015161470c602086018261415b565b50604083015161471f6040860182613f5a565b5060608301516147326060860182613f5a565b506080830151848203608086015261474a8282614190565b91505060a083015161475f60a0860182614909565b508091505092915050565b600060c083016000830151614782600086018261415b565b506020830151614795602086018261415b565b5060408301516147a86040860182613f5a565b5060608301516147bb6060860182613f5a565b50608083015184820360808601526147d38282614190565b91505060a08301516147e860a0860182614909565b508091505092915050565b600060a08301600083015161480b6000860182613f5a565b50602083015184820360208601526148238282614190565b9150506040830151848203604086015261483d8282614190565b915050606083015184820360608601526148578282614190565b915050608083015184820360808601526148718282613f8f565b9150508091505092915050565b600060a0830160008301516148966000860182613f5a565b50602083015184820360208601526148ae8282614190565b915050604083015184820360408601526148c88282614190565b915050606083015184820360608601526148e28282614190565b915050608083015184820360808601526148fc8282613f8f565b9150508091505092915050565b61491281614fb3565b82525050565b61492181614fb3565b82525050565b61493861493382614fb3565b615075565b82525050565b600061494a8288613f43565b60148201915061495a8287613f78565b60148201915061496a8286614179565b60208201915061497a8285614202565b91506149868284614927565b6020820191508190509695505050505050565b60006149a58287613f43565b6014820191506149b58286614202565b91506149c18285614202565b91506149cd8284614202565b915081905095945050505050565b60006149e78288613f78565b6014820191506149f78287613f78565b601482019150614a078286614179565b602082019150614a178285614202565b9150614a238284614927565b6020820191508190509695505050505050565b6000602082019050614a4b6000830184613f34565b92915050565b6000608082019050614a666000830187613f69565b8181036020830152614a7881866141c9565b90508181036040830152614a8c81856141c9565b90508181036060830152614aa081846141c9565b905095945050505050565b60006020820190508181036000830152614ac58184613fed565b905092915050565b60006020820190508181036000830152614ae78184614062565b905092915050565b60006020820190508181036000830152614b0981846140d7565b905092915050565b6000602082019050614b26600083018461414c565b92915050565b6000602082019050614b41600083018461416a565b92915050565b600060c082019050614b5c600083018961416a565b614b69602083018861416a565b614b766040830187613f69565b614b836060830186613f69565b8181036080830152614b9581856141c9565b9050614ba460a0830184614918565b979650505050505050565b60006020820190508181036000830152614bc881614233565b9050919050565b60006020820190508181036000830152614be881614299565b9050919050565b60006020820190508181036000830152614c08816142d9565b9050919050565b60006020820190508181036000830152614c2881614319565b9050919050565b60006020820190508181036000830152614c4881614359565b9050919050565b60006020820190508181036000830152614c68816143bf565b9050919050565b60006020820190508181036000830152614c88816143ff565b9050919050565b60006020820190508181036000830152614ca88161443f565b9050919050565b60006020820190508181036000830152614cc88161447f565b9050919050565b60006020820190508181036000830152614ce8816144e5565b9050919050565b60006020820190508181036000830152614d0881614525565b9050919050565b60006020820190508181036000830152614d2881614565565b9050919050565b60006020820190508181036000830152614d498184614643565b905092915050565b60006020820190508181036000830152614d6b818461476a565b905092915050565b60006020820190508181036000830152614d8d818461487e565b905092915050565b6000602082019050614daa6000830184614918565b92915050565b6000604051905081810181811067ffffffffffffffff82111715614dd757614dd661507f565b5b8060405250919050565b600067ffffffffffffffff821115614dfc57614dfb61507f565b5b602082029050602081019050919050565b600067ffffffffffffffff821115614e2857614e2761507f565b5b601f19601f8301169050602081019050919050565b6000819050602082019050919050565b6000819050602082019050919050565b6000819050602082019050919050565b6000819050602082019050919050565b600081519050919050565b600081519050919050565b600081519050919050565b600081519050919050565b600081519050919050565b6000602082019050919050565b6000602082019050919050565b6000602082019050919050565b6000602082019050919050565b600082825260208201905092915050565b600082825260208201905092915050565b600082825260208201905092915050565b600082825260208201905092915050565b600082825260208201905092915050565b600082825260208201905092915050565b600081905092915050565b6000614f6482614f93565b9050919050565b6000614f7682614f93565b9050919050565b60008115159050919050565b6000819050919050565b600073ffffffffffffffffffffffffffffffffffffffff82169050919050565b6000819050919050565b6000614fc882614fcf565b9050919050565b6000614fda82614fe1565b9050919050565b6000614fec82614f93565b9050919050565b82818337600083830152505050565b60005b83811015615020578082015181840152602081019050615005565b8381111561502f576000848401525b50505050565b600061504082615063565b9050919050565b600061505282615063565b9050919050565b6000819050919050565b600061506e82615092565b9050919050565b6000819050919050565bfe5b6000601f19601f8301169050919050565b60008160601b9050919050565b6150a881614f59565b81146150b357600080fd5b50565b6150bf81614f89565b81146150ca57600080fd5b50565b6150d681614fb3565b81146150e157600080fd5b5056fea26469706673582212200b2294de0dcbc357cd881d0462396645e62935a171d6a8ae7879a1ba9404874464736f6c63430007060033",
  "immutableReferences": {},
  "source": "// SPDX-License-Identifier: MIT\npragma solidity ^0.7.0;\npragma experimental ABIEncoderV2;\n    struct Diploma {\n        bytes32 id;\n        bytes32 blueprintId;\n        address owner;\n        address issuer;\n        string honors;\n        uint256 dateObtained; // timestamps format\n    }\n\n    struct Student {\n        address id;\n        string firstName;\n        string lastName;\n        string email;\n        bytes32[] diplomas;\n    }\n\n    struct DiplomaBluePrint{\n        bytes32 id;\n        address issuer;\n        string title;\n        string description;\n        string speciality;\n        bytes32[] diplomas;\n    }\ncontract Diplomachain {\n    \n    // students storage\n    mapping(address => uint256) private studentsIndexes;\n    Student[] public students;\n    uint256 public studentsCount;\n\n    // diploma storage\n    mapping(bytes32 => uint256) public diplomasIndexes;\n    Diploma[] public diplomas;\n    uint256 public diplomasCount;\n\n    // pending diplomas storage\n    mapping(bytes32 => uint256) public pendingDiplomasIndexes;\n    Diploma[] public pendingDiplomas;\n    uint256 public pendingDiplomasCount;\n\n    // diploma blueprints storage\n    mapping(bytes32 => uint256) private diplomaBlueprintsIndexes;\n    DiplomaBluePrint[] private diplomaBlueprints;\n    uint256 public diplomaBlueprintsCount;\n\n    /* // Let's say we have multiple universities, so it's a good practice to define admins addresses for now\n    mapping(address => uint256) public adminsIndexes;\n\n    // Since every diploma will be issued by a university club, we need to have issuersIndexes\n    mapping(address => uint256) public issuersIndexes; */\n\n    address private admin;\n\n    constructor() {\n        admin = msg.sender; // specifiy the admin when deploying the contract;\n        studentsCount = 0;\n        diplomasCount = 0;\n        pendingDiplomasCount = 0;\n        diplomaBlueprintsCount = 0;\n    }\n\n    // ==========modifiers declaration==========\n    modifier onlyAdmin() {\n        require(msg.sender == admin, \"Admin not found\");\n        _;\n    }\n    modifier onlyStudent() {\n        require(studentsIndexes[msg.sender] != 0, \"Student not found\");\n        _;\n    }\n    /* modifier onlyIssuer() {\n        require(issuersIndexes[msg.sender] != 0, \"Issuer not found\");\n        _;\n    } */\n\n    // ==========events definition==========\n    event LogRequestDiploma(address studentId);\n    event LogAddDiploma(bytes32 diplomaId);\n    event LogAddStudent(address studentId);\n    event LogAddDiplomaBlueprint(bytes32 diplomaBlueprintId);\n    event LogDeleteDiploma(bytes32 diplomaId);\n    event LogDeleteStudent(address studentId);\n    // ==========Functions definition==========\n    // verifyDiploma()\n   /*  function verifyDiploma(bytes32 diplomaId) public view returns (Diploma memory){\n        require (diplomasIndexes[diplomaId] != 0, \"You provided an invalid diploma identifier\");\n        return diplomas[diplomasIndexes[diplomaId] - 1];\n    } */\n    // getDiploma() : for now, verifyDiploma() has the same code as getDiploma(), probably we'll remove the other fct\n    function getDiploma(bytes32 diplomaId) public view returns (Diploma memory){\n        require (diplomasIndexes[diplomaId] != 0, \"You provided an invalid diploma identifier\");\n        return diplomas[diplomasIndexes[diplomaId] - 1];\n    }\n    // addStudent()\n    function addStudent(\n        string memory _firstName,\n        string memory _lastName,\n        string memory _email,\n        bytes32[] memory _diplomas\n    ) public {\n        require(studentsIndexes[msg.sender] == 0, \"Student already exists\");\n        require( msg.sender != admin, \"Admin is not a student\");\n        // require(adminsIndexes[msg.sender] == 0, \"An admin cannot enroll as a student\");\n        // require(issuersIndexes[msg.sender] == 0, \"An issuer cannot enroll as a student\");\n        studentsCount++;\n        studentsIndexes[msg.sender] = students.length + 1;\n        students.push(\n            Student(msg.sender, _firstName, _lastName, _email, _diplomas)\n        );\n        emit LogAddStudent(msg.sender);\n    }\n    // getStudent()\n    function getStudent(address student_addr) public view returns (Student memory){\n        require (studentsIndexes[student_addr] != 0, \"You provided an invalid student address\");\n        return students[studentsIndexes[student_addr] - 1];\n    }\n    // deleteStudent()\n    /* function deleteStudent(address student_addr) public onlyAdmin {\n        // 1 - delete the student's diplomas\n        bytes32[] memory diplomas_ids = students[studentsIndexes[student_addr] - 1].diplomas;\n        for (uint i = 0; i < diplomas_ids.length; i++) {\n            removeDiplomaItem(diplomas, diplomasIndexes[diplomas_ids[i]] - 1);\n            delete diplomasIndexes[diplomas_ids[i]];\n            diplomasCount--;\n            emit LogDeleteDiploma(diplomas_ids[i]);\n        }\n        // 2 - delete the student\n        removeStudentItem(students, studentsIndexes[student_addr] - 1);\n        delete studentsIndexes[student_addr];\n        studentsCount--;\n        emit LogDeleteStudent(student_addr);\n    } */\n    // remove an element from diplomas array and shift to avoid leaving gaps\n    function removeDiplomaItem(Diploma[] storage array, uint256 index) private {\n        for (uint i = index; i < array.length - 1; i++) {\n            array[i] = array[i + 1];\n        }\n        delete array[array.length - 1];\n        array.pop();\n    }\n    // remove an element from students array and shift to avoid leaving gaps\n    /* function removeStudentItem(Student[] storage array, uint256 index) private {\n        for (uint i = index; i < array.length - 1; i++) {\n            array[i] = array[i + 1];\n        }\n        delete array[array.length - 1];\n        array.pop();\n    } */\n    // addDiploma() => when a student requests a diploma, the admin will call this fct to issue it\n    function addDiploma(bytes32 _id) public onlyAdmin {\n        require(diplomasIndexes[_id] == 0, \"Diploma already exists\");\n        require(pendingDiplomasIndexes[_id] != 0, \"Diploma request is not registered or has been removed\");\n        diplomasCount++;\n        diplomasIndexes[_id] = diplomas.length + 1;\n        diplomas.push(\n            pendingDiplomas[pendingDiplomasIndexes[_id] - 1]\n        );\n        // get the student (owner) address\n        address student_adr = pendingDiplomas[pendingDiplomasIndexes[_id] - 1].owner;\n        // add the new diploma id to the student's diplomas ids array\n        students[studentsIndexes[student_adr] - 1].diplomas.push(\n            _id\n        );\n        // remove the diploma from the pending diplomas array\n        removeDiplomaItem(pendingDiplomas, pendingDiplomasIndexes[_id] - 1);\n        delete pendingDiplomasIndexes[_id];\n        pendingDiplomasCount--;\n        emit LogAddDiploma(_id);\n    }\n    // issueDiploma() => when the issuer himself wants to issue a diploma, he'll be able to do that directly\n    function issueDiploma(\n        address owner,\n        bytes32 blueprintId,\n        string memory _honors,\n        uint256 _dateObtained\n    ) public onlyAdmin {\n        require(studentsIndexes[owner] != 0 ,\"Student not found\");\n        // require(msg.sender == admin, \"You cannot add a diploma issued by someone else..\");\n        // generate a unique hash identifier for each diploma\n        bytes32 id = keccak256(abi.encodePacked(owner, admin, blueprintId, _honors, _dateObtained));\n        diplomasCount++;\n        diplomasIndexes[id] = diplomas.length + 1;\n        diplomas.push(\n            Diploma(id,  blueprintId, owner, admin, _honors, _dateObtained)\n        );\n        // add the new diploma id to the student's diplomas ids array\n        students[studentsIndexes[owner] - 1].diplomas.push(\n            id\n        );\n        emit LogAddDiploma(id);\n    }\n    // isStudent()\n    function isStudent() public view returns (bool) {\n        return studentsIndexes[msg.sender] != 0;\n    }\n    // isAdmin()\n    function isAdmin() public view returns (bool) {\n        \n        return msg.sender == admin;\n        //return adminsIndexes[msg.sender] != 0;\n    }\n    // isIssuer()\n   /*  function isIssuer() public view returns (bool) {\n        return issuersIndexes[msg.sender] != 0;\n    } */\n    // getStudentIndex()\n    /* function getStudentIndex(address studentId) public view returns (uint256) {\n        require(studentsIndexes[studentId] != 0, \"Student does not exist\");\n        return studentsIndexes[studentId] - 1;\n    }\n    // getDiplomaIndex()\n    function getDiplomaIndex(bytes32 diplomaId) public view returns (uint256) {\n        require(diplomasIndexes[diplomaId] != 0, \"Diploma does not exist\");\n        return diplomasIndexes[diplomaId] - 1;\n    } */\n\n    /*\n    \n        getX(id) is not used in the front, also it can be replace by using the default getter \n\n        diplomaIndexes is public so we can use diplomaIndexes(id) to get the index\n        also we can use the default getter for the array types \n        we can use diplomas(index -1) directly outstide the contract instead of implementing it\n    */ \n\n\n    // getStudents()\n    function getStudents() public onlyAdmin view returns (Student[] memory) {\n        return students;\n    }\n    // getDiplomas()\n    function getDiplomas() public onlyAdmin view returns (Diploma[] memory) {\n        return diplomas;\n    }\n    // getStudentDiplomasIds()\n    /* function getStudentDiplomasIds(address studentId) public view returns (bytes32[] memory) {\n        require(studentsIndexes[studentId] != 0, \"Student does not exist\");\n        require(msg.sender == studentId || adminsIndexes[msg.sender] != 0, \"Only owner or admin are allowed\");\n        return students[studentsIndexes[studentId] - 1].diplomas;\n    } */\n    // getStudentDiplomas()\n    function getStudentDiplomas(address studentId) public view returns (Diploma[] memory) {\n        require(msg.sender == studentId || msg.sender == admin, \"Only owner or admin are allowed\");\n        require(studentsIndexes[studentId] != 0, \"Student does not exist\");\n        bytes32[] memory diplomas_ids = students[studentsIndexes[studentId] - 1].diplomas;\n        Diploma[] memory full_diplomas = new Diploma[](diplomas_ids.length);\n        for (uint256 i = 0; i < diplomas_ids.length; i++) {\n            full_diplomas[i] = diplomas[diplomasIndexes[diplomas_ids[i]] - 1];\n        }\n        return full_diplomas;\n    }\n    // requestDiploma()\n    function requestDiploma(\n        bytes32 blueprintId,\n        string memory _honors,\n        uint256 _dateObtained\n    ) public onlyStudent {\n        require(studentsIndexes[msg.sender] != 0, \"Student does not exist\");\n\n        // We have only one issuer (the admin)\n        // require(issuersIndexes[issuer] != 0, \"Issuer does not exist\");\n        // generate a unique hash identifier for each diploma\n        bytes32 id = keccak256(abi.encodePacked(msg.sender, admin , blueprintId,  _honors, _dateObtained));\n        pendingDiplomasCount++;\n        pendingDiplomasIndexes[id] = pendingDiplomas.length + 1;\n        pendingDiplomas.push(\n            Diploma(id, blueprintId ,msg.sender, admin, _honors, _dateObtained)\n        );\n        emit LogRequestDiploma(msg.sender);\n    }\n\n\n    function addDiplomaBlueprint(\n        string memory title,\n        string memory description,\n        string memory speciality,\n        bytes32[] memory _diplomas\n    ) public onlyAdmin {\n        bytes32 id = keccak256(abi.encodePacked(msg.sender, title, description,speciality));\n        require(diplomaBlueprintsIndexes[id] ==0,\"Blue print already exist\");\n        diplomaBlueprintsCount++;\n        diplomaBlueprintsIndexes[id] = diplomaBlueprints.length + 1;\n        diplomaBlueprints.push(\n            DiplomaBluePrint(id,msg.sender, title, description,speciality,_diplomas)\n        );\n        emit LogAddDiplomaBlueprint(id);\n    }\n    function getDiplomaBlueprint(bytes32 id) public onlyAdmin view returns (DiplomaBluePrint memory) {\n        require(diplomaBlueprintsIndexes[id]!=0, \"Diploma Bluerprint not found\");\n        return diplomaBlueprints[diplomaBlueprintsIndexes[id] - 1];\n    }\n    // this will return all diplom blueprints because we have a single issuer (else we will select based on the issuer)\n    function getDiplomaBlueprints()public onlyAdmin view returns (DiplomaBluePrint[] memory){\n        return diplomaBlueprints;\n    }\n    // returns the diploma by the selected blueprint\n    function getDiplomasByBlueprint(bytes32 id) public onlyAdmin view returns (Diploma[] memory){\n        require(diplomaBlueprintsIndexes[id]!=0, \"Diploma Bluerprint not found\");\n        bytes32[] memory diplomas_ids = diplomaBlueprints[diplomaBlueprintsIndexes[id] - 1].diplomas;\n        Diploma[] memory _diplomas = new Diploma[](diplomas_ids.length);\n        for (uint256 i = 0; i < diplomas_ids.length; i++) {\n            _diplomas[i] = diplomas[diplomasIndexes[diplomas_ids[i]] - 1];\n        }\n        return _diplomas;\n    }\n\n}",
  "sourcePath": "/home/dali/GL5/project/blockchain/Diplomachain/blockchain/contracts/Diplomachain.sol",
  "compiler": {
    "name": "solc",
    "version": "0.7.6+commit.7338295f.Emscripten.clang"
  },
  "schemaVersion": "3.3.3",
  "updatedAt": "2021-01-18T01:13:03.809Z",
  "networkType": "ethereum",
  "devdoc": {
    "kind": "dev",
    "methods": {},
    "version": 1
  },
  "userdoc": {
    "kind": "user",
    "methods": {},
    "version": 1
  }
}