{
  "contractName": "Diplomachain",
  "abi": [
    {
      "inputs": [],
      "stateMutability": "nonpayable",
      "type": "constructor"
    },
    {
      "anonymous": false,
      "inputs": [
        {
          "indexed": false,
          "internalType": "bytes32",
          "name": "diplomaId",
          "type": "bytes32"
        }
      ],
      "name": "LogAddDiploma",
      "type": "event"
    },
    {
      "anonymous": false,
      "inputs": [
        {
          "indexed": false,
          "internalType": "address",
          "name": "studentId",
          "type": "address"
        }
      ],
      "name": "LogAddStudent",
      "type": "event"
    },
    {
      "anonymous": false,
      "inputs": [
        {
          "indexed": false,
          "internalType": "bytes32",
          "name": "diplomaId",
          "type": "bytes32"
        }
      ],
      "name": "LogDeleteDiploma",
      "type": "event"
    },
    {
      "anonymous": false,
      "inputs": [
        {
          "indexed": false,
          "internalType": "address",
          "name": "studentId",
          "type": "address"
        }
      ],
      "name": "LogDeleteStudent",
      "type": "event"
    },
    {
      "anonymous": false,
      "inputs": [
        {
          "indexed": false,
          "internalType": "address",
          "name": "studentId",
          "type": "address"
        }
      ],
      "name": "LogRequestDiploma",
      "type": "event"
    },
    {
      "inputs": [
        {
          "internalType": "address",
          "name": "",
          "type": "address"
        }
      ],
      "name": "adminsIndexes",
      "outputs": [
        {
          "internalType": "uint256",
          "name": "",
          "type": "uint256"
        }
      ],
      "stateMutability": "view",
      "type": "function"
    },
    {
      "inputs": [
        {
          "internalType": "uint256",
          "name": "",
          "type": "uint256"
        }
      ],
      "name": "diplomas",
      "outputs": [
        {
          "internalType": "bytes32",
          "name": "id",
          "type": "bytes32"
        },
        {
          "internalType": "address",
          "name": "owner",
          "type": "address"
        },
        {
          "internalType": "address",
          "name": "issuer",
          "type": "address"
        },
        {
          "internalType": "string",
          "name": "speciality",
          "type": "string"
        },
        {
          "internalType": "string",
          "name": "honors",
          "type": "string"
        },
        {
          "internalType": "string",
          "name": "title",
          "type": "string"
        },
        {
          "internalType": "uint256",
          "name": "dateObtained",
          "type": "uint256"
        }
      ],
      "stateMutability": "view",
      "type": "function"
    },
    {
      "inputs": [],
      "name": "diplomasCount",
      "outputs": [
        {
          "internalType": "uint256",
          "name": "",
          "type": "uint256"
        }
      ],
      "stateMutability": "view",
      "type": "function"
    },
    {
      "inputs": [
        {
          "internalType": "bytes32",
          "name": "",
          "type": "bytes32"
        }
      ],
      "name": "diplomasIndexes",
      "outputs": [
        {
          "internalType": "uint256",
          "name": "",
          "type": "uint256"
        }
      ],
      "stateMutability": "view",
      "type": "function"
    },
    {
      "inputs": [
        {
          "internalType": "address",
          "name": "",
          "type": "address"
        }
      ],
      "name": "issuersIndexes",
      "outputs": [
        {
          "internalType": "uint256",
          "name": "",
          "type": "uint256"
        }
      ],
      "stateMutability": "view",
      "type": "function"
    },
    {
      "inputs": [
        {
          "internalType": "uint256",
          "name": "",
          "type": "uint256"
        }
      ],
      "name": "pendingDiplomas",
      "outputs": [
        {
          "internalType": "bytes32",
          "name": "id",
          "type": "bytes32"
        },
        {
          "internalType": "address",
          "name": "owner",
          "type": "address"
        },
        {
          "internalType": "address",
          "name": "issuer",
          "type": "address"
        },
        {
          "internalType": "string",
          "name": "speciality",
          "type": "string"
        },
        {
          "internalType": "string",
          "name": "honors",
          "type": "string"
        },
        {
          "internalType": "string",
          "name": "title",
          "type": "string"
        },
        {
          "internalType": "uint256",
          "name": "dateObtained",
          "type": "uint256"
        }
      ],
      "stateMutability": "view",
      "type": "function"
    },
    {
      "inputs": [],
      "name": "pendingDiplomasCount",
      "outputs": [
        {
          "internalType": "uint256",
          "name": "",
          "type": "uint256"
        }
      ],
      "stateMutability": "view",
      "type": "function"
    },
    {
      "inputs": [
        {
          "internalType": "bytes32",
          "name": "",
          "type": "bytes32"
        }
      ],
      "name": "pendingDiplomasIndexes",
      "outputs": [
        {
          "internalType": "uint256",
          "name": "",
          "type": "uint256"
        }
      ],
      "stateMutability": "view",
      "type": "function"
    },
    {
      "inputs": [
        {
          "internalType": "uint256",
          "name": "",
          "type": "uint256"
        }
      ],
      "name": "students",
      "outputs": [
        {
          "internalType": "address",
          "name": "id",
          "type": "address"
        },
        {
          "internalType": "string",
          "name": "firstName",
          "type": "string"
        },
        {
          "internalType": "string",
          "name": "lastName",
          "type": "string"
        },
        {
          "internalType": "string",
          "name": "email",
          "type": "string"
        },
        {
          "internalType": "string",
          "name": "nationality",
          "type": "string"
        },
        {
          "internalType": "string",
          "name": "phoneNumber",
          "type": "string"
        },
        {
          "internalType": "string",
          "name": "gender",
          "type": "string"
        }
      ],
      "stateMutability": "view",
      "type": "function"
    },
    {
      "inputs": [],
      "name": "studentsCount",
      "outputs": [
        {
          "internalType": "uint256",
          "name": "",
          "type": "uint256"
        }
      ],
      "stateMutability": "view",
      "type": "function"
    },
    {
      "inputs": [
        {
          "internalType": "bytes32",
          "name": "diplomaId",
          "type": "bytes32"
        }
      ],
      "name": "verifyDiploma",
      "outputs": [
        {
          "components": [
            {
              "internalType": "bytes32",
              "name": "id",
              "type": "bytes32"
            },
            {
              "internalType": "address",
              "name": "owner",
              "type": "address"
            },
            {
              "internalType": "address",
              "name": "issuer",
              "type": "address"
            },
            {
              "internalType": "string",
              "name": "speciality",
              "type": "string"
            },
            {
              "internalType": "string",
              "name": "honors",
              "type": "string"
            },
            {
              "internalType": "string",
              "name": "title",
              "type": "string"
            },
            {
              "internalType": "uint256",
              "name": "dateObtained",
              "type": "uint256"
            }
          ],
          "internalType": "struct Diplomachain.Diploma",
          "name": "",
          "type": "tuple"
        }
      ],
      "stateMutability": "view",
      "type": "function"
    },
    {
      "inputs": [
        {
          "internalType": "bytes32",
          "name": "diplomaId",
          "type": "bytes32"
        }
      ],
      "name": "getDiploma",
      "outputs": [
        {
          "components": [
            {
              "internalType": "bytes32",
              "name": "id",
              "type": "bytes32"
            },
            {
              "internalType": "address",
              "name": "owner",
              "type": "address"
            },
            {
              "internalType": "address",
              "name": "issuer",
              "type": "address"
            },
            {
              "internalType": "string",
              "name": "speciality",
              "type": "string"
            },
            {
              "internalType": "string",
              "name": "honors",
              "type": "string"
            },
            {
              "internalType": "string",
              "name": "title",
              "type": "string"
            },
            {
              "internalType": "uint256",
              "name": "dateObtained",
              "type": "uint256"
            }
          ],
          "internalType": "struct Diplomachain.Diploma",
          "name": "",
          "type": "tuple"
        }
      ],
      "stateMutability": "view",
      "type": "function"
    },
    {
      "inputs": [
        {
          "internalType": "address",
          "name": "_id",
          "type": "address"
        },
        {
          "internalType": "string",
          "name": "_firstName",
          "type": "string"
        },
        {
          "internalType": "string",
          "name": "_lastName",
          "type": "string"
        },
        {
          "internalType": "string",
          "name": "_email",
          "type": "string"
        },
        {
          "internalType": "string",
          "name": "_nationality",
          "type": "string"
        },
        {
          "internalType": "string",
          "name": "_phoneNumber",
          "type": "string"
        },
        {
          "internalType": "string",
          "name": "_gender",
          "type": "string"
        },
        {
          "internalType": "bytes32[]",
          "name": "_diplomas",
          "type": "bytes32[]"
        }
      ],
      "name": "addStudent",
      "outputs": [],
      "stateMutability": "nonpayable",
      "type": "function"
    },
    {
      "inputs": [
        {
          "internalType": "address",
          "name": "student_addr",
          "type": "address"
        }
      ],
      "name": "getStudent",
      "outputs": [
        {
          "components": [
            {
              "internalType": "address",
              "name": "id",
              "type": "address"
            },
            {
              "internalType": "string",
              "name": "firstName",
              "type": "string"
            },
            {
              "internalType": "string",
              "name": "lastName",
              "type": "string"
            },
            {
              "internalType": "string",
              "name": "email",
              "type": "string"
            },
            {
              "internalType": "string",
              "name": "nationality",
              "type": "string"
            },
            {
              "internalType": "string",
              "name": "phoneNumber",
              "type": "string"
            },
            {
              "internalType": "string",
              "name": "gender",
              "type": "string"
            },
            {
              "internalType": "bytes32[]",
              "name": "diplomas",
              "type": "bytes32[]"
            }
          ],
          "internalType": "struct Diplomachain.Student",
          "name": "",
          "type": "tuple"
        }
      ],
      "stateMutability": "view",
      "type": "function"
    },
    {
      "inputs": [
        {
          "internalType": "address",
          "name": "student_addr",
          "type": "address"
        }
      ],
      "name": "deleteStudent",
      "outputs": [],
      "stateMutability": "nonpayable",
      "type": "function"
    },
    {
      "inputs": [
        {
          "internalType": "bytes32",
          "name": "_id",
          "type": "bytes32"
        }
      ],
      "name": "addDiploma",
      "outputs": [],
      "stateMutability": "nonpayable",
      "type": "function"
    },
    {
      "inputs": [
        {
          "internalType": "address",
          "name": "owner",
          "type": "address"
        },
        {
          "internalType": "address",
          "name": "issuer",
          "type": "address"
        },
        {
          "internalType": "string",
          "name": "_speciality",
          "type": "string"
        },
        {
          "internalType": "string",
          "name": "_honors",
          "type": "string"
        },
        {
          "internalType": "string",
          "name": "_title",
          "type": "string"
        },
        {
          "internalType": "uint256",
          "name": "_dateObtained",
          "type": "uint256"
        }
      ],
      "name": "issueDiploma",
      "outputs": [],
      "stateMutability": "nonpayable",
      "type": "function"
    },
    {
      "inputs": [],
      "name": "isStudent",
      "outputs": [
        {
          "internalType": "bool",
          "name": "",
          "type": "bool"
        }
      ],
      "stateMutability": "view",
      "type": "function"
    },
    {
      "inputs": [],
      "name": "isAdmin",
      "outputs": [
        {
          "internalType": "bool",
          "name": "",
          "type": "bool"
        }
      ],
      "stateMutability": "view",
      "type": "function"
    },
    {
      "inputs": [],
      "name": "isIssuer",
      "outputs": [
        {
          "internalType": "bool",
          "name": "",
          "type": "bool"
        }
      ],
      "stateMutability": "view",
      "type": "function"
    },
    {
      "inputs": [
        {
          "internalType": "address",
          "name": "studentId",
          "type": "address"
        }
      ],
      "name": "getStudentIndex",
      "outputs": [
        {
          "internalType": "uint256",
          "name": "",
          "type": "uint256"
        }
      ],
      "stateMutability": "view",
      "type": "function"
    },
    {
      "inputs": [
        {
          "internalType": "bytes32",
          "name": "diplomaId",
          "type": "bytes32"
        }
      ],
      "name": "getDiplomaIndex",
      "outputs": [
        {
          "internalType": "uint256",
          "name": "",
          "type": "uint256"
        }
      ],
      "stateMutability": "view",
      "type": "function"
    },
    {
      "inputs": [],
      "name": "getStudents",
      "outputs": [
        {
          "components": [
            {
              "internalType": "address",
              "name": "id",
              "type": "address"
            },
            {
              "internalType": "string",
              "name": "firstName",
              "type": "string"
            },
            {
              "internalType": "string",
              "name": "lastName",
              "type": "string"
            },
            {
              "internalType": "string",
              "name": "email",
              "type": "string"
            },
            {
              "internalType": "string",
              "name": "nationality",
              "type": "string"
            },
            {
              "internalType": "string",
              "name": "phoneNumber",
              "type": "string"
            },
            {
              "internalType": "string",
              "name": "gender",
              "type": "string"
            },
            {
              "internalType": "bytes32[]",
              "name": "diplomas",
              "type": "bytes32[]"
            }
          ],
          "internalType": "struct Diplomachain.Student[]",
          "name": "",
          "type": "tuple[]"
        }
      ],
      "stateMutability": "view",
      "type": "function"
    },
    {
      "inputs": [],
      "name": "getDiplomas",
      "outputs": [
        {
          "components": [
            {
              "internalType": "bytes32",
              "name": "id",
              "type": "bytes32"
            },
            {
              "internalType": "address",
              "name": "owner",
              "type": "address"
            },
            {
              "internalType": "address",
              "name": "issuer",
              "type": "address"
            },
            {
              "internalType": "string",
              "name": "speciality",
              "type": "string"
            },
            {
              "internalType": "string",
              "name": "honors",
              "type": "string"
            },
            {
              "internalType": "string",
              "name": "title",
              "type": "string"
            },
            {
              "internalType": "uint256",
              "name": "dateObtained",
              "type": "uint256"
            }
          ],
          "internalType": "struct Diplomachain.Diploma[]",
          "name": "",
          "type": "tuple[]"
        }
      ],
      "stateMutability": "view",
      "type": "function"
    },
    {
      "inputs": [
        {
          "internalType": "address",
          "name": "studentId",
          "type": "address"
        }
      ],
      "name": "getStudentDiplomasIds",
      "outputs": [
        {
          "internalType": "bytes32[]",
          "name": "",
          "type": "bytes32[]"
        }
      ],
      "stateMutability": "view",
      "type": "function"
    },
    {
      "inputs": [
        {
          "internalType": "address",
          "name": "studentId",
          "type": "address"
        }
      ],
      "name": "getStudentDiplomas",
      "outputs": [
        {
          "components": [
            {
              "internalType": "bytes32",
              "name": "id",
              "type": "bytes32"
            },
            {
              "internalType": "address",
              "name": "owner",
              "type": "address"
            },
            {
              "internalType": "address",
              "name": "issuer",
              "type": "address"
            },
            {
              "internalType": "string",
              "name": "speciality",
              "type": "string"
            },
            {
              "internalType": "string",
              "name": "honors",
              "type": "string"
            },
            {
              "internalType": "string",
              "name": "title",
              "type": "string"
            },
            {
              "internalType": "uint256",
              "name": "dateObtained",
              "type": "uint256"
            }
          ],
          "internalType": "struct Diplomachain.Diploma[]",
          "name": "",
          "type": "tuple[]"
        }
      ],
      "stateMutability": "view",
      "type": "function"
    },
    {
      "inputs": [
        {
          "internalType": "address",
          "name": "issuer",
          "type": "address"
        },
        {
          "internalType": "string",
          "name": "_speciality",
          "type": "string"
        },
        {
          "internalType": "string",
          "name": "_honors",
          "type": "string"
        },
        {
          "internalType": "string",
          "name": "_title",
          "type": "string"
        },
        {
          "internalType": "uint256",
          "name": "_dateObtained",
          "type": "uint256"
        }
      ],
      "name": "requestDiploma",
      "outputs": [],
      "stateMutability": "nonpayable",
      "type": "function"
    }
  ],
  "bytecode": "0x608060405234801561001057600080fd5b506000600281905550600060058190555060006008819055506161aa80620000396000396000f3fe608060405234801561001057600080fd5b50600436106101a95760003560e01c806386af78fa116100f9578063d1b9329211610097578063e8c2ecd611610071578063e8c2ecd614610554578063ee6ffd4814610572578063f1d064b3146105a2578063ff45bc59146105c0576101a9565b8063d1b93292146104c4578063d9d0350b146104f4578063e89cc99714610524576101a9565b8063aaf1485e116100d3578063aaf1485e14610450578063b6db75a01461046c578063c9675e131461048a578063cef87be5146104a8576101a9565b806386af78fa146103cc57806394d3bd35146103ea57806395f378e81461041a576101a9565b806351e0a6eb1161016657806368433a3a1161014057806368433a3a146103325780636b7b44d714610350578063730bcc5d146103805780637a6e8a131461039c576101a9565b806351e0a6eb146102c857806359bebe08146102e657806364d1d1ff14610316576101a9565b806306ead22e146101ae5780632b04cb77146101e457806333c8998314610214578063350799041461023257806335dfc1c314610262578063465cf86614610298575b600080fd5b6101c860048036038101906101c39190614e61565b6105dc565b6040516101db9796959493929190615a7a565b60405180910390f35b6101fe60048036038101906101f99190614e38565b6109de565b60405161020b9190615e13565b60405180910390f35b61021c610d26565b6040516102299190615e57565b60405180910390f35b61024c60048036038101906102479190614e38565b610d2c565b6040516102599190615e57565b60405180910390f35b61027c60048036038101906102779190614e61565b610d44565b60405161028f9796959493929190615baf565b60405180910390f35b6102b260048036038101906102ad9190614b25565b610f9e565b6040516102bf9190615e57565b60405180910390f35b6102d061106a565b6040516102dd9190615b79565b60405180910390f35b61030060048036038101906102fb9190614b25565b6110b3565b60405161030d9190615e57565b60405180910390f35b610330600480360381019061032b9190614e38565b6110cb565b005b61033a611549565b6040516103479190615e57565b60405180910390f35b61036a60048036038101906103659190614b25565b61154f565b6040516103779190615e35565b60405180910390f35b61039a60048036038101906103959190614b25565b611ac1565b005b6103b660048036038101906103b19190614b25565b611da5565b6040516103c39190615b13565b60405180910390f35b6103d4611f96565b6040516103e19190615b79565b60405180910390f35b61040460048036038101906103ff9190614b25565b611fe0565b6040516104119190615e57565b60405180910390f35b610434600480360381019061042f9190614e61565b611ff8565b6040516104479796959493929190615baf565b60405180910390f35b61046a60048036038101906104659190614c1f565b612252565b005b610474612686565b6040516104819190615b79565b60405180910390f35b6104926126d0565b60405161049f9190615e57565b60405180910390f35b6104c260048036038101906104bd9190614b4e565b6126d6565b005b6104de60048036038101906104d99190614b25565b612a78565b6040516104eb9190615b35565b60405180910390f35b61050e60048036038101906105099190614e38565b612fed565b60405161051b9190615e57565b60405180910390f35b61053e60048036038101906105399190614e38565b613005565b60405161054b9190615e13565b60405180910390f35b61055c61334d565b6040516105699190615b35565b60405180910390f35b61058c60048036038101906105879190614e38565b6136d5565b6040516105999190615e57565b60405180910390f35b6105aa61374b565b6040516105b79190615b57565b60405180910390f35b6105da60048036038101906105d59190614d79565b613ca8565b005b600181815481106105ec57600080fd5b90600052602060002090600802016000915090508060000160009054906101000a900473ffffffffffffffffffffffffffffffffffffffff1690806001018054600181600116156101000203166002900480601f0160208091040260200160405190810160405280929190818152602001828054600181600116156101000203166002900480156106be5780601f10610693576101008083540402835291602001916106be565b820191906000526020600020905b8154815290600101906020018083116106a157829003601f168201915b505050505090806002018054600181600116156101000203166002900480601f01602080910402602001604051908101604052809291908181526020018280546001816001161561010002031660029004801561075c5780601f106107315761010080835404028352916020019161075c565b820191906000526020600020905b81548152906001019060200180831161073f57829003601f168201915b505050505090806003018054600181600116156101000203166002900480601f0160208091040260200160405190810160405280929190818152602001828054600181600116156101000203166002900480156107fa5780601f106107cf576101008083540402835291602001916107fa565b820191906000526020600020905b8154815290600101906020018083116107dd57829003601f168201915b505050505090806004018054600181600116156101000203166002900480601f0160208091040260200160405190810160405280929190818152602001828054600181600116156101000203166002900480156108985780601f1061086d57610100808354040283529160200191610898565b820191906000526020600020905b81548152906001019060200180831161087b57829003601f168201915b505050505090806005018054600181600116156101000203166002900480601f0160208091040260200160405190810160405280929190818152602001828054600181600116156101000203166002900480156109365780601f1061090b57610100808354040283529160200191610936565b820191906000526020600020905b81548152906001019060200180831161091957829003601f168201915b505050505090806006018054600181600116156101000203166002900480601f0160208091040260200160405190810160405280929190818152602001828054600181600116156101000203166002900480156109d45780601f106109a9576101008083540402835291602001916109d4565b820191906000526020600020905b8154815290600101906020018083116109b757829003601f168201915b5050505050905087565b6109e66146bc565b600060036000848152602001908152602001600020541415610a3d576040517f08c379a0000000000000000000000000000000000000000000000000000000008152600401610a3490615c53565b60405180910390fd5b6004600160036000858152602001908152602001600020540381548110610a6057fe5b90600052602060002090600702016040518060e0016040529081600082015481526020016001820160009054906101000a900473ffffffffffffffffffffffffffffffffffffffff1673ffffffffffffffffffffffffffffffffffffffff1673ffffffffffffffffffffffffffffffffffffffff1681526020016002820160009054906101000a900473ffffffffffffffffffffffffffffffffffffffff1673ffffffffffffffffffffffffffffffffffffffff1673ffffffffffffffffffffffffffffffffffffffff168152602001600382018054600181600116156101000203166002900480601f016020809104026020016040519081016040528092919081815260200182805460018160011615610100020316600290048015610bc85780601f10610b9d57610100808354040283529160200191610bc8565b820191906000526020600020905b815481529060010190602001808311610bab57829003601f168201915b50505050508152602001600482018054600181600116156101000203166002900480601f016020809104026020016040519081016040528092919081815260200182805460018160011615610100020316600290048015610c6a5780601f10610c3f57610100808354040283529160200191610c6a565b820191906000526020600020905b815481529060010190602001808311610c4d57829003601f168201915b50505050508152602001600582018054600181600116156101000203166002900480601f016020809104026020016040519081016040528092919081815260200182805460018160011615610100020316600290048015610d0c5780601f10610ce157610100808354040283529160200191610d0c565b820191906000526020600020905b815481529060010190602001808311610cef57829003601f168201915b505050505081526020016006820154815250509050919050565b60085481565b60036020528060005260406000206000915090505481565b60048181548110610d5457600080fd5b90600052602060002090600702016000915090508060000154908060010160009054906101000a900473ffffffffffffffffffffffffffffffffffffffff16908060020160009054906101000a900473ffffffffffffffffffffffffffffffffffffffff1690806003018054600181600116156101000203166002900480601f016020809104026020016040519081016040528092919081815260200182805460018160011615610100020316600290048015610e525780601f10610e2757610100808354040283529160200191610e52565b820191906000526020600020905b815481529060010190602001808311610e3557829003601f168201915b505050505090806004018054600181600116156101000203166002900480601f016020809104026020016040519081016040528092919081815260200182805460018160011615610100020316600290048015610ef05780601f10610ec557610100808354040283529160200191610ef0565b820191906000526020600020905b815481529060010190602001808311610ed357829003601f168201915b505050505090806005018054600181600116156101000203166002900480601f016020809104026020016040519081016040528092919081815260200182805460018160011615610100020316600290048015610f8e5780601f10610f6357610100808354040283529160200191610f8e565b820191906000526020600020905b815481529060010190602001808311610f7157829003601f168201915b5050505050908060060154905087565b6000806000808473ffffffffffffffffffffffffffffffffffffffff1673ffffffffffffffffffffffffffffffffffffffff168152602001908152602001600020541415611021576040517f08c379a000000000000000000000000000000000000000000000000000000000815260040161101890615d53565b60405180910390fd5b60016000808473ffffffffffffffffffffffffffffffffffffffff1673ffffffffffffffffffffffffffffffffffffffff16815260200190815260200160002054039050919050565b6000806000803373ffffffffffffffffffffffffffffffffffffffff1673ffffffffffffffffffffffffffffffffffffffff168152602001908152602001600020541415905090565b600a6020528060005260406000206000915090505481565b6000600960003373ffffffffffffffffffffffffffffffffffffffff1673ffffffffffffffffffffffffffffffffffffffff16815260200190815260200160002054141561114e576040517f08c379a000000000000000000000000000000000000000000000000000000000815260040161114590615dd3565b60405180910390fd5b60006003600083815260200190815260200160002054146111a4576040517f08c379a000000000000000000000000000000000000000000000000000000000815260040161119b90615d33565b60405180910390fd5b6000600660008381526020019081526020016000205414156111fb576040517f08c379a00000000000000000000000000000000000000000000000000000000081526004016111f290615d93565b60405180910390fd5b60056000815480929190600101919050555060016004805490500160036000838152602001908152602001600020819055506004600760016006600085815260200190815260200160002054038154811061125257fe5b90600052602060002090600702019080600181540180825580915050600190039060005260206000209060070201600090919091909150600082015481600001556001820160009054906101000a900473ffffffffffffffffffffffffffffffffffffffff168160010160006101000a81548173ffffffffffffffffffffffffffffffffffffffff021916908373ffffffffffffffffffffffffffffffffffffffff1602179055506002820160009054906101000a900473ffffffffffffffffffffffffffffffffffffffff168160020160006101000a81548173ffffffffffffffffffffffffffffffffffffffff021916908373ffffffffffffffffffffffffffffffffffffffff16021790555060038201816003019080546001816001161561010002031660029004611388929190614728565b50600482018160040190805460018160011615610100020316600290046113b0929190614728565b50600582018160050190805460018160011615610100020316600290046113d8929190614728565b506006820154816006015550506000600760016006600085815260200190815260200160002054038154811061140a57fe5b906000526020600020906007020160010160009054906101000a900473ffffffffffffffffffffffffffffffffffffffff1690506001806000808473ffffffffffffffffffffffffffffffffffffffff1673ffffffffffffffffffffffffffffffffffffffff16815260200190815260200160002054038154811061148b57fe5b90600052602060002090600802016007018290806001815401808255809150506001900390600052602060002001600090919091909150556114e46007600160066000868152602001908152602001600020540361405a565b6006600083815260200190815260200160002060009055600860008154809291906001900391905055507f85ca0491ab0b66b547f1a84afd331fd6b696683df09c1392444c8b10f37dd59f8260405161153d9190615b94565b60405180910390a15050565b60025481565b6115576147bd565b60008060008473ffffffffffffffffffffffffffffffffffffffff1673ffffffffffffffffffffffffffffffffffffffff1681526020019081526020016000205414156115d9576040517f08c379a00000000000000000000000000000000000000000000000000000000081526004016115d090615cb3565b60405180910390fd5b6001806000808573ffffffffffffffffffffffffffffffffffffffff1673ffffffffffffffffffffffffffffffffffffffff16815260200190815260200160002054038154811061162657fe5b9060005260206000209060080201604051806101000160405290816000820160009054906101000a900473ffffffffffffffffffffffffffffffffffffffff1673ffffffffffffffffffffffffffffffffffffffff1673ffffffffffffffffffffffffffffffffffffffff168152602001600182018054600181600116156101000203166002900480601f01602080910402602001604051908101604052809291908181526020018280546001816001161561010002031660029004801561172f5780601f106117045761010080835404028352916020019161172f565b820191906000526020600020905b81548152906001019060200180831161171257829003601f168201915b50505050508152602001600282018054600181600116156101000203166002900480601f0160208091040260200160405190810160405280929190818152602001828054600181600116156101000203166002900480156117d15780601f106117a6576101008083540402835291602001916117d1565b820191906000526020600020905b8154815290600101906020018083116117b457829003601f168201915b50505050508152602001600382018054600181600116156101000203166002900480601f0160208091040260200160405190810160405280929190818152602001828054600181600116156101000203166002900480156118735780601f1061184857610100808354040283529160200191611873565b820191906000526020600020905b81548152906001019060200180831161185657829003601f168201915b50505050508152602001600482018054600181600116156101000203166002900480601f0160208091040260200160405190810160405280929190818152602001828054600181600116156101000203166002900480156119155780601f106118ea57610100808354040283529160200191611915565b820191906000526020600020905b8154815290600101906020018083116118f857829003601f168201915b50505050508152602001600582018054600181600116156101000203166002900480601f0160208091040260200160405190810160405280929190818152602001828054600181600116156101000203166002900480156119b75780601f1061198c576101008083540402835291602001916119b7565b820191906000526020600020905b81548152906001019060200180831161199a57829003601f168201915b50505050508152602001600682018054600181600116156101000203166002900480601f016020809104026020016040519081016040528092919081815260200182805460018160011615610100020316600290048015611a595780601f10611a2e57610100808354040283529160200191611a59565b820191906000526020600020905b815481529060010190602001808311611a3c57829003601f168201915b5050505050815260200160078201805480602002602001604051908101604052809291908181526020018280548015611ab157602002820191906000526020600020905b815481526020019060010190808311611a9d575b5050505050815250509050919050565b6000600960003373ffffffffffffffffffffffffffffffffffffffff1673ffffffffffffffffffffffffffffffffffffffff168152602001908152602001600020541415611b44576040517f08c379a0000000000000000000000000000000000000000000000000000000008152600401611b3b90615dd3565b60405180910390fd5b60006001806000808573ffffffffffffffffffffffffffffffffffffffff1673ffffffffffffffffffffffffffffffffffffffff168152602001908152602001600020540381548110611b9357fe5b9060005260206000209060080201600701805480602002602001604051908101604052809291908181526020018280548015611bee57602002820191906000526020600020905b815481526020019060010190808311611bda575b5050505050905060005b8151811015611cc957611c356004600160036000868681518110611c1857fe5b60200260200101518152602001908152602001600020540361405a565b60036000838381518110611c4557fe5b6020026020010151815260200190815260200160002060009055600560008154809291906001900391905055507f1f666f7c2fd6e323a0a0bea4b13311eb0462435359c2dd4318e21165fc21fbdc828281518110611c9f57fe5b6020026020010151604051611cb49190615b94565b60405180910390a18080600101915050611bf8565b50611d156001806000808673ffffffffffffffffffffffffffffffffffffffff1673ffffffffffffffffffffffffffffffffffffffff1681526020019081526020016000205403614378565b6000808373ffffffffffffffffffffffffffffffffffffffff1673ffffffffffffffffffffffffffffffffffffffff16815260200190815260200160002060009055600260008154809291906001900391905055507fec92162abd648aa383bb639df9bd9365eadbaa591336752dd84d3591bfa0a26782604051611d999190615a44565b60405180910390a15050565b606060008060008473ffffffffffffffffffffffffffffffffffffffff1673ffffffffffffffffffffffffffffffffffffffff168152602001908152602001600020541415611e29576040517f08c379a0000000000000000000000000000000000000000000000000000000008152600401611e2090615d53565b60405180910390fd5b8173ffffffffffffffffffffffffffffffffffffffff163373ffffffffffffffffffffffffffffffffffffffff161480611ea357506000600960003373ffffffffffffffffffffffffffffffffffffffff1673ffffffffffffffffffffffffffffffffffffffff1681526020019081526020016000205414155b611ee2576040517f08c379a0000000000000000000000000000000000000000000000000000000008152600401611ed990615c73565b60405180910390fd5b6001806000808573ffffffffffffffffffffffffffffffffffffffff1673ffffffffffffffffffffffffffffffffffffffff168152602001908152602001600020540381548110611f2f57fe5b9060005260206000209060080201600701805480602002602001604051908101604052809291908181526020018280548015611f8a57602002820191906000526020600020905b815481526020019060010190808311611f76575b50505050509050919050565b600080600a60003373ffffffffffffffffffffffffffffffffffffffff1673ffffffffffffffffffffffffffffffffffffffff168152602001908152602001600020541415905090565b60096020528060005260406000206000915090505481565b6007818154811061200857600080fd5b90600052602060002090600702016000915090508060000154908060010160009054906101000a900473ffffffffffffffffffffffffffffffffffffffff16908060020160009054906101000a900473ffffffffffffffffffffffffffffffffffffffff1690806003018054600181600116156101000203166002900480601f0160208091040260200160405190810160405280929190818152602001828054600181600116156101000203166002900480156121065780601f106120db57610100808354040283529160200191612106565b820191906000526020600020905b8154815290600101906020018083116120e957829003601f168201915b505050505090806004018054600181600116156101000203166002900480601f0160208091040260200160405190810160405280929190818152602001828054600181600116156101000203166002900480156121a45780601f10612179576101008083540402835291602001916121a4565b820191906000526020600020905b81548152906001019060200180831161218757829003601f168201915b505050505090806005018054600181600116156101000203166002900480601f0160208091040260200160405190810160405280929190818152602001828054600181600116156101000203166002900480156122425780601f1061221757610100808354040283529160200191612242565b820191906000526020600020905b81548152906001019060200180831161222557829003601f168201915b5050505050908060060154905087565b6000600960003373ffffffffffffffffffffffffffffffffffffffff1673ffffffffffffffffffffffffffffffffffffffff1681526020019081526020016000205414156122d5576040517f08c379a00000000000000000000000000000000000000000000000000000000081526004016122cc90615dd3565b60405180910390fd5b60008060008a73ffffffffffffffffffffffffffffffffffffffff1673ffffffffffffffffffffffffffffffffffffffff1681526020019081526020016000205414612356576040517f08c379a000000000000000000000000000000000000000000000000000000000815260040161234d90615db3565b60405180910390fd5b6000600960008a73ffffffffffffffffffffffffffffffffffffffff1673ffffffffffffffffffffffffffffffffffffffff16815260200190815260200160002054146123d8576040517f08c379a00000000000000000000000000000000000000000000000000000000081526004016123cf90615cf3565b60405180910390fd5b6000600a60008a73ffffffffffffffffffffffffffffffffffffffff1673ffffffffffffffffffffffffffffffffffffffff168152602001908152602001600020541461245a576040517f08c379a000000000000000000000000000000000000000000000000000000000815260040161245190615c93565b60405180910390fd5b60026000815480929190600101919050555060018080549050016000808a73ffffffffffffffffffffffffffffffffffffffff1673ffffffffffffffffffffffffffffffffffffffff1681526020019081526020016000208190555060016040518061010001604052808a73ffffffffffffffffffffffffffffffffffffffff16815260200189815260200188815260200187815260200186815260200185815260200184815260200183815250908060018154018082558091505060019003906000526020600020906008020160009091909190915060008201518160000160006101000a81548173ffffffffffffffffffffffffffffffffffffffff021916908373ffffffffffffffffffffffffffffffffffffffff1602179055506020820151816001019080519060200190612594929190614818565b5060408201518160020190805190602001906125b1929190614818565b5060608201518160030190805190602001906125ce929190614818565b5060808201518160040190805190602001906125eb929190614818565b5060a0820151816005019080519060200190612608929190614818565b5060c0820151816006019080519060200190612625929190614818565b5060e08201518160070190805190602001906126429291906148a6565b5050507f2e5ed1b0817b286babe64f1c37ad94d371cb8c9f6d9a1d83345f8d521fcaae0b886040516126749190615a44565b60405180910390a15050505050505050565b600080600960003373ffffffffffffffffffffffffffffffffffffffff1673ffffffffffffffffffffffffffffffffffffffff168152602001908152602001600020541415905090565b60055481565b6000600a60003373ffffffffffffffffffffffffffffffffffffffff1673ffffffffffffffffffffffffffffffffffffffff168152602001908152602001600020541415612759576040517f08c379a000000000000000000000000000000000000000000000000000000000815260040161275090615c33565b60405180910390fd5b8473ffffffffffffffffffffffffffffffffffffffff163373ffffffffffffffffffffffffffffffffffffffff16146127c7576040517f08c379a00000000000000000000000000000000000000000000000000000000081526004016127be90615df3565b60405180910390fd5b60008686868686866040516020016127e4969594939291906159e0565b604051602081830303815290604052805190602001209050600560008154809291906001019190505550600160048054905001600360008381526020019081526020016000208190555060046040518060e001604052808381526020018973ffffffffffffffffffffffffffffffffffffffff1681526020018873ffffffffffffffffffffffffffffffffffffffff1681526020018781526020018681526020018581526020018481525090806001815401808255809150506001900390600052602060002090600702016000909190919091506000820151816000015560208201518160010160006101000a81548173ffffffffffffffffffffffffffffffffffffffff021916908373ffffffffffffffffffffffffffffffffffffffff16021790555060408201518160020160006101000a81548173ffffffffffffffffffffffffffffffffffffffff021916908373ffffffffffffffffffffffffffffffffffffffff160217905550606082015181600301908051906020019061296c929190614818565b506080820151816004019080519060200190612989929190614818565b5060a08201518160050190805190602001906129a6929190614818565b5060c0820151816006015550506001806000808a73ffffffffffffffffffffffffffffffffffffffff1673ffffffffffffffffffffffffffffffffffffffff168152602001908152602001600020540381548110612a0057fe5b90600052602060002090600802016007018190806001815401808255809150506001900390600052602060002001600090919091909150557f85ca0491ab0b66b547f1a84afd331fd6b696683df09c1392444c8b10f37dd59f81604051612a679190615b94565b60405180910390a150505050505050565b606060008060008473ffffffffffffffffffffffffffffffffffffffff1673ffffffffffffffffffffffffffffffffffffffff168152602001908152602001600020541415612afc576040517f08c379a0000000000000000000000000000000000000000000000000000000008152600401612af390615d53565b60405180910390fd5b8173ffffffffffffffffffffffffffffffffffffffff163373ffffffffffffffffffffffffffffffffffffffff161480612b7657506000600960003373ffffffffffffffffffffffffffffffffffffffff1673ffffffffffffffffffffffffffffffffffffffff1681526020019081526020016000205414155b612bb5576040517f08c379a0000000000000000000000000000000000000000000000000000000008152600401612bac90615c73565b60405180910390fd5b60006001806000808673ffffffffffffffffffffffffffffffffffffffff1673ffffffffffffffffffffffffffffffffffffffff168152602001908152602001600020540381548110612c0457fe5b9060005260206000209060080201600701805480602002602001604051908101604052809291908181526020018280548015612c5f57602002820191906000526020600020905b815481526020019060010190808311612c4b575b505050505090506000815167ffffffffffffffff81118015612c8057600080fd5b50604051908082528060200260200182016040528015612cba57816020015b612ca76146bc565b815260200190600190039081612c9f5790505b50905060005b8251811015612fe2576004600160036000868581518110612cdd57fe5b60200260200101518152602001908152602001600020540381548110612cff57fe5b90600052602060002090600702016040518060e0016040529081600082015481526020016001820160009054906101000a900473ffffffffffffffffffffffffffffffffffffffff1673ffffffffffffffffffffffffffffffffffffffff1673ffffffffffffffffffffffffffffffffffffffff1681526020016002820160009054906101000a900473ffffffffffffffffffffffffffffffffffffffff1673ffffffffffffffffffffffffffffffffffffffff1673ffffffffffffffffffffffffffffffffffffffff168152602001600382018054600181600116156101000203166002900480601f016020809104026020016040519081016040528092919081815260200182805460018160011615610100020316600290048015612e675780601f10612e3c57610100808354040283529160200191612e67565b820191906000526020600020905b815481529060010190602001808311612e4a57829003601f168201915b50505050508152602001600482018054600181600116156101000203166002900480601f016020809104026020016040519081016040528092919081815260200182805460018160011615610100020316600290048015612f095780601f10612ede57610100808354040283529160200191612f09565b820191906000526020600020905b815481529060010190602001808311612eec57829003601f168201915b50505050508152602001600582018054600181600116156101000203166002900480601f016020809104026020016040519081016040528092919081815260200182805460018160011615610100020316600290048015612fab5780601f10612f8057610100808354040283529160200191612fab565b820191906000526020600020905b815481529060010190602001808311612f8e57829003601f168201915b50505050508152602001600682015481525050828281518110612fca57fe5b60200260200101819052508080600101915050612cc0565b508092505050919050565b60066020528060005260406000206000915090505481565b61300d6146bc565b600060036000848152602001908152602001600020541415613064576040517f08c379a000000000000000000000000000000000000000000000000000000000815260040161305b90615c53565b60405180910390fd5b600460016003600085815260200190815260200160002054038154811061308757fe5b90600052602060002090600702016040518060e0016040529081600082015481526020016001820160009054906101000a900473ffffffffffffffffffffffffffffffffffffffff1673ffffffffffffffffffffffffffffffffffffffff1673ffffffffffffffffffffffffffffffffffffffff1681526020016002820160009054906101000a900473ffffffffffffffffffffffffffffffffffffffff1673ffffffffffffffffffffffffffffffffffffffff1673ffffffffffffffffffffffffffffffffffffffff168152602001600382018054600181600116156101000203166002900480601f0160208091040260200160405190810160405280929190818152602001828054600181600116156101000203166002900480156131ef5780601f106131c4576101008083540402835291602001916131ef565b820191906000526020600020905b8154815290600101906020018083116131d257829003601f168201915b50505050508152602001600482018054600181600116156101000203166002900480601f0160208091040260200160405190810160405280929190818152602001828054600181600116156101000203166002900480156132915780601f1061326657610100808354040283529160200191613291565b820191906000526020600020905b81548152906001019060200180831161327457829003601f168201915b50505050508152602001600582018054600181600116156101000203166002900480601f0160208091040260200160405190810160405280929190818152602001828054600181600116156101000203166002900480156133335780601f1061330857610100808354040283529160200191613333565b820191906000526020600020905b81548152906001019060200180831161331657829003601f168201915b505050505081526020016006820154815250509050919050565b60606000600960003373ffffffffffffffffffffffffffffffffffffffff1673ffffffffffffffffffffffffffffffffffffffff1681526020019081526020016000205414156133d2576040517f08c379a00000000000000000000000000000000000000000000000000000000081526004016133c990615dd3565b60405180910390fd5b6004805480602002602001604051908101604052809291908181526020016000905b828210156136cc57838290600052602060002090600702016040518060e0016040529081600082015481526020016001820160009054906101000a900473ffffffffffffffffffffffffffffffffffffffff1673ffffffffffffffffffffffffffffffffffffffff1673ffffffffffffffffffffffffffffffffffffffff1681526020016002820160009054906101000a900473ffffffffffffffffffffffffffffffffffffffff1673ffffffffffffffffffffffffffffffffffffffff1673ffffffffffffffffffffffffffffffffffffffff168152602001600382018054600181600116156101000203166002900480601f0160208091040260200160405190810160405280929190818152602001828054600181600116156101000203166002900480156135665780601f1061353b57610100808354040283529160200191613566565b820191906000526020600020905b81548152906001019060200180831161354957829003601f168201915b50505050508152602001600482018054600181600116156101000203166002900480601f0160208091040260200160405190810160405280929190818152602001828054600181600116156101000203166002900480156136085780601f106135dd57610100808354040283529160200191613608565b820191906000526020600020905b8154815290600101906020018083116135eb57829003601f168201915b50505050508152602001600582018054600181600116156101000203166002900480601f0160208091040260200160405190810160405280929190818152602001828054600181600116156101000203166002900480156136aa5780601f1061367f576101008083540402835291602001916136aa565b820191906000526020600020905b81548152906001019060200180831161368d57829003601f168201915b50505050508152602001600682015481525050815260200190600101906133f4565b50505050905090565b6000806003600084815260200190815260200160002054141561372d576040517f08c379a000000000000000000000000000000000000000000000000000000000815260040161372490615d73565b60405180910390fd5b60016003600084815260200190815260200160002054039050919050565b60606000600960003373ffffffffffffffffffffffffffffffffffffffff1673ffffffffffffffffffffffffffffffffffffffff1681526020019081526020016000205414156137d0576040517f08c379a00000000000000000000000000000000000000000000000000000000081526004016137c790615dd3565b60405180910390fd5b6001805480602002602001604051908101604052809291908181526020016000905b82821015613c9f5783829060005260206000209060080201604051806101000160405290816000820160009054906101000a900473ffffffffffffffffffffffffffffffffffffffff1673ffffffffffffffffffffffffffffffffffffffff1673ffffffffffffffffffffffffffffffffffffffff168152602001600182018054600181600116156101000203166002900480601f0160208091040260200160405190810160405280929190818152602001828054600181600116156101000203166002900480156139055780601f106138da57610100808354040283529160200191613905565b820191906000526020600020905b8154815290600101906020018083116138e857829003601f168201915b50505050508152602001600282018054600181600116156101000203166002900480601f0160208091040260200160405190810160405280929190818152602001828054600181600116156101000203166002900480156139a75780601f1061397c576101008083540402835291602001916139a7565b820191906000526020600020905b81548152906001019060200180831161398a57829003601f168201915b50505050508152602001600382018054600181600116156101000203166002900480601f016020809104026020016040519081016040528092919081815260200182805460018160011615610100020316600290048015613a495780601f10613a1e57610100808354040283529160200191613a49565b820191906000526020600020905b815481529060010190602001808311613a2c57829003601f168201915b50505050508152602001600482018054600181600116156101000203166002900480601f016020809104026020016040519081016040528092919081815260200182805460018160011615610100020316600290048015613aeb5780601f10613ac057610100808354040283529160200191613aeb565b820191906000526020600020905b815481529060010190602001808311613ace57829003601f168201915b50505050508152602001600582018054600181600116156101000203166002900480601f016020809104026020016040519081016040528092919081815260200182805460018160011615610100020316600290048015613b8d5780601f10613b6257610100808354040283529160200191613b8d565b820191906000526020600020905b815481529060010190602001808311613b7057829003601f168201915b50505050508152602001600682018054600181600116156101000203166002900480601f016020809104026020016040519081016040528092919081815260200182805460018160011615610100020316600290048015613c2f5780601f10613c0457610100808354040283529160200191613c2f565b820191906000526020600020905b815481529060010190602001808311613c1257829003601f168201915b5050505050815260200160078201805480602002602001604051908101604052809291908181526020018280548015613c8757602002820191906000526020600020905b815481526020019060010190808311613c73575b505050505081525050815260200190600101906137f2565b50505050905090565b60008060003373ffffffffffffffffffffffffffffffffffffffff1673ffffffffffffffffffffffffffffffffffffffff168152602001908152602001600020541415613d2a576040517f08c379a0000000000000000000000000000000000000000000000000000000008152600401613d2190615cd3565b60405180910390fd5b60008060003373ffffffffffffffffffffffffffffffffffffffff1673ffffffffffffffffffffffffffffffffffffffff168152602001908152602001600020541415613dac576040517f08c379a0000000000000000000000000000000000000000000000000000000008152600401613da390615d53565b60405180910390fd5b6000600a60008773ffffffffffffffffffffffffffffffffffffffff1673ffffffffffffffffffffffffffffffffffffffff168152602001908152602001600020541415613e2f576040517f08c379a0000000000000000000000000000000000000000000000000000000008152600401613e2690615d13565b60405180910390fd5b6000338686868686604051602001613e4c9695949392919061597c565b604051602081830303815290604052805190602001209050600860008154809291906001019190505550600160078054905001600660008381526020019081526020016000208190555060076040518060e001604052808381526020013373ffffffffffffffffffffffffffffffffffffffff1681526020018873ffffffffffffffffffffffffffffffffffffffff1681526020018781526020018681526020018581526020018481525090806001815401808255809150506001900390600052602060002090600702016000909190919091506000820151816000015560208201518160010160006101000a81548173ffffffffffffffffffffffffffffffffffffffff021916908373ffffffffffffffffffffffffffffffffffffffff16021790555060408201518160020160006101000a81548173ffffffffffffffffffffffffffffffffffffffff021916908373ffffffffffffffffffffffffffffffffffffffff1602179055506060820151816003019080519060200190613fd4929190614818565b506080820151816004019080519060200190613ff1929190614818565b5060a082015181600501908051906020019061400e929190614818565b5060c0820151816006015550507f2af1e75a3d834b77fa1b758eb75b9dd0d5445d40fe11ad4f71eec52c77ae812c3360405161404a9190615a5f565b60405180910390a1505050505050565b60008190505b60018380549050038110156142105782600182018154811061407e57fe5b906000526020600020906007020183828154811061409857fe5b9060005260206000209060070201600082015481600001556001820160009054906101000a900473ffffffffffffffffffffffffffffffffffffffff168160010160006101000a81548173ffffffffffffffffffffffffffffffffffffffff021916908373ffffffffffffffffffffffffffffffffffffffff1602179055506002820160009054906101000a900473ffffffffffffffffffffffffffffffffffffffff168160020160006101000a81548173ffffffffffffffffffffffffffffffffffffffff021916908373ffffffffffffffffffffffffffffffffffffffff160217905550600382018160030190805460018160011615610100020316600290046141a5929190614728565b50600482018160040190805460018160011615610100020316600290046141cd929190614728565b50600582018160050190805460018160011615610100020316600290046141f5929190614728565b50600682015481600601559050508080600101915050614060565b508160018380549050038154811061422457fe5b90600052602060002090600702016000808201600090556001820160006101000a81549073ffffffffffffffffffffffffffffffffffffffff02191690556002820160006101000a81549073ffffffffffffffffffffffffffffffffffffffff021916905560038201600061429991906148f3565b6004820160006142a991906148f3565b6005820160006142b991906148f3565b60068201600090555050818054806142cd57fe5b60019003818190600052602060002090600702016000808201600090556001820160006101000a81549073ffffffffffffffffffffffffffffffffffffffff02191690556002820160006101000a81549073ffffffffffffffffffffffffffffffffffffffff021916905560038201600061434891906148f3565b60048201600061435891906148f3565b60058201600061436891906148f3565b6006820160009055505090555050565b60008190505b60018380549050038110156145425782600182018154811061439c57fe5b90600052602060002090600802018382815481106143b657fe5b90600052602060002090600802016000820160009054906101000a900473ffffffffffffffffffffffffffffffffffffffff168160000160006101000a81548173ffffffffffffffffffffffffffffffffffffffff021916908373ffffffffffffffffffffffffffffffffffffffff16021790555060018201816001019080546001816001161561010002031660029004614452929190614728565b506002820181600201908054600181600116156101000203166002900461447a929190614728565b50600382018160030190805460018160011615610100020316600290046144a2929190614728565b50600482018160040190805460018160011615610100020316600290046144ca929190614728565b50600582018160050190805460018160011615610100020316600290046144f2929190614728565b506006820181600601908054600181600116156101000203166002900461451a929190614728565b50600782018160070190805461453192919061493b565b50905050808060010191505061437e565b508160018380549050038154811061455657fe5b9060005260206000209060080201600080820160006101000a81549073ffffffffffffffffffffffffffffffffffffffff021916905560018201600061459c91906148f3565b6002820160006145ac91906148f3565b6003820160006145bc91906148f3565b6004820160006145cc91906148f3565b6005820160006145dc91906148f3565b6006820160006145ec91906148f3565b6007820160006145fc919061498d565b50508180548061460857fe5b6001900381819060005260206000209060080201600080820160006101000a81549073ffffffffffffffffffffffffffffffffffffffff021916905560018201600061465491906148f3565b60028201600061466491906148f3565b60038201600061467491906148f3565b60048201600061468491906148f3565b60058201600061469491906148f3565b6006820160006146a491906148f3565b6007820160006146b4919061498d565b505090555050565b6040518060e0016040528060008019168152602001600073ffffffffffffffffffffffffffffffffffffffff168152602001600073ffffffffffffffffffffffffffffffffffffffff168152602001606081526020016060815260200160608152602001600081525090565b828054600181600116156101000203166002900490600052602060002090601f01602090048101928261475e57600085556147ac565b82601f1061476f57805485556147ac565b828001600101855582156147ac57600052602060002091601f016020900482015b828111156147ab578254825591600101919060010190614790565b5b5090506147b991906149ae565b5090565b604051806101000160405280600073ffffffffffffffffffffffffffffffffffffffff168152602001606081526020016060815260200160608152602001606081526020016060815260200160608152602001606081525090565b828054600181600116156101000203166002900490600052602060002090601f01602090048101928261484e5760008555614895565b82601f1061486757805160ff1916838001178555614895565b82800160010185558215614895579182015b82811115614894578251825591602001919060010190614879565b5b5090506148a291906149ae565b5090565b8280548282559060005260206000209081019282156148e2579160200282015b828111156148e15782518255916020019190600101906148c6565b5b5090506148ef91906149cb565b5090565b50805460018160011615610100020316600290046000825580601f106149195750614938565b601f01602090049060005260206000209081019061493791906149ae565b5b50565b82805482825590600052602060002090810192821561497c5760005260206000209182015b8281111561497b578254825591600101919060010190614960565b5b50905061498991906149cb565b5090565b50805460008255906000526020600020908101906149ab91906149cb565b50565b5b808211156149c75760008160009055506001016149af565b5090565b5b808211156149e45760008160009055506001016149cc565b5090565b60006149fb6149f684615ea3565b615e72565b90508083825260208201905082856020860282011115614a1a57600080fd5b60005b85811015614a4a5781614a308882614ad1565b845260208401935060208301925050600181019050614a1d565b5050509392505050565b6000614a67614a6284615ecf565b615e72565b905082815260208101848484011115614a7f57600080fd5b614a8a84828561608d565b509392505050565b600081359050614aa18161612f565b92915050565b600082601f830112614ab857600080fd5b8135614ac88482602086016149e8565b91505092915050565b600081359050614ae081616146565b92915050565b600082601f830112614af757600080fd5b8135614b07848260208601614a54565b91505092915050565b600081359050614b1f8161615d565b92915050565b600060208284031215614b3757600080fd5b6000614b4584828501614a92565b91505092915050565b60008060008060008060c08789031215614b6757600080fd5b6000614b7589828a01614a92565b9650506020614b8689828a01614a92565b955050604087013567ffffffffffffffff811115614ba357600080fd5b614baf89828a01614ae6565b945050606087013567ffffffffffffffff811115614bcc57600080fd5b614bd889828a01614ae6565b935050608087013567ffffffffffffffff811115614bf557600080fd5b614c0189828a01614ae6565b92505060a0614c1289828a01614b10565b9150509295509295509295565b600080600080600080600080610100898b031215614c3c57600080fd5b6000614c4a8b828c01614a92565b985050602089013567ffffffffffffffff811115614c6757600080fd5b614c738b828c01614ae6565b975050604089013567ffffffffffffffff811115614c9057600080fd5b614c9c8b828c01614ae6565b965050606089013567ffffffffffffffff811115614cb957600080fd5b614cc58b828c01614ae6565b955050608089013567ffffffffffffffff811115614ce257600080fd5b614cee8b828c01614ae6565b94505060a089013567ffffffffffffffff811115614d0b57600080fd5b614d178b828c01614ae6565b93505060c089013567ffffffffffffffff811115614d3457600080fd5b614d408b828c01614ae6565b92505060e089013567ffffffffffffffff811115614d5d57600080fd5b614d698b828c01614aa7565b9150509295985092959890939650565b600080600080600060a08688031215614d9157600080fd5b6000614d9f88828901614a92565b955050602086013567ffffffffffffffff811115614dbc57600080fd5b614dc888828901614ae6565b945050604086013567ffffffffffffffff811115614de557600080fd5b614df188828901614ae6565b935050606086013567ffffffffffffffff811115614e0e57600080fd5b614e1a88828901614ae6565b9250506080614e2b88828901614b10565b9150509295509295909350565b600060208284031215614e4a57600080fd5b6000614e5884828501614ad1565b91505092915050565b600060208284031215614e7357600080fd5b6000614e8184828501614b10565b91505092915050565b6000614e9683836150da565b60208301905092915050565b6000614eae838361563f565b905092915050565b6000614ec28383615793565b905092915050565b614ed381616057565b82525050565b614eea614ee582616005565b6160e1565b82525050565b614ef981615ff3565b82525050565b614f0881615ff3565b82525050565b614f1f614f1a82615ff3565b6160cf565b82525050565b6000614f3082615f2f565b614f3a8185615f82565b9350614f4583615eff565b8060005b83811015614f76578151614f5d8882614e8a565b9750614f6883615f5b565b925050600181019050614f49565b5085935050505092915050565b6000614f8e82615f2f565b614f988185615f93565b9350614fa383615eff565b8060005b83811015614fd4578151614fbb8882614e8a565b9750614fc683615f5b565b925050600181019050614fa7565b5085935050505092915050565b6000614fec82615f3a565b614ff68185615fa4565b93508360208202850161500885615f0f565b8060005b8581101561504457848403895281516150258582614ea2565b945061503083615f68565b925060208a0199505060018101905061500c565b50829750879550505050505092915050565b600061506182615f45565b61506b8185615fb5565b93508360208202850161507d85615f1f565b8060005b858110156150b9578484038952815161509a8582614eb6565b94506150a583615f75565b925060208a01995050600181019050615081565b50829750879550505050505092915050565b6150d481616017565b82525050565b6150e381616023565b82525050565b6150f281616023565b82525050565b600061510382615f50565b61510d8185615fc6565b935061511d81856020860161609c565b61512681616111565b840191505092915050565b600061513c82615f50565b6151468185615fd7565b935061515681856020860161609c565b61515f81616111565b840191505092915050565b600061517582615f50565b61517f8185615fe8565b935061518f81856020860161609c565b80840191505092915050565b60006151a8601083615fd7565b91507f497373756572206e6f7420666f756e64000000000000000000000000000000006000830152602082019050919050565b60006151e8602a83615fd7565b91507f596f752070726f766964656420616e20696e76616c6964206469706c6f6d612060008301527f6964656e746966696572000000000000000000000000000000000000000000006020830152604082019050919050565b600061524e601f83615fd7565b91507f4f6e6c79206f776e6572206f722061646d696e2061726520616c6c6f776564006000830152602082019050919050565b600061528e602483615fd7565b91507f416e206973737565722063616e6e6f7420656e726f6c6c20617320612073747560008301527f64656e74000000000000000000000000000000000000000000000000000000006020830152604082019050919050565b60006152f4602783615fd7565b91507f596f752070726f766964656420616e20696e76616c69642073747564656e742060008301527f61646472657373000000000000000000000000000000000000000000000000006020830152604082019050919050565b600061535a601183615fd7565b91507f53747564656e74206e6f7420666f756e640000000000000000000000000000006000830152602082019050919050565b600061539a602383615fd7565b91507f416e2061646d696e2063616e6e6f7420656e726f6c6c2061732061207374756460008301527f656e7400000000000000000000000000000000000000000000000000000000006020830152604082019050919050565b6000615400601583615fd7565b91507f49737375657220646f6573206e6f7420657869737400000000000000000000006000830152602082019050919050565b6000615440601683615fd7565b91507f4469706c6f6d6120616c726561647920657869737473000000000000000000006000830152602082019050919050565b6000615480601683615fd7565b91507f53747564656e7420646f6573206e6f74206578697374000000000000000000006000830152602082019050919050565b60006154c0601683615fd7565b91507f4469706c6f6d6120646f6573206e6f74206578697374000000000000000000006000830152602082019050919050565b6000615500603583615fd7565b91507f4469706c6f6d612072657175657374206973206e6f742072656769737465726560008301527f64206f7220686173206265656e2072656d6f76656400000000000000000000006020830152604082019050919050565b6000615566601683615fd7565b91507f53747564656e7420616c726561647920657869737473000000000000000000006000830152602082019050919050565b60006155a6600f83615fd7565b91507f41646d696e206e6f7420666f756e6400000000000000000000000000000000006000830152602082019050919050565b60006155e6603183615fd7565b91507f596f752063616e6e6f74206164642061206469706c6f6d61206973737565642060008301527f627920736f6d656f6e6520656c73652e2e0000000000000000000000000000006020830152604082019050919050565b600060e08301600083015161565760008601826150da565b50602083015161566a6020860182614ef0565b50604083015161567d6040860182614ef0565b506060830151848203606086015261569582826150f8565b915050608083015184820360808601526156af82826150f8565b91505060a083015184820360a08601526156c982826150f8565b91505060c08301516156de60c0860182615947565b508091505092915050565b600060e08301600083015161570160008601826150da565b5060208301516157146020860182614ef0565b5060408301516157276040860182614ef0565b506060830151848203606086015261573f82826150f8565b9150506080830151848203608086015261575982826150f8565b91505060a083015184820360a086015261577382826150f8565b91505060c083015161578860c0860182615947565b508091505092915050565b6000610100830160008301516157ac6000860182614ef0565b50602083015184820360208601526157c482826150f8565b915050604083015184820360408601526157de82826150f8565b915050606083015184820360608601526157f882826150f8565b9150506080830151848203608086015261581282826150f8565b91505060a083015184820360a086015261582c82826150f8565b91505060c083015184820360c086015261584682826150f8565b91505060e083015184820360e08601526158608282614f25565b9150508091505092915050565b6000610100830160008301516158866000860182614ef0565b506020830151848203602086015261589e82826150f8565b915050604083015184820360408601526158b882826150f8565b915050606083015184820360608601526158d282826150f8565b915050608083015184820360808601526158ec82826150f8565b91505060a083015184820360a086015261590682826150f8565b91505060c083015184820360c086015261592082826150f8565b91505060e083015184820360e086015261593a8282614f25565b9150508091505092915050565b6159508161604d565b82525050565b61595f8161604d565b82525050565b6159766159718261604d565b616105565b82525050565b60006159888289614ed9565b6014820191506159988288614f0e565b6014820191506159a8828761516a565b91506159b4828661516a565b91506159c0828561516a565b91506159cc8284615965565b602082019150819050979650505050505050565b60006159ec8289614f0e565b6014820191506159fc8288614f0e565b601482019150615a0c828761516a565b9150615a18828661516a565b9150615a24828561516a565b9150615a308284615965565b602082019150819050979650505050505050565b6000602082019050615a596000830184614eff565b92915050565b6000602082019050615a746000830184614eca565b92915050565b600060e082019050615a8f600083018a614eff565b8181036020830152615aa18189615131565b90508181036040830152615ab58188615131565b90508181036060830152615ac98187615131565b90508181036080830152615add8186615131565b905081810360a0830152615af18185615131565b905081810360c0830152615b058184615131565b905098975050505050505050565b60006020820190508181036000830152615b2d8184614f83565b905092915050565b60006020820190508181036000830152615b4f8184614fe1565b905092915050565b60006020820190508181036000830152615b718184615056565b905092915050565b6000602082019050615b8e60008301846150cb565b92915050565b6000602082019050615ba960008301846150e9565b92915050565b600060e082019050615bc4600083018a6150e9565b615bd16020830189614eff565b615bde6040830188614eff565b8181036060830152615bf08187615131565b90508181036080830152615c048186615131565b905081810360a0830152615c188185615131565b9050615c2760c0830184615956565b98975050505050505050565b60006020820190508181036000830152615c4c8161519b565b9050919050565b60006020820190508181036000830152615c6c816151db565b9050919050565b60006020820190508181036000830152615c8c81615241565b9050919050565b60006020820190508181036000830152615cac81615281565b9050919050565b60006020820190508181036000830152615ccc816152e7565b9050919050565b60006020820190508181036000830152615cec8161534d565b9050919050565b60006020820190508181036000830152615d0c8161538d565b9050919050565b60006020820190508181036000830152615d2c816153f3565b9050919050565b60006020820190508181036000830152615d4c81615433565b9050919050565b60006020820190508181036000830152615d6c81615473565b9050919050565b60006020820190508181036000830152615d8c816154b3565b9050919050565b60006020820190508181036000830152615dac816154f3565b9050919050565b60006020820190508181036000830152615dcc81615559565b9050919050565b60006020820190508181036000830152615dec81615599565b9050919050565b60006020820190508181036000830152615e0c816155d9565b9050919050565b60006020820190508181036000830152615e2d81846156e9565b905092915050565b60006020820190508181036000830152615e4f818461586d565b905092915050565b6000602082019050615e6c6000830184615956565b92915050565b6000604051905081810181811067ffffffffffffffff82111715615e9957615e9861610f565b5b8060405250919050565b600067ffffffffffffffff821115615ebe57615ebd61610f565b5b602082029050602081019050919050565b600067ffffffffffffffff821115615eea57615ee961610f565b5b601f19601f8301169050602081019050919050565b6000819050602082019050919050565b6000819050602082019050919050565b6000819050602082019050919050565b600081519050919050565b600081519050919050565b600081519050919050565b600081519050919050565b6000602082019050919050565b6000602082019050919050565b6000602082019050919050565b600082825260208201905092915050565b600082825260208201905092915050565b600082825260208201905092915050565b600082825260208201905092915050565b600082825260208201905092915050565b600082825260208201905092915050565b600081905092915050565b6000615ffe8261602d565b9050919050565b60006160108261602d565b9050919050565b60008115159050919050565b6000819050919050565b600073ffffffffffffffffffffffffffffffffffffffff82169050919050565b6000819050919050565b600061606282616069565b9050919050565b60006160748261607b565b9050919050565b60006160868261602d565b9050919050565b82818337600083830152505050565b60005b838110156160ba57808201518184015260208101905061609f565b838111156160c9576000848401525b50505050565b60006160da826160f3565b9050919050565b60006160ec826160f3565b9050919050565b60006160fe82616122565b9050919050565b6000819050919050565bfe5b6000601f19601f8301169050919050565b60008160601b9050919050565b61613881615ff3565b811461614357600080fd5b50565b61614f81616023565b811461615a57600080fd5b50565b6161668161604d565b811461617157600080fd5b5056fea2646970667358221220dd7d05aca6e0621fc5656df04ff703eca86944b8fd8ebcc078c363de0ae662f164736f6c63430007060033",
  "immutableReferences": {},
  "source": "// SPDX-License-Identifier: MIT\npragma solidity ^0.7.0;\npragma experimental ABIEncoderV2;\n\ncontract Diplomachain {\n    struct Diploma {\n        bytes32 id;\n        address owner;\n        address issuer;\n        string speciality;\n        string honors;\n        string title;\n        uint256 dateObtained; // timestamps format\n    }\n\n    struct Student {\n        address id;\n        string firstName;\n        string lastName;\n        string email;\n        string nationality;\n        string phoneNumber;\n        string gender;\n        bytes32[] diplomas;\n    }\n\n    mapping(address => uint256) private studentsIndexes;\n    Student[] public students;\n    uint256 public studentsCount;\n\n    // we can know if a diploma exists or not\n    mapping(bytes32 => uint256) public diplomasIndexes;\n    Diploma[] public diplomas;\n    uint256 public diplomasCount;\n    mapping(bytes32 => uint256) public pendingDiplomasIndexes;\n    Diploma[] public pendingDiplomas;\n    uint256 public pendingDiplomasCount;\n\n    // Let's say we have multiple universities, so it's a good practice to define admins addresses for now\n    mapping(address => uint256) public adminsIndexes;\n\n    // Since every diploma will be issued by a university club, we need to have issuersIndexes\n    mapping(address => uint256) public issuersIndexes;\n\n    constructor() {\n        studentsCount = 0;\n        diplomasCount = 0;\n        pendingDiplomasCount = 0;\n    }\n\n    // ==========modifiers declaration==========\n    modifier onlyAdmin() {\n        require(adminsIndexes[msg.sender] != 0, \"Admin not found\");\n        _;\n    }\n    modifier onlyStudent() {\n        require(studentsIndexes[msg.sender] != 0, \"Student not found\");\n        _;\n    }\n    modifier onlyIssuer() {\n        require(issuersIndexes[msg.sender] != 0, \"Issuer not found\");\n        _;\n    }\n\n    // ==========events definition==========\n    event LogRequestDiploma(address studentId);\n    event LogAddDiploma(bytes32 diplomaId);\n    event LogAddStudent(address studentId);\n    event LogDeleteDiploma(bytes32 diplomaId);\n    event LogDeleteStudent(address studentId);\n\n    // ==========Functions definition==========\n    // verifyDiploma()\n    function verifyDiploma(bytes32 diplomaId) public view returns (Diploma memory){\n        require (diplomasIndexes[diplomaId] != 0, \"You provided an invalid diploma identifier\");\n        return diplomas[diplomasIndexes[diplomaId] - 1];\n    }\n    // getDiploma() : for now, verifyDiploma() has the same code as getDiploma(), probably we'll remove the other fct\n    function getDiploma(bytes32 diplomaId) public view returns (Diploma memory){\n        require (diplomasIndexes[diplomaId] != 0, \"You provided an invalid diploma identifier\");\n        return diplomas[diplomasIndexes[diplomaId] - 1];\n    }\n    // addStudent()\n    function addStudent(\n        address _id,\n        string memory _firstName,\n        string memory _lastName,\n        string memory _email,\n        string memory _nationality,\n        string memory _phoneNumber,\n        string memory _gender,\n        bytes32[] memory _diplomas\n    ) public onlyAdmin {\n        require(studentsIndexes[_id] == 0, \"Student already exists\");\n        require(adminsIndexes[_id] == 0, \"An admin cannot enroll as a student\");\n        require(issuersIndexes[_id] == 0, \"An issuer cannot enroll as a student\");\n        studentsCount++;\n        studentsIndexes[_id] = students.length + 1;\n        students.push(\n            Student(_id, _firstName, _lastName, _email, _nationality, _phoneNumber, _gender, _diplomas)\n        );\n        emit LogAddStudent(_id);\n    }\n    // getStudent()\n    function getStudent(address student_addr) public view returns (Student memory){\n        require (studentsIndexes[student_addr] != 0, \"You provided an invalid student address\");\n        return students[studentsIndexes[student_addr] - 1];\n    }\n    // deleteStudent()\n    function deleteStudent(address student_addr) public onlyAdmin {\n        // 1 - delete the student's diplomas\n        bytes32[] memory diplomas_ids = students[studentsIndexes[student_addr] - 1].diplomas;\n        for (uint i = 0; i < diplomas_ids.length; i++) {\n            removeDiplomaItem(diplomas, diplomasIndexes[diplomas_ids[i]] - 1);\n            delete diplomasIndexes[diplomas_ids[i]];\n            diplomasCount--;\n            emit LogDeleteDiploma(diplomas_ids[i]);\n        }\n        // 2 - delete the student\n        removeStudentItem(students, studentsIndexes[student_addr] - 1);\n        delete studentsIndexes[student_addr];\n        studentsCount--;\n        emit LogDeleteStudent(student_addr);\n    }\n    // remove an element from diplomas array and shift to avoid leaving gaps\n    function removeDiplomaItem(Diploma[] storage array, uint256 index) private {\n        for (uint i = index; i < array.length - 1; i++) {\n            array[i] = array[i + 1];\n        }\n        delete array[array.length - 1];\n        array.pop();\n    }\n    // remove an element from students array and shift to avoid leaving gaps\n    function removeStudentItem(Student[] storage array, uint256 index) private {\n        for (uint i = index; i < array.length - 1; i++) {\n            array[i] = array[i + 1];\n        }\n        delete array[array.length - 1];\n        array.pop();\n    }\n    // addDiploma() => when a student requests a diploma, the admin will call this fct to issue it\n    function addDiploma(bytes32 _id) public onlyAdmin {\n        require(diplomasIndexes[_id] == 0, \"Diploma already exists\");\n        require(pendingDiplomasIndexes[_id] != 0, \"Diploma request is not registered or has been removed\");\n        diplomasCount++;\n        diplomasIndexes[_id] = diplomas.length + 1;\n        diplomas.push(\n            pendingDiplomas[pendingDiplomasIndexes[_id] - 1]\n        );\n        // get the student (owner) address\n        address student_adr = pendingDiplomas[pendingDiplomasIndexes[_id] - 1].owner;\n        // add the new diploma id to the student's diplomas ids array\n        students[studentsIndexes[student_adr] - 1].diplomas.push(\n            _id\n        );\n        // remove the diploma from the pending diplomas array\n        removeDiplomaItem(pendingDiplomas, pendingDiplomasIndexes[_id] - 1);\n        delete pendingDiplomasIndexes[_id];\n        pendingDiplomasCount--;\n        emit LogAddDiploma(_id);\n    }\n    // issueDiploma() => when the issuer himself wants to issue a diploma, he'll be able to do that directly\n    function issueDiploma(\n        address owner,\n        address issuer,\n        string memory _speciality,\n        string memory _honors,\n        string memory _title,\n        uint256 _dateObtained\n    ) public onlyIssuer {\n        require(msg.sender == issuer, \"You cannot add a diploma issued by someone else..\");\n        // generate a unique hash identifier for each diploma\n        bytes32 id = keccak256(abi.encodePacked(owner, issuer, _speciality, _honors, _title, _dateObtained));\n        diplomasCount++;\n        diplomasIndexes[id] = diplomas.length + 1;\n        diplomas.push(\n            Diploma(id, owner, issuer, _speciality, _honors, _title, _dateObtained)\n        );\n        // add the new diploma id to the student's diplomas ids array\n        students[studentsIndexes[owner] - 1].diplomas.push(\n            id\n        );\n        emit LogAddDiploma(id);\n    }\n    // isStudent()\n    function isStudent() public view returns (bool) {\n        return studentsIndexes[msg.sender] != 0;\n    }\n    // isAdmin()\n    function isAdmin() public view returns (bool) {\n        return adminsIndexes[msg.sender] != 0;\n    }\n    // isIssuer()\n    function isIssuer() public view returns (bool) {\n        return issuersIndexes[msg.sender] != 0;\n    }\n    // getStudentIndex()\n    function getStudentIndex(address studentId) public view returns (uint256) {\n        require(studentsIndexes[studentId] != 0, \"Student does not exist\");\n        return studentsIndexes[studentId] - 1;\n    }\n    // getDiplomaIndex()\n    function getDiplomaIndex(bytes32 diplomaId) public view returns (uint256) {\n        require(diplomasIndexes[diplomaId] != 0, \"Diploma does not exist\");\n        return diplomasIndexes[diplomaId] - 1;\n    }\n    // getStudents()\n    function getStudents() public onlyAdmin view returns (Student[] memory) {\n        return students;\n    }\n    // getDiplomas()\n    function getDiplomas() public onlyAdmin view returns (Diploma[] memory) {\n        return diplomas;\n    }\n    // getStudentDiplomasIds()\n    function getStudentDiplomasIds(address studentId) public view returns (bytes32[] memory) {\n        require(studentsIndexes[studentId] != 0, \"Student does not exist\");\n        require(msg.sender == studentId || adminsIndexes[msg.sender] != 0, \"Only owner or admin are allowed\");\n        return students[studentsIndexes[studentId] - 1].diplomas;\n    }\n    // getStudentDiplomas()\n    function getStudentDiplomas(address studentId) public view returns (Diploma[] memory) {\n        require(studentsIndexes[studentId] != 0, \"Student does not exist\");\n        require(msg.sender == studentId || adminsIndexes[msg.sender] != 0, \"Only owner or admin are allowed\");\n        bytes32[] memory diplomas_ids = students[studentsIndexes[studentId] - 1].diplomas;\n        Diploma[] memory full_diplomas = new Diploma[](diplomas_ids.length);\n        for (uint256 i = 0; i < diplomas_ids.length; i++) {\n            full_diplomas[i] = diplomas[diplomasIndexes[diplomas_ids[i]] - 1];\n        }\n        return full_diplomas;\n    }\n    // requestDiploma()\n    function requestDiploma(\n        address issuer,\n        string memory _speciality,\n        string memory _honors,\n        string memory _title,\n        uint256 _dateObtained\n    ) public onlyStudent {\n        require(studentsIndexes[msg.sender] != 0, \"Student does not exist\");\n        require(issuersIndexes[issuer] != 0, \"Issuer does not exist\");\n        // generate a unique hash identifier for each diploma\n        bytes32 id = keccak256(abi.encodePacked(msg.sender, issuer, _speciality, _honors, _title, _dateObtained));\n        pendingDiplomasCount++;\n        pendingDiplomasIndexes[id] = pendingDiplomas.length + 1;\n        pendingDiplomas.push(\n            Diploma(id, msg.sender, issuer, _speciality, _honors, _title, _dateObtained)\n        );\n        emit LogRequestDiploma(msg.sender);\n    }\n}",
  "sourcePath": "/home/cyberjoe/Documents/GitHub/Diplomachain/blockchain/contracts/Diplomachain.sol",
  "compiler": {
    "name": "solc",
    "version": "0.7.6+commit.7338295f.Emscripten.clang"
  },
  "schemaVersion": "3.3.3",
  "updatedAt": "2021-01-04T17:21:06.205Z",
  "devdoc": {
    "kind": "dev",
    "methods": {},
    "version": 1
  },
  "userdoc": {
    "kind": "user",
    "methods": {},
    "version": 1
  }
}