{
  "contractName": "Diplomachain",
  "abi": [
    {
      "inputs": [],
      "stateMutability": "nonpayable",
      "type": "constructor"
    },
    {
      "anonymous": false,
      "inputs": [
        {
          "indexed": false,
          "internalType": "bytes32",
          "name": "diplomaId",
          "type": "bytes32"
        }
      ],
      "name": "LogAddDiploma",
      "type": "event"
    },
    {
      "anonymous": false,
      "inputs": [
        {
          "indexed": false,
          "internalType": "address",
          "name": "studentId",
          "type": "address"
        }
      ],
      "name": "LogRequestDiploma",
      "type": "event"
    },
    {
      "inputs": [
        {
          "internalType": "address",
          "name": "",
          "type": "address"
        }
      ],
      "name": "adminsIndexes",
      "outputs": [
        {
          "internalType": "uint256",
          "name": "",
          "type": "uint256"
        }
      ],
      "stateMutability": "view",
      "type": "function"
    },
    {
      "inputs": [
        {
          "internalType": "uint256",
          "name": "",
          "type": "uint256"
        }
      ],
      "name": "diplomas",
      "outputs": [
        {
          "internalType": "bytes32",
          "name": "id",
          "type": "bytes32"
        },
        {
          "internalType": "address",
          "name": "owner",
          "type": "address"
        },
        {
          "internalType": "address",
          "name": "issuer",
          "type": "address"
        },
        {
          "internalType": "string",
          "name": "speciality",
          "type": "string"
        },
        {
          "internalType": "string",
          "name": "honors",
          "type": "string"
        },
        {
          "internalType": "string",
          "name": "title",
          "type": "string"
        },
        {
          "internalType": "uint256",
          "name": "dateObtained",
          "type": "uint256"
        }
      ],
      "stateMutability": "view",
      "type": "function"
    },
    {
      "inputs": [],
      "name": "diplomasCount",
      "outputs": [
        {
          "internalType": "uint256",
          "name": "",
          "type": "uint256"
        }
      ],
      "stateMutability": "view",
      "type": "function"
    },
    {
      "inputs": [
        {
          "internalType": "bytes32",
          "name": "",
          "type": "bytes32"
        }
      ],
      "name": "diplomasIndexes",
      "outputs": [
        {
          "internalType": "uint256",
          "name": "",
          "type": "uint256"
        }
      ],
      "stateMutability": "view",
      "type": "function"
    },
    {
      "inputs": [
        {
          "internalType": "address",
          "name": "",
          "type": "address"
        }
      ],
      "name": "issuersIndexes",
      "outputs": [
        {
          "internalType": "uint256",
          "name": "",
          "type": "uint256"
        }
      ],
      "stateMutability": "view",
      "type": "function"
    },
    {
      "inputs": [
        {
          "internalType": "uint256",
          "name": "",
          "type": "uint256"
        }
      ],
      "name": "pendingDiplomas",
      "outputs": [
        {
          "internalType": "bytes32",
          "name": "id",
          "type": "bytes32"
        },
        {
          "internalType": "address",
          "name": "owner",
          "type": "address"
        },
        {
          "internalType": "address",
          "name": "issuer",
          "type": "address"
        },
        {
          "internalType": "string",
          "name": "speciality",
          "type": "string"
        },
        {
          "internalType": "string",
          "name": "honors",
          "type": "string"
        },
        {
          "internalType": "string",
          "name": "title",
          "type": "string"
        },
        {
          "internalType": "uint256",
          "name": "dateObtained",
          "type": "uint256"
        }
      ],
      "stateMutability": "view",
      "type": "function"
    },
    {
      "inputs": [],
      "name": "pendingDiplomasCount",
      "outputs": [
        {
          "internalType": "uint256",
          "name": "",
          "type": "uint256"
        }
      ],
      "stateMutability": "view",
      "type": "function"
    },
    {
      "inputs": [
        {
          "internalType": "bytes32",
          "name": "",
          "type": "bytes32"
        }
      ],
      "name": "pendingDiplomasIndexes",
      "outputs": [
        {
          "internalType": "uint256",
          "name": "",
          "type": "uint256"
        }
      ],
      "stateMutability": "view",
      "type": "function"
    },
    {
      "inputs": [
        {
          "internalType": "uint256",
          "name": "",
          "type": "uint256"
        }
      ],
      "name": "students",
      "outputs": [
        {
          "internalType": "address",
          "name": "id",
          "type": "address"
        },
        {
          "internalType": "string",
          "name": "firstName",
          "type": "string"
        },
        {
          "internalType": "string",
          "name": "lastName",
          "type": "string"
        },
        {
          "internalType": "string",
          "name": "email",
          "type": "string"
        },
        {
          "internalType": "string",
          "name": "nationality",
          "type": "string"
        },
        {
          "internalType": "string",
          "name": "phoneNumber",
          "type": "string"
        },
        {
          "internalType": "string",
          "name": "gender",
          "type": "string"
        }
      ],
      "stateMutability": "view",
      "type": "function"
    },
    {
      "inputs": [],
      "name": "studentsCount",
      "outputs": [
        {
          "internalType": "uint256",
          "name": "",
          "type": "uint256"
        }
      ],
      "stateMutability": "view",
      "type": "function"
    },
    {
      "inputs": [
        {
          "internalType": "bytes32",
          "name": "diplomaId",
          "type": "bytes32"
        }
      ],
      "name": "verifyDiploma",
      "outputs": [
        {
          "components": [
            {
              "internalType": "bytes32",
              "name": "id",
              "type": "bytes32"
            },
            {
              "internalType": "address",
              "name": "owner",
              "type": "address"
            },
            {
              "internalType": "address",
              "name": "issuer",
              "type": "address"
            },
            {
              "internalType": "string",
              "name": "speciality",
              "type": "string"
            },
            {
              "internalType": "string",
              "name": "honors",
              "type": "string"
            },
            {
              "internalType": "string",
              "name": "title",
              "type": "string"
            },
            {
              "internalType": "uint256",
              "name": "dateObtained",
              "type": "uint256"
            }
          ],
          "internalType": "struct Diplomachain.Diploma",
          "name": "",
          "type": "tuple"
        }
      ],
      "stateMutability": "view",
      "type": "function"
    },
    {
      "inputs": [
        {
          "internalType": "address",
          "name": "_id",
          "type": "address"
        },
        {
          "internalType": "string",
          "name": "_firstName",
          "type": "string"
        },
        {
          "internalType": "string",
          "name": "_lastName",
          "type": "string"
        },
        {
          "internalType": "string",
          "name": "_email",
          "type": "string"
        },
        {
          "internalType": "string",
          "name": "_nationality",
          "type": "string"
        },
        {
          "internalType": "string",
          "name": "_phoneNumber",
          "type": "string"
        },
        {
          "internalType": "string",
          "name": "_gender",
          "type": "string"
        },
        {
          "internalType": "bytes32[]",
          "name": "_diplomas",
          "type": "bytes32[]"
        }
      ],
      "name": "addStudent",
      "outputs": [],
      "stateMutability": "nonpayable",
      "type": "function"
    },
    {
      "inputs": [
        {
          "internalType": "bytes32",
          "name": "_id",
          "type": "bytes32"
        }
      ],
      "name": "addDiploma",
      "outputs": [],
      "stateMutability": "nonpayable",
      "type": "function"
    },
    {
      "inputs": [
        {
          "internalType": "address",
          "name": "owner",
          "type": "address"
        },
        {
          "internalType": "address",
          "name": "issuer",
          "type": "address"
        },
        {
          "internalType": "string",
          "name": "_speciality",
          "type": "string"
        },
        {
          "internalType": "string",
          "name": "_honors",
          "type": "string"
        },
        {
          "internalType": "string",
          "name": "_title",
          "type": "string"
        },
        {
          "internalType": "uint256",
          "name": "_dateObtained",
          "type": "uint256"
        }
      ],
      "name": "issueDiploma",
      "outputs": [],
      "stateMutability": "nonpayable",
      "type": "function"
    },
    {
      "inputs": [],
      "name": "isStudent",
      "outputs": [
        {
          "internalType": "bool",
          "name": "",
          "type": "bool"
        }
      ],
      "stateMutability": "view",
      "type": "function"
    },
    {
      "inputs": [],
      "name": "isAdmin",
      "outputs": [
        {
          "internalType": "bool",
          "name": "",
          "type": "bool"
        }
      ],
      "stateMutability": "view",
      "type": "function"
    },
    {
      "inputs": [],
      "name": "isIssuer",
      "outputs": [
        {
          "internalType": "bool",
          "name": "",
          "type": "bool"
        }
      ],
      "stateMutability": "view",
      "type": "function"
    },
    {
      "inputs": [
        {
          "internalType": "address",
          "name": "studentId",
          "type": "address"
        }
      ],
      "name": "getStudentIndex",
      "outputs": [
        {
          "internalType": "uint256",
          "name": "",
          "type": "uint256"
        }
      ],
      "stateMutability": "view",
      "type": "function"
    },
    {
      "inputs": [
        {
          "internalType": "bytes32",
          "name": "diplomaId",
          "type": "bytes32"
        }
      ],
      "name": "getDiplomaIndex",
      "outputs": [
        {
          "internalType": "uint256",
          "name": "",
          "type": "uint256"
        }
      ],
      "stateMutability": "view",
      "type": "function"
    },
    {
      "inputs": [],
      "name": "getStudents",
      "outputs": [
        {
          "components": [
            {
              "internalType": "address",
              "name": "id",
              "type": "address"
            },
            {
              "internalType": "string",
              "name": "firstName",
              "type": "string"
            },
            {
              "internalType": "string",
              "name": "lastName",
              "type": "string"
            },
            {
              "internalType": "string",
              "name": "email",
              "type": "string"
            },
            {
              "internalType": "string",
              "name": "nationality",
              "type": "string"
            },
            {
              "internalType": "string",
              "name": "phoneNumber",
              "type": "string"
            },
            {
              "internalType": "string",
              "name": "gender",
              "type": "string"
            },
            {
              "internalType": "bytes32[]",
              "name": "diplomas",
              "type": "bytes32[]"
            }
          ],
          "internalType": "struct Diplomachain.Student[]",
          "name": "",
          "type": "tuple[]"
        }
      ],
      "stateMutability": "view",
      "type": "function"
    },
    {
      "inputs": [],
      "name": "getDiplomas",
      "outputs": [
        {
          "components": [
            {
              "internalType": "bytes32",
              "name": "id",
              "type": "bytes32"
            },
            {
              "internalType": "address",
              "name": "owner",
              "type": "address"
            },
            {
              "internalType": "address",
              "name": "issuer",
              "type": "address"
            },
            {
              "internalType": "string",
              "name": "speciality",
              "type": "string"
            },
            {
              "internalType": "string",
              "name": "honors",
              "type": "string"
            },
            {
              "internalType": "string",
              "name": "title",
              "type": "string"
            },
            {
              "internalType": "uint256",
              "name": "dateObtained",
              "type": "uint256"
            }
          ],
          "internalType": "struct Diplomachain.Diploma[]",
          "name": "",
          "type": "tuple[]"
        }
      ],
      "stateMutability": "view",
      "type": "function"
    },
    {
      "inputs": [
        {
          "internalType": "address",
          "name": "studentId",
          "type": "address"
        }
      ],
      "name": "getStudentDiplomasIds",
      "outputs": [
        {
          "internalType": "bytes32[]",
          "name": "",
          "type": "bytes32[]"
        }
      ],
      "stateMutability": "view",
      "type": "function"
    },
    {
      "inputs": [
        {
          "internalType": "address",
          "name": "studentId",
          "type": "address"
        }
      ],
      "name": "getStudentDiplomas",
      "outputs": [
        {
          "components": [
            {
              "internalType": "bytes32",
              "name": "id",
              "type": "bytes32"
            },
            {
              "internalType": "address",
              "name": "owner",
              "type": "address"
            },
            {
              "internalType": "address",
              "name": "issuer",
              "type": "address"
            },
            {
              "internalType": "string",
              "name": "speciality",
              "type": "string"
            },
            {
              "internalType": "string",
              "name": "honors",
              "type": "string"
            },
            {
              "internalType": "string",
              "name": "title",
              "type": "string"
            },
            {
              "internalType": "uint256",
              "name": "dateObtained",
              "type": "uint256"
            }
          ],
          "internalType": "struct Diplomachain.Diploma[]",
          "name": "",
          "type": "tuple[]"
        }
      ],
      "stateMutability": "view",
      "type": "function"
    },
    {
      "inputs": [
        {
          "internalType": "address",
          "name": "issuer",
          "type": "address"
        },
        {
          "internalType": "string",
          "name": "_speciality",
          "type": "string"
        },
        {
          "internalType": "string",
          "name": "_honors",
          "type": "string"
        },
        {
          "internalType": "string",
          "name": "_title",
          "type": "string"
        },
        {
          "internalType": "uint256",
          "name": "_dateObtained",
          "type": "uint256"
        }
      ],
      "name": "requestDiploma",
      "outputs": [],
      "stateMutability": "nonpayable",
      "type": "function"
    }
  ],
  "bytecode": "0x608060405234801561001057600080fd5b50600060028190555060006005819055506000600881905550614d49806100386000396000f3fe608060405234801561001057600080fd5b50600436106101585760003560e01c806395f378e8116100c3578063d9d0350b1161007c578063d9d0350b14610427578063e89cc99714610457578063e8c2ecd614610487578063ee6ffd48146104a5578063f1d064b3146104d5578063ff45bc59146104f357610158565b806395f378e81461034d578063aaf1485e14610383578063b6db75a01461039f578063c9675e13146103bd578063cef87be5146103db578063d1b93292146103f757610158565b806359bebe081161011557806359bebe081461026557806364d1d1ff1461029557806368433a3a146102b15780637a6e8a13146102cf57806386af78fa146102ff57806394d3bd351461031d57610158565b806306ead22e1461015d57806333c899831461019357806335079904146101b157806335dfc1c3146101e1578063465cf8661461021757806351e0a6eb14610247575b600080fd5b61017760048036038101906101729190613ca9565b61050f565b60405161018a979695949392919061469b565b60405180910390f35b61019b610911565b6040516101a891906149f6565b60405180910390f35b6101cb60048036038101906101c69190613c80565b610917565b6040516101d891906149f6565b60405180910390f35b6101fb60048036038101906101f69190613ca9565b61092f565b60405161020e97969594939291906147d0565b60405180910390f35b610231600480360381019061022c919061396d565b610b89565b60405161023e91906149f6565b60405180910390f35b61024f610c55565b60405161025c919061479a565b60405180910390f35b61027f600480360381019061027a919061396d565b610c9e565b60405161028c91906149f6565b60405180910390f35b6102af60048036038101906102aa9190613c80565b610cb6565b005b6102b9611134565b6040516102c691906149f6565b60405180910390f35b6102e960048036038101906102e4919061396d565b61113a565b6040516102f69190614734565b60405180910390f35b61030761132b565b604051610314919061479a565b60405180910390f35b6103376004803603810190610332919061396d565b611375565b60405161034491906149f6565b60405180910390f35b61036760048036038101906103629190613ca9565b61138d565b60405161037a97969594939291906147d0565b60405180910390f35b61039d60048036038101906103989190613a67565b6115e7565b005b6103a76118e0565b6040516103b4919061479a565b60405180910390f35b6103c561192a565b6040516103d291906149f6565b60405180910390f35b6103f560048036038101906103f09190613996565b611930565b005b610411600480360381019061040c919061396d565b611cd2565b60405161041e9190614756565b60405180910390f35b610441600480360381019061043c9190613c80565b612247565b60405161044e91906149f6565b60405180910390f35b610471600480360381019061046c9190613c80565b61225f565b60405161047e91906149d4565b60405180910390f35b61048f6125a7565b60405161049c9190614756565b60405180910390f35b6104bf60048036038101906104ba9190613c80565b61292f565b6040516104cc91906149f6565b60405180910390f35b6104dd6129a5565b6040516104ea9190614778565b60405180910390f35b61050d60048036038101906105089190613bc1565b612f02565b005b6001818154811061051f57600080fd5b90600052602060002090600802016000915090508060000160009054906101000a900473ffffffffffffffffffffffffffffffffffffffff1690806001018054600181600116156101000203166002900480601f0160208091040260200160405190810160405280929190818152602001828054600181600116156101000203166002900480156105f15780601f106105c6576101008083540402835291602001916105f1565b820191906000526020600020905b8154815290600101906020018083116105d457829003601f168201915b505050505090806002018054600181600116156101000203166002900480601f01602080910402602001604051908101604052809291908181526020018280546001816001161561010002031660029004801561068f5780601f106106645761010080835404028352916020019161068f565b820191906000526020600020905b81548152906001019060200180831161067257829003601f168201915b505050505090806003018054600181600116156101000203166002900480601f01602080910402602001604051908101604052809291908181526020018280546001816001161561010002031660029004801561072d5780601f106107025761010080835404028352916020019161072d565b820191906000526020600020905b81548152906001019060200180831161071057829003601f168201915b505050505090806004018054600181600116156101000203166002900480601f0160208091040260200160405190810160405280929190818152602001828054600181600116156101000203166002900480156107cb5780601f106107a0576101008083540402835291602001916107cb565b820191906000526020600020905b8154815290600101906020018083116107ae57829003601f168201915b505050505090806005018054600181600116156101000203166002900480601f0160208091040260200160405190810160405280929190818152602001828054600181600116156101000203166002900480156108695780601f1061083e57610100808354040283529160200191610869565b820191906000526020600020905b81548152906001019060200180831161084c57829003601f168201915b505050505090806006018054600181600116156101000203166002900480601f0160208091040260200160405190810160405280929190818152602001828054600181600116156101000203166002900480156109075780601f106108dc57610100808354040283529160200191610907565b820191906000526020600020905b8154815290600101906020018083116108ea57829003601f168201915b5050505050905087565b60085481565b60036020528060005260406000206000915090505481565b6004818154811061093f57600080fd5b90600052602060002090600702016000915090508060000154908060010160009054906101000a900473ffffffffffffffffffffffffffffffffffffffff16908060020160009054906101000a900473ffffffffffffffffffffffffffffffffffffffff1690806003018054600181600116156101000203166002900480601f016020809104026020016040519081016040528092919081815260200182805460018160011615610100020316600290048015610a3d5780601f10610a1257610100808354040283529160200191610a3d565b820191906000526020600020905b815481529060010190602001808311610a2057829003601f168201915b505050505090806004018054600181600116156101000203166002900480601f016020809104026020016040519081016040528092919081815260200182805460018160011615610100020316600290048015610adb5780601f10610ab057610100808354040283529160200191610adb565b820191906000526020600020905b815481529060010190602001808311610abe57829003601f168201915b505050505090806005018054600181600116156101000203166002900480601f016020809104026020016040519081016040528092919081815260200182805460018160011615610100020316600290048015610b795780601f10610b4e57610100808354040283529160200191610b79565b820191906000526020600020905b815481529060010190602001808311610b5c57829003601f168201915b5050505050908060060154905087565b6000806000808473ffffffffffffffffffffffffffffffffffffffff1673ffffffffffffffffffffffffffffffffffffffff168152602001908152602001600020541415610c0c576040517f08c379a0000000000000000000000000000000000000000000000000000000008152600401610c0390614914565b60405180910390fd5b60016000808473ffffffffffffffffffffffffffffffffffffffff1673ffffffffffffffffffffffffffffffffffffffff16815260200190815260200160002054039050919050565b6000806000803373ffffffffffffffffffffffffffffffffffffffff1673ffffffffffffffffffffffffffffffffffffffff168152602001908152602001600020541415905090565b600a6020528060005260406000206000915090505481565b6000600960003373ffffffffffffffffffffffffffffffffffffffff1673ffffffffffffffffffffffffffffffffffffffff168152602001908152602001600020541415610d39576040517f08c379a0000000000000000000000000000000000000000000000000000000008152600401610d3090614994565b60405180910390fd5b6000600360008381526020019081526020016000205414610d8f576040517f08c379a0000000000000000000000000000000000000000000000000000000008152600401610d86906148f4565b60405180910390fd5b600060066000838152602001908152602001600020541415610de6576040517f08c379a0000000000000000000000000000000000000000000000000000000008152600401610ddd90614954565b60405180910390fd5b600560008154809291906001019190505550600160048054905001600360008381526020019081526020016000208190555060046007600160066000858152602001908152602001600020540381548110610e3d57fe5b90600052602060002090600702019080600181540180825580915050600190039060005260206000209060070201600090919091909150600082015481600001556001820160009054906101000a900473ffffffffffffffffffffffffffffffffffffffff168160010160006101000a81548173ffffffffffffffffffffffffffffffffffffffff021916908373ffffffffffffffffffffffffffffffffffffffff1602179055506002820160009054906101000a900473ffffffffffffffffffffffffffffffffffffffff168160020160006101000a81548173ffffffffffffffffffffffffffffffffffffffff021916908373ffffffffffffffffffffffffffffffffffffffff16021790555060038201816003019080546001816001161561010002031660029004610f739291906135d2565b5060048201816004019080546001816001161561010002031660029004610f9b9291906135d2565b5060058201816005019080546001816001161561010002031660029004610fc39291906135d2565b5060068201548160060155505060006007600160066000858152602001908152602001600020540381548110610ff557fe5b906000526020600020906007020160010160009054906101000a900473ffffffffffffffffffffffffffffffffffffffff1690506001806000808473ffffffffffffffffffffffffffffffffffffffff1673ffffffffffffffffffffffffffffffffffffffff16815260200190815260200160002054038154811061107657fe5b90600052602060002090600802016007018290806001815401808255809150506001900390600052602060002001600090919091909150556110cf600760016006600086815260200190815260200160002054036132b4565b6006600083815260200190815260200160002060009055600860008154809291906001900391905055507f85ca0491ab0b66b547f1a84afd331fd6b696683df09c1392444c8b10f37dd59f8260405161112891906147b5565b60405180910390a15050565b60025481565b606060008060008473ffffffffffffffffffffffffffffffffffffffff1673ffffffffffffffffffffffffffffffffffffffff1681526020019081526020016000205414156111be576040517f08c379a00000000000000000000000000000000000000000000000000000000081526004016111b590614914565b60405180910390fd5b8173ffffffffffffffffffffffffffffffffffffffff163373ffffffffffffffffffffffffffffffffffffffff16148061123857506000600960003373ffffffffffffffffffffffffffffffffffffffff1673ffffffffffffffffffffffffffffffffffffffff1681526020019081526020016000205414155b611277576040517f08c379a000000000000000000000000000000000000000000000000000000000815260040161126e90614894565b60405180910390fd5b6001806000808573ffffffffffffffffffffffffffffffffffffffff1673ffffffffffffffffffffffffffffffffffffffff1681526020019081526020016000205403815481106112c457fe5b906000526020600020906008020160070180548060200260200160405190810160405280929190818152602001828054801561131f57602002820191906000526020600020905b81548152602001906001019080831161130b575b50505050509050919050565b600080600a60003373ffffffffffffffffffffffffffffffffffffffff1673ffffffffffffffffffffffffffffffffffffffff168152602001908152602001600020541415905090565b60096020528060005260406000206000915090505481565b6007818154811061139d57600080fd5b90600052602060002090600702016000915090508060000154908060010160009054906101000a900473ffffffffffffffffffffffffffffffffffffffff16908060020160009054906101000a900473ffffffffffffffffffffffffffffffffffffffff1690806003018054600181600116156101000203166002900480601f01602080910402602001604051908101604052809291908181526020018280546001816001161561010002031660029004801561149b5780601f106114705761010080835404028352916020019161149b565b820191906000526020600020905b81548152906001019060200180831161147e57829003601f168201915b505050505090806004018054600181600116156101000203166002900480601f0160208091040260200160405190810160405280929190818152602001828054600181600116156101000203166002900480156115395780601f1061150e57610100808354040283529160200191611539565b820191906000526020600020905b81548152906001019060200180831161151c57829003601f168201915b505050505090806005018054600181600116156101000203166002900480601f0160208091040260200160405190810160405280929190818152602001828054600181600116156101000203166002900480156115d75780601f106115ac576101008083540402835291602001916115d7565b820191906000526020600020905b8154815290600101906020018083116115ba57829003601f168201915b5050505050908060060154905087565b6000600960003373ffffffffffffffffffffffffffffffffffffffff1673ffffffffffffffffffffffffffffffffffffffff16815260200190815260200160002054141561166a576040517f08c379a000000000000000000000000000000000000000000000000000000000815260040161166190614994565b60405180910390fd5b60008060008a73ffffffffffffffffffffffffffffffffffffffff1673ffffffffffffffffffffffffffffffffffffffff16815260200190815260200160002054146116eb576040517f08c379a00000000000000000000000000000000000000000000000000000000081526004016116e290614974565b60405180910390fd5b60026000815480929190600101919050555060018080549050016000808a73ffffffffffffffffffffffffffffffffffffffff1673ffffffffffffffffffffffffffffffffffffffff1681526020019081526020016000208190555060016040518061010001604052808a73ffffffffffffffffffffffffffffffffffffffff16815260200189815260200188815260200187815260200186815260200185815260200184815260200183815250908060018154018082558091505060019003906000526020600020906008020160009091909190915060008201518160000160006101000a81548173ffffffffffffffffffffffffffffffffffffffff021916908373ffffffffffffffffffffffffffffffffffffffff1602179055506020820151816001019080519060200190611825929190613667565b506040820151816002019080519060200190611842929190613667565b50606082015181600301908051906020019061185f929190613667565b50608082015181600401908051906020019061187c929190613667565b5060a0820151816005019080519060200190611899929190613667565b5060c08201518160060190805190602001906118b6929190613667565b5060e08201518160070190805190602001906118d39291906136f5565b5050505050505050505050565b600080600960003373ffffffffffffffffffffffffffffffffffffffff1673ffffffffffffffffffffffffffffffffffffffff168152602001908152602001600020541415905090565b60055481565b6000600a60003373ffffffffffffffffffffffffffffffffffffffff1673ffffffffffffffffffffffffffffffffffffffff1681526020019081526020016000205414156119b3576040517f08c379a00000000000000000000000000000000000000000000000000000000081526004016119aa90614854565b60405180910390fd5b8473ffffffffffffffffffffffffffffffffffffffff163373ffffffffffffffffffffffffffffffffffffffff1614611a21576040517f08c379a0000000000000000000000000000000000000000000000000000000008152600401611a18906149b4565b60405180910390fd5b6000868686868686604051602001611a3e9695949392919061461c565b604051602081830303815290604052805190602001209050600560008154809291906001019190505550600160048054905001600360008381526020019081526020016000208190555060046040518060e001604052808381526020018973ffffffffffffffffffffffffffffffffffffffff1681526020018873ffffffffffffffffffffffffffffffffffffffff1681526020018781526020018681526020018581526020018481525090806001815401808255809150506001900390600052602060002090600702016000909190919091506000820151816000015560208201518160010160006101000a81548173ffffffffffffffffffffffffffffffffffffffff021916908373ffffffffffffffffffffffffffffffffffffffff16021790555060408201518160020160006101000a81548173ffffffffffffffffffffffffffffffffffffffff021916908373ffffffffffffffffffffffffffffffffffffffff1602179055506060820151816003019080519060200190611bc6929190613667565b506080820151816004019080519060200190611be3929190613667565b5060a0820151816005019080519060200190611c00929190613667565b5060c0820151816006015550506001806000808a73ffffffffffffffffffffffffffffffffffffffff1673ffffffffffffffffffffffffffffffffffffffff168152602001908152602001600020540381548110611c5a57fe5b90600052602060002090600802016007018190806001815401808255809150506001900390600052602060002001600090919091909150557f85ca0491ab0b66b547f1a84afd331fd6b696683df09c1392444c8b10f37dd59f81604051611cc191906147b5565b60405180910390a150505050505050565b606060008060008473ffffffffffffffffffffffffffffffffffffffff1673ffffffffffffffffffffffffffffffffffffffff168152602001908152602001600020541415611d56576040517f08c379a0000000000000000000000000000000000000000000000000000000008152600401611d4d90614914565b60405180910390fd5b8173ffffffffffffffffffffffffffffffffffffffff163373ffffffffffffffffffffffffffffffffffffffff161480611dd057506000600960003373ffffffffffffffffffffffffffffffffffffffff1673ffffffffffffffffffffffffffffffffffffffff1681526020019081526020016000205414155b611e0f576040517f08c379a0000000000000000000000000000000000000000000000000000000008152600401611e0690614894565b60405180910390fd5b60006001806000808673ffffffffffffffffffffffffffffffffffffffff1673ffffffffffffffffffffffffffffffffffffffff168152602001908152602001600020540381548110611e5e57fe5b9060005260206000209060080201600701805480602002602001604051908101604052809291908181526020018280548015611eb957602002820191906000526020600020905b815481526020019060010190808311611ea5575b505050505090506000815167ffffffffffffffff81118015611eda57600080fd5b50604051908082528060200260200182016040528015611f1457816020015b611f01613742565b815260200190600190039081611ef95790505b50905060005b825181101561223c576004600160036000868581518110611f3757fe5b60200260200101518152602001908152602001600020540381548110611f5957fe5b90600052602060002090600702016040518060e0016040529081600082015481526020016001820160009054906101000a900473ffffffffffffffffffffffffffffffffffffffff1673ffffffffffffffffffffffffffffffffffffffff1673ffffffffffffffffffffffffffffffffffffffff1681526020016002820160009054906101000a900473ffffffffffffffffffffffffffffffffffffffff1673ffffffffffffffffffffffffffffffffffffffff1673ffffffffffffffffffffffffffffffffffffffff168152602001600382018054600181600116156101000203166002900480601f0160208091040260200160405190810160405280929190818152602001828054600181600116156101000203166002900480156120c15780601f10612096576101008083540402835291602001916120c1565b820191906000526020600020905b8154815290600101906020018083116120a457829003601f168201915b50505050508152602001600482018054600181600116156101000203166002900480601f0160208091040260200160405190810160405280929190818152602001828054600181600116156101000203166002900480156121635780601f1061213857610100808354040283529160200191612163565b820191906000526020600020905b81548152906001019060200180831161214657829003601f168201915b50505050508152602001600582018054600181600116156101000203166002900480601f0160208091040260200160405190810160405280929190818152602001828054600181600116156101000203166002900480156122055780601f106121da57610100808354040283529160200191612205565b820191906000526020600020905b8154815290600101906020018083116121e857829003601f168201915b5050505050815260200160068201548152505082828151811061222457fe5b60200260200101819052508080600101915050611f1a565b508092505050919050565b60066020528060005260406000206000915090505481565b612267613742565b6000600360008481526020019081526020016000205414156122be576040517f08c379a00000000000000000000000000000000000000000000000000000000081526004016122b590614874565b60405180910390fd5b60046001600360008581526020019081526020016000205403815481106122e157fe5b90600052602060002090600702016040518060e0016040529081600082015481526020016001820160009054906101000a900473ffffffffffffffffffffffffffffffffffffffff1673ffffffffffffffffffffffffffffffffffffffff1673ffffffffffffffffffffffffffffffffffffffff1681526020016002820160009054906101000a900473ffffffffffffffffffffffffffffffffffffffff1673ffffffffffffffffffffffffffffffffffffffff1673ffffffffffffffffffffffffffffffffffffffff168152602001600382018054600181600116156101000203166002900480601f0160208091040260200160405190810160405280929190818152602001828054600181600116156101000203166002900480156124495780601f1061241e57610100808354040283529160200191612449565b820191906000526020600020905b81548152906001019060200180831161242c57829003601f168201915b50505050508152602001600482018054600181600116156101000203166002900480601f0160208091040260200160405190810160405280929190818152602001828054600181600116156101000203166002900480156124eb5780601f106124c0576101008083540402835291602001916124eb565b820191906000526020600020905b8154815290600101906020018083116124ce57829003601f168201915b50505050508152602001600582018054600181600116156101000203166002900480601f01602080910402602001604051908101604052809291908181526020018280546001816001161561010002031660029004801561258d5780601f106125625761010080835404028352916020019161258d565b820191906000526020600020905b81548152906001019060200180831161257057829003601f168201915b505050505081526020016006820154815250509050919050565b60606000600960003373ffffffffffffffffffffffffffffffffffffffff1673ffffffffffffffffffffffffffffffffffffffff16815260200190815260200160002054141561262c576040517f08c379a000000000000000000000000000000000000000000000000000000000815260040161262390614994565b60405180910390fd5b6004805480602002602001604051908101604052809291908181526020016000905b8282101561292657838290600052602060002090600702016040518060e0016040529081600082015481526020016001820160009054906101000a900473ffffffffffffffffffffffffffffffffffffffff1673ffffffffffffffffffffffffffffffffffffffff1673ffffffffffffffffffffffffffffffffffffffff1681526020016002820160009054906101000a900473ffffffffffffffffffffffffffffffffffffffff1673ffffffffffffffffffffffffffffffffffffffff1673ffffffffffffffffffffffffffffffffffffffff168152602001600382018054600181600116156101000203166002900480601f0160208091040260200160405190810160405280929190818152602001828054600181600116156101000203166002900480156127c05780601f10612795576101008083540402835291602001916127c0565b820191906000526020600020905b8154815290600101906020018083116127a357829003601f168201915b50505050508152602001600482018054600181600116156101000203166002900480601f0160208091040260200160405190810160405280929190818152602001828054600181600116156101000203166002900480156128625780601f1061283757610100808354040283529160200191612862565b820191906000526020600020905b81548152906001019060200180831161284557829003601f168201915b50505050508152602001600582018054600181600116156101000203166002900480601f0160208091040260200160405190810160405280929190818152602001828054600181600116156101000203166002900480156129045780601f106128d957610100808354040283529160200191612904565b820191906000526020600020905b8154815290600101906020018083116128e757829003601f168201915b505050505081526020016006820154815250508152602001906001019061264e565b50505050905090565b60008060036000848152602001908152602001600020541415612987576040517f08c379a000000000000000000000000000000000000000000000000000000000815260040161297e90614934565b60405180910390fd5b60016003600084815260200190815260200160002054039050919050565b60606000600960003373ffffffffffffffffffffffffffffffffffffffff1673ffffffffffffffffffffffffffffffffffffffff168152602001908152602001600020541415612a2a576040517f08c379a0000000000000000000000000000000000000000000000000000000008152600401612a2190614994565b60405180910390fd5b6001805480602002602001604051908101604052809291908181526020016000905b82821015612ef95783829060005260206000209060080201604051806101000160405290816000820160009054906101000a900473ffffffffffffffffffffffffffffffffffffffff1673ffffffffffffffffffffffffffffffffffffffff1673ffffffffffffffffffffffffffffffffffffffff168152602001600182018054600181600116156101000203166002900480601f016020809104026020016040519081016040528092919081815260200182805460018160011615610100020316600290048015612b5f5780601f10612b3457610100808354040283529160200191612b5f565b820191906000526020600020905b815481529060010190602001808311612b4257829003601f168201915b50505050508152602001600282018054600181600116156101000203166002900480601f016020809104026020016040519081016040528092919081815260200182805460018160011615610100020316600290048015612c015780601f10612bd657610100808354040283529160200191612c01565b820191906000526020600020905b815481529060010190602001808311612be457829003601f168201915b50505050508152602001600382018054600181600116156101000203166002900480601f016020809104026020016040519081016040528092919081815260200182805460018160011615610100020316600290048015612ca35780601f10612c7857610100808354040283529160200191612ca3565b820191906000526020600020905b815481529060010190602001808311612c8657829003601f168201915b50505050508152602001600482018054600181600116156101000203166002900480601f016020809104026020016040519081016040528092919081815260200182805460018160011615610100020316600290048015612d455780601f10612d1a57610100808354040283529160200191612d45565b820191906000526020600020905b815481529060010190602001808311612d2857829003601f168201915b50505050508152602001600582018054600181600116156101000203166002900480601f016020809104026020016040519081016040528092919081815260200182805460018160011615610100020316600290048015612de75780601f10612dbc57610100808354040283529160200191612de7565b820191906000526020600020905b815481529060010190602001808311612dca57829003601f168201915b50505050508152602001600682018054600181600116156101000203166002900480601f016020809104026020016040519081016040528092919081815260200182805460018160011615610100020316600290048015612e895780601f10612e5e57610100808354040283529160200191612e89565b820191906000526020600020905b815481529060010190602001808311612e6c57829003601f168201915b5050505050815260200160078201805480602002602001604051908101604052809291908181526020018280548015612ee157602002820191906000526020600020905b815481526020019060010190808311612ecd575b50505050508152505081526020019060010190612a4c565b50505050905090565b60008060003373ffffffffffffffffffffffffffffffffffffffff1673ffffffffffffffffffffffffffffffffffffffff168152602001908152602001600020541415612f84576040517f08c379a0000000000000000000000000000000000000000000000000000000008152600401612f7b906148b4565b60405180910390fd5b60008060003373ffffffffffffffffffffffffffffffffffffffff1673ffffffffffffffffffffffffffffffffffffffff168152602001908152602001600020541415613006576040517f08c379a0000000000000000000000000000000000000000000000000000000008152600401612ffd90614914565b60405180910390fd5b6000600a60008773ffffffffffffffffffffffffffffffffffffffff1673ffffffffffffffffffffffffffffffffffffffff168152602001908152602001600020541415613089576040517f08c379a0000000000000000000000000000000000000000000000000000000008152600401613080906148d4565b60405180910390fd5b60003386868686866040516020016130a6969594939291906145b8565b604051602081830303815290604052805190602001209050600860008154809291906001019190505550600160078054905001600660008381526020019081526020016000208190555060076040518060e001604052808381526020013373ffffffffffffffffffffffffffffffffffffffff1681526020018873ffffffffffffffffffffffffffffffffffffffff1681526020018781526020018681526020018581526020018481525090806001815401808255809150506001900390600052602060002090600702016000909190919091506000820151816000015560208201518160010160006101000a81548173ffffffffffffffffffffffffffffffffffffffff021916908373ffffffffffffffffffffffffffffffffffffffff16021790555060408201518160020160006101000a81548173ffffffffffffffffffffffffffffffffffffffff021916908373ffffffffffffffffffffffffffffffffffffffff160217905550606082015181600301908051906020019061322e929190613667565b50608082015181600401908051906020019061324b929190613667565b5060a0820151816005019080519060200190613268929190613667565b5060c0820151816006015550507f2af1e75a3d834b77fa1b758eb75b9dd0d5445d40fe11ad4f71eec52c77ae812c336040516132a49190614680565b60405180910390a1505050505050565b60008190505b600183805490500381101561346a578260018201815481106132d857fe5b90600052602060002090600702018382815481106132f257fe5b9060005260206000209060070201600082015481600001556001820160009054906101000a900473ffffffffffffffffffffffffffffffffffffffff168160010160006101000a81548173ffffffffffffffffffffffffffffffffffffffff021916908373ffffffffffffffffffffffffffffffffffffffff1602179055506002820160009054906101000a900473ffffffffffffffffffffffffffffffffffffffff168160020160006101000a81548173ffffffffffffffffffffffffffffffffffffffff021916908373ffffffffffffffffffffffffffffffffffffffff160217905550600382018160030190805460018160011615610100020316600290046133ff9291906135d2565b50600482018160040190805460018160011615610100020316600290046134279291906135d2565b506005820181600501908054600181600116156101000203166002900461344f9291906135d2565b506006820154816006015590505080806001019150506132ba565b508160018380549050038154811061347e57fe5b90600052602060002090600702016000808201600090556001820160006101000a81549073ffffffffffffffffffffffffffffffffffffffff02191690556002820160006101000a81549073ffffffffffffffffffffffffffffffffffffffff02191690556003820160006134f391906137ae565b60048201600061350391906137ae565b60058201600061351391906137ae565b600682016000905550508180548061352757fe5b60019003818190600052602060002090600702016000808201600090556001820160006101000a81549073ffffffffffffffffffffffffffffffffffffffff02191690556002820160006101000a81549073ffffffffffffffffffffffffffffffffffffffff02191690556003820160006135a291906137ae565b6004820160006135b291906137ae565b6005820160006135c291906137ae565b6006820160009055505090555050565b828054600181600116156101000203166002900490600052602060002090601f0160209004810192826136085760008555613656565b82601f106136195780548555613656565b8280016001018555821561365657600052602060002091601f016020900482015b8281111561365557825482559160010191906001019061363a565b5b50905061366391906137f6565b5090565b828054600181600116156101000203166002900490600052602060002090601f01602090048101928261369d57600085556136e4565b82601f106136b657805160ff19168380011785556136e4565b828001600101855582156136e4579182015b828111156136e35782518255916020019190600101906136c8565b5b5090506136f191906137f6565b5090565b828054828255906000526020600020908101928215613731579160200282015b82811115613730578251825591602001919060010190613715565b5b50905061373e9190613813565b5090565b6040518060e0016040528060008019168152602001600073ffffffffffffffffffffffffffffffffffffffff168152602001600073ffffffffffffffffffffffffffffffffffffffff168152602001606081526020016060815260200160608152602001600081525090565b50805460018160011615610100020316600290046000825580601f106137d457506137f3565b601f0160209004906000526020600020908101906137f291906137f6565b5b50565b5b8082111561380f5760008160009055506001016137f7565b5090565b5b8082111561382c576000816000905550600101613814565b5090565b600061384361383e84614a42565b614a11565b9050808382526020820190508285602086028201111561386257600080fd5b60005b8581101561389257816138788882613919565b845260208401935060208301925050600181019050613865565b5050509392505050565b60006138af6138aa84614a6e565b614a11565b9050828152602081018484840111156138c757600080fd5b6138d2848285614c2c565b509392505050565b6000813590506138e981614cce565b92915050565b600082601f83011261390057600080fd5b8135613910848260208601613830565b91505092915050565b60008135905061392881614ce5565b92915050565b600082601f83011261393f57600080fd5b813561394f84826020860161389c565b91505092915050565b60008135905061396781614cfc565b92915050565b60006020828403121561397f57600080fd5b600061398d848285016138da565b91505092915050565b60008060008060008060c087890312156139af57600080fd5b60006139bd89828a016138da565b96505060206139ce89828a016138da565b955050604087013567ffffffffffffffff8111156139eb57600080fd5b6139f789828a0161392e565b945050606087013567ffffffffffffffff811115613a1457600080fd5b613a2089828a0161392e565b935050608087013567ffffffffffffffff811115613a3d57600080fd5b613a4989828a0161392e565b92505060a0613a5a89828a01613958565b9150509295509295509295565b600080600080600080600080610100898b031215613a8457600080fd5b6000613a928b828c016138da565b985050602089013567ffffffffffffffff811115613aaf57600080fd5b613abb8b828c0161392e565b975050604089013567ffffffffffffffff811115613ad857600080fd5b613ae48b828c0161392e565b965050606089013567ffffffffffffffff811115613b0157600080fd5b613b0d8b828c0161392e565b955050608089013567ffffffffffffffff811115613b2a57600080fd5b613b368b828c0161392e565b94505060a089013567ffffffffffffffff811115613b5357600080fd5b613b5f8b828c0161392e565b93505060c089013567ffffffffffffffff811115613b7c57600080fd5b613b888b828c0161392e565b92505060e089013567ffffffffffffffff811115613ba557600080fd5b613bb18b828c016138ef565b9150509295985092959890939650565b600080600080600060a08688031215613bd957600080fd5b6000613be7888289016138da565b955050602086013567ffffffffffffffff811115613c0457600080fd5b613c108882890161392e565b945050604086013567ffffffffffffffff811115613c2d57600080fd5b613c398882890161392e565b935050606086013567ffffffffffffffff811115613c5657600080fd5b613c628882890161392e565b9250506080613c7388828901613958565b9150509295509295909350565b600060208284031215613c9257600080fd5b6000613ca084828501613919565b91505092915050565b600060208284031215613cbb57600080fd5b6000613cc984828501613958565b91505092915050565b6000613cde8383613f22565b60208301905092915050565b6000613cf68383614355565b905092915050565b6000613d0a83836144a9565b905092915050565b613d1b81614bf6565b82525050565b613d32613d2d82614ba4565b614c80565b82525050565b613d4181614b92565b82525050565b613d5081614b92565b82525050565b613d67613d6282614b92565b614c6e565b82525050565b6000613d7882614ace565b613d828185614b21565b9350613d8d83614a9e565b8060005b83811015613dbe578151613da58882613cd2565b9750613db083614afa565b925050600181019050613d91565b5085935050505092915050565b6000613dd682614ace565b613de08185614b32565b9350613deb83614a9e565b8060005b83811015613e1c578151613e038882613cd2565b9750613e0e83614afa565b925050600181019050613def565b5085935050505092915050565b6000613e3482614ad9565b613e3e8185614b43565b935083602082028501613e5085614aae565b8060005b85811015613e8c5784840389528151613e6d8582613cea565b9450613e7883614b07565b925060208a01995050600181019050613e54565b50829750879550505050505092915050565b6000613ea982614ae4565b613eb38185614b54565b935083602082028501613ec585614abe565b8060005b85811015613f015784840389528151613ee28582613cfe565b9450613eed83614b14565b925060208a01995050600181019050613ec9565b50829750879550505050505092915050565b613f1c81614bb6565b82525050565b613f2b81614bc2565b82525050565b613f3a81614bc2565b82525050565b6000613f4b82614aef565b613f558185614b65565b9350613f65818560208601614c3b565b613f6e81614cb0565b840191505092915050565b6000613f8482614aef565b613f8e8185614b76565b9350613f9e818560208601614c3b565b613fa781614cb0565b840191505092915050565b6000613fbd82614aef565b613fc78185614b87565b9350613fd7818560208601614c3b565b80840191505092915050565b6000613ff0601083614b76565b91507f497373756572206e6f7420666f756e64000000000000000000000000000000006000830152602082019050919050565b6000614030602a83614b76565b91507f596f752070726f766964656420616e20696e76616c6964206469706c6f6d612060008301527f6964656e746966696572000000000000000000000000000000000000000000006020830152604082019050919050565b6000614096601f83614b76565b91507f4f6e6c79206f776e6572206f722061646d696e2061726520616c6c6f776564006000830152602082019050919050565b60006140d6601183614b76565b91507f53747564656e74206e6f7420666f756e640000000000000000000000000000006000830152602082019050919050565b6000614116601583614b76565b91507f49737375657220646f6573206e6f7420657869737400000000000000000000006000830152602082019050919050565b6000614156601683614b76565b91507f4469706c6f6d6120616c726561647920657869737473000000000000000000006000830152602082019050919050565b6000614196601683614b76565b91507f53747564656e7420646f6573206e6f74206578697374000000000000000000006000830152602082019050919050565b60006141d6601683614b76565b91507f4469706c6f6d6120646f6573206e6f74206578697374000000000000000000006000830152602082019050919050565b6000614216603583614b76565b91507f4469706c6f6d612072657175657374206973206e6f742072656769737465726560008301527f64206f7220686173206265656e2072656d6f76656400000000000000000000006020830152604082019050919050565b600061427c601683614b76565b91507f53747564656e7420616c726561647920657869737473000000000000000000006000830152602082019050919050565b60006142bc600f83614b76565b91507f41646d696e206e6f7420666f756e6400000000000000000000000000000000006000830152602082019050919050565b60006142fc603183614b76565b91507f596f752063616e6e6f74206164642061206469706c6f6d61206973737565642060008301527f627920736f6d656f6e6520656c73652e2e0000000000000000000000000000006020830152604082019050919050565b600060e08301600083015161436d6000860182613f22565b5060208301516143806020860182613d38565b5060408301516143936040860182613d38565b50606083015184820360608601526143ab8282613f40565b915050608083015184820360808601526143c58282613f40565b91505060a083015184820360a08601526143df8282613f40565b91505060c08301516143f460c0860182614583565b508091505092915050565b600060e0830160008301516144176000860182613f22565b50602083015161442a6020860182613d38565b50604083015161443d6040860182613d38565b50606083015184820360608601526144558282613f40565b9150506080830151848203608086015261446f8282613f40565b91505060a083015184820360a08601526144898282613f40565b91505060c083015161449e60c0860182614583565b508091505092915050565b6000610100830160008301516144c26000860182613d38565b50602083015184820360208601526144da8282613f40565b915050604083015184820360408601526144f48282613f40565b9150506060830151848203606086015261450e8282613f40565b915050608083015184820360808601526145288282613f40565b91505060a083015184820360a08601526145428282613f40565b91505060c083015184820360c086015261455c8282613f40565b91505060e083015184820360e08601526145768282613d6d565b9150508091505092915050565b61458c81614bec565b82525050565b61459b81614bec565b82525050565b6145b26145ad82614bec565b614ca4565b82525050565b60006145c48289613d21565b6014820191506145d48288613d56565b6014820191506145e48287613fb2565b91506145f08286613fb2565b91506145fc8285613fb2565b915061460882846145a1565b602082019150819050979650505050505050565b60006146288289613d56565b6014820191506146388288613d56565b6014820191506146488287613fb2565b91506146548286613fb2565b91506146608285613fb2565b915061466c82846145a1565b602082019150819050979650505050505050565b60006020820190506146956000830184613d12565b92915050565b600060e0820190506146b0600083018a613d47565b81810360208301526146c28189613f79565b905081810360408301526146d68188613f79565b905081810360608301526146ea8187613f79565b905081810360808301526146fe8186613f79565b905081810360a08301526147128185613f79565b905081810360c08301526147268184613f79565b905098975050505050505050565b6000602082019050818103600083015261474e8184613dcb565b905092915050565b600060208201905081810360008301526147708184613e29565b905092915050565b600060208201905081810360008301526147928184613e9e565b905092915050565b60006020820190506147af6000830184613f13565b92915050565b60006020820190506147ca6000830184613f31565b92915050565b600060e0820190506147e5600083018a613f31565b6147f26020830189613d47565b6147ff6040830188613d47565b81810360608301526148118187613f79565b905081810360808301526148258186613f79565b905081810360a08301526148398185613f79565b905061484860c0830184614592565b98975050505050505050565b6000602082019050818103600083015261486d81613fe3565b9050919050565b6000602082019050818103600083015261488d81614023565b9050919050565b600060208201905081810360008301526148ad81614089565b9050919050565b600060208201905081810360008301526148cd816140c9565b9050919050565b600060208201905081810360008301526148ed81614109565b9050919050565b6000602082019050818103600083015261490d81614149565b9050919050565b6000602082019050818103600083015261492d81614189565b9050919050565b6000602082019050818103600083015261494d816141c9565b9050919050565b6000602082019050818103600083015261496d81614209565b9050919050565b6000602082019050818103600083015261498d8161426f565b9050919050565b600060208201905081810360008301526149ad816142af565b9050919050565b600060208201905081810360008301526149cd816142ef565b9050919050565b600060208201905081810360008301526149ee81846143ff565b905092915050565b6000602082019050614a0b6000830184614592565b92915050565b6000604051905081810181811067ffffffffffffffff82111715614a3857614a37614cae565b5b8060405250919050565b600067ffffffffffffffff821115614a5d57614a5c614cae565b5b602082029050602081019050919050565b600067ffffffffffffffff821115614a8957614a88614cae565b5b601f19601f8301169050602081019050919050565b6000819050602082019050919050565b6000819050602082019050919050565b6000819050602082019050919050565b600081519050919050565b600081519050919050565b600081519050919050565b600081519050919050565b6000602082019050919050565b6000602082019050919050565b6000602082019050919050565b600082825260208201905092915050565b600082825260208201905092915050565b600082825260208201905092915050565b600082825260208201905092915050565b600082825260208201905092915050565b600082825260208201905092915050565b600081905092915050565b6000614b9d82614bcc565b9050919050565b6000614baf82614bcc565b9050919050565b60008115159050919050565b6000819050919050565b600073ffffffffffffffffffffffffffffffffffffffff82169050919050565b6000819050919050565b6000614c0182614c08565b9050919050565b6000614c1382614c1a565b9050919050565b6000614c2582614bcc565b9050919050565b82818337600083830152505050565b60005b83811015614c59578082015181840152602081019050614c3e565b83811115614c68576000848401525b50505050565b6000614c7982614c92565b9050919050565b6000614c8b82614c92565b9050919050565b6000614c9d82614cc1565b9050919050565b6000819050919050565bfe5b6000601f19601f8301169050919050565b60008160601b9050919050565b614cd781614b92565b8114614ce257600080fd5b50565b614cee81614bc2565b8114614cf957600080fd5b50565b614d0581614bec565b8114614d1057600080fd5b5056fea2646970667358221220e8b5d2f5267fe8e40f2da1dffcc0d8d9869288f61910a9777f22a4c99166dab764736f6c63430007060033",
  "immutableReferences": {},
  "source": "// SPDX-License-Identifier: MIT\npragma solidity ^0.7.0;\npragma experimental ABIEncoderV2;\n\ncontract Diplomachain {\n    struct Diploma {\n        bytes32 id;\n        address owner;\n        address issuer;\n        string speciality;\n        string honors;\n        string title;\n        uint256 dateObtained; // timestamps format\n    }\n\n    struct Student {\n        address id;\n        string firstName;\n        string lastName;\n        string email;\n        string nationality;\n        string phoneNumber;\n        string gender;\n        bytes32[] diplomas;\n    }\n\n    mapping(address => uint256) private studentsIndexes;\n    Student[] public students;\n    uint256 public studentsCount;\n\n    // we can know if a diploma exists or not\n    mapping(bytes32 => uint256) public diplomasIndexes;\n    Diploma[] public diplomas;\n    uint256 public diplomasCount;\n    mapping(bytes32 => uint256) public pendingDiplomasIndexes;\n    Diploma[] public pendingDiplomas;\n    uint256 public pendingDiplomasCount;\n\n    // Let's say we have multiple universities, so it's a good practice to define admins addresses for now\n    mapping(address => uint256) public adminsIndexes;\n\n    // Since every diploma will be issued by a university club, we need to have issuersIndexes\n    mapping(address => uint256) public issuersIndexes;\n\n    constructor() {\n        studentsCount = 0;\n        diplomasCount = 0;\n        pendingDiplomasCount = 0;\n    }\n\n    // ==========modifiers declaration==========\n    modifier onlyAdmin() {\n        require(adminsIndexes[msg.sender] != 0, \"Admin not found\");\n        _;\n    }\n    modifier onlyStudent() {\n        require(studentsIndexes[msg.sender] != 0, \"Student not found\");\n        _;\n    }\n    modifier onlyIssuer() {\n        require(issuersIndexes[msg.sender] != 0, \"Issuer not found\");\n        _;\n    }\n\n    // ==========events definition==========\n    event LogRequestDiploma(address studentId);\n    event LogAddDiploma(bytes32 diplomaId);\n\n    // ==========Functions definition==========\n    // verifyDiploma()\n    function verifyDiploma(bytes32 diplomaId) public view returns (Diploma memory){\n        require (diplomasIndexes[diplomaId] != 0, \"You provided an invalid diploma identifier\");\n        return diplomas[diplomasIndexes[diplomaId] - 1];\n    }\n\n    // addStudent()\n    function addStudent(\n        address _id,\n        string memory _firstName,\n        string memory _lastName,\n        string memory _email,\n        string memory _nationality,\n        string memory _phoneNumber,\n        string memory _gender,\n        bytes32[] memory _diplomas\n    ) public onlyAdmin {\n        require(studentsIndexes[_id] == 0, \"Student already exists\");\n        studentsCount++;\n        studentsIndexes[_id] = students.length + 1;\n        students.push(\n            Student(_id, _firstName, _lastName, _email, _nationality, _phoneNumber, _gender, _diplomas)\n        );\n    }\n    // remove an element from an array and shift to avoid leaving gaps\n    function removeItem(Diploma[] storage array, uint256 index) private {\n        for (uint i = index; i < array.length - 1; i++) {\n            array[i] = array[i + 1];\n        }\n        delete array[array.length - 1];\n        array.pop();\n    }\n    // addDiploma() => when a student requests a diploma, the admin will call this fct to issue it\n    function addDiploma(bytes32 _id) public onlyAdmin {\n        require(diplomasIndexes[_id] == 0, \"Diploma already exists\");\n        require(pendingDiplomasIndexes[_id] != 0, \"Diploma request is not registered or has been removed\");\n        diplomasCount++;\n        diplomasIndexes[_id] = diplomas.length + 1;\n        diplomas.push(\n            pendingDiplomas[pendingDiplomasIndexes[_id] - 1]\n        );\n        // get the student (owner) address\n        address student_adr = pendingDiplomas[pendingDiplomasIndexes[_id] - 1].owner;\n        // add the new diploma id to the student's diplomas ids array\n        students[studentsIndexes[student_adr] - 1].diplomas.push(\n            _id\n        );\n        // remove the diploma from the pending diplomas array\n        removeItem(pendingDiplomas, pendingDiplomasIndexes[_id] - 1);\n        delete pendingDiplomasIndexes[_id];\n        pendingDiplomasCount--;\n        emit LogAddDiploma(_id);\n    }\n    // issueDiploma() => when the issuer himself wants to issue a diploma, he'll be able to do that directly\n    function issueDiploma(\n        address owner,\n        address issuer,\n        string memory _speciality,\n        string memory _honors,\n        string memory _title,\n        uint256 _dateObtained\n    ) public onlyIssuer {\n        require(msg.sender == issuer, \"You cannot add a diploma issued by someone else..\");\n        // generate a unique hash identifier for each diploma\n        bytes32 id = keccak256(abi.encodePacked(owner, issuer, _speciality, _honors, _title, _dateObtained));\n        diplomasCount++;\n        diplomasIndexes[id] = diplomas.length + 1;\n        diplomas.push(\n            Diploma(id, owner, issuer, _speciality, _honors, _title, _dateObtained)\n        );\n        // add the new diploma id to the student's diplomas ids array\n        students[studentsIndexes[owner] - 1].diplomas.push(\n            id\n        );\n        emit LogAddDiploma(id);\n    }\n    // isStudent()\n    function isStudent() public view returns (bool) {\n        return studentsIndexes[msg.sender] != 0;\n    }\n    // isAdmin()\n    function isAdmin() public view returns (bool) {\n        return adminsIndexes[msg.sender] != 0;\n    }\n    // isIssuer()\n    function isIssuer() public view returns (bool) {\n        return issuersIndexes[msg.sender] != 0;\n    }\n    // getStudentIndex()\n    function getStudentIndex(address studentId) public view returns (uint256) {\n        require(studentsIndexes[studentId] != 0, \"Student does not exist\");\n        return studentsIndexes[studentId] - 1;\n    }\n    // getDiplomaIndex()\n    function getDiplomaIndex(bytes32 diplomaId) public view returns (uint256) {\n        require(diplomasIndexes[diplomaId] != 0, \"Diploma does not exist\");\n        return diplomasIndexes[diplomaId] - 1;\n    }\n    // getStudents()\n    function getStudents() public onlyAdmin view returns (Student[] memory) {\n        return students;\n    }\n    // getDiplomas()\n    function getDiplomas() public onlyAdmin view returns (Diploma[] memory) {\n        return diplomas;\n    }\n    // getStudentDiplomasIds()\n    function getStudentDiplomasIds(address studentId) public view returns (bytes32[] memory) {\n        require(studentsIndexes[studentId] != 0, \"Student does not exist\");\n        require(msg.sender == studentId || adminsIndexes[msg.sender] != 0, \"Only owner or admin are allowed\");\n        return students[studentsIndexes[studentId] - 1].diplomas;\n    }\n    // getStudentDiplomas()\n    function getStudentDiplomas(address studentId) public view returns (Diploma[] memory) {\n        require(studentsIndexes[studentId] != 0, \"Student does not exist\");\n        require(msg.sender == studentId || adminsIndexes[msg.sender] != 0, \"Only owner or admin are allowed\");\n        bytes32[] memory diplomas_ids = students[studentsIndexes[studentId] - 1].diplomas;\n        Diploma[] memory full_diplomas = new Diploma[](diplomas_ids.length);\n        for (uint256 i = 0; i < diplomas_ids.length; i++) {\n            full_diplomas[i] = diplomas[diplomasIndexes[diplomas_ids[i]] - 1];\n        }\n        return full_diplomas;\n    }\n    // requestDiploma()\n    function requestDiploma(\n        address issuer,\n        string memory _speciality,\n        string memory _honors,\n        string memory _title,\n        uint256 _dateObtained\n    ) public onlyStudent {\n        require(studentsIndexes[msg.sender] != 0, \"Student does not exist\");\n        require(issuersIndexes[issuer] != 0, \"Issuer does not exist\");\n        // generate a unique hash identifier for each diploma\n        bytes32 id = keccak256(abi.encodePacked(msg.sender, issuer, _speciality, _honors, _title, _dateObtained));\n        pendingDiplomasCount++;\n        pendingDiplomasIndexes[id] = pendingDiplomas.length + 1;\n        pendingDiplomas.push(\n            Diploma(id, msg.sender, issuer, _speciality, _honors, _title, _dateObtained)\n        );\n        emit LogRequestDiploma(msg.sender);\n    }\n}",
  "sourcePath": "/home/cyberjoe/Documents/GitHub/Diplomachain/blockchain/contracts/Diplomachain.sol",
  "compiler": {
    "name": "solc",
    "version": "0.7.6+commit.7338295f.Emscripten.clang"
  },
  "schemaVersion": "3.3.3",
  "updatedAt": "2020-12-31T17:27:12.278Z",
  "devdoc": {
    "kind": "dev",
    "methods": {},
    "version": 1
  },
  "userdoc": {
    "kind": "user",
    "methods": {},
    "version": 1
  }
}