{
  "contractName": "Diplomachain",
  "abi": [
    {
      "inputs": [],
      "stateMutability": "nonpayable",
      "type": "constructor"
    },
    {
      "anonymous": false,
      "inputs": [
        {
          "indexed": false,
          "internalType": "bytes32",
          "name": "diplomaId",
          "type": "bytes32"
        }
      ],
      "name": "LogAddDiploma",
      "type": "event"
    },
    {
      "anonymous": false,
      "inputs": [
        {
          "indexed": false,
          "internalType": "bytes32",
          "name": "diplomaBlueprintId",
          "type": "bytes32"
        }
      ],
      "name": "LogAddDiplomaBlueprint",
      "type": "event"
    },
    {
      "anonymous": false,
      "inputs": [
        {
          "indexed": false,
          "internalType": "address",
          "name": "studentId",
          "type": "address"
        }
      ],
      "name": "LogAddStudent",
      "type": "event"
    },
    {
      "anonymous": false,
      "inputs": [
        {
          "indexed": false,
          "internalType": "bytes32",
          "name": "diplomaId",
          "type": "bytes32"
        }
      ],
      "name": "LogDeleteDiploma",
      "type": "event"
    },
    {
      "anonymous": false,
      "inputs": [
        {
          "indexed": false,
          "internalType": "address",
          "name": "studentId",
          "type": "address"
        }
      ],
      "name": "LogDeleteStudent",
      "type": "event"
    },
    {
      "anonymous": false,
      "inputs": [
        {
          "indexed": false,
          "internalType": "address",
          "name": "studentId",
          "type": "address"
        }
      ],
      "name": "LogRequestDiploma",
      "type": "event"
    },
    {
      "inputs": [],
      "name": "diplomaBlueprintsCount",
      "outputs": [
        {
          "internalType": "uint256",
          "name": "",
          "type": "uint256"
        }
      ],
      "stateMutability": "view",
      "type": "function",
      "constant": true
    },
    {
      "inputs": [
        {
          "internalType": "uint256",
          "name": "",
          "type": "uint256"
        }
      ],
      "name": "diplomas",
      "outputs": [
        {
          "internalType": "bytes32",
          "name": "id",
          "type": "bytes32"
        },
        {
          "internalType": "bytes32",
          "name": "blueprintId",
          "type": "bytes32"
        },
        {
          "internalType": "address",
          "name": "owner",
          "type": "address"
        },
        {
          "internalType": "address",
          "name": "issuer",
          "type": "address"
        },
        {
          "internalType": "string",
          "name": "honors",
          "type": "string"
        },
        {
          "internalType": "uint256",
          "name": "dateObtained",
          "type": "uint256"
        }
      ],
      "stateMutability": "view",
      "type": "function",
      "constant": true
    },
    {
      "inputs": [],
      "name": "diplomasCount",
      "outputs": [
        {
          "internalType": "uint256",
          "name": "",
          "type": "uint256"
        }
      ],
      "stateMutability": "view",
      "type": "function",
      "constant": true
    },
    {
      "inputs": [
        {
          "internalType": "bytes32",
          "name": "",
          "type": "bytes32"
        }
      ],
      "name": "diplomasIndexes",
      "outputs": [
        {
          "internalType": "uint256",
          "name": "",
          "type": "uint256"
        }
      ],
      "stateMutability": "view",
      "type": "function",
      "constant": true
    },
    {
      "inputs": [
        {
          "internalType": "uint256",
          "name": "",
          "type": "uint256"
        }
      ],
      "name": "pendingDiplomas",
      "outputs": [
        {
          "internalType": "bytes32",
          "name": "id",
          "type": "bytes32"
        },
        {
          "internalType": "bytes32",
          "name": "blueprintId",
          "type": "bytes32"
        },
        {
          "internalType": "address",
          "name": "owner",
          "type": "address"
        },
        {
          "internalType": "address",
          "name": "issuer",
          "type": "address"
        },
        {
          "internalType": "string",
          "name": "honors",
          "type": "string"
        },
        {
          "internalType": "uint256",
          "name": "dateObtained",
          "type": "uint256"
        }
      ],
      "stateMutability": "view",
      "type": "function",
      "constant": true
    },
    {
      "inputs": [],
      "name": "pendingDiplomasCount",
      "outputs": [
        {
          "internalType": "uint256",
          "name": "",
          "type": "uint256"
        }
      ],
      "stateMutability": "view",
      "type": "function",
      "constant": true
    },
    {
      "inputs": [
        {
          "internalType": "bytes32",
          "name": "",
          "type": "bytes32"
        }
      ],
      "name": "pendingDiplomasIndexes",
      "outputs": [
        {
          "internalType": "uint256",
          "name": "",
          "type": "uint256"
        }
      ],
      "stateMutability": "view",
      "type": "function",
      "constant": true
    },
    {
      "inputs": [
        {
          "internalType": "uint256",
          "name": "",
          "type": "uint256"
        }
      ],
      "name": "students",
      "outputs": [
        {
          "internalType": "address",
          "name": "id",
          "type": "address"
        },
        {
          "internalType": "string",
          "name": "firstName",
          "type": "string"
        },
        {
          "internalType": "string",
          "name": "lastName",
          "type": "string"
        },
        {
          "internalType": "string",
          "name": "email",
          "type": "string"
        }
      ],
      "stateMutability": "view",
      "type": "function",
      "constant": true
    },
    {
      "inputs": [],
      "name": "studentsCount",
      "outputs": [
        {
          "internalType": "uint256",
          "name": "",
          "type": "uint256"
        }
      ],
      "stateMutability": "view",
      "type": "function",
      "constant": true
    },
    {
      "inputs": [
        {
          "components": [
            {
              "internalType": "bytes32",
              "name": "id",
              "type": "bytes32"
            },
            {
              "internalType": "bytes32",
              "name": "blueprintId",
              "type": "bytes32"
            },
            {
              "internalType": "address",
              "name": "owner",
              "type": "address"
            },
            {
              "internalType": "address",
              "name": "issuer",
              "type": "address"
            },
            {
              "internalType": "string",
              "name": "honors",
              "type": "string"
            },
            {
              "internalType": "uint256",
              "name": "dateObtained",
              "type": "uint256"
            }
          ],
          "internalType": "struct Diploma",
          "name": "diploma",
          "type": "tuple"
        }
      ],
      "name": "verifyDiploma",
      "outputs": [
        {
          "internalType": "bool",
          "name": "",
          "type": "bool"
        }
      ],
      "stateMutability": "view",
      "type": "function",
      "constant": true
    },
    {
      "inputs": [
        {
          "internalType": "bytes32",
          "name": "diplomaId",
          "type": "bytes32"
        }
      ],
      "name": "getDiploma",
      "outputs": [
        {
          "components": [
            {
              "internalType": "bytes32",
              "name": "id",
              "type": "bytes32"
            },
            {
              "internalType": "bytes32",
              "name": "blueprintId",
              "type": "bytes32"
            },
            {
              "internalType": "address",
              "name": "owner",
              "type": "address"
            },
            {
              "internalType": "address",
              "name": "issuer",
              "type": "address"
            },
            {
              "internalType": "string",
              "name": "honors",
              "type": "string"
            },
            {
              "internalType": "uint256",
              "name": "dateObtained",
              "type": "uint256"
            }
          ],
          "internalType": "struct Diploma",
          "name": "",
          "type": "tuple"
        }
      ],
      "stateMutability": "view",
      "type": "function",
      "constant": true
    },
    {
      "inputs": [
        {
          "internalType": "string",
          "name": "_firstName",
          "type": "string"
        },
        {
          "internalType": "string",
          "name": "_lastName",
          "type": "string"
        },
        {
          "internalType": "string",
          "name": "_email",
          "type": "string"
        },
        {
          "internalType": "bytes32[]",
          "name": "_diplomas",
          "type": "bytes32[]"
        }
      ],
      "name": "addStudent",
      "outputs": [],
      "stateMutability": "nonpayable",
      "type": "function"
    },
    {
      "inputs": [
        {
          "internalType": "address",
          "name": "student_addr",
          "type": "address"
        }
      ],
      "name": "getStudent",
      "outputs": [
        {
          "components": [
            {
              "internalType": "address",
              "name": "id",
              "type": "address"
            },
            {
              "internalType": "string",
              "name": "firstName",
              "type": "string"
            },
            {
              "internalType": "string",
              "name": "lastName",
              "type": "string"
            },
            {
              "internalType": "string",
              "name": "email",
              "type": "string"
            },
            {
              "internalType": "bytes32[]",
              "name": "diplomas",
              "type": "bytes32[]"
            }
          ],
          "internalType": "struct Student",
          "name": "",
          "type": "tuple"
        }
      ],
      "stateMutability": "view",
      "type": "function",
      "constant": true
    },
    {
      "inputs": [
        {
          "internalType": "bytes32",
          "name": "_id",
          "type": "bytes32"
        }
      ],
      "name": "addDiploma",
      "outputs": [],
      "stateMutability": "nonpayable",
      "type": "function"
    },
    {
      "inputs": [
        {
          "internalType": "address",
          "name": "owner",
          "type": "address"
        },
        {
          "internalType": "bytes32",
          "name": "blueprintId",
          "type": "bytes32"
        },
        {
          "internalType": "string",
          "name": "_honors",
          "type": "string"
        },
        {
          "internalType": "uint256",
          "name": "_dateObtained",
          "type": "uint256"
        }
      ],
      "name": "issueDiploma",
      "outputs": [],
      "stateMutability": "nonpayable",
      "type": "function"
    },
    {
      "inputs": [],
      "name": "isStudent",
      "outputs": [
        {
          "internalType": "bool",
          "name": "",
          "type": "bool"
        }
      ],
      "stateMutability": "view",
      "type": "function",
      "constant": true
    },
    {
      "inputs": [],
      "name": "isAdmin",
      "outputs": [
        {
          "internalType": "bool",
          "name": "",
          "type": "bool"
        }
      ],
      "stateMutability": "view",
      "type": "function",
      "constant": true
    },
    {
      "inputs": [],
      "name": "getStudents",
      "outputs": [
        {
          "components": [
            {
              "internalType": "address",
              "name": "id",
              "type": "address"
            },
            {
              "internalType": "string",
              "name": "firstName",
              "type": "string"
            },
            {
              "internalType": "string",
              "name": "lastName",
              "type": "string"
            },
            {
              "internalType": "string",
              "name": "email",
              "type": "string"
            },
            {
              "internalType": "bytes32[]",
              "name": "diplomas",
              "type": "bytes32[]"
            }
          ],
          "internalType": "struct Student[]",
          "name": "",
          "type": "tuple[]"
        }
      ],
      "stateMutability": "view",
      "type": "function",
      "constant": true
    },
    {
      "inputs": [],
      "name": "getDiplomas",
      "outputs": [
        {
          "components": [
            {
              "internalType": "bytes32",
              "name": "id",
              "type": "bytes32"
            },
            {
              "internalType": "bytes32",
              "name": "blueprintId",
              "type": "bytes32"
            },
            {
              "internalType": "address",
              "name": "owner",
              "type": "address"
            },
            {
              "internalType": "address",
              "name": "issuer",
              "type": "address"
            },
            {
              "internalType": "string",
              "name": "honors",
              "type": "string"
            },
            {
              "internalType": "uint256",
              "name": "dateObtained",
              "type": "uint256"
            }
          ],
          "internalType": "struct Diploma[]",
          "name": "",
          "type": "tuple[]"
        }
      ],
      "stateMutability": "view",
      "type": "function",
      "constant": true
    },
    {
      "inputs": [
        {
          "internalType": "address",
          "name": "studentId",
          "type": "address"
        }
      ],
      "name": "getStudentDiplomas",
      "outputs": [
        {
          "components": [
            {
              "internalType": "bytes32",
              "name": "id",
              "type": "bytes32"
            },
            {
              "internalType": "bytes32",
              "name": "blueprintId",
              "type": "bytes32"
            },
            {
              "internalType": "address",
              "name": "owner",
              "type": "address"
            },
            {
              "internalType": "address",
              "name": "issuer",
              "type": "address"
            },
            {
              "internalType": "string",
              "name": "honors",
              "type": "string"
            },
            {
              "internalType": "uint256",
              "name": "dateObtained",
              "type": "uint256"
            }
          ],
          "internalType": "struct Diploma[]",
          "name": "",
          "type": "tuple[]"
        }
      ],
      "stateMutability": "view",
      "type": "function",
      "constant": true
    },
    {
      "inputs": [
        {
          "internalType": "bytes32",
          "name": "blueprintId",
          "type": "bytes32"
        },
        {
          "internalType": "string",
          "name": "_honors",
          "type": "string"
        },
        {
          "internalType": "uint256",
          "name": "_dateObtained",
          "type": "uint256"
        }
      ],
      "name": "requestDiploma",
      "outputs": [],
      "stateMutability": "nonpayable",
      "type": "function"
    },
    {
      "inputs": [
        {
          "internalType": "string",
          "name": "title",
          "type": "string"
        },
        {
          "internalType": "string",
          "name": "description",
          "type": "string"
        },
        {
          "internalType": "string",
          "name": "speciality",
          "type": "string"
        },
        {
          "internalType": "bytes32[]",
          "name": "_diplomas",
          "type": "bytes32[]"
        }
      ],
      "name": "addDiplomaBlueprint",
      "outputs": [],
      "stateMutability": "nonpayable",
      "type": "function"
    },
    {
      "inputs": [
        {
          "internalType": "bytes32",
          "name": "id",
          "type": "bytes32"
        }
      ],
      "name": "getDiplomaBlueprint",
      "outputs": [
        {
          "components": [
            {
              "internalType": "bytes32",
              "name": "id",
              "type": "bytes32"
            },
            {
              "internalType": "address",
              "name": "issuer",
              "type": "address"
            },
            {
              "internalType": "string",
              "name": "title",
              "type": "string"
            },
            {
              "internalType": "string",
              "name": "description",
              "type": "string"
            },
            {
              "internalType": "string",
              "name": "speciality",
              "type": "string"
            },
            {
              "internalType": "bytes32[]",
              "name": "diplomas",
              "type": "bytes32[]"
            }
          ],
          "internalType": "struct DiplomaBluePrint",
          "name": "",
          "type": "tuple"
        }
      ],
      "stateMutability": "view",
      "type": "function",
      "constant": true
    },
    {
      "inputs": [],
      "name": "getDiplomaBlueprints",
      "outputs": [
        {
          "components": [
            {
              "internalType": "bytes32",
              "name": "id",
              "type": "bytes32"
            },
            {
              "internalType": "address",
              "name": "issuer",
              "type": "address"
            },
            {
              "internalType": "string",
              "name": "title",
              "type": "string"
            },
            {
              "internalType": "string",
              "name": "description",
              "type": "string"
            },
            {
              "internalType": "string",
              "name": "speciality",
              "type": "string"
            },
            {
              "internalType": "bytes32[]",
              "name": "diplomas",
              "type": "bytes32[]"
            }
          ],
          "internalType": "struct DiplomaBluePrint[]",
          "name": "",
          "type": "tuple[]"
        }
      ],
      "stateMutability": "view",
      "type": "function",
      "constant": true
    },
    {
      "inputs": [
        {
          "internalType": "bytes32",
          "name": "id",
          "type": "bytes32"
        }
      ],
      "name": "getDiplomasByBlueprint",
      "outputs": [
        {
          "components": [
            {
              "internalType": "bytes32",
              "name": "id",
              "type": "bytes32"
            },
            {
              "internalType": "bytes32",
              "name": "blueprintId",
              "type": "bytes32"
            },
            {
              "internalType": "address",
              "name": "owner",
              "type": "address"
            },
            {
              "internalType": "address",
              "name": "issuer",
              "type": "address"
            },
            {
              "internalType": "string",
              "name": "honors",
              "type": "string"
            },
            {
              "internalType": "uint256",
              "name": "dateObtained",
              "type": "uint256"
            }
          ],
          "internalType": "struct Diploma[]",
          "name": "",
          "type": "tuple[]"
        }
      ],
      "stateMutability": "view",
      "type": "function",
      "constant": true
    }
  ],
  "bytecode": "0x608060405234801561001057600080fd5b5033600c60006101000a81548173ffffffffffffffffffffffffffffffffffffffff021916908373ffffffffffffffffffffffffffffffffffffffff1602179055506000600281905550600060058190555060006008819055506000600b81905550615502806100816000396000f3fe608060405234801561001057600080fd5b50600436106101735760003560e01c806368dae994116100de578063d1b9329211610097578063dfe688e511610071578063dfe688e514610493578063e8c2ecd6146104c3578063ef34a46b146104e1578063f1d064b31461051157610173565b8063d1b9329214610417578063d49f597314610447578063d9d0350b1461046357610173565b806368dae9941461033a5780636b7b44d714610358578063871e4fae1461038857806395f378e8146103a6578063b6db75a0146103db578063c9675e13146103f957610173565b806335dfc1c31161013057806335dfc1c31461026157806349f8db5c1461029657806351e0a6eb146102c65780635987ba2b146102e457806364d1d1ff1461030057806368433a3a1461031c57610173565b806306ead22e146101785780630e5f1322146101ab5780631be6a625146101c75780632b04cb77146101e357806333c89983146102135780633507990414610231575b600080fd5b610192600480360381019061018d91906141ce565b61052f565b6040516101a29493929190614e24565b60405180910390f35b6101c560048036038101906101c09190613fbf565b610757565b005b6101e160048036038101906101dc9190614063565b610b24565b005b6101fd60048036038101906101f8919061403a565b610e5d565b60405161020a9190615124565b60405180910390f35b61021b61106b565b6040516102289190615168565b60405180910390f35b61024b6004803603810190610246919061403a565b611071565b6040516102589190615168565b60405180910390f35b61027b600480360381019061027691906141ce565b611089565b60405161028d96959493929190614f1a565b60405180910390f35b6102b060048036038101906102ab919061403a565b6111ad565b6040516102bd9190615102565b60405180910390f35b6102ce61157d565b6040516102db9190614ee4565b60405180910390f35b6102fe60048036038101906102f991906140ca565b6115c6565b005b61031a6004803603810190610315919061403a565b611882565b005b610324611cc7565b6040516103319190615168565b60405180910390f35b610342611ccd565b60405161034f9190614e7e565b60405180910390f35b610372600480360381019061036d9190613f96565b61205a565b60405161037f9190615146565b60405180910390f35b6103906123e5565b60405161039d9190615168565b60405180910390f35b6103c060048036038101906103bb91906141ce565b6123eb565b6040516103d296959493929190614f1a565b60405180910390f35b6103e361250f565b6040516103f09190614ee4565b60405180910390f35b610401612567565b60405161040e9190615168565b60405180910390f35b610431600480360381019061042c9190613f96565b61256d565b60405161043e9190614ea0565b60405180910390f35b610461600480360381019061045c91906140ca565b6129b5565b005b61047d6004803603810190610478919061403a565b612c85565b60405161048a9190615168565b60405180910390f35b6104ad60048036038101906104a8919061418d565b612c9d565b6040516104ba9190614ee4565b60405180910390f35b6104cb612e74565b6040516104d89190614ea0565b60405180910390f35b6104fb60048036038101906104f6919061403a565b6130cf565b6040516105089190614ea0565b60405180910390f35b61051961348c565b6040516105269190614ec2565b60405180910390f35b6001818154811061053f57600080fd5b90600052602060002090600502016000915090508060000160009054906101000a900473ffffffffffffffffffffffffffffffffffffffff1690806001018054600181600116156101000203166002900480601f0160208091040260200160405190810160405280929190818152602001828054600181600116156101000203166002900480156106115780601f106105e657610100808354040283529160200191610611565b820191906000526020600020905b8154815290600101906020018083116105f457829003601f168201915b505050505090806002018054600181600116156101000203166002900480601f0160208091040260200160405190810160405280929190818152602001828054600181600116156101000203166002900480156106af5780601f10610684576101008083540402835291602001916106af565b820191906000526020600020905b81548152906001019060200180831161069257829003601f168201915b505050505090806003018054600181600116156101000203166002900480601f01602080910402602001604051908101604052809291908181526020018280546001816001161561010002031660029004801561074d5780601f106107225761010080835404028352916020019161074d565b820191906000526020600020905b81548152906001019060200180831161073057829003601f168201915b5050505050905084565b600c60009054906101000a900473ffffffffffffffffffffffffffffffffffffffff1673ffffffffffffffffffffffffffffffffffffffff163373ffffffffffffffffffffffffffffffffffffffff16146107e7576040517f08c379a00000000000000000000000000000000000000000000000000000000081526004016107de906150c2565b60405180910390fd5b60008060008673ffffffffffffffffffffffffffffffffffffffff1673ffffffffffffffffffffffffffffffffffffffff168152602001908152602001600020541415610869576040517f08c379a000000000000000000000000000000000000000000000000000000000815260040161086090615022565b60405180910390fd5b600084600c60009054906101000a900473ffffffffffffffffffffffffffffffffffffffff168585856040516020016108a6959493929190614d80565b604051602081830303815290604052805190602001209050600560008154809291906001019190505550600160048054905001600360008381526020019081526020016000208190555060046040518060c001604052808381526020018681526020018773ffffffffffffffffffffffffffffffffffffffff168152602001600c60009054906101000a900473ffffffffffffffffffffffffffffffffffffffff1673ffffffffffffffffffffffffffffffffffffffff168152602001858152602001848152509080600181540180825580915050600190039060005260206000209060060201600090919091909150600082015181600001556020820151816001015560408201518160020160006101000a81548173ffffffffffffffffffffffffffffffffffffffff021916908373ffffffffffffffffffffffffffffffffffffffff16021790555060608201518160030160006101000a81548173ffffffffffffffffffffffffffffffffffffffff021916908373ffffffffffffffffffffffffffffffffffffffff1602179055506080820151816004019080519060200190610a54929190613ab7565b5060a0820151816005015550506001806000808873ffffffffffffffffffffffffffffffffffffffff1673ffffffffffffffffffffffffffffffffffffffff168152602001908152602001600020540381548110610aae57fe5b90600052602060002090600502016004018190806001815401808255809150506001900390600052602060002001600090919091909150557f85ca0491ab0b66b547f1a84afd331fd6b696683df09c1392444c8b10f37dd59f81604051610b159190614eff565b60405180910390a15050505050565b60008060003373ffffffffffffffffffffffffffffffffffffffff1673ffffffffffffffffffffffffffffffffffffffff168152602001908152602001600020541415610ba6576040517f08c379a0000000000000000000000000000000000000000000000000000000008152600401610b9d90615022565b60405180910390fd5b60008060003373ffffffffffffffffffffffffffffffffffffffff1673ffffffffffffffffffffffffffffffffffffffff168152602001908152602001600020541415610c28576040517f08c379a0000000000000000000000000000000000000000000000000000000008152600401610c1f90615062565b60405180910390fd5b600033600c60009054906101000a900473ffffffffffffffffffffffffffffffffffffffff16858585604051602001610c65959493929190614ce3565b604051602081830303815290604052805190602001209050600860008154809291906001019190505550600160078054905001600660008381526020019081526020016000208190555060076040518060c001604052808381526020018681526020013373ffffffffffffffffffffffffffffffffffffffff168152602001600c60009054906101000a900473ffffffffffffffffffffffffffffffffffffffff1673ffffffffffffffffffffffffffffffffffffffff168152602001858152602001848152509080600181540180825580915050600190039060005260206000209060060201600090919091909150600082015181600001556020820151816001015560408201518160020160006101000a81548173ffffffffffffffffffffffffffffffffffffffff021916908373ffffffffffffffffffffffffffffffffffffffff16021790555060608201518160030160006101000a81548173ffffffffffffffffffffffffffffffffffffffff021916908373ffffffffffffffffffffffffffffffffffffffff1602179055506080820151816004019080519060200190610e13929190613ab7565b5060a0820151816005015550507f2af1e75a3d834b77fa1b758eb75b9dd0d5445d40fe11ad4f71eec52c77ae812c33604051610e4f9190614e09565b60405180910390a150505050565b610e65613b45565b600060036000848152602001908152602001600020541415610ebc576040517f08c379a0000000000000000000000000000000000000000000000000000000008152600401610eb390614f82565b60405180910390fd5b6004600160036000858152602001908152602001600020540381548110610edf57fe5b90600052602060002090600602016040518060c001604052908160008201548152602001600182015481526020016002820160009054906101000a900473ffffffffffffffffffffffffffffffffffffffff1673ffffffffffffffffffffffffffffffffffffffff1673ffffffffffffffffffffffffffffffffffffffff1681526020016003820160009054906101000a900473ffffffffffffffffffffffffffffffffffffffff1673ffffffffffffffffffffffffffffffffffffffff1673ffffffffffffffffffffffffffffffffffffffff168152602001600482018054600181600116156101000203166002900480601f0160208091040260200160405190810160405280929190818152602001828054600181600116156101000203166002900480156110515780601f1061102657610100808354040283529160200191611051565b820191906000526020600020905b81548152906001019060200180831161103457829003601f168201915b505050505081526020016005820154815250509050919050565b60085481565b60036020528060005260406000206000915090505481565b6004818154811061109957600080fd5b90600052602060002090600602016000915090508060000154908060010154908060020160009054906101000a900473ffffffffffffffffffffffffffffffffffffffff16908060030160009054906101000a900473ffffffffffffffffffffffffffffffffffffffff1690806004018054600181600116156101000203166002900480601f01602080910402602001604051908101604052809291908181526020018280546001816001161561010002031660029004801561119d5780601f106111725761010080835404028352916020019161119d565b820191906000526020600020905b81548152906001019060200180831161118057829003601f168201915b5050505050908060050154905086565b6111b5613bad565b600c60009054906101000a900473ffffffffffffffffffffffffffffffffffffffff1673ffffffffffffffffffffffffffffffffffffffff163373ffffffffffffffffffffffffffffffffffffffff1614611245576040517f08c379a000000000000000000000000000000000000000000000000000000000815260040161123c906150c2565b60405180910390fd5b60006009600084815260200190815260200160002054141561129c576040517f08c379a000000000000000000000000000000000000000000000000000000000815260040161129390614fa2565b60405180910390fd5b600a6001600960008581526020019081526020016000205403815481106112bf57fe5b90600052602060002090600602016040518060c0016040529081600082015481526020016001820160009054906101000a900473ffffffffffffffffffffffffffffffffffffffff1673ffffffffffffffffffffffffffffffffffffffff1673ffffffffffffffffffffffffffffffffffffffff168152602001600282018054600181600116156101000203166002900480601f0160208091040260200160405190810160405280929190818152602001828054600181600116156101000203166002900480156113d15780601f106113a6576101008083540402835291602001916113d1565b820191906000526020600020905b8154815290600101906020018083116113b457829003601f168201915b50505050508152602001600382018054600181600116156101000203166002900480601f0160208091040260200160405190810160405280929190818152602001828054600181600116156101000203166002900480156114735780601f1061144857610100808354040283529160200191611473565b820191906000526020600020905b81548152906001019060200180831161145657829003601f168201915b50505050508152602001600482018054600181600116156101000203166002900480601f0160208091040260200160405190810160405280929190818152602001828054600181600116156101000203166002900480156115155780601f106114ea57610100808354040283529160200191611515565b820191906000526020600020905b8154815290600101906020018083116114f857829003601f168201915b505050505081526020016005820180548060200260200160405190810160405280929190818152602001828054801561156d57602002820191906000526020600020905b815481526020019060010190808311611559575b5050505050815250509050919050565b6000806000803373ffffffffffffffffffffffffffffffffffffffff1673ffffffffffffffffffffffffffffffffffffffff168152602001908152602001600020541415905090565b600c60009054906101000a900473ffffffffffffffffffffffffffffffffffffffff1673ffffffffffffffffffffffffffffffffffffffff163373ffffffffffffffffffffffffffffffffffffffff1614611656576040517f08c379a000000000000000000000000000000000000000000000000000000000815260040161164d906150c2565b60405180910390fd5b60003385858560405160200161166f9493929190614d3e565b60405160208183030381529060405280519060200120905060006009600083815260200190815260200160002054146116dd576040517f08c379a00000000000000000000000000000000000000000000000000000000081526004016116d490614fe2565b60405180910390fd5b600b600081548092919060010191905055506001600a80549050016009600083815260200190815260200160002081905550600a6040518060c001604052808381526020013373ffffffffffffffffffffffffffffffffffffffff1681526020018781526020018681526020018581526020018481525090806001815401808255809150506001900390600052602060002090600602016000909190919091506000820151816000015560208201518160010160006101000a81548173ffffffffffffffffffffffffffffffffffffffff021916908373ffffffffffffffffffffffffffffffffffffffff16021790555060408201518160020190805190602001906117ea929190613ab7565b506060820151816003019080519060200190611807929190613ab7565b506080820151816004019080519060200190611824929190613ab7565b5060a0820151816005019080519060200190611841929190613bfc565b5050507f5b68fe5442674e45f7f9f2b84968035c6d9ac90a8f7648d943c63c8b250df5bd816040516118739190614eff565b60405180910390a15050505050565b600c60009054906101000a900473ffffffffffffffffffffffffffffffffffffffff1673ffffffffffffffffffffffffffffffffffffffff163373ffffffffffffffffffffffffffffffffffffffff1614611912576040517f08c379a0000000000000000000000000000000000000000000000000000000008152600401611909906150c2565b60405180910390fd5b6000600360008381526020019081526020016000205414611968576040517f08c379a000000000000000000000000000000000000000000000000000000000815260040161195f90615042565b60405180910390fd5b6000600660008381526020019081526020016000205414156119bf576040517f08c379a00000000000000000000000000000000000000000000000000000000081526004016119b690615082565b60405180910390fd5b600560008154809291906001019190505550600160048054905001600360008381526020019081526020016000208190555060046007600160066000858152602001908152602001600020540381548110611a1657fe5b9060005260206000209060060201908060018154018082558091505060019003906000526020600020906006020160009091909190915060008201548160000155600182015481600101556002820160009054906101000a900473ffffffffffffffffffffffffffffffffffffffff168160020160006101000a81548173ffffffffffffffffffffffffffffffffffffffff021916908373ffffffffffffffffffffffffffffffffffffffff1602179055506003820160009054906101000a900473ffffffffffffffffffffffffffffffffffffffff168160030160006101000a81548173ffffffffffffffffffffffffffffffffffffffff021916908373ffffffffffffffffffffffffffffffffffffffff16021790555060048201816004019080546001816001161561010002031660029004611b56929190613c49565b5060058201548160050155505060006007600160066000858152602001908152602001600020540381548110611b8857fe5b906000526020600020906006020160020160009054906101000a900473ffffffffffffffffffffffffffffffffffffffff1690506001806000808473ffffffffffffffffffffffffffffffffffffffff1673ffffffffffffffffffffffffffffffffffffffff168152602001908152602001600020540381548110611c0957fe5b9060005260206000209060050201600401829080600181540180825580915050600190039060005260206000200160009091909190915055611c626007600160066000868152602001908152602001600020540361380f565b6006600083815260200190815260200160002060009055600860008154809291906001900391905055507f85ca0491ab0b66b547f1a84afd331fd6b696683df09c1392444c8b10f37dd59f82604051611cbb9190614eff565b60405180910390a15050565b60025481565b6060600c60009054906101000a900473ffffffffffffffffffffffffffffffffffffffff1673ffffffffffffffffffffffffffffffffffffffff163373ffffffffffffffffffffffffffffffffffffffff1614611d5f576040517f08c379a0000000000000000000000000000000000000000000000000000000008152600401611d56906150c2565b60405180910390fd5b600a805480602002602001604051908101604052809291908181526020016000905b8282101561205157838290600052602060002090600602016040518060c0016040529081600082015481526020016001820160009054906101000a900473ffffffffffffffffffffffffffffffffffffffff1673ffffffffffffffffffffffffffffffffffffffff1673ffffffffffffffffffffffffffffffffffffffff168152602001600282018054600181600116156101000203166002900480601f016020809104026020016040519081016040528092919081815260200182805460018160011615610100020316600290048015611e9d5780601f10611e7257610100808354040283529160200191611e9d565b820191906000526020600020905b815481529060010190602001808311611e8057829003601f168201915b50505050508152602001600382018054600181600116156101000203166002900480601f016020809104026020016040519081016040528092919081815260200182805460018160011615610100020316600290048015611f3f5780601f10611f1457610100808354040283529160200191611f3f565b820191906000526020600020905b815481529060010190602001808311611f2257829003601f168201915b50505050508152602001600482018054600181600116156101000203166002900480601f016020809104026020016040519081016040528092919081815260200182805460018160011615610100020316600290048015611fe15780601f10611fb657610100808354040283529160200191611fe1565b820191906000526020600020905b815481529060010190602001808311611fc457829003601f168201915b505050505081526020016005820180548060200260200160405190810160405280929190818152602001828054801561203957602002820191906000526020600020905b815481526020019060010190808311612025575b50505050508152505081526020019060010190611d81565b50505050905090565b612062613cde565b60008060008473ffffffffffffffffffffffffffffffffffffffff1673ffffffffffffffffffffffffffffffffffffffff1681526020019081526020016000205414156120e4576040517f08c379a00000000000000000000000000000000000000000000000000000000081526004016120db90615002565b60405180910390fd5b6001806000808573ffffffffffffffffffffffffffffffffffffffff1673ffffffffffffffffffffffffffffffffffffffff16815260200190815260200160002054038154811061213157fe5b90600052602060002090600502016040518060a00160405290816000820160009054906101000a900473ffffffffffffffffffffffffffffffffffffffff1673ffffffffffffffffffffffffffffffffffffffff1673ffffffffffffffffffffffffffffffffffffffff168152602001600182018054600181600116156101000203166002900480601f0160208091040260200160405190810160405280929190818152602001828054600181600116156101000203166002900480156122395780601f1061220e57610100808354040283529160200191612239565b820191906000526020600020905b81548152906001019060200180831161221c57829003601f168201915b50505050508152602001600282018054600181600116156101000203166002900480601f0160208091040260200160405190810160405280929190818152602001828054600181600116156101000203166002900480156122db5780601f106122b0576101008083540402835291602001916122db565b820191906000526020600020905b8154815290600101906020018083116122be57829003601f168201915b50505050508152602001600382018054600181600116156101000203166002900480601f01602080910402602001604051908101604052809291908181526020018280546001816001161561010002031660029004801561237d5780601f106123525761010080835404028352916020019161237d565b820191906000526020600020905b81548152906001019060200180831161236057829003601f168201915b50505050508152602001600482018054806020026020016040519081016040528092919081815260200182805480156123d557602002820191906000526020600020905b8154815260200190600101908083116123c1575b5050505050815250509050919050565b600b5481565b600781815481106123fb57600080fd5b90600052602060002090600602016000915090508060000154908060010154908060020160009054906101000a900473ffffffffffffffffffffffffffffffffffffffff16908060030160009054906101000a900473ffffffffffffffffffffffffffffffffffffffff1690806004018054600181600116156101000203166002900480601f0160208091040260200160405190810160405280929190818152602001828054600181600116156101000203166002900480156124ff5780601f106124d4576101008083540402835291602001916124ff565b820191906000526020600020905b8154815290600101906020018083116124e257829003601f168201915b5050505050908060050154905086565b6000600c60009054906101000a900473ffffffffffffffffffffffffffffffffffffffff1673ffffffffffffffffffffffffffffffffffffffff163373ffffffffffffffffffffffffffffffffffffffff1614905090565b60055481565b60608173ffffffffffffffffffffffffffffffffffffffff163373ffffffffffffffffffffffffffffffffffffffff1614806125f65750600c60009054906101000a900473ffffffffffffffffffffffffffffffffffffffff1673ffffffffffffffffffffffffffffffffffffffff163373ffffffffffffffffffffffffffffffffffffffff16145b612635576040517f08c379a000000000000000000000000000000000000000000000000000000000815260040161262c90614fc2565b60405180910390fd5b60008060008473ffffffffffffffffffffffffffffffffffffffff1673ffffffffffffffffffffffffffffffffffffffff1681526020019081526020016000205414156126b7576040517f08c379a00000000000000000000000000000000000000000000000000000000081526004016126ae90615062565b60405180910390fd5b60006001806000808673ffffffffffffffffffffffffffffffffffffffff1673ffffffffffffffffffffffffffffffffffffffff16815260200190815260200160002054038154811061270657fe5b906000526020600020906005020160040180548060200260200160405190810160405280929190818152602001828054801561276157602002820191906000526020600020905b81548152602001906001019080831161274d575b505050505090506000815167ffffffffffffffff8111801561278257600080fd5b506040519080825280602002602001820160405280156127bc57816020015b6127a9613b45565b8152602001906001900390816127a15790505b50905060005b82518110156129aa5760046001600360008685815181106127df57fe5b6020026020010151815260200190815260200160002054038154811061280157fe5b90600052602060002090600602016040518060c001604052908160008201548152602001600182015481526020016002820160009054906101000a900473ffffffffffffffffffffffffffffffffffffffff1673ffffffffffffffffffffffffffffffffffffffff1673ffffffffffffffffffffffffffffffffffffffff1681526020016003820160009054906101000a900473ffffffffffffffffffffffffffffffffffffffff1673ffffffffffffffffffffffffffffffffffffffff1673ffffffffffffffffffffffffffffffffffffffff168152602001600482018054600181600116156101000203166002900480601f0160208091040260200160405190810160405280929190818152602001828054600181600116156101000203166002900480156129735780601f1061294857610100808354040283529160200191612973565b820191906000526020600020905b81548152906001019060200180831161295657829003601f168201915b5050505050815260200160058201548152505082828151811061299257fe5b602002602001018190525080806001019150506127c2565b508092505050919050565b60008060003373ffffffffffffffffffffffffffffffffffffffff1673ffffffffffffffffffffffffffffffffffffffff1681526020019081526020016000205414612a36576040517f08c379a0000000000000000000000000000000000000000000000000000000008152600401612a2d906150a2565b60405180910390fd5b600c60009054906101000a900473ffffffffffffffffffffffffffffffffffffffff1673ffffffffffffffffffffffffffffffffffffffff163373ffffffffffffffffffffffffffffffffffffffff161415612ac7576040517f08c379a0000000000000000000000000000000000000000000000000000000008152600401612abe906150e2565b60405180910390fd5b60026000815480929190600101919050555060018080549050016000803373ffffffffffffffffffffffffffffffffffffffff1673ffffffffffffffffffffffffffffffffffffffff1681526020019081526020016000208190555060016040518060a001604052803373ffffffffffffffffffffffffffffffffffffffff16815260200186815260200185815260200184815260200183815250908060018154018082558091505060019003906000526020600020906005020160009091909190915060008201518160000160006101000a81548173ffffffffffffffffffffffffffffffffffffffff021916908373ffffffffffffffffffffffffffffffffffffffff1602179055506020820151816001019080519060200190612bee929190613ab7565b506040820151816002019080519060200190612c0b929190613ab7565b506060820151816003019080519060200190612c28929190613ab7565b506080820151816004019080519060200190612c45929190613bfc565b5050507f2e5ed1b0817b286babe64f1c37ad94d371cb8c9f6d9a1d83345f8d521fcaae0b33604051612c779190614e09565b60405180910390a150505050565b60066020528060005260406000206000915090505481565b6000806003600084600001518152602001908152602001600020541415612cf9576040517f08c379a0000000000000000000000000000000000000000000000000000000008152600401612cf090614f82565b60405180910390fd5b6000600460016003600086600001518152602001908152602001600020540381548110612d2257fe5b9060005260206000209060060201905080600101548360200151148015612d9c57508060020160009054906101000a900473ffffffffffffffffffffffffffffffffffffffff1673ffffffffffffffffffffffffffffffffffffffff16836040015173ffffffffffffffffffffffffffffffffffffffff16145b8015612dfb57508060030160009054906101000a900473ffffffffffffffffffffffffffffffffffffffff1673ffffffffffffffffffffffffffffffffffffffff16836060015173ffffffffffffffffffffffffffffffffffffffff16145b8015612e59575080600401604051602001612e169190614df2565b604051602081830303815290604052805190602001208360800151604051602001612e419190614ddb565b60405160208183030381529060405280519060200120145b8015612e6c575080600501548360a00151145b915050919050565b6060600c60009054906101000a900473ffffffffffffffffffffffffffffffffffffffff1673ffffffffffffffffffffffffffffffffffffffff163373ffffffffffffffffffffffffffffffffffffffff1614612f06576040517f08c379a0000000000000000000000000000000000000000000000000000000008152600401612efd906150c2565b60405180910390fd5b6004805480602002602001604051908101604052809291908181526020016000905b828210156130c657838290600052602060002090600602016040518060c001604052908160008201548152602001600182015481526020016002820160009054906101000a900473ffffffffffffffffffffffffffffffffffffffff1673ffffffffffffffffffffffffffffffffffffffff1673ffffffffffffffffffffffffffffffffffffffff1681526020016003820160009054906101000a900473ffffffffffffffffffffffffffffffffffffffff1673ffffffffffffffffffffffffffffffffffffffff1673ffffffffffffffffffffffffffffffffffffffff168152602001600482018054600181600116156101000203166002900480601f0160208091040260200160405190810160405280929190818152602001828054600181600116156101000203166002900480156130a45780601f10613079576101008083540402835291602001916130a4565b820191906000526020600020905b81548152906001019060200180831161308757829003601f168201915b5050505050815260200160058201548152505081526020019060010190612f28565b50505050905090565b6060600c60009054906101000a900473ffffffffffffffffffffffffffffffffffffffff1673ffffffffffffffffffffffffffffffffffffffff163373ffffffffffffffffffffffffffffffffffffffff1614613161576040517f08c379a0000000000000000000000000000000000000000000000000000000008152600401613158906150c2565b60405180910390fd5b6000600960008481526020019081526020016000205414156131b8576040517f08c379a00000000000000000000000000000000000000000000000000000000081526004016131af90614fa2565b60405180910390fd5b6000600a6001600960008681526020019081526020016000205403815481106131dd57fe5b906000526020600020906006020160050180548060200260200160405190810160405280929190818152602001828054801561323857602002820191906000526020600020905b815481526020019060010190808311613224575b505050505090506000815167ffffffffffffffff8111801561325957600080fd5b5060405190808252806020026020018201604052801561329357816020015b613280613b45565b8152602001906001900390816132785790505b50905060005b82518110156134815760046001600360008685815181106132b657fe5b602002602001015181526020019081526020016000205403815481106132d857fe5b90600052602060002090600602016040518060c001604052908160008201548152602001600182015481526020016002820160009054906101000a900473ffffffffffffffffffffffffffffffffffffffff1673ffffffffffffffffffffffffffffffffffffffff1673ffffffffffffffffffffffffffffffffffffffff1681526020016003820160009054906101000a900473ffffffffffffffffffffffffffffffffffffffff1673ffffffffffffffffffffffffffffffffffffffff1673ffffffffffffffffffffffffffffffffffffffff168152602001600482018054600181600116156101000203166002900480601f01602080910402602001604051908101604052809291908181526020018280546001816001161561010002031660029004801561344a5780601f1061341f5761010080835404028352916020019161344a565b820191906000526020600020905b81548152906001019060200180831161342d57829003601f168201915b5050505050815260200160058201548152505082828151811061346957fe5b60200260200101819052508080600101915050613299565b508092505050919050565b6060600c60009054906101000a900473ffffffffffffffffffffffffffffffffffffffff1673ffffffffffffffffffffffffffffffffffffffff163373ffffffffffffffffffffffffffffffffffffffff161461351e576040517f08c379a0000000000000000000000000000000000000000000000000000000008152600401613515906150c2565b60405180910390fd5b6001805480602002602001604051908101604052809291908181526020016000905b8282101561380657838290600052602060002090600502016040518060a00160405290816000820160009054906101000a900473ffffffffffffffffffffffffffffffffffffffff1673ffffffffffffffffffffffffffffffffffffffff1673ffffffffffffffffffffffffffffffffffffffff168152602001600182018054600181600116156101000203166002900480601f0160208091040260200160405190810160405280929190818152602001828054600181600116156101000203166002900480156136525780601f1061362757610100808354040283529160200191613652565b820191906000526020600020905b81548152906001019060200180831161363557829003601f168201915b50505050508152602001600282018054600181600116156101000203166002900480601f0160208091040260200160405190810160405280929190818152602001828054600181600116156101000203166002900480156136f45780601f106136c9576101008083540402835291602001916136f4565b820191906000526020600020905b8154815290600101906020018083116136d757829003601f168201915b50505050508152602001600382018054600181600116156101000203166002900480601f0160208091040260200160405190810160405280929190818152602001828054600181600116156101000203166002900480156137965780601f1061376b57610100808354040283529160200191613796565b820191906000526020600020905b81548152906001019060200180831161377957829003601f168201915b50505050508152602001600482018054806020026020016040519081016040528092919081815260200182805480156137ee57602002820191906000526020600020905b8154815260200190600101908083116137da575b50505050508152505081526020019060010190613540565b50505050905090565b60008190505b600183805490500381101561397f5782600182018154811061383357fe5b906000526020600020906006020183828154811061384d57fe5b906000526020600020906006020160008201548160000155600182015481600101556002820160009054906101000a900473ffffffffffffffffffffffffffffffffffffffff168160020160006101000a81548173ffffffffffffffffffffffffffffffffffffffff021916908373ffffffffffffffffffffffffffffffffffffffff1602179055506003820160009054906101000a900473ffffffffffffffffffffffffffffffffffffffff168160030160006101000a81548173ffffffffffffffffffffffffffffffffffffffff021916908373ffffffffffffffffffffffffffffffffffffffff16021790555060048201816004019080546001816001161561010002031660029004613964929190613c49565b50600582015481600501559050508080600101915050613815565b508160018380549050038154811061399357fe5b906000526020600020906006020160008082016000905560018201600090556002820160006101000a81549073ffffffffffffffffffffffffffffffffffffffff02191690556003820160006101000a81549073ffffffffffffffffffffffffffffffffffffffff0219169055600482016000613a109190613d23565b6005820160009055505081805480613a2457fe5b600190038181906000526020600020906006020160008082016000905560018201600090556002820160006101000a81549073ffffffffffffffffffffffffffffffffffffffff02191690556003820160006101000a81549073ffffffffffffffffffffffffffffffffffffffff0219169055600482016000613aa79190613d23565b6005820160009055505090555050565b828054600181600116156101000203166002900490600052602060002090601f016020900481019282613aed5760008555613b34565b82601f10613b0657805160ff1916838001178555613b34565b82800160010185558215613b34579182015b82811115613b33578251825591602001919060010190613b18565b5b509050613b419190613d6b565b5090565b6040518060c001604052806000801916815260200160008019168152602001600073ffffffffffffffffffffffffffffffffffffffff168152602001600073ffffffffffffffffffffffffffffffffffffffff16815260200160608152602001600081525090565b6040518060c0016040528060008019168152602001600073ffffffffffffffffffffffffffffffffffffffff168152602001606081526020016060815260200160608152602001606081525090565b828054828255906000526020600020908101928215613c38579160200282015b82811115613c37578251825591602001919060010190613c1c565b5b509050613c459190613d88565b5090565b828054600181600116156101000203166002900490600052602060002090601f016020900481019282613c7f5760008555613ccd565b82601f10613c905780548555613ccd565b82800160010185558215613ccd57600052602060002091601f016020900482015b82811115613ccc578254825591600101919060010190613cb1565b5b509050613cda9190613d6b565b5090565b6040518060a00160405280600073ffffffffffffffffffffffffffffffffffffffff168152602001606081526020016060815260200160608152602001606081525090565b50805460018160011615610100020316600290046000825580601f10613d495750613d68565b601f016020900490600052602060002090810190613d679190613d6b565b5b50565b5b80821115613d84576000816000905550600101613d6c565b5090565b5b80821115613da1576000816000905550600101613d89565b5090565b6000613db8613db3846151b4565b615183565b90508083825260208201905082856020860282011115613dd757600080fd5b60005b85811015613e075781613ded8882613e8e565b845260208401935060208301925050600181019050613dda565b5050509392505050565b6000613e24613e1f846151e0565b615183565b905082815260208101848484011115613e3c57600080fd5b613e478482856153db565b509392505050565b600081359050613e5e81615487565b92915050565b600082601f830112613e7557600080fd5b8135613e85848260208601613da5565b91505092915050565b600081359050613e9d8161549e565b92915050565b600082601f830112613eb457600080fd5b8135613ec4848260208601613e11565b91505092915050565b600060c08284031215613edf57600080fd5b613ee960c0615183565b90506000613ef984828501613e8e565b6000830152506020613f0d84828501613e8e565b6020830152506040613f2184828501613e4f565b6040830152506060613f3584828501613e4f565b606083015250608082013567ffffffffffffffff811115613f5557600080fd5b613f6184828501613ea3565b60808301525060a0613f7584828501613f81565b60a08301525092915050565b600081359050613f90816154b5565b92915050565b600060208284031215613fa857600080fd5b6000613fb684828501613e4f565b91505092915050565b60008060008060808587031215613fd557600080fd5b6000613fe387828801613e4f565b9450506020613ff487828801613e8e565b935050604085013567ffffffffffffffff81111561401157600080fd5b61401d87828801613ea3565b925050606061402e87828801613f81565b91505092959194509250565b60006020828403121561404c57600080fd5b600061405a84828501613e8e565b91505092915050565b60008060006060848603121561407857600080fd5b600061408686828701613e8e565b935050602084013567ffffffffffffffff8111156140a357600080fd5b6140af86828701613ea3565b92505060406140c086828701613f81565b9150509250925092565b600080600080608085870312156140e057600080fd5b600085013567ffffffffffffffff8111156140fa57600080fd5b61410687828801613ea3565b945050602085013567ffffffffffffffff81111561412357600080fd5b61412f87828801613ea3565b935050604085013567ffffffffffffffff81111561414c57600080fd5b61415887828801613ea3565b925050606085013567ffffffffffffffff81111561417557600080fd5b61418187828801613e64565b91505092959194509250565b60006020828403121561419f57600080fd5b600082013567ffffffffffffffff8111156141b957600080fd5b6141c584828501613ecd565b91505092915050565b6000602082840312156141e057600080fd5b60006141ee84828501613f81565b91505092915050565b60006142038383614472565b60208301905092915050565b600061421b838361494a565b905092915050565b600061422f8383614a86565b905092915050565b60006142438383614b98565b905092915050565b614254816153a5565b82525050565b61426b61426682615353565b61542f565b82525050565b61427a81615341565b82525050565b61428981615341565b82525050565b6142a061429b82615341565b61541d565b82525050565b60006142b182615265565b6142bb81856152d0565b93506142c683615210565b8060005b838110156142f75781516142de88826141f7565b97506142e98361529c565b9250506001810190506142ca565b5085935050505092915050565b600061430f82615270565b61431981856152e1565b93508360208202850161432b85615220565b8060005b858110156143675784840389528151614348858261420f565b9450614353836152a9565b925060208a0199505060018101905061432f565b50829750879550505050505092915050565b60006143848261527b565b61438e81856152f2565b9350836020820285016143a085615230565b8060005b858110156143dc57848403895281516143bd8582614223565b94506143c8836152b6565b925060208a019950506001810190506143a4565b50829750879550505050505092915050565b60006143f982615286565b6144038185615303565b93508360208202850161441585615240565b8060005b8581101561445157848403895281516144328582614237565b945061443d836152c3565b925060208a01995050600181019050614419565b50829750879550505050505092915050565b61446c81615365565b82525050565b61447b81615371565b82525050565b61448a81615371565b82525050565b6144a161449c82615371565b615441565b82525050565b60006144b282615291565b6144bc8185615314565b93506144cc8185602086016153ea565b6144d581615469565b840191505092915050565b60006144eb82615291565b6144f58185615325565b93506145058185602086016153ea565b61450e81615469565b840191505092915050565b600061452482615291565b61452e8185615336565b935061453e8185602086016153ea565b80840191505092915050565b600081546001811660008114614567576001811461458c576145d0565b607f60028304166145788187615336565b955060ff19831686528086019350506145d0565b6002820461459a8187615336565b95506145a585615250565b60005b828110156145c7578154818901526001820191506020810190506145a8565b82880195505050505b505092915050565b60006145e5602a83615325565b91507f596f752070726f766964656420616e20696e76616c6964206469706c6f6d612060008301527f6964656e746966696572000000000000000000000000000000000000000000006020830152604082019050919050565b600061464b601c83615325565b91507f4469706c6f6d6120426c7565727072696e74206e6f7420666f756e64000000006000830152602082019050919050565b600061468b601f83615325565b91507f4f6e6c79206f776e6572206f722061646d696e2061726520616c6c6f776564006000830152602082019050919050565b60006146cb601883615325565b91507f426c7565207072696e7420616c726561647920657869737400000000000000006000830152602082019050919050565b600061470b602783615325565b91507f596f752070726f766964656420616e20696e76616c69642073747564656e742060008301527f61646472657373000000000000000000000000000000000000000000000000006020830152604082019050919050565b6000614771601183615325565b91507f53747564656e74206e6f7420666f756e640000000000000000000000000000006000830152602082019050919050565b60006147b1601683615325565b91507f4469706c6f6d6120616c726561647920657869737473000000000000000000006000830152602082019050919050565b60006147f1601683615325565b91507f53747564656e7420646f6573206e6f74206578697374000000000000000000006000830152602082019050919050565b6000614831603583615325565b91507f4469706c6f6d612072657175657374206973206e6f742072656769737465726560008301527f64206f7220686173206265656e2072656d6f76656400000000000000000000006020830152604082019050919050565b6000614897601683615325565b91507f53747564656e7420616c726561647920657869737473000000000000000000006000830152602082019050919050565b60006148d7600f83615325565b91507f41646d696e206e6f7420666f756e6400000000000000000000000000000000006000830152602082019050919050565b6000614917601683615325565b91507f41646d696e206973206e6f7420612073747564656e74000000000000000000006000830152602082019050919050565b600060c0830160008301516149626000860182614472565b5060208301516149756020860182614271565b506040830151848203604086015261498d82826144a7565b915050606083015184820360608601526149a782826144a7565b915050608083015184820360808601526149c182826144a7565b91505060a083015184820360a08601526149db82826142a6565b9150508091505092915050565b600060c083016000830151614a006000860182614472565b506020830151614a136020860182614271565b5060408301518482036040860152614a2b82826144a7565b91505060608301518482036060860152614a4582826144a7565b91505060808301518482036080860152614a5f82826144a7565b91505060a083015184820360a0860152614a7982826142a6565b9150508091505092915050565b600060c083016000830151614a9e6000860182614472565b506020830151614ab16020860182614472565b506040830151614ac46040860182614271565b506060830151614ad76060860182614271565b5060808301518482036080860152614aef82826144a7565b91505060a0830151614b0460a0860182614cae565b508091505092915050565b600060c083016000830151614b276000860182614472565b506020830151614b3a6020860182614472565b506040830151614b4d6040860182614271565b506060830151614b606060860182614271565b5060808301518482036080860152614b7882826144a7565b91505060a0830151614b8d60a0860182614cae565b508091505092915050565b600060a083016000830151614bb06000860182614271565b5060208301518482036020860152614bc882826144a7565b91505060408301518482036040860152614be282826144a7565b91505060608301518482036060860152614bfc82826144a7565b91505060808301518482036080860152614c1682826142a6565b9150508091505092915050565b600060a083016000830151614c3b6000860182614271565b5060208301518482036020860152614c5382826144a7565b91505060408301518482036040860152614c6d82826144a7565b91505060608301518482036060860152614c8782826144a7565b91505060808301518482036080860152614ca182826142a6565b9150508091505092915050565b614cb78161539b565b82525050565b614cc68161539b565b82525050565b614cdd614cd88261539b565b61545d565b82525050565b6000614cef828861425a565b601482019150614cff828761428f565b601482019150614d0f8286614490565b602082019150614d1f8285614519565b9150614d2b8284614ccc565b6020820191508190509695505050505050565b6000614d4a828761425a565b601482019150614d5a8286614519565b9150614d668285614519565b9150614d728284614519565b915081905095945050505050565b6000614d8c828861428f565b601482019150614d9c828761428f565b601482019150614dac8286614490565b602082019150614dbc8285614519565b9150614dc88284614ccc565b6020820191508190509695505050505050565b6000614de78284614519565b915081905092915050565b6000614dfe828461454a565b915081905092915050565b6000602082019050614e1e600083018461424b565b92915050565b6000608082019050614e396000830187614280565b8181036020830152614e4b81866144e0565b90508181036040830152614e5f81856144e0565b90508181036060830152614e7381846144e0565b905095945050505050565b60006020820190508181036000830152614e988184614304565b905092915050565b60006020820190508181036000830152614eba8184614379565b905092915050565b60006020820190508181036000830152614edc81846143ee565b905092915050565b6000602082019050614ef96000830184614463565b92915050565b6000602082019050614f146000830184614481565b92915050565b600060c082019050614f2f6000830189614481565b614f3c6020830188614481565b614f496040830187614280565b614f566060830186614280565b8181036080830152614f6881856144e0565b9050614f7760a0830184614cbd565b979650505050505050565b60006020820190508181036000830152614f9b816145d8565b9050919050565b60006020820190508181036000830152614fbb8161463e565b9050919050565b60006020820190508181036000830152614fdb8161467e565b9050919050565b60006020820190508181036000830152614ffb816146be565b9050919050565b6000602082019050818103600083015261501b816146fe565b9050919050565b6000602082019050818103600083015261503b81614764565b9050919050565b6000602082019050818103600083015261505b816147a4565b9050919050565b6000602082019050818103600083015261507b816147e4565b9050919050565b6000602082019050818103600083015261509b81614824565b9050919050565b600060208201905081810360008301526150bb8161488a565b9050919050565b600060208201905081810360008301526150db816148ca565b9050919050565b600060208201905081810360008301526150fb8161490a565b9050919050565b6000602082019050818103600083015261511c81846149e8565b905092915050565b6000602082019050818103600083015261513e8184614b0f565b905092915050565b600060208201905081810360008301526151608184614c23565b905092915050565b600060208201905061517d6000830184614cbd565b92915050565b6000604051905081810181811067ffffffffffffffff821117156151aa576151a9615467565b5b8060405250919050565b600067ffffffffffffffff8211156151cf576151ce615467565b5b602082029050602081019050919050565b600067ffffffffffffffff8211156151fb576151fa615467565b5b601f19601f8301169050602081019050919050565b6000819050602082019050919050565b6000819050602082019050919050565b6000819050602082019050919050565b6000819050602082019050919050565b60008190508160005260206000209050919050565b600081519050919050565b600081519050919050565b600081519050919050565b600081519050919050565b600081519050919050565b6000602082019050919050565b6000602082019050919050565b6000602082019050919050565b6000602082019050919050565b600082825260208201905092915050565b600082825260208201905092915050565b600082825260208201905092915050565b600082825260208201905092915050565b600082825260208201905092915050565b600082825260208201905092915050565b600081905092915050565b600061534c8261537b565b9050919050565b600061535e8261537b565b9050919050565b60008115159050919050565b6000819050919050565b600073ffffffffffffffffffffffffffffffffffffffff82169050919050565b6000819050919050565b60006153b0826153b7565b9050919050565b60006153c2826153c9565b9050919050565b60006153d48261537b565b9050919050565b82818337600083830152505050565b60005b838110156154085780820151818401526020810190506153ed565b83811115615417576000848401525b50505050565b60006154288261544b565b9050919050565b600061543a8261544b565b9050919050565b6000819050919050565b60006154568261547a565b9050919050565b6000819050919050565bfe5b6000601f19601f8301169050919050565b60008160601b9050919050565b61549081615341565b811461549b57600080fd5b50565b6154a781615371565b81146154b257600080fd5b50565b6154be8161539b565b81146154c957600080fd5b5056fea2646970667358221220e88e66b1385b3d6e277510c726292ea8e4d5796e839ba4c6b0f6e5180bbc84c564736f6c63430007060033",
  "immutableReferences": {},
  "source": "// SPDX-License-Identifier: MIT\npragma solidity ^0.7.0;\npragma experimental ABIEncoderV2;\n    struct Diploma {\n        bytes32 id;\n        bytes32 blueprintId;\n        address owner;\n        address issuer;\n        string honors;\n        uint256 dateObtained; // timestamps format\n    }\n\n    struct Student {\n        address id;\n        string firstName;\n        string lastName;\n        string email;\n        bytes32[] diplomas;\n    }\n\n    struct DiplomaBluePrint{\n        bytes32 id;\n        address issuer;\n        string title;\n        string description;\n        string speciality;\n        bytes32[] diplomas;\n    }\ncontract Diplomachain {\n    \n    // students storage\n    mapping(address => uint256) private studentsIndexes;\n    Student[] public students;\n    uint256 public studentsCount;\n\n    // diploma storage\n    mapping(bytes32 => uint256) public diplomasIndexes;\n    Diploma[] public diplomas;\n    uint256 public diplomasCount;\n\n    // pending diplomas storage\n    mapping(bytes32 => uint256) public pendingDiplomasIndexes;\n    Diploma[] public pendingDiplomas;\n    uint256 public pendingDiplomasCount;\n\n    // diploma blueprints storage\n    mapping(bytes32 => uint256) private diplomaBlueprintsIndexes;\n    DiplomaBluePrint[] private diplomaBlueprints;\n    uint256 public diplomaBlueprintsCount;\n\n    /* // Let's say we have multiple universities, so it's a good practice to define admins addresses for now\n    mapping(address => uint256) public adminsIndexes;\n\n    // Since every diploma will be issued by a university club, we need to have issuersIndexes\n    mapping(address => uint256) public issuersIndexes; */\n\n    address private admin;\n\n    constructor() {\n        admin = msg.sender; // specifiy the admin when deploying the contract;\n        studentsCount = 0;\n        diplomasCount = 0;\n        pendingDiplomasCount = 0;\n        diplomaBlueprintsCount = 0;\n    }\n\n    // ==========modifiers declaration==========\n    modifier onlyAdmin() {\n        require(msg.sender == admin, \"Admin not found\");\n        _;\n    }\n    modifier onlyStudent() {\n        require(studentsIndexes[msg.sender] != 0, \"Student not found\");\n        _;\n    }\n    /* modifier onlyIssuer() {\n        require(issuersIndexes[msg.sender] != 0, \"Issuer not found\");\n        _;\n    } */\n\n    // ==========events definition==========\n    event LogRequestDiploma(address studentId);\n    event LogAddDiploma(bytes32 diplomaId);\n    event LogAddStudent(address studentId);\n    event LogAddDiplomaBlueprint(bytes32 diplomaBlueprintId);\n    event LogDeleteDiploma(bytes32 diplomaId);\n    event LogDeleteStudent(address studentId);\n    \n    // ==========Functions definition==========\n    // verifyDiploma()\n    function verifyDiploma(Diploma memory diploma) public view returns (bool){\n        require (diplomasIndexes[diploma.id] != 0, \"You provided an invalid diploma identifier\");\n        Diploma storage stored_diploma = diplomas[diplomasIndexes[diploma.id] - 1];\n        return (diploma.blueprintId == stored_diploma.blueprintId \n                && diploma.owner == stored_diploma.owner \n                && diploma.issuer == stored_diploma.issuer\n                && keccak256(abi.encodePacked(diploma.honors)) == keccak256(abi.encodePacked(stored_diploma.honors))\n                && diploma.dateObtained == stored_diploma.dateObtained\n        );\n    } \n    // getDiploma()\n    function getDiploma(bytes32 diplomaId) public view returns (Diploma memory){\n        require (diplomasIndexes[diplomaId] != 0, \"You provided an invalid diploma identifier\");\n        return diplomas[diplomasIndexes[diplomaId] - 1];\n    }\n    // addStudent()\n    function addStudent(\n        string memory _firstName,\n        string memory _lastName,\n        string memory _email,\n        bytes32[] memory _diplomas\n    ) public {\n        require(studentsIndexes[msg.sender] == 0, \"Student already exists\");\n        require( msg.sender != admin, \"Admin is not a student\");\n        // require(adminsIndexes[msg.sender] == 0, \"An admin cannot enroll as a student\");\n        // require(issuersIndexes[msg.sender] == 0, \"An issuer cannot enroll as a student\");\n        studentsCount++;\n        studentsIndexes[msg.sender] = students.length + 1;\n        students.push(\n            Student(msg.sender, _firstName, _lastName, _email, _diplomas)\n        );\n        emit LogAddStudent(msg.sender);\n    }\n    // getStudent()\n    function getStudent(address student_addr) public view returns (Student memory){\n        require (studentsIndexes[student_addr] != 0, \"You provided an invalid student address\");\n        return students[studentsIndexes[student_addr] - 1];\n    }\n    // deleteStudent()\n    /* function deleteStudent(address student_addr) public onlyAdmin {\n        // 1 - delete the student's diplomas\n        bytes32[] memory diplomas_ids = students[studentsIndexes[student_addr] - 1].diplomas;\n        for (uint i = 0; i < diplomas_ids.length; i++) {\n            removeDiplomaItem(diplomas, diplomasIndexes[diplomas_ids[i]] - 1);\n            delete diplomasIndexes[diplomas_ids[i]];\n            diplomasCount--;\n            emit LogDeleteDiploma(diplomas_ids[i]);\n        }\n        // 2 - delete the student\n        removeStudentItem(students, studentsIndexes[student_addr] - 1);\n        delete studentsIndexes[student_addr];\n        studentsCount--;\n        emit LogDeleteStudent(student_addr);\n    } */\n    // remove an element from diplomas array and shift to avoid leaving gaps\n    function removeDiplomaItem(Diploma[] storage array, uint256 index) private {\n        for (uint i = index; i < array.length - 1; i++) {\n            array[i] = array[i + 1];\n        }\n        delete array[array.length - 1];\n        array.pop();\n    }\n    // remove an element from students array and shift to avoid leaving gaps\n    /* function removeStudentItem(Student[] storage array, uint256 index) private {\n        for (uint i = index; i < array.length - 1; i++) {\n            array[i] = array[i + 1];\n        }\n        delete array[array.length - 1];\n        array.pop();\n    } */\n    // addDiploma() => when a student requests a diploma, the admin will call this fct to issue it\n    function addDiploma(bytes32 _id) public onlyAdmin {\n        require(diplomasIndexes[_id] == 0, \"Diploma already exists\");\n        require(pendingDiplomasIndexes[_id] != 0, \"Diploma request is not registered or has been removed\");\n        diplomasCount++;\n        diplomasIndexes[_id] = diplomas.length + 1;\n        diplomas.push(\n            pendingDiplomas[pendingDiplomasIndexes[_id] - 1]\n        );\n        // get the student (owner) address\n        address student_adr = pendingDiplomas[pendingDiplomasIndexes[_id] - 1].owner;\n        // add the new diploma id to the student's diplomas ids array\n        students[studentsIndexes[student_adr] - 1].diplomas.push(\n            _id\n        );\n        // remove the diploma from the pending diplomas array\n        removeDiplomaItem(pendingDiplomas, pendingDiplomasIndexes[_id] - 1);\n        delete pendingDiplomasIndexes[_id];\n        pendingDiplomasCount--;\n        emit LogAddDiploma(_id);\n    }\n    // issueDiploma() => when the issuer himself wants to issue a diploma, he'll be able to do that directly\n    function issueDiploma(\n        address owner,\n        bytes32 blueprintId,\n        string memory _honors,\n        uint256 _dateObtained\n    ) public onlyAdmin {\n        require(studentsIndexes[owner] != 0 ,\"Student not found\");\n        // require(msg.sender == admin, \"You cannot add a diploma issued by someone else..\");\n        // generate a unique hash identifier for each diploma\n        bytes32 id = keccak256(abi.encodePacked(owner, admin, blueprintId, _honors, _dateObtained));\n        diplomasCount++;\n        diplomasIndexes[id] = diplomas.length + 1;\n        diplomas.push(\n            Diploma(id,  blueprintId, owner, admin, _honors, _dateObtained)\n        );\n        // add the new diploma id to the student's diplomas ids array\n        students[studentsIndexes[owner] - 1].diplomas.push(\n            id\n        );\n        emit LogAddDiploma(id);\n    }\n    // isStudent()\n    function isStudent() public view returns (bool) {\n        return studentsIndexes[msg.sender] != 0;\n    }\n    // isAdmin()\n    function isAdmin() public view returns (bool) {\n        \n        return msg.sender == admin;\n        //return adminsIndexes[msg.sender] != 0;\n    }\n    // isIssuer()\n   /*  function isIssuer() public view returns (bool) {\n        return issuersIndexes[msg.sender] != 0;\n    } */\n    // getStudentIndex()\n    /* function getStudentIndex(address studentId) public view returns (uint256) {\n        require(studentsIndexes[studentId] != 0, \"Student does not exist\");\n        return studentsIndexes[studentId] - 1;\n    }\n    // getDiplomaIndex()\n    function getDiplomaIndex(bytes32 diplomaId) public view returns (uint256) {\n        require(diplomasIndexes[diplomaId] != 0, \"Diploma does not exist\");\n        return diplomasIndexes[diplomaId] - 1;\n    } */\n\n    /*\n    \n        getX(id) is not used in the front, also it can be replace by using the default getter \n\n        diplomaIndexes is public so we can use diplomaIndexes(id) to get the index\n        also we can use the default getter for the array types \n        we can use diplomas(index -1) directly outstide the contract instead of implementing it\n    */ \n\n\n    // getStudents()\n    function getStudents() public onlyAdmin view returns (Student[] memory) {\n        return students;\n    }\n    // getDiplomas()\n    function getDiplomas() public onlyAdmin view returns (Diploma[] memory) {\n        return diplomas;\n    }\n    // getStudentDiplomasIds()\n    /* function getStudentDiplomasIds(address studentId) public view returns (bytes32[] memory) {\n        require(studentsIndexes[studentId] != 0, \"Student does not exist\");\n        require(msg.sender == studentId || adminsIndexes[msg.sender] != 0, \"Only owner or admin are allowed\");\n        return students[studentsIndexes[studentId] - 1].diplomas;\n    } */\n    // getStudentDiplomas()\n    function getStudentDiplomas(address studentId) public view returns (Diploma[] memory) {\n        require(msg.sender == studentId || msg.sender == admin, \"Only owner or admin are allowed\");\n        require(studentsIndexes[studentId] != 0, \"Student does not exist\");\n        bytes32[] memory diplomas_ids = students[studentsIndexes[studentId] - 1].diplomas;\n        Diploma[] memory full_diplomas = new Diploma[](diplomas_ids.length);\n        for (uint256 i = 0; i < diplomas_ids.length; i++) {\n            full_diplomas[i] = diplomas[diplomasIndexes[diplomas_ids[i]] - 1];\n        }\n        return full_diplomas;\n    }\n    // requestDiploma()\n    function requestDiploma(\n        bytes32 blueprintId,\n        string memory _honors,\n        uint256 _dateObtained\n    ) public onlyStudent {\n        require(studentsIndexes[msg.sender] != 0, \"Student does not exist\");\n\n        // We have only one issuer (the admin)\n        // require(issuersIndexes[issuer] != 0, \"Issuer does not exist\");\n        // generate a unique hash identifier for each diploma\n        bytes32 id = keccak256(abi.encodePacked(msg.sender, admin , blueprintId,  _honors, _dateObtained));\n        pendingDiplomasCount++;\n        pendingDiplomasIndexes[id] = pendingDiplomas.length + 1;\n        pendingDiplomas.push(\n            Diploma(id, blueprintId ,msg.sender, admin, _honors, _dateObtained)\n        );\n        emit LogRequestDiploma(msg.sender);\n    }\n\n\n    function addDiplomaBlueprint(\n        string memory title,\n        string memory description,\n        string memory speciality,\n        bytes32[] memory _diplomas\n    ) public onlyAdmin {\n        bytes32 id = keccak256(abi.encodePacked(msg.sender, title, description,speciality));\n        require(diplomaBlueprintsIndexes[id] ==0,\"Blue print already exist\");\n        diplomaBlueprintsCount++;\n        diplomaBlueprintsIndexes[id] = diplomaBlueprints.length + 1;\n        diplomaBlueprints.push(\n            DiplomaBluePrint(id,msg.sender, title, description,speciality,_diplomas)\n        );\n        emit LogAddDiplomaBlueprint(id);\n    }\n    function getDiplomaBlueprint(bytes32 id) public onlyAdmin view returns (DiplomaBluePrint memory) {\n        require(diplomaBlueprintsIndexes[id]!=0, \"Diploma Bluerprint not found\");\n        return diplomaBlueprints[diplomaBlueprintsIndexes[id] - 1];\n    }\n    // this will return all diplom blueprints because we have a single issuer (else we will select based on the issuer)\n    function getDiplomaBlueprints()public onlyAdmin view returns (DiplomaBluePrint[] memory){\n        return diplomaBlueprints;\n    }\n    // returns the diploma by the selected blueprint\n    function getDiplomasByBlueprint(bytes32 id) public onlyAdmin view returns (Diploma[] memory){\n        require(diplomaBlueprintsIndexes[id]!=0, \"Diploma Bluerprint not found\");\n        bytes32[] memory diplomas_ids = diplomaBlueprints[diplomaBlueprintsIndexes[id] - 1].diplomas;\n        Diploma[] memory _diplomas = new Diploma[](diplomas_ids.length);\n        for (uint256 i = 0; i < diplomas_ids.length; i++) {\n            _diplomas[i] = diplomas[diplomasIndexes[diplomas_ids[i]] - 1];\n        }\n        return _diplomas;\n    }\n\n}",
  "sourcePath": "/home/dali/GL5/project/blockchain/Diplomachain/blockchain/contracts/Diplomachain.sol",
  "compiler": {
    "name": "solc",
    "version": "0.7.6+commit.7338295f.Emscripten.clang"
  },
  "schemaVersion": "3.3.3",
  "updatedAt": "2021-01-18T22:42:45.941Z",
  "networkType": "ethereum",
  "devdoc": {
    "kind": "dev",
    "methods": {},
    "version": 1
  },
  "userdoc": {
    "kind": "user",
    "methods": {},
    "version": 1
  }
}