{
  "contractName": "Diplomachain",
  "abi": [
    {
      "inputs": [],
      "stateMutability": "nonpayable",
      "type": "constructor"
    },
    {
      "anonymous": false,
      "inputs": [
        {
          "indexed": false,
          "internalType": "bytes32",
          "name": "diplomaId",
          "type": "bytes32"
        }
      ],
      "name": "LogAddDiploma",
      "type": "event"
    },
    {
      "anonymous": false,
      "inputs": [
        {
          "indexed": false,
          "internalType": "bytes32",
          "name": "diplomaBlueprintId",
          "type": "bytes32"
        }
      ],
      "name": "LogAddDiplomaBlueprint",
      "type": "event"
    },
    {
      "anonymous": false,
      "inputs": [
        {
          "indexed": false,
          "internalType": "address",
          "name": "studentId",
          "type": "address"
        }
      ],
      "name": "LogAddStudent",
      "type": "event"
    },
    {
      "anonymous": false,
      "inputs": [
        {
          "indexed": false,
          "internalType": "bytes32",
          "name": "diplomaId",
          "type": "bytes32"
        }
      ],
      "name": "LogDeleteDiploma",
      "type": "event"
    },
    {
      "anonymous": false,
      "inputs": [
        {
          "indexed": false,
          "internalType": "address",
          "name": "studentId",
          "type": "address"
        }
      ],
      "name": "LogDeleteStudent",
      "type": "event"
    },
    {
      "anonymous": false,
      "inputs": [
        {
          "indexed": false,
          "internalType": "address",
          "name": "studentId",
          "type": "address"
        }
      ],
      "name": "LogRequestDiploma",
      "type": "event"
    },
    {
      "inputs": [],
      "name": "diplomaBlueprintsCount",
      "outputs": [
        {
          "internalType": "uint256",
          "name": "",
          "type": "uint256"
        }
      ],
      "stateMutability": "view",
      "type": "function",
      "constant": true
    },
    {
      "inputs": [
        {
          "internalType": "uint256",
          "name": "",
          "type": "uint256"
        }
      ],
      "name": "diplomas",
      "outputs": [
        {
          "internalType": "bytes32",
          "name": "id",
          "type": "bytes32"
        },
        {
          "internalType": "bytes32",
          "name": "blueprintId",
          "type": "bytes32"
        },
        {
          "internalType": "address",
          "name": "owner",
          "type": "address"
        },
        {
          "internalType": "address",
          "name": "issuer",
          "type": "address"
        },
        {
          "internalType": "string",
          "name": "honors",
          "type": "string"
        },
        {
          "internalType": "bool",
          "name": "validated",
          "type": "bool"
        },
        {
          "internalType": "uint256",
          "name": "dateObtained",
          "type": "uint256"
        }
      ],
      "stateMutability": "view",
      "type": "function",
      "constant": true
    },
    {
      "inputs": [],
      "name": "diplomasCount",
      "outputs": [
        {
          "internalType": "uint256",
          "name": "",
          "type": "uint256"
        }
      ],
      "stateMutability": "view",
      "type": "function",
      "constant": true
    },
    {
      "inputs": [
        {
          "internalType": "bytes32",
          "name": "",
          "type": "bytes32"
        }
      ],
      "name": "diplomasIndexes",
      "outputs": [
        {
          "internalType": "uint256",
          "name": "",
          "type": "uint256"
        }
      ],
      "stateMutability": "view",
      "type": "function",
      "constant": true
    },
    {
      "inputs": [
        {
          "internalType": "uint256",
          "name": "",
          "type": "uint256"
        }
      ],
      "name": "pendingDiplomas",
      "outputs": [
        {
          "internalType": "bytes32",
          "name": "id",
          "type": "bytes32"
        },
        {
          "internalType": "bytes32",
          "name": "blueprintId",
          "type": "bytes32"
        },
        {
          "internalType": "address",
          "name": "owner",
          "type": "address"
        },
        {
          "internalType": "address",
          "name": "issuer",
          "type": "address"
        },
        {
          "internalType": "string",
          "name": "honors",
          "type": "string"
        },
        {
          "internalType": "bool",
          "name": "validated",
          "type": "bool"
        },
        {
          "internalType": "uint256",
          "name": "dateObtained",
          "type": "uint256"
        }
      ],
      "stateMutability": "view",
      "type": "function",
      "constant": true
    },
    {
      "inputs": [],
      "name": "pendingDiplomasCount",
      "outputs": [
        {
          "internalType": "uint256",
          "name": "",
          "type": "uint256"
        }
      ],
      "stateMutability": "view",
      "type": "function",
      "constant": true
    },
    {
      "inputs": [
        {
          "internalType": "bytes32",
          "name": "",
          "type": "bytes32"
        }
      ],
      "name": "pendingDiplomasIndexes",
      "outputs": [
        {
          "internalType": "uint256",
          "name": "",
          "type": "uint256"
        }
      ],
      "stateMutability": "view",
      "type": "function",
      "constant": true
    },
    {
      "inputs": [
        {
          "internalType": "uint256",
          "name": "",
          "type": "uint256"
        }
      ],
      "name": "students",
      "outputs": [
        {
          "internalType": "address",
          "name": "id",
          "type": "address"
        },
        {
          "internalType": "string",
          "name": "firstName",
          "type": "string"
        },
        {
          "internalType": "string",
          "name": "lastName",
          "type": "string"
        },
        {
          "internalType": "string",
          "name": "email",
          "type": "string"
        }
      ],
      "stateMutability": "view",
      "type": "function",
      "constant": true
    },
    {
      "inputs": [],
      "name": "studentsCount",
      "outputs": [
        {
          "internalType": "uint256",
          "name": "",
          "type": "uint256"
        }
      ],
      "stateMutability": "view",
      "type": "function",
      "constant": true
    },
    {
      "inputs": [
        {
          "components": [
            {
              "internalType": "bytes32",
              "name": "id",
              "type": "bytes32"
            },
            {
              "internalType": "bytes32",
              "name": "blueprintId",
              "type": "bytes32"
            },
            {
              "internalType": "address",
              "name": "owner",
              "type": "address"
            },
            {
              "internalType": "address",
              "name": "issuer",
              "type": "address"
            },
            {
              "internalType": "string",
              "name": "honors",
              "type": "string"
            },
            {
              "internalType": "bool",
              "name": "validated",
              "type": "bool"
            },
            {
              "internalType": "uint256",
              "name": "dateObtained",
              "type": "uint256"
            }
          ],
          "internalType": "struct Diploma",
          "name": "diploma",
          "type": "tuple"
        }
      ],
      "name": "verifyDiploma",
      "outputs": [
        {
          "internalType": "bool",
          "name": "",
          "type": "bool"
        }
      ],
      "stateMutability": "view",
      "type": "function",
      "constant": true
    },
    {
      "inputs": [
        {
          "internalType": "bytes32",
          "name": "diplomaId",
          "type": "bytes32"
        }
      ],
      "name": "getDiploma",
      "outputs": [
        {
          "components": [
            {
              "internalType": "bytes32",
              "name": "id",
              "type": "bytes32"
            },
            {
              "internalType": "bytes32",
              "name": "blueprintId",
              "type": "bytes32"
            },
            {
              "internalType": "address",
              "name": "owner",
              "type": "address"
            },
            {
              "internalType": "address",
              "name": "issuer",
              "type": "address"
            },
            {
              "internalType": "string",
              "name": "honors",
              "type": "string"
            },
            {
              "internalType": "bool",
              "name": "validated",
              "type": "bool"
            },
            {
              "internalType": "uint256",
              "name": "dateObtained",
              "type": "uint256"
            }
          ],
          "internalType": "struct Diploma",
          "name": "",
          "type": "tuple"
        }
      ],
      "stateMutability": "view",
      "type": "function",
      "constant": true
    },
    {
      "inputs": [
        {
          "internalType": "string",
          "name": "_firstName",
          "type": "string"
        },
        {
          "internalType": "string",
          "name": "_lastName",
          "type": "string"
        },
        {
          "internalType": "string",
          "name": "_email",
          "type": "string"
        },
        {
          "internalType": "bytes32[]",
          "name": "_diplomas",
          "type": "bytes32[]"
        }
      ],
      "name": "addStudent",
      "outputs": [],
      "stateMutability": "nonpayable",
      "type": "function"
    },
    {
      "inputs": [
        {
          "internalType": "address",
          "name": "student_addr",
          "type": "address"
        }
      ],
      "name": "getStudent",
      "outputs": [
        {
          "components": [
            {
              "internalType": "address",
              "name": "id",
              "type": "address"
            },
            {
              "internalType": "string",
              "name": "firstName",
              "type": "string"
            },
            {
              "internalType": "string",
              "name": "lastName",
              "type": "string"
            },
            {
              "internalType": "string",
              "name": "email",
              "type": "string"
            },
            {
              "internalType": "bytes32[]",
              "name": "diplomas",
              "type": "bytes32[]"
            }
          ],
          "internalType": "struct Student",
          "name": "",
          "type": "tuple"
        }
      ],
      "stateMutability": "view",
      "type": "function",
      "constant": true
    },
    {
      "inputs": [
        {
          "internalType": "bytes32",
          "name": "_id",
          "type": "bytes32"
        }
      ],
      "name": "validateDiploma",
      "outputs": [],
      "stateMutability": "nonpayable",
      "type": "function"
    },
    {
      "inputs": [
        {
          "internalType": "address",
          "name": "owner",
          "type": "address"
        },
        {
          "internalType": "bytes32",
          "name": "blueprintId",
          "type": "bytes32"
        },
        {
          "internalType": "string",
          "name": "_honors",
          "type": "string"
        },
        {
          "internalType": "uint256",
          "name": "_dateObtained",
          "type": "uint256"
        }
      ],
      "name": "issueDiploma",
      "outputs": [],
      "stateMutability": "nonpayable",
      "type": "function"
    },
    {
      "inputs": [],
      "name": "isStudent",
      "outputs": [
        {
          "internalType": "bool",
          "name": "",
          "type": "bool"
        }
      ],
      "stateMutability": "view",
      "type": "function",
      "constant": true
    },
    {
      "inputs": [],
      "name": "isAdmin",
      "outputs": [
        {
          "internalType": "bool",
          "name": "",
          "type": "bool"
        }
      ],
      "stateMutability": "view",
      "type": "function",
      "constant": true
    },
    {
      "inputs": [],
      "name": "getStudents",
      "outputs": [
        {
          "components": [
            {
              "internalType": "address",
              "name": "id",
              "type": "address"
            },
            {
              "internalType": "string",
              "name": "firstName",
              "type": "string"
            },
            {
              "internalType": "string",
              "name": "lastName",
              "type": "string"
            },
            {
              "internalType": "string",
              "name": "email",
              "type": "string"
            },
            {
              "internalType": "bytes32[]",
              "name": "diplomas",
              "type": "bytes32[]"
            }
          ],
          "internalType": "struct Student[]",
          "name": "",
          "type": "tuple[]"
        }
      ],
      "stateMutability": "view",
      "type": "function",
      "constant": true
    },
    {
      "inputs": [],
      "name": "getDiplomas",
      "outputs": [
        {
          "components": [
            {
              "internalType": "bytes32",
              "name": "id",
              "type": "bytes32"
            },
            {
              "internalType": "bytes32",
              "name": "blueprintId",
              "type": "bytes32"
            },
            {
              "internalType": "address",
              "name": "owner",
              "type": "address"
            },
            {
              "internalType": "address",
              "name": "issuer",
              "type": "address"
            },
            {
              "internalType": "string",
              "name": "honors",
              "type": "string"
            },
            {
              "internalType": "bool",
              "name": "validated",
              "type": "bool"
            },
            {
              "internalType": "uint256",
              "name": "dateObtained",
              "type": "uint256"
            }
          ],
          "internalType": "struct Diploma[]",
          "name": "",
          "type": "tuple[]"
        }
      ],
      "stateMutability": "view",
      "type": "function",
      "constant": true
    },
    {
      "inputs": [
        {
          "internalType": "address",
          "name": "studentId",
          "type": "address"
        }
      ],
      "name": "getStudentDiplomas",
      "outputs": [
        {
          "components": [
            {
              "internalType": "bytes32",
              "name": "id",
              "type": "bytes32"
            },
            {
              "internalType": "bytes32",
              "name": "blueprintId",
              "type": "bytes32"
            },
            {
              "internalType": "address",
              "name": "owner",
              "type": "address"
            },
            {
              "internalType": "address",
              "name": "issuer",
              "type": "address"
            },
            {
              "internalType": "string",
              "name": "honors",
              "type": "string"
            },
            {
              "internalType": "bool",
              "name": "validated",
              "type": "bool"
            },
            {
              "internalType": "uint256",
              "name": "dateObtained",
              "type": "uint256"
            }
          ],
          "internalType": "struct Diploma[]",
          "name": "",
          "type": "tuple[]"
        }
      ],
      "stateMutability": "view",
      "type": "function",
      "constant": true
    },
    {
      "inputs": [
        {
          "internalType": "address",
          "name": "studentId",
          "type": "address"
        }
      ],
      "name": "getStudentPendingDiplomas",
      "outputs": [
        {
          "components": [
            {
              "internalType": "bytes32",
              "name": "id",
              "type": "bytes32"
            },
            {
              "internalType": "bytes32",
              "name": "blueprintId",
              "type": "bytes32"
            },
            {
              "internalType": "address",
              "name": "owner",
              "type": "address"
            },
            {
              "internalType": "address",
              "name": "issuer",
              "type": "address"
            },
            {
              "internalType": "string",
              "name": "honors",
              "type": "string"
            },
            {
              "internalType": "bool",
              "name": "validated",
              "type": "bool"
            },
            {
              "internalType": "uint256",
              "name": "dateObtained",
              "type": "uint256"
            }
          ],
          "internalType": "struct Diploma[]",
          "name": "",
          "type": "tuple[]"
        }
      ],
      "stateMutability": "view",
      "type": "function",
      "constant": true
    },
    {
      "inputs": [
        {
          "internalType": "bytes32",
          "name": "blueprintId",
          "type": "bytes32"
        },
        {
          "internalType": "string",
          "name": "_honors",
          "type": "string"
        },
        {
          "internalType": "uint256",
          "name": "_dateObtained",
          "type": "uint256"
        }
      ],
      "name": "requestDiploma",
      "outputs": [],
      "stateMutability": "nonpayable",
      "type": "function"
    },
    {
      "inputs": [],
      "name": "getPendingDiplomas",
      "outputs": [
        {
          "components": [
            {
              "internalType": "bytes32",
              "name": "id",
              "type": "bytes32"
            },
            {
              "internalType": "bytes32",
              "name": "blueprintId",
              "type": "bytes32"
            },
            {
              "internalType": "address",
              "name": "owner",
              "type": "address"
            },
            {
              "internalType": "address",
              "name": "issuer",
              "type": "address"
            },
            {
              "internalType": "string",
              "name": "honors",
              "type": "string"
            },
            {
              "internalType": "bool",
              "name": "validated",
              "type": "bool"
            },
            {
              "internalType": "uint256",
              "name": "dateObtained",
              "type": "uint256"
            }
          ],
          "internalType": "struct Diploma[]",
          "name": "",
          "type": "tuple[]"
        }
      ],
      "stateMutability": "view",
      "type": "function",
      "constant": true
    },
    {
      "inputs": [
        {
          "internalType": "string",
          "name": "title",
          "type": "string"
        },
        {
          "internalType": "string",
          "name": "description",
          "type": "string"
        },
        {
          "internalType": "string",
          "name": "speciality",
          "type": "string"
        },
        {
          "internalType": "bytes32[]",
          "name": "_diplomas",
          "type": "bytes32[]"
        }
      ],
      "name": "addDiplomaBlueprint",
      "outputs": [],
      "stateMutability": "nonpayable",
      "type": "function"
    },
    {
      "inputs": [
        {
          "internalType": "bytes32",
          "name": "id",
          "type": "bytes32"
        }
      ],
      "name": "getDiplomaBlueprint",
      "outputs": [
        {
          "components": [
            {
              "internalType": "bytes32",
              "name": "id",
              "type": "bytes32"
            },
            {
              "internalType": "address",
              "name": "issuer",
              "type": "address"
            },
            {
              "internalType": "string",
              "name": "title",
              "type": "string"
            },
            {
              "internalType": "string",
              "name": "description",
              "type": "string"
            },
            {
              "internalType": "string",
              "name": "speciality",
              "type": "string"
            },
            {
              "internalType": "bytes32[]",
              "name": "diplomas",
              "type": "bytes32[]"
            }
          ],
          "internalType": "struct DiplomaBluePrint",
          "name": "",
          "type": "tuple"
        }
      ],
      "stateMutability": "view",
      "type": "function",
      "constant": true
    },
    {
      "inputs": [],
      "name": "getDiplomaBlueprints",
      "outputs": [
        {
          "components": [
            {
              "internalType": "bytes32",
              "name": "id",
              "type": "bytes32"
            },
            {
              "internalType": "address",
              "name": "issuer",
              "type": "address"
            },
            {
              "internalType": "string",
              "name": "title",
              "type": "string"
            },
            {
              "internalType": "string",
              "name": "description",
              "type": "string"
            },
            {
              "internalType": "string",
              "name": "speciality",
              "type": "string"
            },
            {
              "internalType": "bytes32[]",
              "name": "diplomas",
              "type": "bytes32[]"
            }
          ],
          "internalType": "struct DiplomaBluePrint[]",
          "name": "",
          "type": "tuple[]"
        }
      ],
      "stateMutability": "view",
      "type": "function",
      "constant": true
    },
    {
      "inputs": [
        {
          "internalType": "bytes32",
          "name": "id",
          "type": "bytes32"
        }
      ],
      "name": "getDiplomasByBlueprint",
      "outputs": [
        {
          "components": [
            {
              "internalType": "bytes32",
              "name": "id",
              "type": "bytes32"
            },
            {
              "internalType": "bytes32",
              "name": "blueprintId",
              "type": "bytes32"
            },
            {
              "internalType": "address",
              "name": "owner",
              "type": "address"
            },
            {
              "internalType": "address",
              "name": "issuer",
              "type": "address"
            },
            {
              "internalType": "string",
              "name": "honors",
              "type": "string"
            },
            {
              "internalType": "bool",
              "name": "validated",
              "type": "bool"
            },
            {
              "internalType": "uint256",
              "name": "dateObtained",
              "type": "uint256"
            }
          ],
          "internalType": "struct Diploma[]",
          "name": "",
          "type": "tuple[]"
        }
      ],
      "stateMutability": "view",
      "type": "function",
      "constant": true
    }
  ],
  "bytecode": "0x608060405234801561001057600080fd5b5033600c60006101000a81548173ffffffffffffffffffffffffffffffffffffffff021916908373ffffffffffffffffffffffffffffffffffffffff1602179055506000600281905550600060058190555060006008819055506000600b81905550615eea80620000826000396000f3fe608060405234801561001057600080fd5b50600436106101a95760003560e01c806368dae994116100f9578063d1b9329211610097578063e8c2ecd611610071578063e8c2ecd61461052b578063e8ef032614610549578063ef34a46b14610567578063f1d064b314610597576101a9565b8063d1b93292146104af578063d49f5973146104df578063d9d0350b146104fb576101a9565b80638911ad73116100d35780638911ad731461042157806395f378e81461043d578063b6db75a014610473578063c9675e1314610491576101a9565b806368dae994146103b55780636b7b44d7146103d3578063871e4fae14610403576101a9565b806333c899831161016657806349f8db5c1161014057806349f8db5c1461032d57806351e0a6eb1461035d5780635987ba2b1461037b57806368433a3a14610397576101a9565b806333c89983146102a957806335079904146102c757806335dfc1c3146102f7576101a9565b806306ead22e146101ae5780630e5f1322146101e15780631be6a625146101fd5780631f230d03146102195780632a88c52e146102495780632b04cb7714610279575b600080fd5b6101c860048036038101906101c39190614afc565b6105b5565b6040516101d894939291906157c7565b60405180910390f35b6101fb60048036038101906101f691906148ed565b6107dd565b005b61021760048036038101906102129190614991565b610c2e565b005b610233600480360381019061022e9190614abb565b610f90565b6040516102409190615887565b60405180910390f35b610263600480360381019061025e91906148c4565b611167565b6040516102709190615843565b60405180910390f35b610293600480360381019061028e9190614968565b6115a6565b6040516102a09190615af5565b60405180910390f35b6102b16117cf565b6040516102be9190615b39565b60405180910390f35b6102e160048036038101906102dc9190614968565b6117d5565b6040516102ee9190615b39565b60405180910390f35b610311600480360381019061030c9190614afc565b6117ed565b60405161032497969594939291906158bd565b60405180910390f35b61034760048036038101906103429190614968565b611924565b6040516103549190615ad3565b60405180910390f35b610365611c64565b6040516103729190615887565b60405180910390f35b610395600480360381019061039091906149f8565b611cad565b005b61039f611f69565b6040516103ac9190615b39565b60405180910390f35b6103bd611f6f565b6040516103ca9190615821565b60405180910390f35b6103ed60048036038101906103e891906148c4565b61226c565b6040516103fa9190615b17565b60405180910390f35b61040b6125f7565b6040516104189190615b39565b60405180910390f35b61043b60048036038101906104369190614968565b6125fd565b005b61045760048036038101906104529190614afc565b612c1f565b60405161046a97969594939291906158bd565b60405180910390f35b61047b612d56565b6040516104889190615887565b60405180910390f35b610499612dae565b6040516104a69190615b39565b60405180910390f35b6104c960048036038101906104c491906148c4565b612db4565b6040516104d69190615843565b60405180910390f35b6104f960048036038101906104f491906149f8565b613217565b005b61051560048036038101906105109190614968565b6134e7565b6040516105229190615b39565b60405180910390f35b6105336134ff565b6040516105409190615843565b60405180910390f35b610551613775565b60405161055e9190615843565b60405180910390f35b610581600480360381019061057c9190614968565b61395b565b60405161058e9190615843565b60405180910390f35b61059f613d33565b6040516105ac9190615865565b60405180910390f35b600181815481106105c557600080fd5b90600052602060002090600502016000915090508060000160009054906101000a900473ffffffffffffffffffffffffffffffffffffffff1690806001018054600181600116156101000203166002900480601f0160208091040260200160405190810160405280929190818152602001828054600181600116156101000203166002900480156106975780601f1061066c57610100808354040283529160200191610697565b820191906000526020600020905b81548152906001019060200180831161067a57829003601f168201915b505050505090806002018054600181600116156101000203166002900480601f0160208091040260200160405190810160405280929190818152602001828054600181600116156101000203166002900480156107355780601f1061070a57610100808354040283529160200191610735565b820191906000526020600020905b81548152906001019060200180831161071857829003601f168201915b505050505090806003018054600181600116156101000203166002900480601f0160208091040260200160405190810160405280929190818152602001828054600181600116156101000203166002900480156107d35780601f106107a8576101008083540402835291602001916107d3565b820191906000526020600020905b8154815290600101906020018083116107b657829003601f168201915b5050505050905084565b600c60009054906101000a900473ffffffffffffffffffffffffffffffffffffffff1673ffffffffffffffffffffffffffffffffffffffff163373ffffffffffffffffffffffffffffffffffffffff161461086d576040517f08c379a000000000000000000000000000000000000000000000000000000000815260040161086490615a93565b60405180910390fd5b60008060008673ffffffffffffffffffffffffffffffffffffffff1673ffffffffffffffffffffffffffffffffffffffff1681526020019081526020016000205414156108ef576040517f08c379a00000000000000000000000000000000000000000000000000000000081526004016108e6906159f3565b60405180910390fd5b600084600c60009054906101000a900473ffffffffffffffffffffffffffffffffffffffff1685858560405160200161092c959493929190615723565b604051602081830303815290604052805190602001209050600560008154809291906001019190505550600160048054905001600360008381526020019081526020016000208190555060046040518060e001604052808381526020018681526020018773ffffffffffffffffffffffffffffffffffffffff168152602001600c60009054906101000a900473ffffffffffffffffffffffffffffffffffffffff1673ffffffffffffffffffffffffffffffffffffffff168152602001858152602001600115158152602001848152509080600181540180825580915050600190039060005260206000209060070201600090919091909150600082015181600001556020820151816001015560408201518160020160006101000a81548173ffffffffffffffffffffffffffffffffffffffff021916908373ffffffffffffffffffffffffffffffffffffffff16021790555060608201518160030160006101000a81548173ffffffffffffffffffffffffffffffffffffffff021916908373ffffffffffffffffffffffffffffffffffffffff1602179055506080820151816004019080519060200190610ae39291906143b3565b5060a08201518160050160006101000a81548160ff02191690831515021790555060c0820151816006015550506001806000808873ffffffffffffffffffffffffffffffffffffffff1673ffffffffffffffffffffffffffffffffffffffff168152602001908152602001600020540381548110610b5d57fe5b9060005260206000209060050201600401819080600181540180825580915050600190039060005260206000200160009091909190915055600a600160096000878152602001908152602001600020540381548110610bb857fe5b90600052602060002090600602016005018190806001815401808255809150506001900390600052602060002001600090919091909150557f85ca0491ab0b66b547f1a84afd331fd6b696683df09c1392444c8b10f37dd59f81604051610c1f91906158a2565b60405180910390a15050505050565b60008060003373ffffffffffffffffffffffffffffffffffffffff1673ffffffffffffffffffffffffffffffffffffffff168152602001908152602001600020541415610cb0576040517f08c379a0000000000000000000000000000000000000000000000000000000008152600401610ca7906159f3565b60405180910390fd5b60008060003373ffffffffffffffffffffffffffffffffffffffff1673ffffffffffffffffffffffffffffffffffffffff168152602001908152602001600020541415610d32576040517f08c379a0000000000000000000000000000000000000000000000000000000008152600401610d2990615a33565b60405180910390fd5b600033600c60009054906101000a900473ffffffffffffffffffffffffffffffffffffffff16858585604051602001610d6f959493929190615686565b604051602081830303815290604052805190602001209050600860008154809291906001019190505550600160078054905001600660008381526020019081526020016000208190555060076040518060e001604052808381526020018681526020013373ffffffffffffffffffffffffffffffffffffffff168152602001600c60009054906101000a900473ffffffffffffffffffffffffffffffffffffffff1673ffffffffffffffffffffffffffffffffffffffff168152602001858152602001600015158152602001848152509080600181540180825580915050600190039060005260206000209060070201600090919091909150600082015181600001556020820151816001015560408201518160020160006101000a81548173ffffffffffffffffffffffffffffffffffffffff021916908373ffffffffffffffffffffffffffffffffffffffff16021790555060608201518160030160006101000a81548173ffffffffffffffffffffffffffffffffffffffff021916908373ffffffffffffffffffffffffffffffffffffffff1602179055506080820151816004019080519060200190610f269291906143b3565b5060a08201518160050160006101000a81548160ff02191690831515021790555060c0820151816006015550507f2af1e75a3d834b77fa1b758eb75b9dd0d5445d40fe11ad4f71eec52c77ae812c33604051610f8291906157ac565b60405180910390a150505050565b6000806003600084600001518152602001908152602001600020541415610fec576040517f08c379a0000000000000000000000000000000000000000000000000000000008152600401610fe390615933565b60405180910390fd5b600060046001600360008660000151815260200190815260200160002054038154811061101557fe5b906000526020600020906007020190508060010154836020015114801561108f57508060020160009054906101000a900473ffffffffffffffffffffffffffffffffffffffff1673ffffffffffffffffffffffffffffffffffffffff16836040015173ffffffffffffffffffffffffffffffffffffffff16145b80156110ee57508060030160009054906101000a900473ffffffffffffffffffffffffffffffffffffffff1673ffffffffffffffffffffffffffffffffffffffff16836060015173ffffffffffffffffffffffffffffffffffffffff16145b801561114c5750806004016040516020016111099190615795565b604051602081830303815290604052805190602001208360800151604051602001611134919061577e565b60405160208183030381529060405280519060200120145b801561115f575080600601548360c00151145b915050919050565b606060008060003373ffffffffffffffffffffffffffffffffffffffff1673ffffffffffffffffffffffffffffffffffffffff1681526020019081526020016000205414156111eb576040517f08c379a00000000000000000000000000000000000000000000000000000000081526004016111e2906159f3565b60405180910390fd5b8173ffffffffffffffffffffffffffffffffffffffff163373ffffffffffffffffffffffffffffffffffffffff1614611259576040517f08c379a0000000000000000000000000000000000000000000000000000000008152600401611250906159b3565b60405180910390fd5b6000805b6007805490508110156112f0573373ffffffffffffffffffffffffffffffffffffffff166007828154811061128e57fe5b906000526020600020906007020160020160009054906101000a900473ffffffffffffffffffffffffffffffffffffffff1673ffffffffffffffffffffffffffffffffffffffff1614156112e3576001820191505b808060010191505061125d565b5060008167ffffffffffffffff8111801561130a57600080fd5b5060405190808252806020026020018201604052801561134457816020015b611331614441565b8152602001906001900390816113295790505b50905060005b60078054905081101561159b573373ffffffffffffffffffffffffffffffffffffffff166007828154811061137b57fe5b906000526020600020906007020160020160009054906101000a900473ffffffffffffffffffffffffffffffffffffffff1673ffffffffffffffffffffffffffffffffffffffff16141561158e57600781815481106113d657fe5b90600052602060002090600702016040518060e001604052908160008201548152602001600182015481526020016002820160009054906101000a900473ffffffffffffffffffffffffffffffffffffffff1673ffffffffffffffffffffffffffffffffffffffff1673ffffffffffffffffffffffffffffffffffffffff1681526020016003820160009054906101000a900473ffffffffffffffffffffffffffffffffffffffff1673ffffffffffffffffffffffffffffffffffffffff1673ffffffffffffffffffffffffffffffffffffffff168152602001600482018054600181600116156101000203166002900480601f0160208091040260200160405190810160405280929190818152602001828054600181600116156101000203166002900480156115485780601f1061151d57610100808354040283529160200191611548565b820191906000526020600020905b81548152906001019060200180831161152b57829003601f168201915b505050505081526020016005820160009054906101000a900460ff1615151515815260200160068201548152505082828151811061158257fe5b60200260200101819052505b808060010191505061134a565b508092505050919050565b6115ae614441565b600060036000848152602001908152602001600020541415611605576040517f08c379a00000000000000000000000000000000000000000000000000000000081526004016115fc90615933565b60405180910390fd5b600460016003600085815260200190815260200160002054038154811061162857fe5b90600052602060002090600702016040518060e001604052908160008201548152602001600182015481526020016002820160009054906101000a900473ffffffffffffffffffffffffffffffffffffffff1673ffffffffffffffffffffffffffffffffffffffff1673ffffffffffffffffffffffffffffffffffffffff1681526020016003820160009054906101000a900473ffffffffffffffffffffffffffffffffffffffff1673ffffffffffffffffffffffffffffffffffffffff1673ffffffffffffffffffffffffffffffffffffffff168152602001600482018054600181600116156101000203166002900480601f01602080910402602001604051908101604052809291908181526020018280546001816001161561010002031660029004801561179a5780601f1061176f5761010080835404028352916020019161179a565b820191906000526020600020905b81548152906001019060200180831161177d57829003601f168201915b505050505081526020016005820160009054906101000a900460ff161515151581526020016006820154815250509050919050565b60085481565b60036020528060005260406000206000915090505481565b600481815481106117fd57600080fd5b90600052602060002090600702016000915090508060000154908060010154908060020160009054906101000a900473ffffffffffffffffffffffffffffffffffffffff16908060030160009054906101000a900473ffffffffffffffffffffffffffffffffffffffff1690806004018054600181600116156101000203166002900480601f0160208091040260200160405190810160405280929190818152602001828054600181600116156101000203166002900480156119015780601f106118d657610100808354040283529160200191611901565b820191906000526020600020905b8154815290600101906020018083116118e457829003601f168201915b5050505050908060050160009054906101000a900460ff16908060060154905087565b61192c6144b2565b600060096000848152602001908152602001600020541415611983576040517f08c379a000000000000000000000000000000000000000000000000000000000815260040161197a90615953565b60405180910390fd5b600a6001600960008581526020019081526020016000205403815481106119a657fe5b90600052602060002090600602016040518060c0016040529081600082015481526020016001820160009054906101000a900473ffffffffffffffffffffffffffffffffffffffff1673ffffffffffffffffffffffffffffffffffffffff1673ffffffffffffffffffffffffffffffffffffffff168152602001600282018054600181600116156101000203166002900480601f016020809104026020016040519081016040528092919081815260200182805460018160011615610100020316600290048015611ab85780601f10611a8d57610100808354040283529160200191611ab8565b820191906000526020600020905b815481529060010190602001808311611a9b57829003601f168201915b50505050508152602001600382018054600181600116156101000203166002900480601f016020809104026020016040519081016040528092919081815260200182805460018160011615610100020316600290048015611b5a5780601f10611b2f57610100808354040283529160200191611b5a565b820191906000526020600020905b815481529060010190602001808311611b3d57829003601f168201915b50505050508152602001600482018054600181600116156101000203166002900480601f016020809104026020016040519081016040528092919081815260200182805460018160011615610100020316600290048015611bfc5780601f10611bd157610100808354040283529160200191611bfc565b820191906000526020600020905b815481529060010190602001808311611bdf57829003601f168201915b5050505050815260200160058201805480602002602001604051908101604052809291908181526020018280548015611c5457602002820191906000526020600020905b815481526020019060010190808311611c40575b5050505050815250509050919050565b6000806000803373ffffffffffffffffffffffffffffffffffffffff1673ffffffffffffffffffffffffffffffffffffffff168152602001908152602001600020541415905090565b600c60009054906101000a900473ffffffffffffffffffffffffffffffffffffffff1673ffffffffffffffffffffffffffffffffffffffff163373ffffffffffffffffffffffffffffffffffffffff1614611d3d576040517f08c379a0000000000000000000000000000000000000000000000000000000008152600401611d3490615a93565b60405180910390fd5b600033858585604051602001611d5694939291906156e1565b6040516020818303038152906040528051906020012090506000600960008381526020019081526020016000205414611dc4576040517f08c379a0000000000000000000000000000000000000000000000000000000008152600401611dbb90615993565b60405180910390fd5b600b600081548092919060010191905055506001600a80549050016009600083815260200190815260200160002081905550600a6040518060c001604052808381526020013373ffffffffffffffffffffffffffffffffffffffff1681526020018781526020018681526020018581526020018481525090806001815401808255809150506001900390600052602060002090600602016000909190919091506000820151816000015560208201518160010160006101000a81548173ffffffffffffffffffffffffffffffffffffffff021916908373ffffffffffffffffffffffffffffffffffffffff1602179055506040820151816002019080519060200190611ed19291906143b3565b506060820151816003019080519060200190611eee9291906143b3565b506080820151816004019080519060200190611f0b9291906143b3565b5060a0820151816005019080519060200190611f28929190614501565b5050507f5b68fe5442674e45f7f9f2b84968035c6d9ac90a8f7648d943c63c8b250df5bd81604051611f5a91906158a2565b60405180910390a15050505050565b60025481565b6060600a805480602002602001604051908101604052809291908181526020016000905b8282101561226357838290600052602060002090600602016040518060c0016040529081600082015481526020016001820160009054906101000a900473ffffffffffffffffffffffffffffffffffffffff1673ffffffffffffffffffffffffffffffffffffffff1673ffffffffffffffffffffffffffffffffffffffff168152602001600282018054600181600116156101000203166002900480601f0160208091040260200160405190810160405280929190818152602001828054600181600116156101000203166002900480156120af5780601f10612084576101008083540402835291602001916120af565b820191906000526020600020905b81548152906001019060200180831161209257829003601f168201915b50505050508152602001600382018054600181600116156101000203166002900480601f0160208091040260200160405190810160405280929190818152602001828054600181600116156101000203166002900480156121515780601f1061212657610100808354040283529160200191612151565b820191906000526020600020905b81548152906001019060200180831161213457829003601f168201915b50505050508152602001600482018054600181600116156101000203166002900480601f0160208091040260200160405190810160405280929190818152602001828054600181600116156101000203166002900480156121f35780601f106121c8576101008083540402835291602001916121f3565b820191906000526020600020905b8154815290600101906020018083116121d657829003601f168201915b505050505081526020016005820180548060200260200160405190810160405280929190818152602001828054801561224b57602002820191906000526020600020905b815481526020019060010190808311612237575b50505050508152505081526020019060010190611f93565b50505050905090565b61227461454e565b60008060008473ffffffffffffffffffffffffffffffffffffffff1673ffffffffffffffffffffffffffffffffffffffff1681526020019081526020016000205414156122f6576040517f08c379a00000000000000000000000000000000000000000000000000000000081526004016122ed906159d3565b60405180910390fd5b6001806000808573ffffffffffffffffffffffffffffffffffffffff1673ffffffffffffffffffffffffffffffffffffffff16815260200190815260200160002054038154811061234357fe5b90600052602060002090600502016040518060a00160405290816000820160009054906101000a900473ffffffffffffffffffffffffffffffffffffffff1673ffffffffffffffffffffffffffffffffffffffff1673ffffffffffffffffffffffffffffffffffffffff168152602001600182018054600181600116156101000203166002900480601f01602080910402602001604051908101604052809291908181526020018280546001816001161561010002031660029004801561244b5780601f106124205761010080835404028352916020019161244b565b820191906000526020600020905b81548152906001019060200180831161242e57829003601f168201915b50505050508152602001600282018054600181600116156101000203166002900480601f0160208091040260200160405190810160405280929190818152602001828054600181600116156101000203166002900480156124ed5780601f106124c2576101008083540402835291602001916124ed565b820191906000526020600020905b8154815290600101906020018083116124d057829003601f168201915b50505050508152602001600382018054600181600116156101000203166002900480601f01602080910402602001604051908101604052809291908181526020018280546001816001161561010002031660029004801561258f5780601f106125645761010080835404028352916020019161258f565b820191906000526020600020905b81548152906001019060200180831161257257829003601f168201915b50505050508152602001600482018054806020026020016040519081016040528092919081815260200182805480156125e757602002820191906000526020600020905b8154815260200190600101908083116125d3575b5050505050815250509050919050565b600b5481565b600c60009054906101000a900473ffffffffffffffffffffffffffffffffffffffff1673ffffffffffffffffffffffffffffffffffffffff163373ffffffffffffffffffffffffffffffffffffffff161461268d576040517f08c379a000000000000000000000000000000000000000000000000000000000815260040161268490615a93565b60405180910390fd5b60006003600083815260200190815260200160002054146126e3576040517f08c379a00000000000000000000000000000000000000000000000000000000081526004016126da90615a13565b60405180910390fd5b60006006600083815260200190815260200160002054141561273a576040517f08c379a000000000000000000000000000000000000000000000000000000000815260040161273190615a53565b60405180910390fd5b60056000815480929190600101919050555060016004805490500160036000838152602001908152602001600020819055506000600760016006600085815260200190815260200160002054038154811061279157fe5b90600052602060002090600702016040518060e001604052908160008201548152602001600182015481526020016002820160009054906101000a900473ffffffffffffffffffffffffffffffffffffffff1673ffffffffffffffffffffffffffffffffffffffff1673ffffffffffffffffffffffffffffffffffffffff1681526020016003820160009054906101000a900473ffffffffffffffffffffffffffffffffffffffff1673ffffffffffffffffffffffffffffffffffffffff1673ffffffffffffffffffffffffffffffffffffffff168152602001600482018054600181600116156101000203166002900480601f0160208091040260200160405190810160405280929190818152602001828054600181600116156101000203166002900480156129035780601f106128d857610100808354040283529160200191612903565b820191906000526020600020905b8154815290600101906020018083116128e657829003601f168201915b505050505081526020016005820160009054906101000a900460ff16151515158152602001600682015481525050905060018160a00190151590811515815250506004819080600181540180825580915050600190039060005260206000209060070201600090919091909150600082015181600001556020820151816001015560408201518160020160006101000a81548173ffffffffffffffffffffffffffffffffffffffff021916908373ffffffffffffffffffffffffffffffffffffffff16021790555060608201518160030160006101000a81548173ffffffffffffffffffffffffffffffffffffffff021916908373ffffffffffffffffffffffffffffffffffffffff1602179055506080820151816004019080519060200190612a2e9291906143b3565b5060a08201518160050160006101000a81548160ff02191690831515021790555060c08201518160060155505060006007600160066000868152602001908152602001600020540381548110612a8057fe5b906000526020600020906007020160020160009054906101000a900473ffffffffffffffffffffffffffffffffffffffff1690506001806000808473ffffffffffffffffffffffffffffffffffffffff1673ffffffffffffffffffffffffffffffffffffffff168152602001908152602001600020540381548110612b0157fe5b9060005260206000209060050201600401839080600181540180825580915050600190039060005260206000200160009091909190915055600a60016009600085602001518152602001908152602001600020540381548110612b6057fe5b9060005260206000209060060201600501839080600181540180825580915050600190039060005260206000200160009091909190915055612bb9600760016006600087815260200190815260200160002054036140b6565b6006600084815260200190815260200160002060009055600860008154809291906001900391905055507f85ca0491ab0b66b547f1a84afd331fd6b696683df09c1392444c8b10f37dd59f83604051612c1291906158a2565b60405180910390a1505050565b60078181548110612c2f57600080fd5b90600052602060002090600702016000915090508060000154908060010154908060020160009054906101000a900473ffffffffffffffffffffffffffffffffffffffff16908060030160009054906101000a900473ffffffffffffffffffffffffffffffffffffffff1690806004018054600181600116156101000203166002900480601f016020809104026020016040519081016040528092919081815260200182805460018160011615610100020316600290048015612d335780601f10612d0857610100808354040283529160200191612d33565b820191906000526020600020905b815481529060010190602001808311612d1657829003601f168201915b5050505050908060050160009054906101000a900460ff16908060060154905087565b6000600c60009054906101000a900473ffffffffffffffffffffffffffffffffffffffff1673ffffffffffffffffffffffffffffffffffffffff163373ffffffffffffffffffffffffffffffffffffffff1614905090565b60055481565b60608173ffffffffffffffffffffffffffffffffffffffff163373ffffffffffffffffffffffffffffffffffffffff161480612e3d5750600c60009054906101000a900473ffffffffffffffffffffffffffffffffffffffff1673ffffffffffffffffffffffffffffffffffffffff163373ffffffffffffffffffffffffffffffffffffffff16145b612e7c576040517f08c379a0000000000000000000000000000000000000000000000000000000008152600401612e7390615973565b60405180910390fd5b60008060008473ffffffffffffffffffffffffffffffffffffffff1673ffffffffffffffffffffffffffffffffffffffff168152602001908152602001600020541415612efe576040517f08c379a0000000000000000000000000000000000000000000000000000000008152600401612ef590615a33565b60405180910390fd5b60006001806000808673ffffffffffffffffffffffffffffffffffffffff1673ffffffffffffffffffffffffffffffffffffffff168152602001908152602001600020540381548110612f4d57fe5b9060005260206000209060050201600401805480602002602001604051908101604052809291908181526020018280548015612fa857602002820191906000526020600020905b815481526020019060010190808311612f94575b505050505090506000815167ffffffffffffffff81118015612fc957600080fd5b5060405190808252806020026020018201604052801561300357816020015b612ff0614441565b815260200190600190039081612fe85790505b50905060005b825181101561320c57600460016003600086858151811061302657fe5b6020026020010151815260200190815260200160002054038154811061304857fe5b90600052602060002090600702016040518060e001604052908160008201548152602001600182015481526020016002820160009054906101000a900473ffffffffffffffffffffffffffffffffffffffff1673ffffffffffffffffffffffffffffffffffffffff1673ffffffffffffffffffffffffffffffffffffffff1681526020016003820160009054906101000a900473ffffffffffffffffffffffffffffffffffffffff1673ffffffffffffffffffffffffffffffffffffffff1673ffffffffffffffffffffffffffffffffffffffff168152602001600482018054600181600116156101000203166002900480601f0160208091040260200160405190810160405280929190818152602001828054600181600116156101000203166002900480156131ba5780601f1061318f576101008083540402835291602001916131ba565b820191906000526020600020905b81548152906001019060200180831161319d57829003601f168201915b505050505081526020016005820160009054906101000a900460ff161515151581526020016006820154815250508282815181106131f457fe5b60200260200101819052508080600101915050613009565b508092505050919050565b60008060003373ffffffffffffffffffffffffffffffffffffffff1673ffffffffffffffffffffffffffffffffffffffff1681526020019081526020016000205414613298576040517f08c379a000000000000000000000000000000000000000000000000000000000815260040161328f90615a73565b60405180910390fd5b600c60009054906101000a900473ffffffffffffffffffffffffffffffffffffffff1673ffffffffffffffffffffffffffffffffffffffff163373ffffffffffffffffffffffffffffffffffffffff161415613329576040517f08c379a000000000000000000000000000000000000000000000000000000000815260040161332090615ab3565b60405180910390fd5b60026000815480929190600101919050555060018080549050016000803373ffffffffffffffffffffffffffffffffffffffff1673ffffffffffffffffffffffffffffffffffffffff1681526020019081526020016000208190555060016040518060a001604052803373ffffffffffffffffffffffffffffffffffffffff16815260200186815260200185815260200184815260200183815250908060018154018082558091505060019003906000526020600020906005020160009091909190915060008201518160000160006101000a81548173ffffffffffffffffffffffffffffffffffffffff021916908373ffffffffffffffffffffffffffffffffffffffff16021790555060208201518160010190805190602001906134509291906143b3565b50604082015181600201908051906020019061346d9291906143b3565b50606082015181600301908051906020019061348a9291906143b3565b5060808201518160040190805190602001906134a7929190614501565b5050507f2e5ed1b0817b286babe64f1c37ad94d371cb8c9f6d9a1d83345f8d521fcaae0b336040516134d991906157ac565b60405180910390a150505050565b60066020528060005260406000206000915090505481565b6060600c60009054906101000a900473ffffffffffffffffffffffffffffffffffffffff1673ffffffffffffffffffffffffffffffffffffffff163373ffffffffffffffffffffffffffffffffffffffff1614613591576040517f08c379a000000000000000000000000000000000000000000000000000000000815260040161358890615a93565b60405180910390fd5b6004805480602002602001604051908101604052809291908181526020016000905b8282101561376c57838290600052602060002090600702016040518060e001604052908160008201548152602001600182015481526020016002820160009054906101000a900473ffffffffffffffffffffffffffffffffffffffff1673ffffffffffffffffffffffffffffffffffffffff1673ffffffffffffffffffffffffffffffffffffffff1681526020016003820160009054906101000a900473ffffffffffffffffffffffffffffffffffffffff1673ffffffffffffffffffffffffffffffffffffffff1673ffffffffffffffffffffffffffffffffffffffff168152602001600482018054600181600116156101000203166002900480601f01602080910402602001604051908101604052809291908181526020018280546001816001161561010002031660029004801561372f5780601f106137045761010080835404028352916020019161372f565b820191906000526020600020905b81548152906001019060200180831161371257829003601f168201915b505050505081526020016005820160009054906101000a900460ff16151515158152602001600682015481525050815260200190600101906135b3565b50505050905090565b60606007805480602002602001604051908101604052809291908181526020016000905b8282101561395257838290600052602060002090600702016040518060e001604052908160008201548152602001600182015481526020016002820160009054906101000a900473ffffffffffffffffffffffffffffffffffffffff1673ffffffffffffffffffffffffffffffffffffffff1673ffffffffffffffffffffffffffffffffffffffff1681526020016003820160009054906101000a900473ffffffffffffffffffffffffffffffffffffffff1673ffffffffffffffffffffffffffffffffffffffff1673ffffffffffffffffffffffffffffffffffffffff168152602001600482018054600181600116156101000203166002900480601f0160208091040260200160405190810160405280929190818152602001828054600181600116156101000203166002900480156139155780601f106138ea57610100808354040283529160200191613915565b820191906000526020600020905b8154815290600101906020018083116138f857829003601f168201915b505050505081526020016005820160009054906101000a900460ff1615151515815260200160068201548152505081526020019060010190613799565b50505050905090565b6060600c60009054906101000a900473ffffffffffffffffffffffffffffffffffffffff1673ffffffffffffffffffffffffffffffffffffffff163373ffffffffffffffffffffffffffffffffffffffff16146139ed576040517f08c379a00000000000000000000000000000000000000000000000000000000081526004016139e490615a93565b60405180910390fd5b600060096000848152602001908152602001600020541415613a44576040517f08c379a0000000000000000000000000000000000000000000000000000000008152600401613a3b90615953565b60405180910390fd5b6000600a600160096000868152602001908152602001600020540381548110613a6957fe5b9060005260206000209060060201600501805480602002602001604051908101604052809291908181526020018280548015613ac457602002820191906000526020600020905b815481526020019060010190808311613ab0575b505050505090506000815167ffffffffffffffff81118015613ae557600080fd5b50604051908082528060200260200182016040528015613b1f57816020015b613b0c614441565b815260200190600190039081613b045790505b50905060005b8251811015613d28576004600160036000868581518110613b4257fe5b60200260200101518152602001908152602001600020540381548110613b6457fe5b90600052602060002090600702016040518060e001604052908160008201548152602001600182015481526020016002820160009054906101000a900473ffffffffffffffffffffffffffffffffffffffff1673ffffffffffffffffffffffffffffffffffffffff1673ffffffffffffffffffffffffffffffffffffffff1681526020016003820160009054906101000a900473ffffffffffffffffffffffffffffffffffffffff1673ffffffffffffffffffffffffffffffffffffffff1673ffffffffffffffffffffffffffffffffffffffff168152602001600482018054600181600116156101000203166002900480601f016020809104026020016040519081016040528092919081815260200182805460018160011615610100020316600290048015613cd65780601f10613cab57610100808354040283529160200191613cd6565b820191906000526020600020905b815481529060010190602001808311613cb957829003601f168201915b505050505081526020016005820160009054906101000a900460ff16151515158152602001600682015481525050828281518110613d1057fe5b60200260200101819052508080600101915050613b25565b508092505050919050565b6060600c60009054906101000a900473ffffffffffffffffffffffffffffffffffffffff1673ffffffffffffffffffffffffffffffffffffffff163373ffffffffffffffffffffffffffffffffffffffff1614613dc5576040517f08c379a0000000000000000000000000000000000000000000000000000000008152600401613dbc90615a93565b60405180910390fd5b6001805480602002602001604051908101604052809291908181526020016000905b828210156140ad57838290600052602060002090600502016040518060a00160405290816000820160009054906101000a900473ffffffffffffffffffffffffffffffffffffffff1673ffffffffffffffffffffffffffffffffffffffff1673ffffffffffffffffffffffffffffffffffffffff168152602001600182018054600181600116156101000203166002900480601f016020809104026020016040519081016040528092919081815260200182805460018160011615610100020316600290048015613ef95780601f10613ece57610100808354040283529160200191613ef9565b820191906000526020600020905b815481529060010190602001808311613edc57829003601f168201915b50505050508152602001600282018054600181600116156101000203166002900480601f016020809104026020016040519081016040528092919081815260200182805460018160011615610100020316600290048015613f9b5780601f10613f7057610100808354040283529160200191613f9b565b820191906000526020600020905b815481529060010190602001808311613f7e57829003601f168201915b50505050508152602001600382018054600181600116156101000203166002900480601f01602080910402602001604051908101604052809291908181526020018280546001816001161561010002031660029004801561403d5780601f106140125761010080835404028352916020019161403d565b820191906000526020600020905b81548152906001019060200180831161402057829003601f168201915b505050505081526020016004820180548060200260200160405190810160405280929190818152602001828054801561409557602002820191906000526020600020905b815481526020019060010190808311614081575b50505050508152505081526020019060010190613de7565b50505050905090565b60008190505b6001838054905003811015614253578260018201815481106140da57fe5b90600052602060002090600702018382815481106140f457fe5b906000526020600020906007020160008201548160000155600182015481600101556002820160009054906101000a900473ffffffffffffffffffffffffffffffffffffffff168160020160006101000a81548173ffffffffffffffffffffffffffffffffffffffff021916908373ffffffffffffffffffffffffffffffffffffffff1602179055506003820160009054906101000a900473ffffffffffffffffffffffffffffffffffffffff168160030160006101000a81548173ffffffffffffffffffffffffffffffffffffffff021916908373ffffffffffffffffffffffffffffffffffffffff1602179055506004820181600401908054600181600116156101000203166002900461420b929190614593565b506005820160009054906101000a900460ff168160050160006101000a81548160ff0219169083151502179055506006820154816006015590505080806001019150506140bc565b508160018380549050038154811061426757fe5b906000526020600020906007020160008082016000905560018201600090556002820160006101000a81549073ffffffffffffffffffffffffffffffffffffffff02191690556003820160006101000a81549073ffffffffffffffffffffffffffffffffffffffff02191690556004820160006142e49190614628565b6005820160006101000a81549060ff0219169055600682016000905550508180548061430c57fe5b600190038181906000526020600020906007020160008082016000905560018201600090556002820160006101000a81549073ffffffffffffffffffffffffffffffffffffffff02191690556003820160006101000a81549073ffffffffffffffffffffffffffffffffffffffff021916905560048201600061438f9190614628565b6005820160006101000a81549060ff02191690556006820160009055505090555050565b828054600181600116156101000203166002900490600052602060002090601f0160209004810192826143e95760008555614430565b82601f1061440257805160ff1916838001178555614430565b82800160010185558215614430579182015b8281111561442f578251825591602001919060010190614414565b5b50905061443d9190614670565b5090565b6040518060e001604052806000801916815260200160008019168152602001600073ffffffffffffffffffffffffffffffffffffffff168152602001600073ffffffffffffffffffffffffffffffffffffffff16815260200160608152602001600015158152602001600081525090565b6040518060c0016040528060008019168152602001600073ffffffffffffffffffffffffffffffffffffffff168152602001606081526020016060815260200160608152602001606081525090565b82805482825590600052602060002090810192821561453d579160200282015b8281111561453c578251825591602001919060010190614521565b5b50905061454a919061468d565b5090565b6040518060a00160405280600073ffffffffffffffffffffffffffffffffffffffff168152602001606081526020016060815260200160608152602001606081525090565b828054600181600116156101000203166002900490600052602060002090601f0160209004810192826145c95760008555614617565b82601f106145da5780548555614617565b8280016001018555821561461757600052602060002091601f016020900482015b828111156146165782548255916001019190600101906145fb565b5b5090506146249190614670565b5090565b50805460018160011615610100020316600290046000825580601f1061464e575061466d565b601f01602090049060005260206000209081019061466c9190614670565b5b50565b5b80821115614689576000816000905550600101614671565b5090565b5b808211156146a657600081600090555060010161468e565b5090565b60006146bd6146b884615b85565b615b54565b905080838252602082019050828560208602820111156146dc57600080fd5b60005b8581101561470c57816146f288826147a8565b8452602084019350602083019250506001810190506146df565b5050509392505050565b600061472961472484615bb1565b615b54565b90508281526020810184848401111561474157600080fd5b61474c848285615dac565b509392505050565b60008135905061476381615e58565b92915050565b600082601f83011261477a57600080fd5b813561478a8482602086016146aa565b91505092915050565b6000813590506147a281615e6f565b92915050565b6000813590506147b781615e86565b92915050565b600082601f8301126147ce57600080fd5b81356147de848260208601614716565b91505092915050565b600060e082840312156147f957600080fd5b61480360e0615b54565b90506000614813848285016147a8565b6000830152506020614827848285016147a8565b602083015250604061483b84828501614754565b604083015250606061484f84828501614754565b606083015250608082013567ffffffffffffffff81111561486f57600080fd5b61487b848285016147bd565b60808301525060a061488f84828501614793565b60a08301525060c06148a3848285016148af565b60c08301525092915050565b6000813590506148be81615e9d565b92915050565b6000602082840312156148d657600080fd5b60006148e484828501614754565b91505092915050565b6000806000806080858703121561490357600080fd5b600061491187828801614754565b9450506020614922878288016147a8565b935050604085013567ffffffffffffffff81111561493f57600080fd5b61494b878288016147bd565b925050606061495c878288016148af565b91505092959194509250565b60006020828403121561497a57600080fd5b6000614988848285016147a8565b91505092915050565b6000806000606084860312156149a657600080fd5b60006149b4868287016147a8565b935050602084013567ffffffffffffffff8111156149d157600080fd5b6149dd868287016147bd565b92505060406149ee868287016148af565b9150509250925092565b60008060008060808587031215614a0e57600080fd5b600085013567ffffffffffffffff811115614a2857600080fd5b614a34878288016147bd565b945050602085013567ffffffffffffffff811115614a5157600080fd5b614a5d878288016147bd565b935050604085013567ffffffffffffffff811115614a7a57600080fd5b614a86878288016147bd565b925050606085013567ffffffffffffffff811115614aa357600080fd5b614aaf87828801614769565b91505092959194509250565b600060208284031215614acd57600080fd5b600082013567ffffffffffffffff811115614ae757600080fd5b614af3848285016147e7565b91505092915050565b600060208284031215614b0e57600080fd5b6000614b1c848285016148af565b91505092915050565b6000614b318383614daf565b60208301905092915050565b6000614b4983836152c7565b905092915050565b6000614b5d8383615403565b905092915050565b6000614b71838361553b565b905092915050565b614b8281615d76565b82525050565b614b99614b9482615d24565b615e00565b82525050565b614ba881615d12565b82525050565b614bb781615d12565b82525050565b614bce614bc982615d12565b615dee565b82525050565b6000614bdf82615c36565b614be98185615ca1565b9350614bf483615be1565b8060005b83811015614c25578151614c0c8882614b25565b9750614c1783615c6d565b925050600181019050614bf8565b5085935050505092915050565b6000614c3d82615c41565b614c478185615cb2565b935083602082028501614c5985615bf1565b8060005b85811015614c955784840389528151614c768582614b3d565b9450614c8183615c7a565b925060208a01995050600181019050614c5d565b50829750879550505050505092915050565b6000614cb282615c4c565b614cbc8185615cc3565b935083602082028501614cce85615c01565b8060005b85811015614d0a5784840389528151614ceb8582614b51565b9450614cf683615c87565b925060208a01995050600181019050614cd2565b50829750879550505050505092915050565b6000614d2782615c57565b614d318185615cd4565b935083602082028501614d4385615c11565b8060005b85811015614d7f5784840389528151614d608582614b65565b9450614d6b83615c94565b925060208a01995050600181019050614d47565b50829750879550505050505092915050565b614d9a81615d36565b82525050565b614da981615d36565b82525050565b614db881615d42565b82525050565b614dc781615d42565b82525050565b614dde614dd982615d42565b615e12565b82525050565b6000614def82615c62565b614df98185615ce5565b9350614e09818560208601615dbb565b614e1281615e3a565b840191505092915050565b6000614e2882615c62565b614e328185615cf6565b9350614e42818560208601615dbb565b614e4b81615e3a565b840191505092915050565b6000614e6182615c62565b614e6b8185615d07565b9350614e7b818560208601615dbb565b80840191505092915050565b600081546001811660008114614ea45760018114614ec957614f0d565b607f6002830416614eb58187615d07565b955060ff1983168652808601935050614f0d565b60028204614ed78187615d07565b9550614ee285615c21565b60005b82811015614f0457815481890152600182019150602081019050614ee5565b82880195505050505b505092915050565b6000614f22602a83615cf6565b91507f596f752070726f766964656420616e20696e76616c6964206469706c6f6d612060008301527f6964656e746966696572000000000000000000000000000000000000000000006020830152604082019050919050565b6000614f88601c83615cf6565b91507f4469706c6f6d6120426c7565727072696e74206e6f7420666f756e64000000006000830152602082019050919050565b6000614fc8601f83615cf6565b91507f4f6e6c79206f776e6572206f722061646d696e2061726520616c6c6f776564006000830152602082019050919050565b6000615008601883615cf6565b91507f426c7565207072696e7420616c726561647920657869737400000000000000006000830152602082019050919050565b6000615048601683615cf6565b91507f4f6e6c79206f776e65722061726520616c6c6f776564000000000000000000006000830152602082019050919050565b6000615088602783615cf6565b91507f596f752070726f766964656420616e20696e76616c69642073747564656e742060008301527f61646472657373000000000000000000000000000000000000000000000000006020830152604082019050919050565b60006150ee601183615cf6565b91507f53747564656e74206e6f7420666f756e640000000000000000000000000000006000830152602082019050919050565b600061512e601683615cf6565b91507f4469706c6f6d6120616c726561647920657869737473000000000000000000006000830152602082019050919050565b600061516e601683615cf6565b91507f53747564656e7420646f6573206e6f74206578697374000000000000000000006000830152602082019050919050565b60006151ae603583615cf6565b91507f4469706c6f6d612072657175657374206973206e6f742072656769737465726560008301527f64206f7220686173206265656e2072656d6f76656400000000000000000000006020830152604082019050919050565b6000615214601683615cf6565b91507f53747564656e7420616c726561647920657869737473000000000000000000006000830152602082019050919050565b6000615254600f83615cf6565b91507f41646d696e206e6f7420666f756e6400000000000000000000000000000000006000830152602082019050919050565b6000615294601683615cf6565b91507f41646d696e206973206e6f7420612073747564656e74000000000000000000006000830152602082019050919050565b600060c0830160008301516152df6000860182614daf565b5060208301516152f26020860182614b9f565b506040830151848203604086015261530a8282614de4565b915050606083015184820360608601526153248282614de4565b9150506080830151848203608086015261533e8282614de4565b91505060a083015184820360a08601526153588282614bd4565b9150508091505092915050565b600060c08301600083015161537d6000860182614daf565b5060208301516153906020860182614b9f565b50604083015184820360408601526153a88282614de4565b915050606083015184820360608601526153c28282614de4565b915050608083015184820360808601526153dc8282614de4565b91505060a083015184820360a08601526153f68282614bd4565b9150508091505092915050565b600060e08301600083015161541b6000860182614daf565b50602083015161542e6020860182614daf565b5060408301516154416040860182614b9f565b5060608301516154546060860182614b9f565b506080830151848203608086015261546c8282614de4565b91505060a083015161548160a0860182614d91565b5060c083015161549460c0860182615651565b508091505092915050565b600060e0830160008301516154b76000860182614daf565b5060208301516154ca6020860182614daf565b5060408301516154dd6040860182614b9f565b5060608301516154f06060860182614b9f565b50608083015184820360808601526155088282614de4565b91505060a083015161551d60a0860182614d91565b5060c083015161553060c0860182615651565b508091505092915050565b600060a0830160008301516155536000860182614b9f565b506020830151848203602086015261556b8282614de4565b915050604083015184820360408601526155858282614de4565b9150506060830151848203606086015261559f8282614de4565b915050608083015184820360808601526155b98282614bd4565b9150508091505092915050565b600060a0830160008301516155de6000860182614b9f565b50602083015184820360208601526155f68282614de4565b915050604083015184820360408601526156108282614de4565b9150506060830151848203606086015261562a8282614de4565b915050608083015184820360808601526156448282614bd4565b9150508091505092915050565b61565a81615d6c565b82525050565b61566981615d6c565b82525050565b61568061567b82615d6c565b615e2e565b82525050565b60006156928288614b88565b6014820191506156a28287614bbd565b6014820191506156b28286614dcd565b6020820191506156c28285614e56565b91506156ce828461566f565b6020820191508190509695505050505050565b60006156ed8287614b88565b6014820191506156fd8286614e56565b91506157098285614e56565b91506157158284614e56565b915081905095945050505050565b600061572f8288614bbd565b60148201915061573f8287614bbd565b60148201915061574f8286614dcd565b60208201915061575f8285614e56565b915061576b828461566f565b6020820191508190509695505050505050565b600061578a8284614e56565b915081905092915050565b60006157a18284614e87565b915081905092915050565b60006020820190506157c16000830184614b79565b92915050565b60006080820190506157dc6000830187614bae565b81810360208301526157ee8186614e1d565b905081810360408301526158028185614e1d565b905081810360608301526158168184614e1d565b905095945050505050565b6000602082019050818103600083015261583b8184614c32565b905092915050565b6000602082019050818103600083015261585d8184614ca7565b905092915050565b6000602082019050818103600083015261587f8184614d1c565b905092915050565b600060208201905061589c6000830184614da0565b92915050565b60006020820190506158b76000830184614dbe565b92915050565b600060e0820190506158d2600083018a614dbe565b6158df6020830189614dbe565b6158ec6040830188614bae565b6158f96060830187614bae565b818103608083015261590b8186614e1d565b905061591a60a0830185614da0565b61592760c0830184615660565b98975050505050505050565b6000602082019050818103600083015261594c81614f15565b9050919050565b6000602082019050818103600083015261596c81614f7b565b9050919050565b6000602082019050818103600083015261598c81614fbb565b9050919050565b600060208201905081810360008301526159ac81614ffb565b9050919050565b600060208201905081810360008301526159cc8161503b565b9050919050565b600060208201905081810360008301526159ec8161507b565b9050919050565b60006020820190508181036000830152615a0c816150e1565b9050919050565b60006020820190508181036000830152615a2c81615121565b9050919050565b60006020820190508181036000830152615a4c81615161565b9050919050565b60006020820190508181036000830152615a6c816151a1565b9050919050565b60006020820190508181036000830152615a8c81615207565b9050919050565b60006020820190508181036000830152615aac81615247565b9050919050565b60006020820190508181036000830152615acc81615287565b9050919050565b60006020820190508181036000830152615aed8184615365565b905092915050565b60006020820190508181036000830152615b0f818461549f565b905092915050565b60006020820190508181036000830152615b3181846155c6565b905092915050565b6000602082019050615b4e6000830184615660565b92915050565b6000604051905081810181811067ffffffffffffffff82111715615b7b57615b7a615e38565b5b8060405250919050565b600067ffffffffffffffff821115615ba057615b9f615e38565b5b602082029050602081019050919050565b600067ffffffffffffffff821115615bcc57615bcb615e38565b5b601f19601f8301169050602081019050919050565b6000819050602082019050919050565b6000819050602082019050919050565b6000819050602082019050919050565b6000819050602082019050919050565b60008190508160005260206000209050919050565b600081519050919050565b600081519050919050565b600081519050919050565b600081519050919050565b600081519050919050565b6000602082019050919050565b6000602082019050919050565b6000602082019050919050565b6000602082019050919050565b600082825260208201905092915050565b600082825260208201905092915050565b600082825260208201905092915050565b600082825260208201905092915050565b600082825260208201905092915050565b600082825260208201905092915050565b600081905092915050565b6000615d1d82615d4c565b9050919050565b6000615d2f82615d4c565b9050919050565b60008115159050919050565b6000819050919050565b600073ffffffffffffffffffffffffffffffffffffffff82169050919050565b6000819050919050565b6000615d8182615d88565b9050919050565b6000615d9382615d9a565b9050919050565b6000615da582615d4c565b9050919050565b82818337600083830152505050565b60005b83811015615dd9578082015181840152602081019050615dbe565b83811115615de8576000848401525b50505050565b6000615df982615e1c565b9050919050565b6000615e0b82615e1c565b9050919050565b6000819050919050565b6000615e2782615e4b565b9050919050565b6000819050919050565bfe5b6000601f19601f8301169050919050565b60008160601b9050919050565b615e6181615d12565b8114615e6c57600080fd5b50565b615e7881615d36565b8114615e8357600080fd5b50565b615e8f81615d42565b8114615e9a57600080fd5b50565b615ea681615d6c565b8114615eb157600080fd5b5056fea26469706673582212205d5010d40e1c9c890dfe15b54a04814094c616bd8bac9f572d0118b7a62ca61d64736f6c63430007060033",
  "immutableReferences": {},
  "source": "// SPDX-License-Identifier: MIT\npragma solidity ^0.7.0;\npragma experimental ABIEncoderV2;\n    struct Diploma {\n        bytes32 id;\n        bytes32 blueprintId;\n        address owner;\n        address issuer;\n        string honors;\n        bool validated; // if it's requested from student it must be validated from admin\n        uint256 dateObtained; // timestamps format\n    }\n\n    struct Student {\n        address id;\n        string firstName;\n        string lastName;\n        string email;\n        bytes32[] diplomas;\n    }\n\n    struct DiplomaBluePrint{\n        bytes32 id;\n        address issuer;\n        string title;\n        string description;\n        string speciality;\n        bytes32[] diplomas;\n    }\ncontract Diplomachain {\n    \n    // students storage\n    mapping(address => uint256) private studentsIndexes;\n    Student[] public students;\n    uint256 public studentsCount;\n\n    // diploma storage\n    mapping(bytes32 => uint256) public diplomasIndexes;\n    Diploma[] public diplomas;\n    uint256 public diplomasCount;\n\n    // pending diplomas storage\n    mapping(bytes32 => uint256) public pendingDiplomasIndexes;\n    Diploma[] public pendingDiplomas;\n    uint256 public pendingDiplomasCount;\n\n    // diploma blueprints storage\n    mapping(bytes32 => uint256) private diplomaBlueprintsIndexes;\n    DiplomaBluePrint[] private diplomaBlueprints;\n    uint256 public diplomaBlueprintsCount;\n\n    /* // Let's say we have multiple universities, so it's a good practice to define admins addresses for now\n    mapping(address => uint256) public adminsIndexes;\n\n    // Since every diploma will be issued by a university club, we need to have issuersIndexes\n    mapping(address => uint256) public issuersIndexes; */\n\n    address private admin;\n\n    constructor() {\n        admin = msg.sender; // specifiy the admin when deploying the contract;\n        studentsCount = 0;\n        diplomasCount = 0;\n        pendingDiplomasCount = 0;\n        diplomaBlueprintsCount = 0;\n    }\n\n    // ==========modifiers declaration==========\n    modifier onlyAdmin() {\n        require(msg.sender == admin, \"Admin not found\");\n        _;\n    }\n    modifier onlyStudent() {\n        require(studentsIndexes[msg.sender] != 0, \"Student not found\");\n        _;\n    }\n    /* modifier onlyIssuer() {\n        require(issuersIndexes[msg.sender] != 0, \"Issuer not found\");\n        _;\n    } */\n\n    // ==========events definition==========\n    event LogRequestDiploma(address studentId);\n    event LogAddDiploma(bytes32 diplomaId);\n    event LogAddStudent(address studentId);\n    event LogAddDiplomaBlueprint(bytes32 diplomaBlueprintId);\n    event LogDeleteDiploma(bytes32 diplomaId);\n    event LogDeleteStudent(address studentId);\n    \n    // ==========Functions definition==========\n    // verifyDiploma()\n    function verifyDiploma(Diploma memory diploma) public view returns (bool){\n        require (diplomasIndexes[diploma.id] != 0, \"You provided an invalid diploma identifier\");\n        Diploma storage stored_diploma = diplomas[diplomasIndexes[diploma.id] - 1];\n        return (diploma.blueprintId == stored_diploma.blueprintId \n                && diploma.owner == stored_diploma.owner \n                && diploma.issuer == stored_diploma.issuer\n                && keccak256(abi.encodePacked(diploma.honors)) == keccak256(abi.encodePacked(stored_diploma.honors))\n                && diploma.dateObtained == stored_diploma.dateObtained\n        );\n    } \n    // getDiploma()\n    function getDiploma(bytes32 diplomaId) public view returns (Diploma memory){\n        require (diplomasIndexes[diplomaId] != 0, \"You provided an invalid diploma identifier\");\n        return diplomas[diplomasIndexes[diplomaId] - 1];\n    }\n    // addStudent()\n    function addStudent(\n        string memory _firstName,\n        string memory _lastName,\n        string memory _email,\n        bytes32[] memory _diplomas\n    ) public {\n        require(studentsIndexes[msg.sender] == 0, \"Student already exists\");\n        require( msg.sender != admin, \"Admin is not a student\");\n        // require(adminsIndexes[msg.sender] == 0, \"An admin cannot enroll as a student\");\n        // require(issuersIndexes[msg.sender] == 0, \"An issuer cannot enroll as a student\");\n        studentsCount++;\n        studentsIndexes[msg.sender] = students.length + 1;\n        students.push(\n            Student(msg.sender, _firstName, _lastName, _email, _diplomas)\n        );\n        emit LogAddStudent(msg.sender);\n    }\n    // getStudent()\n    function getStudent(address student_addr) public view returns (Student memory){\n        require (studentsIndexes[student_addr] != 0, \"You provided an invalid student address\");\n        return students[studentsIndexes[student_addr] - 1];\n    }\n    // deleteStudent()\n    /* function deleteStudent(address student_addr) public onlyAdmin {\n        // 1 - delete the student's diplomas\n        bytes32[] memory diplomas_ids = students[studentsIndexes[student_addr] - 1].diplomas;\n        for (uint i = 0; i < diplomas_ids.length; i++) {\n            removeDiplomaItem(diplomas, diplomasIndexes[diplomas_ids[i]] - 1);\n            delete diplomasIndexes[diplomas_ids[i]];\n            diplomasCount--;\n            emit LogDeleteDiploma(diplomas_ids[i]);\n        }\n        // 2 - delete the student\n        removeStudentItem(students, studentsIndexes[student_addr] - 1);\n        delete studentsIndexes[student_addr];\n        studentsCount--;\n        emit LogDeleteStudent(student_addr);\n    } */\n    // remove an element from diplomas array and shift to avoid leaving gaps\n    function removeDiplomaItem(Diploma[] storage array, uint256 index) private {\n        for (uint i = index; i < array.length - 1; i++) {\n            array[i] = array[i + 1];\n        }\n        delete array[array.length - 1];\n        array.pop();\n    }\n    // remove an element from students array and shift to avoid leaving gaps\n    /* function removeStudentItem(Student[] storage array, uint256 index) private {\n        for (uint i = index; i < array.length - 1; i++) {\n            array[i] = array[i + 1];\n        }\n        delete array[array.length - 1];\n        array.pop();\n    } */\n    // addDiploma() => when a student requests a diploma, the admin will call this fct to issue it\n    function validateDiploma(bytes32 _id) public onlyAdmin {\n        require(diplomasIndexes[_id] == 0, \"Diploma already exists\");\n        require(pendingDiplomasIndexes[_id] != 0, \"Diploma request is not registered or has been removed\");\n        diplomasCount++;\n        diplomasIndexes[_id] = diplomas.length + 1;\n        Diploma memory temp = pendingDiplomas[pendingDiplomasIndexes[_id] - 1];\n        temp.validated = true; // changing the status\n        diplomas.push(\n            temp\n        );\n        // get the student (owner) address\n        address student_adr = pendingDiplomas[pendingDiplomasIndexes[_id] - 1].owner;\n        // add the new diploma id to the student's diplomas ids array\n        students[studentsIndexes[student_adr] - 1].diplomas.push(\n            _id\n        );\n        // add the new diploma id to the diploma blueprint's diplomas ids array\n        diplomaBlueprints[diplomaBlueprintsIndexes[temp.blueprintId] - 1].diplomas.push(\n            _id\n        );\n        // remove the diploma from the pending diplomas array\n        removeDiplomaItem(pendingDiplomas, pendingDiplomasIndexes[_id] - 1);\n        delete pendingDiplomasIndexes[_id];\n        pendingDiplomasCount--;\n        emit LogAddDiploma(_id);\n    }\n    // issueDiploma() => when the issuer himself wants to issue a diploma, he'll be able to do that directly\n    function issueDiploma(\n        address owner,\n        bytes32 blueprintId,\n        string memory _honors,\n        uint256 _dateObtained\n    ) public onlyAdmin {\n        require(studentsIndexes[owner] != 0 ,\"Student not found\");\n        // require(msg.sender == admin, \"You cannot add a diploma issued by someone else..\");\n        // generate a unique hash identifier for each diploma\n        bytes32 id = keccak256(abi.encodePacked(owner, admin, blueprintId, _honors, _dateObtained));\n        diplomasCount++;\n        diplomasIndexes[id] = diplomas.length + 1;\n        diplomas.push(\n            Diploma(id,  blueprintId, owner, admin, _honors, true, _dateObtained)\n        );\n        // add the new diploma id to the student's diplomas ids array\n        students[studentsIndexes[owner] - 1].diplomas.push(\n            id\n        );\n        // add the new diploma id to the diploma blueprint's diplomas ids array\n        diplomaBlueprints[diplomaBlueprintsIndexes[blueprintId] - 1].diplomas.push(\n            id\n        );\n        emit LogAddDiploma(id);\n    }\n    // isStudent()\n    function isStudent() public view returns (bool) {\n        return studentsIndexes[msg.sender] != 0;\n    }\n    // isAdmin()\n    function isAdmin() public view returns (bool) {\n        \n        return msg.sender == admin;\n        //return adminsIndexes[msg.sender] != 0;\n    }\n    // isIssuer()\n   /*  function isIssuer() public view returns (bool) {\n        return issuersIndexes[msg.sender] != 0;\n    } */\n    // getStudentIndex()\n    /* function getStudentIndex(address studentId) public view returns (uint256) {\n        require(studentsIndexes[studentId] != 0, \"Student does not exist\");\n        return studentsIndexes[studentId] - 1;\n    }\n    // getDiplomaIndex()\n    function getDiplomaIndex(bytes32 diplomaId) public view returns (uint256) {\n        require(diplomasIndexes[diplomaId] != 0, \"Diploma does not exist\");\n        return diplomasIndexes[diplomaId] - 1;\n    } */\n\n    /*\n    \n        getX(id) is not used in the front, also it can be replace by using the default getter \n\n        diplomaIndexes is public so we can use diplomaIndexes(id) to get the index\n        also we can use the default getter for the array types \n        we can use diplomas(index -1) directly outstide the contract instead of implementing it\n    */ \n\n\n    // getStudents()\n    function getStudents() public onlyAdmin view returns (Student[] memory) {\n        return students;\n    }\n    // getDiplomas()\n    function getDiplomas() public onlyAdmin view returns (Diploma[] memory) {\n        return diplomas;\n    }\n    // getStudentDiplomasIds()\n    /* function getStudentDiplomasIds(address studentId) public view returns (bytes32[] memory) {\n        require(studentsIndexes[studentId] != 0, \"Student does not exist\");\n        require(msg.sender == studentId || adminsIndexes[msg.sender] != 0, \"Only owner or admin are allowed\");\n        return students[studentsIndexes[studentId] - 1].diplomas;\n    } */\n    // getStudentDiplomas()\n    function getStudentDiplomas(address studentId) public view returns (Diploma[] memory) {\n        require(msg.sender == studentId || msg.sender == admin, \"Only owner or admin are allowed\");\n        require(studentsIndexes[studentId] != 0, \"Student does not exist\");\n        bytes32[] memory diplomas_ids = students[studentsIndexes[studentId] - 1].diplomas;\n        Diploma[] memory full_diplomas = new Diploma[](diplomas_ids.length);\n        for (uint256 i = 0; i < diplomas_ids.length; i++) {\n            full_diplomas[i] = diplomas[diplomasIndexes[diplomas_ids[i]] - 1];\n        }\n        return full_diplomas;\n    }\n\n    // get student pending diplomas \n    function getStudentPendingDiplomas(address studentId) public  onlyStudent view returns (Diploma[] memory) {\n        require(msg.sender == studentId, \"Only owner are allowed\");\n        uint256 number=0;\n        for (uint256 i = 0; i < pendingDiplomas.length; i++) {\n            if(pendingDiplomas[i].owner == msg.sender){\n                number+=1;\n            }\n        }\n        Diploma[] memory _pendingDiplomas = new  Diploma[] (number);\n        for (uint256 i = 0; i < pendingDiplomas.length; i++) {\n            if(pendingDiplomas[i].owner == msg.sender){\n                _pendingDiplomas[i]= pendingDiplomas[i];\n            }\n        }\n        return _pendingDiplomas;\n    }\n    // requestDiploma()\n    function requestDiploma(\n        bytes32 blueprintId,\n        string memory _honors,\n        uint256 _dateObtained\n    ) public onlyStudent {\n        require(studentsIndexes[msg.sender] != 0, \"Student does not exist\");\n\n        // We have only one issuer (the admin)\n        // require(issuersIndexes[issuer] != 0, \"Issuer does not exist\");\n        // generate a unique hash identifier for each diploma\n        bytes32 id = keccak256(abi.encodePacked(msg.sender, admin , blueprintId,  _honors, _dateObtained));\n        pendingDiplomasCount++;\n        pendingDiplomasIndexes[id] = pendingDiplomas.length + 1;\n        pendingDiplomas.push(\n            Diploma(id, blueprintId ,msg.sender, admin, _honors, false, _dateObtained)\n        );\n        emit LogRequestDiploma(msg.sender);\n    }\n    // return pending dipomas\n\n    function getPendingDiplomas() public view returns(Diploma[] memory){\n        return pendingDiplomas;\n    } \n\n    function addDiplomaBlueprint(\n        string memory title,\n        string memory description,\n        string memory speciality,\n        bytes32[] memory _diplomas\n    ) public onlyAdmin {\n        bytes32 id = keccak256(abi.encodePacked(msg.sender, title, description,speciality));\n        require(diplomaBlueprintsIndexes[id] ==0,\"Blue print already exist\");\n        diplomaBlueprintsCount++;\n        diplomaBlueprintsIndexes[id] = diplomaBlueprints.length + 1;\n        diplomaBlueprints.push(\n            DiplomaBluePrint(id,msg.sender, title, description,speciality,_diplomas)\n        );\n        emit LogAddDiplomaBlueprint(id);\n    }\n    function getDiplomaBlueprint(bytes32 id) public view returns (DiplomaBluePrint memory) {\n        require(diplomaBlueprintsIndexes[id]!=0, \"Diploma Bluerprint not found\");\n        return diplomaBlueprints[diplomaBlueprintsIndexes[id] - 1];\n    }\n    // this will return all diplom blueprints because we have a single issuer (else we will select based on the issuer)\n    function getDiplomaBlueprints()public view returns (DiplomaBluePrint[] memory){\n        return diplomaBlueprints;\n    }\n    // returns the diploma by the selected blueprint\n    function getDiplomasByBlueprint(bytes32 id) public onlyAdmin view returns (Diploma[] memory){\n        require(diplomaBlueprintsIndexes[id]!=0, \"Diploma Bluerprint not found\");\n        bytes32[] memory diplomas_ids = diplomaBlueprints[diplomaBlueprintsIndexes[id] - 1].diplomas;\n        Diploma[] memory _diplomas = new Diploma[](diplomas_ids.length);\n        for (uint256 i = 0; i < diplomas_ids.length; i++) {\n            _diplomas[i] = diplomas[diplomasIndexes[diplomas_ids[i]] - 1];\n        }\n        return _diplomas;\n    }\n\n}",
  "sourcePath": "/home/dali/GL5/project/blockchain/Diplomachain/blockchain/contracts/Diplomachain.sol",
  "compiler": {
    "name": "solc",
    "version": "0.7.6+commit.7338295f.Emscripten.clang"
  },
  "schemaVersion": "3.3.3",
  "updatedAt": "2021-01-22T23:14:07.280Z",
  "networkType": "ethereum",
  "devdoc": {
    "kind": "dev",
    "methods": {},
    "version": 1
  },
  "userdoc": {
    "kind": "user",
    "methods": {},
    "version": 1
  }
}