{
  "contractName": "Diplomachain",
  "abi": [
    {
      "inputs": [],
      "stateMutability": "nonpayable",
      "type": "constructor"
    },
    {
      "anonymous": false,
      "inputs": [
        {
          "indexed": false,
          "internalType": "bytes32",
          "name": "diplomaId",
          "type": "bytes32"
        }
      ],
      "name": "LogAddDiploma",
      "type": "event"
    },
    {
      "anonymous": false,
      "inputs": [
        {
          "indexed": false,
          "internalType": "address",
          "name": "studentId",
          "type": "address"
        }
      ],
      "name": "LogRequestDiploma",
      "type": "event"
    },
    {
      "inputs": [
        {
          "internalType": "address",
          "name": "",
          "type": "address"
        }
      ],
      "name": "adminsIndexes",
      "outputs": [
        {
          "internalType": "uint256",
          "name": "",
          "type": "uint256"
        }
      ],
      "stateMutability": "view",
      "type": "function"
    },
    {
      "inputs": [
        {
          "internalType": "uint256",
          "name": "",
          "type": "uint256"
        }
      ],
      "name": "diplomas",
      "outputs": [
        {
          "internalType": "bytes32",
          "name": "id",
          "type": "bytes32"
        },
        {
          "internalType": "address",
          "name": "owner",
          "type": "address"
        },
        {
          "internalType": "address",
          "name": "issuer",
          "type": "address"
        },
        {
          "internalType": "string",
          "name": "speciality",
          "type": "string"
        },
        {
          "internalType": "string",
          "name": "honors",
          "type": "string"
        },
        {
          "internalType": "string",
          "name": "title",
          "type": "string"
        },
        {
          "internalType": "uint256",
          "name": "dateObtained",
          "type": "uint256"
        }
      ],
      "stateMutability": "view",
      "type": "function"
    },
    {
      "inputs": [],
      "name": "diplomasCount",
      "outputs": [
        {
          "internalType": "uint256",
          "name": "",
          "type": "uint256"
        }
      ],
      "stateMutability": "view",
      "type": "function"
    },
    {
      "inputs": [
        {
          "internalType": "bytes32",
          "name": "",
          "type": "bytes32"
        }
      ],
      "name": "diplomasIndexes",
      "outputs": [
        {
          "internalType": "uint256",
          "name": "",
          "type": "uint256"
        }
      ],
      "stateMutability": "view",
      "type": "function"
    },
    {
      "inputs": [
        {
          "internalType": "address",
          "name": "",
          "type": "address"
        }
      ],
      "name": "issuersIndexes",
      "outputs": [
        {
          "internalType": "uint256",
          "name": "",
          "type": "uint256"
        }
      ],
      "stateMutability": "view",
      "type": "function"
    },
    {
      "inputs": [
        {
          "internalType": "uint256",
          "name": "",
          "type": "uint256"
        }
      ],
      "name": "pendingDiplomas",
      "outputs": [
        {
          "internalType": "bytes32",
          "name": "id",
          "type": "bytes32"
        },
        {
          "internalType": "address",
          "name": "owner",
          "type": "address"
        },
        {
          "internalType": "address",
          "name": "issuer",
          "type": "address"
        },
        {
          "internalType": "string",
          "name": "speciality",
          "type": "string"
        },
        {
          "internalType": "string",
          "name": "honors",
          "type": "string"
        },
        {
          "internalType": "string",
          "name": "title",
          "type": "string"
        },
        {
          "internalType": "uint256",
          "name": "dateObtained",
          "type": "uint256"
        }
      ],
      "stateMutability": "view",
      "type": "function"
    },
    {
      "inputs": [],
      "name": "pendingDiplomasCount",
      "outputs": [
        {
          "internalType": "uint256",
          "name": "",
          "type": "uint256"
        }
      ],
      "stateMutability": "view",
      "type": "function"
    },
    {
      "inputs": [
        {
          "internalType": "bytes32",
          "name": "",
          "type": "bytes32"
        }
      ],
      "name": "pendingDiplomasIndexes",
      "outputs": [
        {
          "internalType": "uint256",
          "name": "",
          "type": "uint256"
        }
      ],
      "stateMutability": "view",
      "type": "function"
    },
    {
      "inputs": [
        {
          "internalType": "uint256",
          "name": "",
          "type": "uint256"
        }
      ],
      "name": "students",
      "outputs": [
        {
          "internalType": "address",
          "name": "id",
          "type": "address"
        },
        {
          "internalType": "string",
          "name": "firstName",
          "type": "string"
        },
        {
          "internalType": "string",
          "name": "lastName",
          "type": "string"
        },
        {
          "internalType": "string",
          "name": "email",
          "type": "string"
        },
        {
          "internalType": "string",
          "name": "nationality",
          "type": "string"
        },
        {
          "internalType": "string",
          "name": "phoneNumber",
          "type": "string"
        },
        {
          "internalType": "string",
          "name": "gender",
          "type": "string"
        }
      ],
      "stateMutability": "view",
      "type": "function"
    },
    {
      "inputs": [],
      "name": "studentsCount",
      "outputs": [
        {
          "internalType": "uint256",
          "name": "",
          "type": "uint256"
        }
      ],
      "stateMutability": "view",
      "type": "function"
    },
    {
      "inputs": [
        {
          "internalType": "bytes32",
          "name": "diplomaId",
          "type": "bytes32"
        }
      ],
      "name": "verifyDiploma",
      "outputs": [
        {
          "components": [
            {
              "internalType": "bytes32",
              "name": "id",
              "type": "bytes32"
            },
            {
              "internalType": "address",
              "name": "owner",
              "type": "address"
            },
            {
              "internalType": "address",
              "name": "issuer",
              "type": "address"
            },
            {
              "internalType": "string",
              "name": "speciality",
              "type": "string"
            },
            {
              "internalType": "string",
              "name": "honors",
              "type": "string"
            },
            {
              "internalType": "string",
              "name": "title",
              "type": "string"
            },
            {
              "internalType": "uint256",
              "name": "dateObtained",
              "type": "uint256"
            }
          ],
          "internalType": "struct Diplomachain.Diploma",
          "name": "",
          "type": "tuple"
        }
      ],
      "stateMutability": "view",
      "type": "function"
    },
    {
      "inputs": [
        {
          "internalType": "bytes32",
          "name": "diplomaId",
          "type": "bytes32"
        }
      ],
      "name": "getDiploma",
      "outputs": [
        {
          "components": [
            {
              "internalType": "bytes32",
              "name": "id",
              "type": "bytes32"
            },
            {
              "internalType": "address",
              "name": "owner",
              "type": "address"
            },
            {
              "internalType": "address",
              "name": "issuer",
              "type": "address"
            },
            {
              "internalType": "string",
              "name": "speciality",
              "type": "string"
            },
            {
              "internalType": "string",
              "name": "honors",
              "type": "string"
            },
            {
              "internalType": "string",
              "name": "title",
              "type": "string"
            },
            {
              "internalType": "uint256",
              "name": "dateObtained",
              "type": "uint256"
            }
          ],
          "internalType": "struct Diplomachain.Diploma",
          "name": "",
          "type": "tuple"
        }
      ],
      "stateMutability": "view",
      "type": "function"
    },
    {
      "inputs": [
        {
          "internalType": "address",
          "name": "_id",
          "type": "address"
        },
        {
          "internalType": "string",
          "name": "_firstName",
          "type": "string"
        },
        {
          "internalType": "string",
          "name": "_lastName",
          "type": "string"
        },
        {
          "internalType": "string",
          "name": "_email",
          "type": "string"
        },
        {
          "internalType": "string",
          "name": "_nationality",
          "type": "string"
        },
        {
          "internalType": "string",
          "name": "_phoneNumber",
          "type": "string"
        },
        {
          "internalType": "string",
          "name": "_gender",
          "type": "string"
        },
        {
          "internalType": "bytes32[]",
          "name": "_diplomas",
          "type": "bytes32[]"
        }
      ],
      "name": "addStudent",
      "outputs": [],
      "stateMutability": "nonpayable",
      "type": "function"
    },
    {
      "inputs": [
        {
          "internalType": "address",
          "name": "student_addr",
          "type": "address"
        }
      ],
      "name": "getStudent",
      "outputs": [
        {
          "components": [
            {
              "internalType": "address",
              "name": "id",
              "type": "address"
            },
            {
              "internalType": "string",
              "name": "firstName",
              "type": "string"
            },
            {
              "internalType": "string",
              "name": "lastName",
              "type": "string"
            },
            {
              "internalType": "string",
              "name": "email",
              "type": "string"
            },
            {
              "internalType": "string",
              "name": "nationality",
              "type": "string"
            },
            {
              "internalType": "string",
              "name": "phoneNumber",
              "type": "string"
            },
            {
              "internalType": "string",
              "name": "gender",
              "type": "string"
            },
            {
              "internalType": "bytes32[]",
              "name": "diplomas",
              "type": "bytes32[]"
            }
          ],
          "internalType": "struct Diplomachain.Student",
          "name": "",
          "type": "tuple"
        }
      ],
      "stateMutability": "view",
      "type": "function"
    },
    {
      "inputs": [
        {
          "internalType": "bytes32",
          "name": "_id",
          "type": "bytes32"
        }
      ],
      "name": "addDiploma",
      "outputs": [],
      "stateMutability": "nonpayable",
      "type": "function"
    },
    {
      "inputs": [
        {
          "internalType": "address",
          "name": "owner",
          "type": "address"
        },
        {
          "internalType": "address",
          "name": "issuer",
          "type": "address"
        },
        {
          "internalType": "string",
          "name": "_speciality",
          "type": "string"
        },
        {
          "internalType": "string",
          "name": "_honors",
          "type": "string"
        },
        {
          "internalType": "string",
          "name": "_title",
          "type": "string"
        },
        {
          "internalType": "uint256",
          "name": "_dateObtained",
          "type": "uint256"
        }
      ],
      "name": "issueDiploma",
      "outputs": [],
      "stateMutability": "nonpayable",
      "type": "function"
    },
    {
      "inputs": [],
      "name": "isStudent",
      "outputs": [
        {
          "internalType": "bool",
          "name": "",
          "type": "bool"
        }
      ],
      "stateMutability": "view",
      "type": "function"
    },
    {
      "inputs": [],
      "name": "isAdmin",
      "outputs": [
        {
          "internalType": "bool",
          "name": "",
          "type": "bool"
        }
      ],
      "stateMutability": "view",
      "type": "function"
    },
    {
      "inputs": [],
      "name": "isIssuer",
      "outputs": [
        {
          "internalType": "bool",
          "name": "",
          "type": "bool"
        }
      ],
      "stateMutability": "view",
      "type": "function"
    },
    {
      "inputs": [
        {
          "internalType": "address",
          "name": "studentId",
          "type": "address"
        }
      ],
      "name": "getStudentIndex",
      "outputs": [
        {
          "internalType": "uint256",
          "name": "",
          "type": "uint256"
        }
      ],
      "stateMutability": "view",
      "type": "function"
    },
    {
      "inputs": [
        {
          "internalType": "bytes32",
          "name": "diplomaId",
          "type": "bytes32"
        }
      ],
      "name": "getDiplomaIndex",
      "outputs": [
        {
          "internalType": "uint256",
          "name": "",
          "type": "uint256"
        }
      ],
      "stateMutability": "view",
      "type": "function"
    },
    {
      "inputs": [],
      "name": "getStudents",
      "outputs": [
        {
          "components": [
            {
              "internalType": "address",
              "name": "id",
              "type": "address"
            },
            {
              "internalType": "string",
              "name": "firstName",
              "type": "string"
            },
            {
              "internalType": "string",
              "name": "lastName",
              "type": "string"
            },
            {
              "internalType": "string",
              "name": "email",
              "type": "string"
            },
            {
              "internalType": "string",
              "name": "nationality",
              "type": "string"
            },
            {
              "internalType": "string",
              "name": "phoneNumber",
              "type": "string"
            },
            {
              "internalType": "string",
              "name": "gender",
              "type": "string"
            },
            {
              "internalType": "bytes32[]",
              "name": "diplomas",
              "type": "bytes32[]"
            }
          ],
          "internalType": "struct Diplomachain.Student[]",
          "name": "",
          "type": "tuple[]"
        }
      ],
      "stateMutability": "view",
      "type": "function"
    },
    {
      "inputs": [],
      "name": "getDiplomas",
      "outputs": [
        {
          "components": [
            {
              "internalType": "bytes32",
              "name": "id",
              "type": "bytes32"
            },
            {
              "internalType": "address",
              "name": "owner",
              "type": "address"
            },
            {
              "internalType": "address",
              "name": "issuer",
              "type": "address"
            },
            {
              "internalType": "string",
              "name": "speciality",
              "type": "string"
            },
            {
              "internalType": "string",
              "name": "honors",
              "type": "string"
            },
            {
              "internalType": "string",
              "name": "title",
              "type": "string"
            },
            {
              "internalType": "uint256",
              "name": "dateObtained",
              "type": "uint256"
            }
          ],
          "internalType": "struct Diplomachain.Diploma[]",
          "name": "",
          "type": "tuple[]"
        }
      ],
      "stateMutability": "view",
      "type": "function"
    },
    {
      "inputs": [
        {
          "internalType": "address",
          "name": "studentId",
          "type": "address"
        }
      ],
      "name": "getStudentDiplomasIds",
      "outputs": [
        {
          "internalType": "bytes32[]",
          "name": "",
          "type": "bytes32[]"
        }
      ],
      "stateMutability": "view",
      "type": "function"
    },
    {
      "inputs": [
        {
          "internalType": "address",
          "name": "studentId",
          "type": "address"
        }
      ],
      "name": "getStudentDiplomas",
      "outputs": [
        {
          "components": [
            {
              "internalType": "bytes32",
              "name": "id",
              "type": "bytes32"
            },
            {
              "internalType": "address",
              "name": "owner",
              "type": "address"
            },
            {
              "internalType": "address",
              "name": "issuer",
              "type": "address"
            },
            {
              "internalType": "string",
              "name": "speciality",
              "type": "string"
            },
            {
              "internalType": "string",
              "name": "honors",
              "type": "string"
            },
            {
              "internalType": "string",
              "name": "title",
              "type": "string"
            },
            {
              "internalType": "uint256",
              "name": "dateObtained",
              "type": "uint256"
            }
          ],
          "internalType": "struct Diplomachain.Diploma[]",
          "name": "",
          "type": "tuple[]"
        }
      ],
      "stateMutability": "view",
      "type": "function"
    },
    {
      "inputs": [
        {
          "internalType": "address",
          "name": "issuer",
          "type": "address"
        },
        {
          "internalType": "string",
          "name": "_speciality",
          "type": "string"
        },
        {
          "internalType": "string",
          "name": "_honors",
          "type": "string"
        },
        {
          "internalType": "string",
          "name": "_title",
          "type": "string"
        },
        {
          "internalType": "uint256",
          "name": "_dateObtained",
          "type": "uint256"
        }
      ],
      "name": "requestDiploma",
      "outputs": [],
      "stateMutability": "nonpayable",
      "type": "function"
    }
  ],
  "bytecode": "0x608060405234801561001057600080fd5b50600060028190555060006005819055506000600881905550615a8680620000396000396000f3fe608060405234801561001057600080fd5b506004361061018e5760003560e01c806394d3bd35116100de578063d1b9329211610097578063e8c2ecd611610071578063e8c2ecd61461051d578063ee6ffd481461053b578063f1d064b31461056b578063ff45bc59146105895761018e565b8063d1b932921461048d578063d9d0350b146104bd578063e89cc997146104ed5761018e565b806394d3bd35146103b357806395f378e8146103e3578063aaf1485e14610419578063b6db75a014610435578063c9675e1314610453578063cef87be5146104715761018e565b806351e0a6eb1161014b57806368433a3a1161012557806368433a3a146103175780636b7b44d7146103355780637a6e8a131461036557806386af78fa146103955761018e565b806351e0a6eb146102ad57806359bebe08146102cb57806364d1d1ff146102fb5761018e565b806306ead22e146101935780632b04cb77146101c957806333c89983146101f9578063350799041461021757806335dfc1c314610247578063465cf8661461027d575b600080fd5b6101ad60048036038101906101a89190614758565b6105a5565b6040516101c09796959493929190615356565b60405180910390f35b6101e360048036038101906101de919061472f565b6109a7565b6040516101f091906156ef565b60405180910390f35b610201610cef565b60405161020e9190615733565b60405180910390f35b610231600480360381019061022c919061472f565b610cf5565b60405161023e9190615733565b60405180910390f35b610261600480360381019061025c9190614758565b610d0d565b604051610274979695949392919061548b565b60405180910390f35b6102976004803603810190610292919061441c565b610f67565b6040516102a49190615733565b60405180910390f35b6102b5611033565b6040516102c29190615455565b60405180910390f35b6102e560048036038101906102e0919061441c565b61107c565b6040516102f29190615733565b60405180910390f35b6103156004803603810190610310919061472f565b611094565b005b61031f611512565b60405161032c9190615733565b60405180910390f35b61034f600480360381019061034a919061441c565b611518565b60405161035c9190615711565b60405180910390f35b61037f600480360381019061037a919061441c565b611a8a565b60405161038c91906153ef565b60405180910390f35b61039d611c7b565b6040516103aa9190615455565b60405180910390f35b6103cd60048036038101906103c8919061441c565b611cc5565b6040516103da9190615733565b60405180910390f35b6103fd60048036038101906103f89190614758565b611cdd565b604051610410979695949392919061548b565b60405180910390f35b610433600480360381019061042e9190614516565b611f37565b005b61043d612334565b60405161044a9190615455565b60405180910390f35b61045b61237e565b6040516104689190615733565b60405180910390f35b61048b60048036038101906104869190614445565b612384565b005b6104a760048036038101906104a2919061441c565b612726565b6040516104b49190615411565b60405180910390f35b6104d760048036038101906104d2919061472f565b612c9b565b6040516104e49190615733565b60405180910390f35b6105076004803603810190610502919061472f565b612cb3565b60405161051491906156ef565b60405180910390f35b610525612ffb565b6040516105329190615411565b60405180910390f35b6105556004803603810190610550919061472f565b613383565b6040516105629190615733565b60405180910390f35b6105736133f9565b6040516105809190615433565b60405180910390f35b6105a3600480360381019061059e9190614670565b613956565b005b600181815481106105b557600080fd5b90600052602060002090600802016000915090508060000160009054906101000a900473ffffffffffffffffffffffffffffffffffffffff1690806001018054600181600116156101000203166002900480601f0160208091040260200160405190810160405280929190818152602001828054600181600116156101000203166002900480156106875780601f1061065c57610100808354040283529160200191610687565b820191906000526020600020905b81548152906001019060200180831161066a57829003601f168201915b505050505090806002018054600181600116156101000203166002900480601f0160208091040260200160405190810160405280929190818152602001828054600181600116156101000203166002900480156107255780601f106106fa57610100808354040283529160200191610725565b820191906000526020600020905b81548152906001019060200180831161070857829003601f168201915b505050505090806003018054600181600116156101000203166002900480601f0160208091040260200160405190810160405280929190818152602001828054600181600116156101000203166002900480156107c35780601f10610798576101008083540402835291602001916107c3565b820191906000526020600020905b8154815290600101906020018083116107a657829003601f168201915b505050505090806004018054600181600116156101000203166002900480601f0160208091040260200160405190810160405280929190818152602001828054600181600116156101000203166002900480156108615780601f1061083657610100808354040283529160200191610861565b820191906000526020600020905b81548152906001019060200180831161084457829003601f168201915b505050505090806005018054600181600116156101000203166002900480601f0160208091040260200160405190810160405280929190818152602001828054600181600116156101000203166002900480156108ff5780601f106108d4576101008083540402835291602001916108ff565b820191906000526020600020905b8154815290600101906020018083116108e257829003601f168201915b505050505090806006018054600181600116156101000203166002900480601f01602080910402602001604051908101604052809291908181526020018280546001816001161561010002031660029004801561099d5780601f106109725761010080835404028352916020019161099d565b820191906000526020600020905b81548152906001019060200180831161098057829003601f168201915b5050505050905087565b6109af614026565b600060036000848152602001908152602001600020541415610a06576040517f08c379a00000000000000000000000000000000000000000000000000000000081526004016109fd9061552f565b60405180910390fd5b6004600160036000858152602001908152602001600020540381548110610a2957fe5b90600052602060002090600702016040518060e0016040529081600082015481526020016001820160009054906101000a900473ffffffffffffffffffffffffffffffffffffffff1673ffffffffffffffffffffffffffffffffffffffff1673ffffffffffffffffffffffffffffffffffffffff1681526020016002820160009054906101000a900473ffffffffffffffffffffffffffffffffffffffff1673ffffffffffffffffffffffffffffffffffffffff1673ffffffffffffffffffffffffffffffffffffffff168152602001600382018054600181600116156101000203166002900480601f016020809104026020016040519081016040528092919081815260200182805460018160011615610100020316600290048015610b915780601f10610b6657610100808354040283529160200191610b91565b820191906000526020600020905b815481529060010190602001808311610b7457829003601f168201915b50505050508152602001600482018054600181600116156101000203166002900480601f016020809104026020016040519081016040528092919081815260200182805460018160011615610100020316600290048015610c335780601f10610c0857610100808354040283529160200191610c33565b820191906000526020600020905b815481529060010190602001808311610c1657829003601f168201915b50505050508152602001600582018054600181600116156101000203166002900480601f016020809104026020016040519081016040528092919081815260200182805460018160011615610100020316600290048015610cd55780601f10610caa57610100808354040283529160200191610cd5565b820191906000526020600020905b815481529060010190602001808311610cb857829003601f168201915b505050505081526020016006820154815250509050919050565b60085481565b60036020528060005260406000206000915090505481565b60048181548110610d1d57600080fd5b90600052602060002090600702016000915090508060000154908060010160009054906101000a900473ffffffffffffffffffffffffffffffffffffffff16908060020160009054906101000a900473ffffffffffffffffffffffffffffffffffffffff1690806003018054600181600116156101000203166002900480601f016020809104026020016040519081016040528092919081815260200182805460018160011615610100020316600290048015610e1b5780601f10610df057610100808354040283529160200191610e1b565b820191906000526020600020905b815481529060010190602001808311610dfe57829003601f168201915b505050505090806004018054600181600116156101000203166002900480601f016020809104026020016040519081016040528092919081815260200182805460018160011615610100020316600290048015610eb95780601f10610e8e57610100808354040283529160200191610eb9565b820191906000526020600020905b815481529060010190602001808311610e9c57829003601f168201915b505050505090806005018054600181600116156101000203166002900480601f016020809104026020016040519081016040528092919081815260200182805460018160011615610100020316600290048015610f575780601f10610f2c57610100808354040283529160200191610f57565b820191906000526020600020905b815481529060010190602001808311610f3a57829003601f168201915b5050505050908060060154905087565b6000806000808473ffffffffffffffffffffffffffffffffffffffff1673ffffffffffffffffffffffffffffffffffffffff168152602001908152602001600020541415610fea576040517f08c379a0000000000000000000000000000000000000000000000000000000008152600401610fe19061562f565b60405180910390fd5b60016000808473ffffffffffffffffffffffffffffffffffffffff1673ffffffffffffffffffffffffffffffffffffffff16815260200190815260200160002054039050919050565b6000806000803373ffffffffffffffffffffffffffffffffffffffff1673ffffffffffffffffffffffffffffffffffffffff168152602001908152602001600020541415905090565b600a6020528060005260406000206000915090505481565b6000600960003373ffffffffffffffffffffffffffffffffffffffff1673ffffffffffffffffffffffffffffffffffffffff168152602001908152602001600020541415611117576040517f08c379a000000000000000000000000000000000000000000000000000000000815260040161110e906156af565b60405180910390fd5b600060036000838152602001908152602001600020541461116d576040517f08c379a00000000000000000000000000000000000000000000000000000000081526004016111649061560f565b60405180910390fd5b6000600660008381526020019081526020016000205414156111c4576040517f08c379a00000000000000000000000000000000000000000000000000000000081526004016111bb9061566f565b60405180910390fd5b60056000815480929190600101919050555060016004805490500160036000838152602001908152602001600020819055506004600760016006600085815260200190815260200160002054038154811061121b57fe5b90600052602060002090600702019080600181540180825580915050600190039060005260206000209060070201600090919091909150600082015481600001556001820160009054906101000a900473ffffffffffffffffffffffffffffffffffffffff168160010160006101000a81548173ffffffffffffffffffffffffffffffffffffffff021916908373ffffffffffffffffffffffffffffffffffffffff1602179055506002820160009054906101000a900473ffffffffffffffffffffffffffffffffffffffff168160020160006101000a81548173ffffffffffffffffffffffffffffffffffffffff021916908373ffffffffffffffffffffffffffffffffffffffff16021790555060038201816003019080546001816001161561010002031660029004611351929190614092565b5060048201816004019080546001816001161561010002031660029004611379929190614092565b50600582018160050190805460018160011615610100020316600290046113a1929190614092565b50600682015481600601555050600060076001600660008581526020019081526020016000205403815481106113d357fe5b906000526020600020906007020160010160009054906101000a900473ffffffffffffffffffffffffffffffffffffffff1690506001806000808473ffffffffffffffffffffffffffffffffffffffff1673ffffffffffffffffffffffffffffffffffffffff16815260200190815260200160002054038154811061145457fe5b90600052602060002090600802016007018290806001815401808255809150506001900390600052602060002001600090919091909150556114ad60076001600660008681526020019081526020016000205403613d08565b6006600083815260200190815260200160002060009055600860008154809291906001900391905055507f85ca0491ab0b66b547f1a84afd331fd6b696683df09c1392444c8b10f37dd59f826040516115069190615470565b60405180910390a15050565b60025481565b611520614127565b60008060008473ffffffffffffffffffffffffffffffffffffffff1673ffffffffffffffffffffffffffffffffffffffff1681526020019081526020016000205414156115a2576040517f08c379a00000000000000000000000000000000000000000000000000000000081526004016115999061558f565b60405180910390fd5b6001806000808573ffffffffffffffffffffffffffffffffffffffff1673ffffffffffffffffffffffffffffffffffffffff1681526020019081526020016000205403815481106115ef57fe5b9060005260206000209060080201604051806101000160405290816000820160009054906101000a900473ffffffffffffffffffffffffffffffffffffffff1673ffffffffffffffffffffffffffffffffffffffff1673ffffffffffffffffffffffffffffffffffffffff168152602001600182018054600181600116156101000203166002900480601f0160208091040260200160405190810160405280929190818152602001828054600181600116156101000203166002900480156116f85780601f106116cd576101008083540402835291602001916116f8565b820191906000526020600020905b8154815290600101906020018083116116db57829003601f168201915b50505050508152602001600282018054600181600116156101000203166002900480601f01602080910402602001604051908101604052809291908181526020018280546001816001161561010002031660029004801561179a5780601f1061176f5761010080835404028352916020019161179a565b820191906000526020600020905b81548152906001019060200180831161177d57829003601f168201915b50505050508152602001600382018054600181600116156101000203166002900480601f01602080910402602001604051908101604052809291908181526020018280546001816001161561010002031660029004801561183c5780601f106118115761010080835404028352916020019161183c565b820191906000526020600020905b81548152906001019060200180831161181f57829003601f168201915b50505050508152602001600482018054600181600116156101000203166002900480601f0160208091040260200160405190810160405280929190818152602001828054600181600116156101000203166002900480156118de5780601f106118b3576101008083540402835291602001916118de565b820191906000526020600020905b8154815290600101906020018083116118c157829003601f168201915b50505050508152602001600582018054600181600116156101000203166002900480601f0160208091040260200160405190810160405280929190818152602001828054600181600116156101000203166002900480156119805780601f1061195557610100808354040283529160200191611980565b820191906000526020600020905b81548152906001019060200180831161196357829003601f168201915b50505050508152602001600682018054600181600116156101000203166002900480601f016020809104026020016040519081016040528092919081815260200182805460018160011615610100020316600290048015611a225780601f106119f757610100808354040283529160200191611a22565b820191906000526020600020905b815481529060010190602001808311611a0557829003601f168201915b5050505050815260200160078201805480602002602001604051908101604052809291908181526020018280548015611a7a57602002820191906000526020600020905b815481526020019060010190808311611a66575b5050505050815250509050919050565b606060008060008473ffffffffffffffffffffffffffffffffffffffff1673ffffffffffffffffffffffffffffffffffffffff168152602001908152602001600020541415611b0e576040517f08c379a0000000000000000000000000000000000000000000000000000000008152600401611b059061562f565b60405180910390fd5b8173ffffffffffffffffffffffffffffffffffffffff163373ffffffffffffffffffffffffffffffffffffffff161480611b8857506000600960003373ffffffffffffffffffffffffffffffffffffffff1673ffffffffffffffffffffffffffffffffffffffff1681526020019081526020016000205414155b611bc7576040517f08c379a0000000000000000000000000000000000000000000000000000000008152600401611bbe9061554f565b60405180910390fd5b6001806000808573ffffffffffffffffffffffffffffffffffffffff1673ffffffffffffffffffffffffffffffffffffffff168152602001908152602001600020540381548110611c1457fe5b9060005260206000209060080201600701805480602002602001604051908101604052809291908181526020018280548015611c6f57602002820191906000526020600020905b815481526020019060010190808311611c5b575b50505050509050919050565b600080600a60003373ffffffffffffffffffffffffffffffffffffffff1673ffffffffffffffffffffffffffffffffffffffff168152602001908152602001600020541415905090565b60096020528060005260406000206000915090505481565b60078181548110611ced57600080fd5b90600052602060002090600702016000915090508060000154908060010160009054906101000a900473ffffffffffffffffffffffffffffffffffffffff16908060020160009054906101000a900473ffffffffffffffffffffffffffffffffffffffff1690806003018054600181600116156101000203166002900480601f016020809104026020016040519081016040528092919081815260200182805460018160011615610100020316600290048015611deb5780601f10611dc057610100808354040283529160200191611deb565b820191906000526020600020905b815481529060010190602001808311611dce57829003601f168201915b505050505090806004018054600181600116156101000203166002900480601f016020809104026020016040519081016040528092919081815260200182805460018160011615610100020316600290048015611e895780601f10611e5e57610100808354040283529160200191611e89565b820191906000526020600020905b815481529060010190602001808311611e6c57829003601f168201915b505050505090806005018054600181600116156101000203166002900480601f016020809104026020016040519081016040528092919081815260200182805460018160011615610100020316600290048015611f275780601f10611efc57610100808354040283529160200191611f27565b820191906000526020600020905b815481529060010190602001808311611f0a57829003601f168201915b5050505050908060060154905087565b6000600960003373ffffffffffffffffffffffffffffffffffffffff1673ffffffffffffffffffffffffffffffffffffffff168152602001908152602001600020541415611fba576040517f08c379a0000000000000000000000000000000000000000000000000000000008152600401611fb1906156af565b60405180910390fd5b60008060008a73ffffffffffffffffffffffffffffffffffffffff1673ffffffffffffffffffffffffffffffffffffffff168152602001908152602001600020541461203b576040517f08c379a00000000000000000000000000000000000000000000000000000000081526004016120329061568f565b60405180910390fd5b6000600960008a73ffffffffffffffffffffffffffffffffffffffff1673ffffffffffffffffffffffffffffffffffffffff16815260200190815260200160002054146120bd576040517f08c379a00000000000000000000000000000000000000000000000000000000081526004016120b4906155cf565b60405180910390fd5b6000600a60008a73ffffffffffffffffffffffffffffffffffffffff1673ffffffffffffffffffffffffffffffffffffffff168152602001908152602001600020541461213f576040517f08c379a00000000000000000000000000000000000000000000000000000000081526004016121369061556f565b60405180910390fd5b60026000815480929190600101919050555060018080549050016000808a73ffffffffffffffffffffffffffffffffffffffff1673ffffffffffffffffffffffffffffffffffffffff1681526020019081526020016000208190555060016040518061010001604052808a73ffffffffffffffffffffffffffffffffffffffff16815260200189815260200188815260200187815260200186815260200185815260200184815260200183815250908060018154018082558091505060019003906000526020600020906008020160009091909190915060008201518160000160006101000a81548173ffffffffffffffffffffffffffffffffffffffff021916908373ffffffffffffffffffffffffffffffffffffffff1602179055506020820151816001019080519060200190612279929190614182565b506040820151816002019080519060200190612296929190614182565b5060608201518160030190805190602001906122b3929190614182565b5060808201518160040190805190602001906122d0929190614182565b5060a08201518160050190805190602001906122ed929190614182565b5060c082015181600601908051906020019061230a929190614182565b5060e0820151816007019080519060200190612327929190614210565b5050505050505050505050565b600080600960003373ffffffffffffffffffffffffffffffffffffffff1673ffffffffffffffffffffffffffffffffffffffff168152602001908152602001600020541415905090565b60055481565b6000600a60003373ffffffffffffffffffffffffffffffffffffffff1673ffffffffffffffffffffffffffffffffffffffff168152602001908152602001600020541415612407576040517f08c379a00000000000000000000000000000000000000000000000000000000081526004016123fe9061550f565b60405180910390fd5b8473ffffffffffffffffffffffffffffffffffffffff163373ffffffffffffffffffffffffffffffffffffffff1614612475576040517f08c379a000000000000000000000000000000000000000000000000000000000815260040161246c906156cf565b60405180910390fd5b6000868686868686604051602001612492969594939291906152d7565b604051602081830303815290604052805190602001209050600560008154809291906001019190505550600160048054905001600360008381526020019081526020016000208190555060046040518060e001604052808381526020018973ffffffffffffffffffffffffffffffffffffffff1681526020018873ffffffffffffffffffffffffffffffffffffffff1681526020018781526020018681526020018581526020018481525090806001815401808255809150506001900390600052602060002090600702016000909190919091506000820151816000015560208201518160010160006101000a81548173ffffffffffffffffffffffffffffffffffffffff021916908373ffffffffffffffffffffffffffffffffffffffff16021790555060408201518160020160006101000a81548173ffffffffffffffffffffffffffffffffffffffff021916908373ffffffffffffffffffffffffffffffffffffffff160217905550606082015181600301908051906020019061261a929190614182565b506080820151816004019080519060200190612637929190614182565b5060a0820151816005019080519060200190612654929190614182565b5060c0820151816006015550506001806000808a73ffffffffffffffffffffffffffffffffffffffff1673ffffffffffffffffffffffffffffffffffffffff1681526020019081526020016000205403815481106126ae57fe5b90600052602060002090600802016007018190806001815401808255809150506001900390600052602060002001600090919091909150557f85ca0491ab0b66b547f1a84afd331fd6b696683df09c1392444c8b10f37dd59f816040516127159190615470565b60405180910390a150505050505050565b606060008060008473ffffffffffffffffffffffffffffffffffffffff1673ffffffffffffffffffffffffffffffffffffffff1681526020019081526020016000205414156127aa576040517f08c379a00000000000000000000000000000000000000000000000000000000081526004016127a19061562f565b60405180910390fd5b8173ffffffffffffffffffffffffffffffffffffffff163373ffffffffffffffffffffffffffffffffffffffff16148061282457506000600960003373ffffffffffffffffffffffffffffffffffffffff1673ffffffffffffffffffffffffffffffffffffffff1681526020019081526020016000205414155b612863576040517f08c379a000000000000000000000000000000000000000000000000000000000815260040161285a9061554f565b60405180910390fd5b60006001806000808673ffffffffffffffffffffffffffffffffffffffff1673ffffffffffffffffffffffffffffffffffffffff1681526020019081526020016000205403815481106128b257fe5b906000526020600020906008020160070180548060200260200160405190810160405280929190818152602001828054801561290d57602002820191906000526020600020905b8154815260200190600101908083116128f9575b505050505090506000815167ffffffffffffffff8111801561292e57600080fd5b5060405190808252806020026020018201604052801561296857816020015b612955614026565b81526020019060019003908161294d5790505b50905060005b8251811015612c9057600460016003600086858151811061298b57fe5b602002602001015181526020019081526020016000205403815481106129ad57fe5b90600052602060002090600702016040518060e0016040529081600082015481526020016001820160009054906101000a900473ffffffffffffffffffffffffffffffffffffffff1673ffffffffffffffffffffffffffffffffffffffff1673ffffffffffffffffffffffffffffffffffffffff1681526020016002820160009054906101000a900473ffffffffffffffffffffffffffffffffffffffff1673ffffffffffffffffffffffffffffffffffffffff1673ffffffffffffffffffffffffffffffffffffffff168152602001600382018054600181600116156101000203166002900480601f016020809104026020016040519081016040528092919081815260200182805460018160011615610100020316600290048015612b155780601f10612aea57610100808354040283529160200191612b15565b820191906000526020600020905b815481529060010190602001808311612af857829003601f168201915b50505050508152602001600482018054600181600116156101000203166002900480601f016020809104026020016040519081016040528092919081815260200182805460018160011615610100020316600290048015612bb75780601f10612b8c57610100808354040283529160200191612bb7565b820191906000526020600020905b815481529060010190602001808311612b9a57829003601f168201915b50505050508152602001600582018054600181600116156101000203166002900480601f016020809104026020016040519081016040528092919081815260200182805460018160011615610100020316600290048015612c595780601f10612c2e57610100808354040283529160200191612c59565b820191906000526020600020905b815481529060010190602001808311612c3c57829003601f168201915b50505050508152602001600682015481525050828281518110612c7857fe5b6020026020010181905250808060010191505061296e565b508092505050919050565b60066020528060005260406000206000915090505481565b612cbb614026565b600060036000848152602001908152602001600020541415612d12576040517f08c379a0000000000000000000000000000000000000000000000000000000008152600401612d099061552f565b60405180910390fd5b6004600160036000858152602001908152602001600020540381548110612d3557fe5b90600052602060002090600702016040518060e0016040529081600082015481526020016001820160009054906101000a900473ffffffffffffffffffffffffffffffffffffffff1673ffffffffffffffffffffffffffffffffffffffff1673ffffffffffffffffffffffffffffffffffffffff1681526020016002820160009054906101000a900473ffffffffffffffffffffffffffffffffffffffff1673ffffffffffffffffffffffffffffffffffffffff1673ffffffffffffffffffffffffffffffffffffffff168152602001600382018054600181600116156101000203166002900480601f016020809104026020016040519081016040528092919081815260200182805460018160011615610100020316600290048015612e9d5780601f10612e7257610100808354040283529160200191612e9d565b820191906000526020600020905b815481529060010190602001808311612e8057829003601f168201915b50505050508152602001600482018054600181600116156101000203166002900480601f016020809104026020016040519081016040528092919081815260200182805460018160011615610100020316600290048015612f3f5780601f10612f1457610100808354040283529160200191612f3f565b820191906000526020600020905b815481529060010190602001808311612f2257829003601f168201915b50505050508152602001600582018054600181600116156101000203166002900480601f016020809104026020016040519081016040528092919081815260200182805460018160011615610100020316600290048015612fe15780601f10612fb657610100808354040283529160200191612fe1565b820191906000526020600020905b815481529060010190602001808311612fc457829003601f168201915b505050505081526020016006820154815250509050919050565b60606000600960003373ffffffffffffffffffffffffffffffffffffffff1673ffffffffffffffffffffffffffffffffffffffff168152602001908152602001600020541415613080576040517f08c379a0000000000000000000000000000000000000000000000000000000008152600401613077906156af565b60405180910390fd5b6004805480602002602001604051908101604052809291908181526020016000905b8282101561337a57838290600052602060002090600702016040518060e0016040529081600082015481526020016001820160009054906101000a900473ffffffffffffffffffffffffffffffffffffffff1673ffffffffffffffffffffffffffffffffffffffff1673ffffffffffffffffffffffffffffffffffffffff1681526020016002820160009054906101000a900473ffffffffffffffffffffffffffffffffffffffff1673ffffffffffffffffffffffffffffffffffffffff1673ffffffffffffffffffffffffffffffffffffffff168152602001600382018054600181600116156101000203166002900480601f0160208091040260200160405190810160405280929190818152602001828054600181600116156101000203166002900480156132145780601f106131e957610100808354040283529160200191613214565b820191906000526020600020905b8154815290600101906020018083116131f757829003601f168201915b50505050508152602001600482018054600181600116156101000203166002900480601f0160208091040260200160405190810160405280929190818152602001828054600181600116156101000203166002900480156132b65780601f1061328b576101008083540402835291602001916132b6565b820191906000526020600020905b81548152906001019060200180831161329957829003601f168201915b50505050508152602001600582018054600181600116156101000203166002900480601f0160208091040260200160405190810160405280929190818152602001828054600181600116156101000203166002900480156133585780601f1061332d57610100808354040283529160200191613358565b820191906000526020600020905b81548152906001019060200180831161333b57829003601f168201915b50505050508152602001600682015481525050815260200190600101906130a2565b50505050905090565b600080600360008481526020019081526020016000205414156133db576040517f08c379a00000000000000000000000000000000000000000000000000000000081526004016133d29061564f565b60405180910390fd5b60016003600084815260200190815260200160002054039050919050565b60606000600960003373ffffffffffffffffffffffffffffffffffffffff1673ffffffffffffffffffffffffffffffffffffffff16815260200190815260200160002054141561347e576040517f08c379a0000000000000000000000000000000000000000000000000000000008152600401613475906156af565b60405180910390fd5b6001805480602002602001604051908101604052809291908181526020016000905b8282101561394d5783829060005260206000209060080201604051806101000160405290816000820160009054906101000a900473ffffffffffffffffffffffffffffffffffffffff1673ffffffffffffffffffffffffffffffffffffffff1673ffffffffffffffffffffffffffffffffffffffff168152602001600182018054600181600116156101000203166002900480601f0160208091040260200160405190810160405280929190818152602001828054600181600116156101000203166002900480156135b35780601f10613588576101008083540402835291602001916135b3565b820191906000526020600020905b81548152906001019060200180831161359657829003601f168201915b50505050508152602001600282018054600181600116156101000203166002900480601f0160208091040260200160405190810160405280929190818152602001828054600181600116156101000203166002900480156136555780601f1061362a57610100808354040283529160200191613655565b820191906000526020600020905b81548152906001019060200180831161363857829003601f168201915b50505050508152602001600382018054600181600116156101000203166002900480601f0160208091040260200160405190810160405280929190818152602001828054600181600116156101000203166002900480156136f75780601f106136cc576101008083540402835291602001916136f7565b820191906000526020600020905b8154815290600101906020018083116136da57829003601f168201915b50505050508152602001600482018054600181600116156101000203166002900480601f0160208091040260200160405190810160405280929190818152602001828054600181600116156101000203166002900480156137995780601f1061376e57610100808354040283529160200191613799565b820191906000526020600020905b81548152906001019060200180831161377c57829003601f168201915b50505050508152602001600582018054600181600116156101000203166002900480601f01602080910402602001604051908101604052809291908181526020018280546001816001161561010002031660029004801561383b5780601f106138105761010080835404028352916020019161383b565b820191906000526020600020905b81548152906001019060200180831161381e57829003601f168201915b50505050508152602001600682018054600181600116156101000203166002900480601f0160208091040260200160405190810160405280929190818152602001828054600181600116156101000203166002900480156138dd5780601f106138b2576101008083540402835291602001916138dd565b820191906000526020600020905b8154815290600101906020018083116138c057829003601f168201915b505050505081526020016007820180548060200260200160405190810160405280929190818152602001828054801561393557602002820191906000526020600020905b815481526020019060010190808311613921575b505050505081525050815260200190600101906134a0565b50505050905090565b60008060003373ffffffffffffffffffffffffffffffffffffffff1673ffffffffffffffffffffffffffffffffffffffff1681526020019081526020016000205414156139d8576040517f08c379a00000000000000000000000000000000000000000000000000000000081526004016139cf906155af565b60405180910390fd5b60008060003373ffffffffffffffffffffffffffffffffffffffff1673ffffffffffffffffffffffffffffffffffffffff168152602001908152602001600020541415613a5a576040517f08c379a0000000000000000000000000000000000000000000000000000000008152600401613a519061562f565b60405180910390fd5b6000600a60008773ffffffffffffffffffffffffffffffffffffffff1673ffffffffffffffffffffffffffffffffffffffff168152602001908152602001600020541415613add576040517f08c379a0000000000000000000000000000000000000000000000000000000008152600401613ad4906155ef565b60405180910390fd5b6000338686868686604051602001613afa96959493929190615273565b604051602081830303815290604052805190602001209050600860008154809291906001019190505550600160078054905001600660008381526020019081526020016000208190555060076040518060e001604052808381526020013373ffffffffffffffffffffffffffffffffffffffff1681526020018873ffffffffffffffffffffffffffffffffffffffff1681526020018781526020018681526020018581526020018481525090806001815401808255809150506001900390600052602060002090600702016000909190919091506000820151816000015560208201518160010160006101000a81548173ffffffffffffffffffffffffffffffffffffffff021916908373ffffffffffffffffffffffffffffffffffffffff16021790555060408201518160020160006101000a81548173ffffffffffffffffffffffffffffffffffffffff021916908373ffffffffffffffffffffffffffffffffffffffff1602179055506060820151816003019080519060200190613c82929190614182565b506080820151816004019080519060200190613c9f929190614182565b5060a0820151816005019080519060200190613cbc929190614182565b5060c0820151816006015550507f2af1e75a3d834b77fa1b758eb75b9dd0d5445d40fe11ad4f71eec52c77ae812c33604051613cf8919061533b565b60405180910390a1505050505050565b60008190505b6001838054905003811015613ebe57826001820181548110613d2c57fe5b9060005260206000209060070201838281548110613d4657fe5b9060005260206000209060070201600082015481600001556001820160009054906101000a900473ffffffffffffffffffffffffffffffffffffffff168160010160006101000a81548173ffffffffffffffffffffffffffffffffffffffff021916908373ffffffffffffffffffffffffffffffffffffffff1602179055506002820160009054906101000a900473ffffffffffffffffffffffffffffffffffffffff168160020160006101000a81548173ffffffffffffffffffffffffffffffffffffffff021916908373ffffffffffffffffffffffffffffffffffffffff16021790555060038201816003019080546001816001161561010002031660029004613e53929190614092565b5060048201816004019080546001816001161561010002031660029004613e7b929190614092565b5060058201816005019080546001816001161561010002031660029004613ea3929190614092565b50600682015481600601559050508080600101915050613d0e565b5081600183805490500381548110613ed257fe5b90600052602060002090600702016000808201600090556001820160006101000a81549073ffffffffffffffffffffffffffffffffffffffff02191690556002820160006101000a81549073ffffffffffffffffffffffffffffffffffffffff0219169055600382016000613f47919061425d565b600482016000613f57919061425d565b600582016000613f67919061425d565b6006820160009055505081805480613f7b57fe5b60019003818190600052602060002090600702016000808201600090556001820160006101000a81549073ffffffffffffffffffffffffffffffffffffffff02191690556002820160006101000a81549073ffffffffffffffffffffffffffffffffffffffff0219169055600382016000613ff6919061425d565b600482016000614006919061425d565b600582016000614016919061425d565b6006820160009055505090555050565b6040518060e0016040528060008019168152602001600073ffffffffffffffffffffffffffffffffffffffff168152602001600073ffffffffffffffffffffffffffffffffffffffff168152602001606081526020016060815260200160608152602001600081525090565b828054600181600116156101000203166002900490600052602060002090601f0160209004810192826140c85760008555614116565b82601f106140d95780548555614116565b8280016001018555821561411657600052602060002091601f016020900482015b828111156141155782548255916001019190600101906140fa565b5b50905061412391906142a5565b5090565b604051806101000160405280600073ffffffffffffffffffffffffffffffffffffffff168152602001606081526020016060815260200160608152602001606081526020016060815260200160608152602001606081525090565b828054600181600116156101000203166002900490600052602060002090601f0160209004810192826141b857600085556141ff565b82601f106141d157805160ff19168380011785556141ff565b828001600101855582156141ff579182015b828111156141fe5782518255916020019190600101906141e3565b5b50905061420c91906142a5565b5090565b82805482825590600052602060002090810192821561424c579160200282015b8281111561424b578251825591602001919060010190614230565b5b50905061425991906142c2565b5090565b50805460018160011615610100020316600290046000825580601f1061428357506142a2565b601f0160209004906000526020600020908101906142a191906142a5565b5b50565b5b808211156142be5760008160009055506001016142a6565b5090565b5b808211156142db5760008160009055506001016142c3565b5090565b60006142f26142ed8461577f565b61574e565b9050808382526020820190508285602086028201111561431157600080fd5b60005b85811015614341578161432788826143c8565b845260208401935060208301925050600181019050614314565b5050509392505050565b600061435e614359846157ab565b61574e565b90508281526020810184848401111561437657600080fd5b614381848285615969565b509392505050565b60008135905061439881615a0b565b92915050565b600082601f8301126143af57600080fd5b81356143bf8482602086016142df565b91505092915050565b6000813590506143d781615a22565b92915050565b600082601f8301126143ee57600080fd5b81356143fe84826020860161434b565b91505092915050565b60008135905061441681615a39565b92915050565b60006020828403121561442e57600080fd5b600061443c84828501614389565b91505092915050565b60008060008060008060c0878903121561445e57600080fd5b600061446c89828a01614389565b965050602061447d89828a01614389565b955050604087013567ffffffffffffffff81111561449a57600080fd5b6144a689828a016143dd565b945050606087013567ffffffffffffffff8111156144c357600080fd5b6144cf89828a016143dd565b935050608087013567ffffffffffffffff8111156144ec57600080fd5b6144f889828a016143dd565b92505060a061450989828a01614407565b9150509295509295509295565b600080600080600080600080610100898b03121561453357600080fd5b60006145418b828c01614389565b985050602089013567ffffffffffffffff81111561455e57600080fd5b61456a8b828c016143dd565b975050604089013567ffffffffffffffff81111561458757600080fd5b6145938b828c016143dd565b965050606089013567ffffffffffffffff8111156145b057600080fd5b6145bc8b828c016143dd565b955050608089013567ffffffffffffffff8111156145d957600080fd5b6145e58b828c016143dd565b94505060a089013567ffffffffffffffff81111561460257600080fd5b61460e8b828c016143dd565b93505060c089013567ffffffffffffffff81111561462b57600080fd5b6146378b828c016143dd565b92505060e089013567ffffffffffffffff81111561465457600080fd5b6146608b828c0161439e565b9150509295985092959890939650565b600080600080600060a0868803121561468857600080fd5b600061469688828901614389565b955050602086013567ffffffffffffffff8111156146b357600080fd5b6146bf888289016143dd565b945050604086013567ffffffffffffffff8111156146dc57600080fd5b6146e8888289016143dd565b935050606086013567ffffffffffffffff81111561470557600080fd5b614711888289016143dd565b925050608061472288828901614407565b9150509295509295909350565b60006020828403121561474157600080fd5b600061474f848285016143c8565b91505092915050565b60006020828403121561476a57600080fd5b600061477884828501614407565b91505092915050565b600061478d83836149d1565b60208301905092915050565b60006147a58383614f36565b905092915050565b60006147b9838361508a565b905092915050565b6147ca81615933565b82525050565b6147e16147dc826158e1565b6159bd565b82525050565b6147f0816158cf565b82525050565b6147ff816158cf565b82525050565b614816614811826158cf565b6159ab565b82525050565b60006148278261580b565b614831818561585e565b935061483c836157db565b8060005b8381101561486d5781516148548882614781565b975061485f83615837565b925050600181019050614840565b5085935050505092915050565b60006148858261580b565b61488f818561586f565b935061489a836157db565b8060005b838110156148cb5781516148b28882614781565b97506148bd83615837565b92505060018101905061489e565b5085935050505092915050565b60006148e382615816565b6148ed8185615880565b9350836020820285016148ff856157eb565b8060005b8581101561493b578484038952815161491c8582614799565b945061492783615844565b925060208a01995050600181019050614903565b50829750879550505050505092915050565b600061495882615821565b6149628185615891565b935083602082028501614974856157fb565b8060005b858110156149b0578484038952815161499185826147ad565b945061499c83615851565b925060208a01995050600181019050614978565b50829750879550505050505092915050565b6149cb816158f3565b82525050565b6149da816158ff565b82525050565b6149e9816158ff565b82525050565b60006149fa8261582c565b614a0481856158a2565b9350614a14818560208601615978565b614a1d816159ed565b840191505092915050565b6000614a338261582c565b614a3d81856158b3565b9350614a4d818560208601615978565b614a56816159ed565b840191505092915050565b6000614a6c8261582c565b614a7681856158c4565b9350614a86818560208601615978565b80840191505092915050565b6000614a9f6010836158b3565b91507f497373756572206e6f7420666f756e64000000000000000000000000000000006000830152602082019050919050565b6000614adf602a836158b3565b91507f596f752070726f766964656420616e20696e76616c6964206469706c6f6d612060008301527f6964656e746966696572000000000000000000000000000000000000000000006020830152604082019050919050565b6000614b45601f836158b3565b91507f4f6e6c79206f776e6572206f722061646d696e2061726520616c6c6f776564006000830152602082019050919050565b6000614b856024836158b3565b91507f416e206973737565722063616e6e6f7420656e726f6c6c20617320612073747560008301527f64656e74000000000000000000000000000000000000000000000000000000006020830152604082019050919050565b6000614beb6027836158b3565b91507f596f752070726f766964656420616e20696e76616c69642073747564656e742060008301527f61646472657373000000000000000000000000000000000000000000000000006020830152604082019050919050565b6000614c516011836158b3565b91507f53747564656e74206e6f7420666f756e640000000000000000000000000000006000830152602082019050919050565b6000614c916023836158b3565b91507f416e2061646d696e2063616e6e6f7420656e726f6c6c2061732061207374756460008301527f656e7400000000000000000000000000000000000000000000000000000000006020830152604082019050919050565b6000614cf76015836158b3565b91507f49737375657220646f6573206e6f7420657869737400000000000000000000006000830152602082019050919050565b6000614d376016836158b3565b91507f4469706c6f6d6120616c726561647920657869737473000000000000000000006000830152602082019050919050565b6000614d776016836158b3565b91507f53747564656e7420646f6573206e6f74206578697374000000000000000000006000830152602082019050919050565b6000614db76016836158b3565b91507f4469706c6f6d6120646f6573206e6f74206578697374000000000000000000006000830152602082019050919050565b6000614df76035836158b3565b91507f4469706c6f6d612072657175657374206973206e6f742072656769737465726560008301527f64206f7220686173206265656e2072656d6f76656400000000000000000000006020830152604082019050919050565b6000614e5d6016836158b3565b91507f53747564656e7420616c726561647920657869737473000000000000000000006000830152602082019050919050565b6000614e9d600f836158b3565b91507f41646d696e206e6f7420666f756e6400000000000000000000000000000000006000830152602082019050919050565b6000614edd6031836158b3565b91507f596f752063616e6e6f74206164642061206469706c6f6d61206973737565642060008301527f627920736f6d656f6e6520656c73652e2e0000000000000000000000000000006020830152604082019050919050565b600060e083016000830151614f4e60008601826149d1565b506020830151614f6160208601826147e7565b506040830151614f7460408601826147e7565b5060608301518482036060860152614f8c82826149ef565b91505060808301518482036080860152614fa682826149ef565b91505060a083015184820360a0860152614fc082826149ef565b91505060c0830151614fd560c086018261523e565b508091505092915050565b600060e083016000830151614ff860008601826149d1565b50602083015161500b60208601826147e7565b50604083015161501e60408601826147e7565b506060830151848203606086015261503682826149ef565b9150506080830151848203608086015261505082826149ef565b91505060a083015184820360a086015261506a82826149ef565b91505060c083015161507f60c086018261523e565b508091505092915050565b6000610100830160008301516150a360008601826147e7565b50602083015184820360208601526150bb82826149ef565b915050604083015184820360408601526150d582826149ef565b915050606083015184820360608601526150ef82826149ef565b9150506080830151848203608086015261510982826149ef565b91505060a083015184820360a086015261512382826149ef565b91505060c083015184820360c086015261513d82826149ef565b91505060e083015184820360e0860152615157828261481c565b9150508091505092915050565b60006101008301600083015161517d60008601826147e7565b506020830151848203602086015261519582826149ef565b915050604083015184820360408601526151af82826149ef565b915050606083015184820360608601526151c982826149ef565b915050608083015184820360808601526151e382826149ef565b91505060a083015184820360a08601526151fd82826149ef565b91505060c083015184820360c086015261521782826149ef565b91505060e083015184820360e0860152615231828261481c565b9150508091505092915050565b61524781615929565b82525050565b61525681615929565b82525050565b61526d61526882615929565b6159e1565b82525050565b600061527f82896147d0565b60148201915061528f8288614805565b60148201915061529f8287614a61565b91506152ab8286614a61565b91506152b78285614a61565b91506152c3828461525c565b602082019150819050979650505050505050565b60006152e38289614805565b6014820191506152f38288614805565b6014820191506153038287614a61565b915061530f8286614a61565b915061531b8285614a61565b9150615327828461525c565b602082019150819050979650505050505050565b600060208201905061535060008301846147c1565b92915050565b600060e08201905061536b600083018a6147f6565b818103602083015261537d8189614a28565b905081810360408301526153918188614a28565b905081810360608301526153a58187614a28565b905081810360808301526153b98186614a28565b905081810360a08301526153cd8185614a28565b905081810360c08301526153e18184614a28565b905098975050505050505050565b60006020820190508181036000830152615409818461487a565b905092915050565b6000602082019050818103600083015261542b81846148d8565b905092915050565b6000602082019050818103600083015261544d818461494d565b905092915050565b600060208201905061546a60008301846149c2565b92915050565b600060208201905061548560008301846149e0565b92915050565b600060e0820190506154a0600083018a6149e0565b6154ad60208301896147f6565b6154ba60408301886147f6565b81810360608301526154cc8187614a28565b905081810360808301526154e08186614a28565b905081810360a08301526154f48185614a28565b905061550360c083018461524d565b98975050505050505050565b6000602082019050818103600083015261552881614a92565b9050919050565b6000602082019050818103600083015261554881614ad2565b9050919050565b6000602082019050818103600083015261556881614b38565b9050919050565b6000602082019050818103600083015261558881614b78565b9050919050565b600060208201905081810360008301526155a881614bde565b9050919050565b600060208201905081810360008301526155c881614c44565b9050919050565b600060208201905081810360008301526155e881614c84565b9050919050565b6000602082019050818103600083015261560881614cea565b9050919050565b6000602082019050818103600083015261562881614d2a565b9050919050565b6000602082019050818103600083015261564881614d6a565b9050919050565b6000602082019050818103600083015261566881614daa565b9050919050565b6000602082019050818103600083015261568881614dea565b9050919050565b600060208201905081810360008301526156a881614e50565b9050919050565b600060208201905081810360008301526156c881614e90565b9050919050565b600060208201905081810360008301526156e881614ed0565b9050919050565b600060208201905081810360008301526157098184614fe0565b905092915050565b6000602082019050818103600083015261572b8184615164565b905092915050565b6000602082019050615748600083018461524d565b92915050565b6000604051905081810181811067ffffffffffffffff82111715615775576157746159eb565b5b8060405250919050565b600067ffffffffffffffff82111561579a576157996159eb565b5b602082029050602081019050919050565b600067ffffffffffffffff8211156157c6576157c56159eb565b5b601f19601f8301169050602081019050919050565b6000819050602082019050919050565b6000819050602082019050919050565b6000819050602082019050919050565b600081519050919050565b600081519050919050565b600081519050919050565b600081519050919050565b6000602082019050919050565b6000602082019050919050565b6000602082019050919050565b600082825260208201905092915050565b600082825260208201905092915050565b600082825260208201905092915050565b600082825260208201905092915050565b600082825260208201905092915050565b600082825260208201905092915050565b600081905092915050565b60006158da82615909565b9050919050565b60006158ec82615909565b9050919050565b60008115159050919050565b6000819050919050565b600073ffffffffffffffffffffffffffffffffffffffff82169050919050565b6000819050919050565b600061593e82615945565b9050919050565b600061595082615957565b9050919050565b600061596282615909565b9050919050565b82818337600083830152505050565b60005b8381101561599657808201518184015260208101905061597b565b838111156159a5576000848401525b50505050565b60006159b6826159cf565b9050919050565b60006159c8826159cf565b9050919050565b60006159da826159fe565b9050919050565b6000819050919050565bfe5b6000601f19601f8301169050919050565b60008160601b9050919050565b615a14816158cf565b8114615a1f57600080fd5b50565b615a2b816158ff565b8114615a3657600080fd5b50565b615a4281615929565b8114615a4d57600080fd5b5056fea26469706673582212206d391c12a62fda35b09b67cd73fe84327175ac49384c4236fd4137908ed3f58364736f6c63430007060033",
  "immutableReferences": {},
  "source": "// SPDX-License-Identifier: MIT\npragma solidity ^0.7.0;\npragma experimental ABIEncoderV2;\n\ncontract Diplomachain {\n    struct Diploma {\n        bytes32 id;\n        address owner;\n        address issuer;\n        string speciality;\n        string honors;\n        string title;\n        uint256 dateObtained; // timestamps format\n    }\n\n    struct Student {\n        address id;\n        string firstName;\n        string lastName;\n        string email;\n        string nationality;\n        string phoneNumber;\n        string gender;\n        bytes32[] diplomas;\n    }\n\n    mapping(address => uint256) private studentsIndexes;\n    Student[] public students;\n    uint256 public studentsCount;\n\n    // we can know if a diploma exists or not\n    mapping(bytes32 => uint256) public diplomasIndexes;\n    Diploma[] public diplomas;\n    uint256 public diplomasCount;\n    mapping(bytes32 => uint256) public pendingDiplomasIndexes;\n    Diploma[] public pendingDiplomas;\n    uint256 public pendingDiplomasCount;\n\n    // Let's say we have multiple universities, so it's a good practice to define admins addresses for now\n    mapping(address => uint256) public adminsIndexes;\n\n    // Since every diploma will be issued by a university club, we need to have issuersIndexes\n    mapping(address => uint256) public issuersIndexes;\n\n    constructor() {\n        studentsCount = 0;\n        diplomasCount = 0;\n        pendingDiplomasCount = 0;\n    }\n\n    // ==========modifiers declaration==========\n    modifier onlyAdmin() {\n        require(adminsIndexes[msg.sender] != 0, \"Admin not found\");\n        _;\n    }\n    modifier onlyStudent() {\n        require(studentsIndexes[msg.sender] != 0, \"Student not found\");\n        _;\n    }\n    modifier onlyIssuer() {\n        require(issuersIndexes[msg.sender] != 0, \"Issuer not found\");\n        _;\n    }\n\n    // ==========events definition==========\n    event LogRequestDiploma(address studentId);\n    event LogAddDiploma(bytes32 diplomaId);\n\n    // ==========Functions definition==========\n    // verifyDiploma()\n    function verifyDiploma(bytes32 diplomaId) public view returns (Diploma memory){\n        require (diplomasIndexes[diplomaId] != 0, \"You provided an invalid diploma identifier\");\n        return diplomas[diplomasIndexes[diplomaId] - 1];\n    }\n    // getDiploma() : for now, verifyDiploma() has the same code as getDiploma(), probably we'll remove the other fct\n    function getDiploma(bytes32 diplomaId) public view returns (Diploma memory){\n        require (diplomasIndexes[diplomaId] != 0, \"You provided an invalid diploma identifier\");\n        return diplomas[diplomasIndexes[diplomaId] - 1];\n    }\n    // addStudent()\n    function addStudent(\n        address _id,\n        string memory _firstName,\n        string memory _lastName,\n        string memory _email,\n        string memory _nationality,\n        string memory _phoneNumber,\n        string memory _gender,\n        bytes32[] memory _diplomas\n    ) public onlyAdmin {\n        require(studentsIndexes[_id] == 0, \"Student already exists\");\n        require(adminsIndexes[_id] == 0, \"An admin cannot enroll as a student\");\n        require(issuersIndexes[_id] == 0, \"An issuer cannot enroll as a student\");\n        studentsCount++;\n        studentsIndexes[_id] = students.length + 1;\n        students.push(\n            Student(_id, _firstName, _lastName, _email, _nationality, _phoneNumber, _gender, _diplomas)\n        );\n    }\n    // getStudent()\n    function getStudent(address student_addr) public view returns (Student memory){\n        require (studentsIndexes[student_addr] != 0, \"You provided an invalid student address\");\n        return students[studentsIndexes[student_addr] - 1];\n    }\n    // remove an element from an array and shift to avoid leaving gaps\n    function removeItem(Diploma[] storage array, uint256 index) private {\n        for (uint i = index; i < array.length - 1; i++) {\n            array[i] = array[i + 1];\n        }\n        delete array[array.length - 1];\n        array.pop();\n    }\n    // addDiploma() => when a student requests a diploma, the admin will call this fct to issue it\n    function addDiploma(bytes32 _id) public onlyAdmin {\n        require(diplomasIndexes[_id] == 0, \"Diploma already exists\");\n        require(pendingDiplomasIndexes[_id] != 0, \"Diploma request is not registered or has been removed\");\n        diplomasCount++;\n        diplomasIndexes[_id] = diplomas.length + 1;\n        diplomas.push(\n            pendingDiplomas[pendingDiplomasIndexes[_id] - 1]\n        );\n        // get the student (owner) address\n        address student_adr = pendingDiplomas[pendingDiplomasIndexes[_id] - 1].owner;\n        // add the new diploma id to the student's diplomas ids array\n        students[studentsIndexes[student_adr] - 1].diplomas.push(\n            _id\n        );\n        // remove the diploma from the pending diplomas array\n        removeItem(pendingDiplomas, pendingDiplomasIndexes[_id] - 1);\n        delete pendingDiplomasIndexes[_id];\n        pendingDiplomasCount--;\n        emit LogAddDiploma(_id);\n    }\n    // issueDiploma() => when the issuer himself wants to issue a diploma, he'll be able to do that directly\n    function issueDiploma(\n        address owner,\n        address issuer,\n        string memory _speciality,\n        string memory _honors,\n        string memory _title,\n        uint256 _dateObtained\n    ) public onlyIssuer {\n        require(msg.sender == issuer, \"You cannot add a diploma issued by someone else..\");\n        // generate a unique hash identifier for each diploma\n        bytes32 id = keccak256(abi.encodePacked(owner, issuer, _speciality, _honors, _title, _dateObtained));\n        diplomasCount++;\n        diplomasIndexes[id] = diplomas.length + 1;\n        diplomas.push(\n            Diploma(id, owner, issuer, _speciality, _honors, _title, _dateObtained)\n        );\n        // add the new diploma id to the student's diplomas ids array\n        students[studentsIndexes[owner] - 1].diplomas.push(\n            id\n        );\n        emit LogAddDiploma(id);\n    }\n    // isStudent()\n    function isStudent() public view returns (bool) {\n        return studentsIndexes[msg.sender] != 0;\n    }\n    // isAdmin()\n    function isAdmin() public view returns (bool) {\n        return adminsIndexes[msg.sender] != 0;\n    }\n    // isIssuer()\n    function isIssuer() public view returns (bool) {\n        return issuersIndexes[msg.sender] != 0;\n    }\n    // getStudentIndex()\n    function getStudentIndex(address studentId) public view returns (uint256) {\n        require(studentsIndexes[studentId] != 0, \"Student does not exist\");\n        return studentsIndexes[studentId] - 1;\n    }\n    // getDiplomaIndex()\n    function getDiplomaIndex(bytes32 diplomaId) public view returns (uint256) {\n        require(diplomasIndexes[diplomaId] != 0, \"Diploma does not exist\");\n        return diplomasIndexes[diplomaId] - 1;\n    }\n    // getStudents()\n    function getStudents() public onlyAdmin view returns (Student[] memory) {\n        return students;\n    }\n    // getDiplomas()\n    function getDiplomas() public onlyAdmin view returns (Diploma[] memory) {\n        return diplomas;\n    }\n    // getStudentDiplomasIds()\n    function getStudentDiplomasIds(address studentId) public view returns (bytes32[] memory) {\n        require(studentsIndexes[studentId] != 0, \"Student does not exist\");\n        require(msg.sender == studentId || adminsIndexes[msg.sender] != 0, \"Only owner or admin are allowed\");\n        return students[studentsIndexes[studentId] - 1].diplomas;\n    }\n    // getStudentDiplomas()\n    function getStudentDiplomas(address studentId) public view returns (Diploma[] memory) {\n        require(studentsIndexes[studentId] != 0, \"Student does not exist\");\n        require(msg.sender == studentId || adminsIndexes[msg.sender] != 0, \"Only owner or admin are allowed\");\n        bytes32[] memory diplomas_ids = students[studentsIndexes[studentId] - 1].diplomas;\n        Diploma[] memory full_diplomas = new Diploma[](diplomas_ids.length);\n        for (uint256 i = 0; i < diplomas_ids.length; i++) {\n            full_diplomas[i] = diplomas[diplomasIndexes[diplomas_ids[i]] - 1];\n        }\n        return full_diplomas;\n    }\n    // requestDiploma()\n    function requestDiploma(\n        address issuer,\n        string memory _speciality,\n        string memory _honors,\n        string memory _title,\n        uint256 _dateObtained\n    ) public onlyStudent {\n        require(studentsIndexes[msg.sender] != 0, \"Student does not exist\");\n        require(issuersIndexes[issuer] != 0, \"Issuer does not exist\");\n        // generate a unique hash identifier for each diploma\n        bytes32 id = keccak256(abi.encodePacked(msg.sender, issuer, _speciality, _honors, _title, _dateObtained));\n        pendingDiplomasCount++;\n        pendingDiplomasIndexes[id] = pendingDiplomas.length + 1;\n        pendingDiplomas.push(\n            Diploma(id, msg.sender, issuer, _speciality, _honors, _title, _dateObtained)\n        );\n        emit LogRequestDiploma(msg.sender);\n    }\n}",
  "sourcePath": "/home/cyberjoe/Documents/GitHub/Diplomachain/blockchain/contracts/Diplomachain.sol",
  "compiler": {
    "name": "solc",
    "version": "0.7.6+commit.7338295f.Emscripten.clang"
  },
  "schemaVersion": "3.3.3",
  "updatedAt": "2021-01-01T11:36:03.329Z",
  "devdoc": {
    "kind": "dev",
    "methods": {},
    "version": 1
  },
  "userdoc": {
    "kind": "user",
    "methods": {},
    "version": 1
  }
}